:020000040000FA
:0400000043EF01F0D9
:0600080066820BED0CF016
:100018006680D8CF43F0E8CF44F0E0CF45F0F0A6B3
:1000280018EF00F01AEF00F023EF00F0F0A01FEF38
:1000380000F021EF00F023EF00F0CDEC10F0F2A675
:1000480028EF00F02AEF00F043EF00F0F2A02FEFC6
:1000580000F031EF00F043EF00F081A836EF00F038
:1000680038EF00F043EF00F052A03DEF00F03FEF13
:1000780000F043EF00F05290010EB6EC10F0F2A63B
:1000880048EF00F04AEF00F063EF00F0F2A04FEF06
:1000980000F051EF00F063EF00F081B856EF00F088
:1000A80058EF00F063EF00F052B05DEF00F05FEF43
:1000B80000F063EF00F05280000EB6EC10F0F2A6EC
:1000C80068EF00F06AEF00F083EF00F0F2A06FEF46
:1000D80000F071EF00F083EF00F081AA76EF00F0F6
:1000E80078EF00F083EF00F052A27DEF00F07FEF91
:1000F80000F083EF00F05292010EA9EC10F0F2A686
:1001080088EF00F08AEF00F0A3EF00F0F2A08FEF85
:1001180000F091EF00F0A3EF00F081BA96EF00F045
:1001280098EF00F0A3EF00F052B29DEF00F09FEFC0
:1001380000F0A3EF00F05282000EA9EC10F0F2A636
:10014800A8EF00F0AAEF00F0C3EF00F0F2A0AFEFC5
:1001580000F0B1EF00F0C3EF00F081ACB6EF00F0B3
:10016800B8EF00F0C3EF00F052A4BDEF00F0BFEF0E
:1001780000F0C3EF00F05294010E9CEC10F0F2A6D0
:10018800C8EF00F0CAEF00F0E3EF00F0F2A0CFEF05
:1001980000F0D1EF00F0E3EF00F081BCD6EF00F003
:1001A800D8EF00F0E3EF00F052B4DDEF00F0DFEF3E
:1001B80000F0E3EF00F05284000E9CEC10F0F2A681
:1001C800E8EF00F0EAEF00F003EF01F0F2A0EFEF44
:1001D80000F0F1EF00F003EF01F081AEF6EF00F070
:1001E800F8EF00F003EF01F052A6FDEF00F0FFEF8B
:1001F80000F003EF01F05296010E8FEC10F0F2A61A
:1002080008EF01F00AEF01F023EF01F0F2A00FEF81
:1002180001F011EF01F023EF01F081BE16EF01F0BC
:1002280018EF01F023EF01F052B61DEF01F01FEFB8
:1002380001F023EF01F05286000E8FEC10F09DAC18
:1002480028EF01F02AEF01F033EF01F09EAC2FEF19
:1002580001F031EF01F033EF01F0CFEC10F09DA089
:1002680038EF01F03AEF01F03BEF01F09E5045C046
:10027800E0FF44C0E8FF43C0D8FF6690100051EF8C
:020288000FF075
:101000000041542B554152543A393630302C302C53
:10101000300D0A0041542B524E414D453A526F62F9
:101020006F740D0A00202020202020202020202066
:101030002020200041542B505357443A313233344E
:101040000D0A0041542B524F4C453A300D0A0068AE
:10105000756D653A0074656D703A002D3E2000256F
:1010600066002569002E00300031000081EC10F090
:10107000530E0001C06F000EC16F010EC26F010E52
:10108000C36F250EC46F100EC56F2BEC0EF0530E00
:101090000001C06F000EC16F020EC26F010EC36F60
:1010A000250EC46F100EC56F2BEC0EF0530E000111
:1010B000C06F000EC16F020EC26F010EC36F5B0ED8
:1010C000C46F100EC56F2BEC0EF0650E466E000E51
:1010D000476E010E486EE8EC0AF00B0E0001C86F77
:1010E000260EC76F5D0EE82EFED7C72FFCD7C82F80
:1010F000FAD700D0650E466E000E476EE6EC0EF095
:10110000060E0001C86F130EC76FAD0EE82EFED796
:10111000C72FFCD7C82FFAD700D02C0E0001B26F12
:10112000000EB36F2B0EB46F000EB56F2A0EB66FA4
:10113000000EB76F290EB86F000EB96F280EBA6F88
:10114000000EBB6F91EC0DF0530E0001C06F000E4E
:10115000C16F010EC26F010EC36F4F0EC46F100E30
:10116000C56F2BEC0EF0530E0001C06F000EC16F67
:10117000010EC26F060EC36F2CC046F0476A000E08
:10118000496E0A0E486E7EEC0CF04650300F00019E
:10119000C46FF3EC0FF0530E0001C06F000EC16F6F
:1011A000010EC26F070EC36F2CC046F0476A000ED7
:1011B000496E0A0E486E39EC0DF04650300F0001B2
:1011C000C46FF3EC0FF0530E0001C06F000EC16F3F
:1011D000010EC26F080EC36F650EC46F100EC56F8F
:1011E0002BEC0EF0530E0001C06F000EC16F010E0C
:1011F000C26F090EC36F2BC046F0476A000E496EDE
:101200000A0E486E7EEC0CF04650300F0001C46FA1
:10121000F3EC0FF0530E0001C06F000EC16F020E11
:10122000C26F010EC36F550EC46F100EC56F2BEC4D
:101230000EF0530E0001C06F000EC16F020EC26FA0
:10124000060EC36F2AC046F0476A000E496E0A0EAA
:10125000486E7EEC0CF04650300F0001C46FF3EC8A
:101260000FF0530E0001C06F000EC16F020EC26F6F
:10127000070EC36F2AC046F0476A000E496E0A0E79
:10128000486E39EC0DF04650300F0001C46FF3EC9E
:101290000FF0530E0001C06F000EC16F020EC26F3F
:1012A000080EC36F650EC46F100EC56F2BEC0EF0E9
:1012B000530E0001C06F000EC16F020EC26F090E07
:1012C000C36F29C046F0476A000E496E0A0E486E89
:1012D0007EEC0CF04650300F0001C46FF3EC0FF0C1
:1012E0002B502CC0C7F00001C86BC727000EC823C5
:1012F0002A50C727000EC8232950C727000EC8232D
:10130000C7512818D8A487EF09F089EF09F099EFA1
:1013100009F0530EC06F000EC16F020EC26F0D0EAA
:10132000C36F690EC46F100EC56F2BEC0EF07AEF11
:1013300008F0530EC06F000EC16F020EC26F0D0E8B
:10134000C36F670EC46F100EC56F2BEC0EF07AEFF3
:1013500008F043EF01F0010E4E6E46504710D8B42E
:10136000B4EF09F0B6EF09F0C5EF09F046C0D9FFB8
:1013700047C0DAFFDF50070B486E070E4864C3EF23
:1013800009F0C5EF09F028EF0AF0000E4E6E49EFA4
:101390000AF046C0D9FF47C0DAFFDF50070B486E9E
:1013A000010E496E482AD7EF09F0D8904936482EE9
:1013B000D5EF09F04950FF0A4A6E46C0D9FF47C031
:1013C000DAFFDF30E832E832070B4B6E4B50020D8C
:1013D000940EF324D96E000EF420DA6EDECF4CF0BA
:1013E000DDCF4DF04CC0D9FF4DC0DAFF4A50DF16BB
:1013F00049EF0AF046C0D9FF47C0DAFFDF50070BBC
:10140000486E010E496E482A08EF0AF0D890493616
:10141000482E06EF0AF046C0D9FF47C0DAFFDF309A
:10142000E832E832070B4A6E4A50020D940EF3245C
:10143000D96E000EF420DA6EDECF4BF0DDCF4CF02B
:101440004BC0D9FF4CC0DAFF4950DF1249EF0AF018
:1014500046C0D9FF47C0DAFFDFBC31EF0AF034EFF6
:101460000AF0010E35EF0AF0000E486E496A495045
:10147000000AD8B43EEF0AF0C5EF09F04850000A60
:10148000D8B4C9EF09F0010AD8B4FAEF09F0C5EFF2
:1014900009F04E5012000001B951BA11D8A453EF0F
:1014A0000AF055EF0AF057EF0AF0E7EF0AF0B9C07B
:1014B00050F0BAC051F082EC0FF0010E0001B925D6
:1014C000506E000EBA21516E82EC0FF0000E00013A
:1014D000BD6FBD51B925BB6F000EBA21BC6F020EA6
:1014E000BB25506E000EBC21516E82EC0FF0000146
:1014F000BD2B030EBD657FEF0AF081EF0AF069EFA7
:101500000AF0340E0001BB6FF10EE82EFED7BB2FA0
:10151000FCD700D0B9C0B5F0BAC0B6F0380E0001A3
:10152000B76FAEEC0EF00D0E0001BB6FFB0EE82E98
:10153000FED7BB2FFCD700D0B9C0B5F0BAC0B6F00B
:10154000380E0001B76FAEEC0EF0640EE82EFED739
:10155000B9C0B5F0BAC0B6F0380E0001B76FAEEC46
:101560000EF0B9C0B5F0BAC0B6F0010E0001B76F09
:10157000AEEC0EF0B9C0B5F0BAC0B6F0020E000184
:10158000B76FAEEC0EF0B9C0B5F0BAC0B6F0060E4B
:101590000001B76FAEEC0EF0B9C0B5F0BAC0B6F04E
:1015A0000D0E0001B76FAEEC0EF0B9C0B5F0BAC0C9
:1015B000B6F0280E0001B76FAEEC0EF0B9C0B5F072
:1015C000BAC0B6F0800E0001B76FAEEC0EF012009C
:1015D000010E4F6E46504710D8B4F1EF0AF0F3EF0A
:1015E0000AF002EF0BF046C0D9FF47C0DAFFDF5028
:1015F000070B496E070E496400EF0BF002EF0BF08A
:1016000065EF0BF0000E4F6E7AEF0BF046C0D9FF7E
:1016100047C0DAFFDF50070B496E010E4A6E492AB8
:1016200014EF0BF0D8904A36492E12EF0BF04A50C7
:10163000FF0A4B6E46C0D9FF47C0DAFFDF30E83201
:10164000E832070B4C6E4C50020D8A0EF324D96E13
:10165000000EF420DA6EDECF4DF0DDCF4EF04DC03F
:10166000D9FF4EC0DAFF4B50DF167AEF0BF046C0C1
:10167000D9FF47C0DAFFDF50070B496E010E4A6EF3
:10168000492A45EF0BF0D8904A36492E43EF0BF02C
:1016900046C0D9FF47C0DAFFDF30E832E832070B37
:1016A0004B6E4B50020D8A0EF324D96E000EF420BF
:1016B000DA6EDECF4CF0DDCF4DF04CC0D9FF4DC01F
:1016C000DAFF4A50DF127AEF0BF04850496E4A6A4F
:1016D0004A50000AD8B46FEF0BF002EF0BF04950FC
:1016E000000AD8B406EF0BF0010AD8B437EF0BF0BC
:1016F00002EF0BF04F5012002D502E10D8B483EF94
:101700000BF085EF0BF094EF0BF02DC0D9FF2EC03E
:10171000DAFFDF50070B306E070E306492EF0BF0EC
:1017200094EF0BF0F5EF0BF00AEF0CF02DC0D9FFA2
:101730002EC0DAFFDF50070B306E010E316E302AFB
:10174000A4EF0BF0D8903136302EA2EF0BF03150D1
:10175000FF0A326E2DC0D9FF2EC0DAFFDF30E8322B
:10176000E832070B336E3350020D8A0EF324D96E24
:10177000000EF420DA6EDECF34F0DDCF35F034C069
:10178000D9FF35C0DAFF3250DF160AEF0CF02DC05A
:10179000D9FF2EC0DAFFDF50070B306E010E316E1D
:1017A000302AD5EF0BF0D8903136302ED3EF0BF036
:1017B0002DC0D9FF2EC0DAFFDF30E832E832070B48
:1017C000326E3250020D8A0EF324D96E000EF420D0
:1017D000DA6EDECF33F0DDCF34F033C0D9FF34C062
:1017E000DAFF3150DF120AEF0CF02F50306E316A01
:1017F0003150000AD8B4FFEF0BF094EF0BF03050EB
:10180000000AD8B496EF0BF0010AD8B4C7EF0BF07A
:1018100094EF0BF012000600FACF3CF0FBCF3DF046
:10182000D9CF3EF0DACF3FF0F3CF40F0F4CF41F024
:10183000F2AA1DEF0CF01FEF0CF028EF0CF0F2A451
:1018400024EF0CF026EF0CF028EF0CF0AAEC0FF0D0
:101850009DA22DEF0CF02FEF0CF030EF0CF09E500E
:10186000A0A235EF0CF037EF0CF038EF0CF0A150E0
:10187000A0A03DEF0CF03FEF0CF040EF0CF0A150BA
:101880009DAA45EF0CF047EF0CF050EF0CF09EAA2C
:101890004CEF0CF04EEF0CF050EF0CF0D1EC10F0E0
:1018A0009DA855EF0CF057EF0CF060EF0CF09EA8E0
:1018B0005CEF0CF05EEF0CF060EF0CF0D0EC10F091
:1018C000A0A665EF0CF067EF0CF068EF0CF0A150EC
:1018D0009DA66DEF0CF06FEF0CF070EF0CF09E50CA
:1018E00041C0F4FF40C0F3FF3FC0DAFF3EC0D9FF64
:1018F0003DC0FBFF3CC0FAFF66921100000E4B6E2C
:1019000049BE87EF0CF085EF0CF08DEF0CF0486CC2
:10191000491ED8B0492A010E4B6E47BE94EF0CF019
:1019200092EF0CF09AEF0CF0466C471ED8B0472AA5
:10193000010E4B1A000E4D6E000E4C6E48504910B1
:10194000D8B4A5EF0CF0A7EF0CF0CFEF0CF0010E20
:101950004A6EAFEF0CF0D890483649364A2A49AE65
:10196000B4EF0CF0B6EF0CF0ABEF0CF0D8904C36B7
:101970004D364850465C49504758D8A0C2EF0CF04D
:10198000C4EF0CF0C9EF0CF04850465E4950475A7E
:101990004C80D890493248324A2EB6EF0CF04B506A
:1019A000D8B4D5EF0CF0D7EF0CF0DBEF0CF04C6CAB
:1019B0004D1ED8B04D2A4CC046F04DC047F0120025
:1019C0000001B951BA11D8A4E8EF0CF0EAEF0CF01D
:1019D000ECEF0CF038EF0DF0BC071BEF0DF0B9C0C9
:1019E000B5F0BAC0B6F0BC51800FB76FAEEC0EF0D8
:1019F00038EF0DF0B9C0B5F0BAC0B6F0BC51C00FA9
:101A0000B76FAEEC0EF038EF0DF0B9C0B5F0BAC05C
:101A1000B6F0BC51940FB76FAEEC0EF038EF0DF08E
:101A2000B9C0B5F0BAC0B6F0BC51D40FB76FAEECC8
:101A30000EF038EF0DF0BB51BD6FBE6BBE51000A0A
:101A4000D8B425EF0DF038EF0DF0BD51010AD8B430
:101A5000EFEF0CF0030AD8B4FAEF0CF0010AD8B497
:101A600005EF0DF0070AD8B410EF0DF038EF0DF0C8
:101A70001200000E4B6E47BE42EF0DF040EF0DF02E
:101A800048EF0DF0466C471ED8B0472A010E4B6E4A
:101A900049BE4FEF0DF04DEF0DF053EF0DF0486CD8
:101AA000491ED8B0492A48504910D8B45AEF0DF011
:101AB0005CEF0DF080EF0DF0010E4A6E64EF0DF05B
:101AC000D890483649364A2A49AE69EF0DF06BEF97
:101AD0000DF060EF0DF04850465C49504758D8A0D3
:101AE00074EF0DF076EF0DF07AEF0DF04850465E92
:101AF0004950475AD890493248324A2E6BEF0DF080
:101B00004B50D8B486EF0DF088EF0DF08CEF0DF050
:101B1000466C471ED8B0472A46C046F047C047F03B
:101B200012000001B251B311D8B499EF0DF09BEF40
:101B30000DF0BFEF0DF0B451B511D8B4A2EF0DF018
:101B4000A4EF0DF0BFEF0DF0B651B711D8B4ABEF65
:101B50000DF0ADEF0DF0BFEF0DF0B851B911D8B4E5
:101B6000B4EF0DF0B6EF0DF0BFEF0DF0BA51BB11B1
:101B7000D8A4BDEF0DF0BFEF0DF0C1EF0DF0E3EF16
:101B80000DF072EC10F049EC10F0B2C046F0B3C0AA
:101B900047F0E4EC0DF0B4C046F0B5C047F0E4EC1B
:101BA0000DF0B6C046F0B7C047F0E4EC0DF0B8C099
:101BB00046F0B9C047F0E4EC0DF0BAC046F0BBC047
:101BC00047F0E4EC0DF0120046C0D9FF47C0DAFF41
:101BD000000EDF6E000E496E83AEF1EF0DF0F3EFF5
:101BE0000DF0ECEF0DF01A0EE82EFED700D083AE0C
:101BF000FCEF0DF0FEEF0DF00DEF0EF046C0D9FF3B
:101C000047C0DAFFDF50486ED880483446C0D9FF5D
:101C100047C0DAFFDF6E1AEF0EF046C0D9FF47C0AB
:101C2000DAFFDF50486ED890483446C0D9FF47C02D
:101C3000DAFFDF6E83BE1FEF0EF021EF0EF01AEF1A
:101C40000EF0492A070E496428EF0EF02AEF0EF035
:101C5000ECEF0DF012000001C051C111D8B433EF08
:101C60000EF035EF0EF03EEF0EF0C451C511D8A4C2
:101C70003CEF0EF03EEF0EF040EF0EF06CEF0EF08A
:101C8000C0C0B9F0C1C0BAF0C2C0BBF0C3C0BCF0A4
:101C9000E0EC0CF05DEF0EF0C0C0B5F0C1C0B6F0E6
:101CA000C4C0F6FFC5C0F7FFF86A0800F5CFB7F06B
:101CB0001EEC0FF00001C44BC52BC4C0F6FFC5C01D
:101CC000F7FFF86A0800F5500009D8A46AEF0EF093
:101CD0006CEF0EF04CEF0EF012000001B251B31198
:101CE000D8A475EF0EF077EF0EF079EF0EF0ADEFB0
:101CF0000EF0020EB225466E000EB321476EB451AF
:101D0000010B486EE8EC0AF0030E0001B225466EA6
:101D1000000EB321476ED890B431010B486EE8EC49
:101D20000AF0040E0001B225466E000EB321476E84
:101D3000B441E8423F0B010B486EE8EC0AF0050E97
:101D40000001B225466E000EB321476EB439E84655
:101D50001F0B010B486EE8EC0AF012000001B551B0
:101D6000B611D8A4B6EF0EF0B8EF0EF0BCEF0EF03F
:101D7000000EB86FE3EF0EF0B5C046F0B6C047F006
:101D8000000E486EE8EC0AF00001B86FB5C0B2F082
:101D9000B6C0B3F0B7390F0BB46F6DEC0EF0B5C031
:101DA00050F0B6C051F0CFEC0FF0B5C0B2F0B6C0F5
:101DB000B3F0B7C0B4F06DEC0EF0B5C050F0B6C0E3
:101DC00051F0CFEC0FF00001B8511200465047100F
:101DD000D8A4EDEF0EF0EFEF0EF0F1EF0EF01DEFE7
:101DE0000FF046C0D9FF47C0DAFFDF50070B486E3F
:101DF000010E496E482AFFEF0EF0D8904936482E62
:101E0000FDEF0EF046C0D9FF47C0DAFFDF30E83201
:101E1000E832070B4A6E4A50020D8A0EF324D96E3F
:101E2000000EF420DA6EDECF4BF0DDCF4CF04BC06D
:101E3000D9FF4CC0DAFF4950DF1A12000001B5513A
:101E4000B611D8A426EF0FF028EF0FF02AEF0FF00D
:101E500050EF0FF0B5C046F0B6C047F0010E486E27
:101E6000E8EC0AF0B5C0B2F0B6C0B3F00001B73983
:101E70000F0BB46F6DEC0EF0B5C050F0B6C051F062
:101E8000CFEC0FF0B5C0B2F0B6C0B3F0B7C0B4F04D
:101E90006DEC0EF0B5C050F0B6C051F0CFEC0FF0C5
:101EA0001200600EF66E200EF76E000EF86E00EE59
:101EB00080F010EE32F00900F5CFEEFFE550E15072
:101EC000FAE1860EF66E210EF76E000EF86E00EE49
:101ED00052F010EE14F00900F5CFEEFFE550E1509E
:101EE000FAE100EEC9F00F0EEE6AE806FDE100EE41
:101EF00001F02C0EEE6AE806FDE1669066920001A4
:101F000036EF08F050505110D8A489EF0FF08BEF46
:101F10000FF090EF0FF0000E0001B26FA8EF0FF07E
:101F200050C046F051C047F0ABEC09F00001B26F71
:101F300050C046F051C047F050C0D9FF51C0DAFF41
:101F4000000EDFBE010E486EE8EC0AF00001B26F31
:101F5000B2511200F294020E01243A6E000E0220D9
:101F60003B6E3BC03AF03B6A3A50D76E0150020FCD
:101F7000D66E03500410D8B4C0EF0FF0C2EF0FF0CC
:101F8000CEEF0FF002D8CEEF0FF00500FA6E03503F
:101F9000FD6E0450FE6EFF6AFA501200120050509F
:101FA0005110D8A4D6EF0FF0D8EF0FF0DAEF0FF002
:101FB000F2EF0FF0010E5024466E000E5120476ED6
:101FC000010E486EE8EC0AF0030EE82EFED700F092
:101FD000010E5024466E000E5120476E000E486ED2
:101FE000E8EC0AF012000001C051C111D8A4FBEFC7
:101FF0000FF0FDEF0FF0FFEF0FF011EF10F0C0C08A
:10200000B9F0C1C0BAF0C2C0BBF0C3C0BCF0E0ECD4
:102010000CF0C0C0B5F0C1C0B6F0C4C0B7F01EEC43
:102020000FF0120037503810D8A419EF10F01BEF42
:1020300010F01DEF10F02FEF10F0010E37242D6E71
:10204000000E38202E6E000E2F6E7CEC0BF037C089
:102050002DF038C02EF0000E2F6E7CEC0BF012002D
:10206000800F810F820F830F840F890F8A0F8B0FD0
:102070008C0F8D0F920F930F940F950F960F0102F7
:1020800000110010270000110002001200102700AC
:10209000001083BE4EEF10F050EF10F049EF10F03B
:1020A00083AE55EF10F057EF10F050EF10F083BEF5
:1020B0005CEF10F05EEF10F057EF10F01200630EBF
:1020C000376E000E386E12EC10F0610E376E000E97
:1020D000386E12EC10F05F0E376E000E386E12EC98
:1020E00010F01200959E8C9E2F0E466EC00EE82EAC
:1020F000FED7462EFCD78C8E140EE82EFED7958E7A
:102100001200650E506E000E516E82EC0FF0530EF1
:102110000001B96F000EBA6F4BEC0AF01200426E6C
:10212000F2904250D8B497EF10F099EF10F09BEF77
:1021300010F09BEF10F01200426EF2904250D8B4B3
:10214000A4EF10F0A6EF10F0A8EF10F0A8EF10F039
:102150001200426EF2904250D8B4B1EF10F0B3EFDB
:1021600010F0B5EF10F0B5EF10F01200426EF290E3
:102170004250D8B4BEEF10F0C0EF10F0C2EF10F034
:10218000C2EF10F012000F18191A1B1C1D07EE8564
:10219000BE20011C1D1A1B181990F090120012008D
:0421A0001200120017
:020000040020DA
:08000000FFFFFFFFFFFFFFFF00
:020000040030CA
:0E000000FF020912FF8181FF0FC00FE00F40C9
:00000001FF
