:020000040000FA
:0400000043EF01F0D9
:060008005B82D4EF16F04C
:100018005B80D8CF02F0E8CF03F0E0CF04F0F0A681
:1000280018EF00F01AEF00F023EF00F0F0A01FEF38
:1000380000F021EF00F023EF00F04DEC1AF0F2A6EB
:1000480028EF00F02AEF00F043EF00F0F2A02FEFC6
:1000580000F031EF00F043EF00F081A836EF00F038
:1000680038EF00F043EF00F059A03DEF00F03FEF0C
:1000780000F043EF00F05990010E34EC1AF0F2A6AC
:1000880048EF00F04AEF00F063EF00F0F2A04FEF06
:1000980000F051EF00F063EF00F081B856EF00F088
:1000A80058EF00F063EF00F059B05DEF00F05FEF3C
:1000B80000F063EF00F05980000E34EC1AF0F2A65D
:1000C80068EF00F06AEF00F083EF00F0F2A06FEF46
:1000D80000F071EF00F083EF00F081AA76EF00F0F6
:1000E80078EF00F083EF00F059A27DEF00F07FEF8A
:1000F80000F083EF00F05992010E27EC1AF0F2A6F7
:1001080088EF00F08AEF00F0A3EF00F0F2A08FEF85
:1001180000F091EF00F0A3EF00F081BA96EF00F045
:1001280098EF00F0A3EF00F059B29DEF00F09FEFB9
:1001380000F0A3EF00F05982000E27EC1AF0F2A6A7
:10014800A8EF00F0AAEF00F0C3EF00F0F2A0AFEFC5
:1001580000F0B1EF00F0C3EF00F081ACB6EF00F0B3
:10016800B8EF00F0C3EF00F059A4BDEF00F0BFEF07
:1001780000F0C3EF00F05994010E1AEC1AF0F2A641
:10018800C8EF00F0CAEF00F0E3EF00F0F2A0CFEF05
:1001980000F0D1EF00F0E3EF00F081BCD6EF00F003
:1001A800D8EF00F0E3EF00F059B4DDEF00F0DFEF37
:1001B80000F0E3EF00F05984000E1AEC1AF0F2A6F2
:1001C800E8EF00F0EAEF00F003EF01F0F2A0EFEF44
:1001D80000F0F1EF00F003EF01F081AEF6EF00F070
:1001E800F8EF00F003EF01F059A6FDEF00F0FFEF84
:1001F80000F003EF01F05996010E0DEC1AF0F2A68B
:1002080008EF01F00AEF01F023EF01F0F2A00FEF81
:1002180001F011EF01F023EF01F081BE16EF01F0BC
:1002280018EF01F023EF01F059B61DEF01F01FEFB1
:1002380001F023EF01F05986000E0DEC1AF09DAC89
:1002480028EF01F02AEF01F033EF01F09EAC2FEF19
:1002580001F031EF01F033EF01F052EC1AF09DA0FC
:1002680038EF01F03AEF01F03BEF01F09E5004C087
:10027800E0FF03C0E8FF02C0D8FF5B901000FDEF6D
:0202880018F06C
:101000000041542B554152543A393630302C302C53
:10101000300D0A0041542B524E414D453A526F62F9
:101020006F740D0A0041542B505357443A313233F8
:10103000340D0A0041542B524F4C453A300D0A00F2
:071040002566002569000090
:101048004850800B516E48504824536E47AE2FEFDE
:1010580008F031EF08F032EF08F053805350D8B45D
:1010680038EF08F03AEF08F04FEF08F05328D8A40B
:1010780040EF08F042EF08F04AEF08F0000E456E26
:10108800000E466E000E476E000E486E478E000E2C
:10109800486E57EF08F0000E456E000E466E000EC3
:1010A800476E000E486E4C50800B526E51505218CD
:1010B800D8B461EF08F063EF08F064EF08F0518CE2
:1010C8004C504C24526E4BAE6CEF08F06EEF08F0AB
:1010D8006FEF08F052805250D8B475EF08F077EFF0
:1010E80008F08CEF08F05228D8A47DEF08F07FEFC5
:1010F80008F087EF08F0000E496E000E4A6E000EE9
:101108004B6E000E4C6E4B8E000E4C6E94EF08F03A
:10111800000E496E000E4A6E000E4B6E000E4C6EAD
:101128005350525CD8B09BEF08F09DEF08F0C4EF25
:1011380008F051ACA2EF08F0A4EF08F0A6EF08F011
:10114800800E511A53C054F052C053F054C052F09C
:1011580045C054F049C045F054C049F046C054F069
:101168004AC046F054C04AF047C054F04BC047F05C
:1011780054C04BF048C054F04CC048F054C04CF038
:10118800000E546E535052C04DF04E6A4D5E000E24
:101198004E5A4EBED9EF08F04E5009E11A0E4D5C7A
:1011A800D8A0D9EF08F0DBEF08F012EF09F04550AE
:1011B800461047104810D8A4E4EF08F0E7EF08F00D
:1011C800010EE8EF08F0000E546E000E456E000E9A
:1011D800466E000E476E000E486E52C053F01BEF6D
:1011E80009F054A0FAEF08F0FCEF08F002EF09F05C
:1011F800D89054300109546E04EF09F0D890543255
:1012080045A009EF09F00BEF09F00CEF09F0548E37
:1012180048344832473246324532532A5250535C9A
:10122800D8A019EF09F01BEF09F0F5EF08F051BC51
:1012380020EF09F022EF09F062EF09F05350D8A42B
:1012480028EF09F02AEF09F034EF09F0000E456E97
:10125800000E466E000E476E000E486E83EF0AF0D1
:10126800495045264A5046224B5047224C50482266
:1012780048A041EF09F043EF09F0EFEF09F054A05F
:1012880048EF09F04AEF09F050EF09F0D8905430D0
:101298000109546E52EF09F0D890543245A057EF27
:1012A80009F059EF09F05AEF09F0548E48344832E2
:1012B800473246324532532AEFEF09F04950455C30
:1012C8004A5046584B5047584850800A4D6E4C502B
:1012D800800A4D58D8B073EF09F075EF09F0A0EF08
:1012E80009F04550495C4D6E46504A584E6E47507D
:1012F8004B584F6E48504C58506EFF0E4D24456E5B
:10130800FF0E4E20466EFF0E4F20476EFF0E5020F8
:10131800486E800E511A546C5450D8A496EF09F0B8
:1013280098EF09F0A8EF09F0010E4526000E4622B5
:1013380047224822A8EF09F04950455E4A50465ACC
:101348004B50475A4C50485A455046104710481081
:10135800D8A4B1EF09F0B3EF09F0E8EF09F0545061
:10136800D8A4B9EF09F0BBEF09F0E8EF09F0000ED7
:10137800456E000E466E000E476E000E486E83EFF7
:101388000AF0D890453646364736483654AECFEF41
:1013980009F0D1EF09F0D2EF09F0458054A0D7EF5A
:1013A80009F0D9EF09F0DDEF09F0D8805436DFEF06
:1013B80009F0D89054365350D8B4E5EF09F0E7EF68
:1013C80009F0E8EF09F0530647AEEDEF09F0EFEF4B
:1013D80009F0C5EF09F0000E526E54AEF6EF09F0B1
:1013E800F8EF09F010EF0AF054C04DF07F0E4D16DB
:1013F800D8B401EF0AF003EF0AF007EF0AF0010E84
:10140800526E10EF0AF045A00CEF0AF00EEF0AF04A
:1014180010EF0AF003EF0AF05250D8B416EF0AF0B2
:1014280018EF0AF043EF0AF0010E4526000E462297
:101438004722482248A023EF0AF025EF0AF043EF9D
:101448000AF045C04DF046C04EF047C04FF048C0C6
:1014580050F0503450324F324E324D324DC045F07C
:101468004EC046F04FC047F050C048F05328D8B49B
:1014780040EF0AF042EF0AF043EF0AF0532A5328EC
:10148800D8B449EF0AF04BEF0AF053EF0AF0535083
:10149800D8A451EF0AF053EF0AF065EF0AF0000EF6
:1014A800456E000E466E000E476E000E486E535095
:1014B800D8A461EF0AF063EF0AF065EF0AF0000EB6
:1014C800516E53A06AEF0AF06CEF0AF06FEF0AF062
:1014D800478E70EF0AF0479ED8905330486E51AE51
:1014E80078EF0AF07AEF0AF07BEF0AF0488E45C0F1
:1014F80045F046C046F047C047F048C048F01200E3
:101508002F50800B386E2F502F243E6E2EAE8FEF4B
:101518000AF091EF0AF092EF0AF03E803E50D8B4FC
:1015280098EF0AF09AEF0AF0ADEF0AF03E28D8A437
:10153800A0EF0AF0A2EF0AF0AAEF0AF0000E2C6E54
:10154800000E2D6E000E2E6E000E2F6E2E8EB5EF35
:101558000AF0000E2C6E000E2D6E000E2E6E000E80
:101568002F6E3350800B381A335033243D6E32AE11
:10157800C0EF0AF0C2EF0AF0C3EF0AF03D803D5019
:10158800D8B4C9EF0AF0CBEF0AF0DEEF0AF03D2835
:10159800D8A4D1EF0AF0D3EF0AF0DBEF0AF0000E7F
:1015A800306E000E316E000E326E000E336E328ECB
:1015B800E6EF0AF0000E306E000E316E000E326E4D
:1015C800000E336E3D50D8B4ECEF0AF0EEEF0AF09F
:1015D800F6EF0AF03E50D8A4F4EF0AF0F6EF0AF05E
:1015E80000EF0BF0000E2C6E000E2D6E000E2E6E0E
:1015F800000E2F6E98EF0CF032502C02F3CF43F010
:10160800F4CF44F04350396E3A6A3B6A3C6A44501E
:101618003F6E406A416A426A31502D02F3CF43F06F
:10162800F4CF44F043503926000E3A223B223C22A4
:1016380044503F26000E40224122422230502E02C2
:10164800F3CF43F0F4CF44F043503926000E3A224A
:101658003B223C2244503F26000E40224122422297
:101668003BC03CF03AC03BF039C03AF0396A3050E0
:101678002D02F3CF43F0F4CF44F0435039264450C1
:101688003A22000E3B22000E3C2231502C02F3CFAE
:1016980043F0F4CF44F04350392644503A22000E28
:1016A8003B22000E3C223BC03CF03AC03BF039C024
:1016B8003AF0396A30502C02F3CF43F0F4CF44F0BB
:1016C8004350392644503A22000E3B22000E3C2259
:1016D80032502D02F3CF43F0F4CF44F043503F266D
:1016E80044504022000E4122000E422231502E0268
:1016F800F3CF43F0F4CF44F043503F264450402208
:10170800000E4122000E422232502E02F3CF43F047
:10171800F4CF44F04350346E4450356E366A376A1D
:1017280036C037F035C036F034C035F0346A34503E
:101738003F2635504022365041223750422239C088
:1017480034F03AC035F03BC036F03CC037F0190EE3
:10175800B3EF0BF0D8903732363235323432E82EC8
:10176800AEEF0BF034503F26355040223650412220
:10177800375042223BC03CF03AC03BF039C03AF007
:10178800396A3D503EC034F0356A3426000E3522A1
:10179800820E3424436EFF0E3520446EE9EF0BF0C1
:1017A800D8903F364036413642363CAEDEEF0BF03D
:1017B800E0EF0BF0E1EF0BF03F80D89039363A3686
:1017C8003B363C364306D8A0440641AEEEEF0BF05C
:1017D800F0EF0BF0D4EF0BF0000E3D6E3CAEF7EFE0
:1017E8000BF0F9EF0BF01DEF0CF0FF0E3914346E0F
:1017F800FF0E3A14356EFF0E3B14366E7F0E3C1406
:10180800376E3450351036103710D8B40EEF0CF050
:1018180010EF0CF014EF0CF0010E3D6E1DEF0CF004
:101828003FA019EF0CF01BEF0CF01DEF0CF010EFC0
:101838000CF03D50D8B423EF0CF025EF0CF049EF35
:101848000CF0010E3F26000E40224122422242A007
:1018580030EF0CF032EF0CF049EF0CF03FC034F0F1
:1018680040C035F041C036F042C037F03734373227
:1018780036323532343234C03FF035C040F036C0ED
:1018880041F037C042F0434A442A44BE54EF0CF0BA
:10189800445008E14328D8A054EF0CF056EF0CF060
:1018A80060EF0CF0000E3F6E000E406E800E416E31
:1018B8007F0E426E8EEF0CF044BE6DEF0CF044507C
:1018C80006E14304D8B06BEF0CF06DEF0CF079EF44
:1018D8000CF0000E3F6E000E406E000E416E000EC2
:1018E800426E000E386E8EEF0CF043C03EF0FF0ED5
:1018F8003F16FF0E40167F0E4116000E42163EA000
:1019080088EF0CF08AEF0CF08BEF0CF0418ED8903A
:101918003E30426E385042123FC02CF040C02DF08D
:1019280041C02EF042C02FF012001650800B236EDB
:10193800165016242A6E15AEA4EF0CF0A6EF0CF084
:10194800A7EF0CF02A802A50D8B4ADEF0CF0AFEF17
:101958000CF0C4EF0CF02A28D8A4B5EF0CF0B7EFC0
:101968000CF0BFEF0CF0000E136E000E146E000E9C
:10197800156E000E166E158E000E166ECCEF0CF05E
:10198800000E136E000E146E000E156E000E166E0D
:101998001A50800B231A1A501A242B6E19AED7EF3F
:1019A8000CF0D9EF0CF0DAEF0CF02B802B50D8B4F8
:1019B800E0EF0CF0E2EF0CF0F7EF0CF02B28D8A4D6
:1019C800E8EF0CF0EAEF0CF0F2EF0CF0000E176EF7
:1019D800000E186E000E196E000E1A6E198E000E8B
:1019E8001A6EFFEF0CF0000E176E000E186E000E48
:1019F800196E000E1A6E1750181019101A10D8A464
:101A080008EF0DF00AEF0DF022EF0DF0000E136E47
:101A1800000E146E000E156E000E166E800E151256
:101A28007F0E16122350161213C013F014C014F0B0
:101A380015C015F016C016F065EF0EF02A50D8A4A0
:101A480028EF0DF02AEF0DF034EF0DF0000E136EB5
:101A5800000E146E000E156E000E166E65EF0EF079
:101A68002B502AC01BF01C6A1B5E000E1C5A7F0EEE
:101A78001B24246E000E1C20256E13C01FF014C0FA
:101A880020F015C021F016C022F0000E136E000ED3
:101A9800146E000E156E000E166E000E266E000EE9
:101AA800276E000E286E000E296E000E2B6E95EF25
:101AB8000DF02B50D8B463EF0DF065EF0DF07CEF0F
:101AC8000DF0D8901F36203621362236D89013369E
:101AD80014361536163629AE74EF0DF076EF0DF084
:101AE80077EF0DF01380D89026362736283629361A
:101AF80017501F5C18502058195021581A50225856
:101B0800D8A089EF0DF08BEF0DF094EF0DF0298C34
:101B180017501F5E1850205A1950215A1A50225A2D
:101B28002B2A190E2B649BEF0DF09DEF0DF05DEF46
:101B38000DF01F50201021102210D8B4A6EF0DF080
:101B4800A8EF0DF0C0EF0DF02680C0EF0DF0D89093
:101B5800133614361536163629AEB5EF0DF0B7EF35
:101B68000DF0B8EF0DF01380D890263627362836BA
:101B780029362406D8A0250615AEC5EF0DF0C7EF07
:101B88000DF0ABEF0DF0000E2B6E29AECEEF0DF081
:101B9800D0EF0DF0F4EF0DF0FF0E26141B6EFF0EC4
:101BA80027141C6EFF0E28141D6E7F0E29141E6E3E
:101BB8001B501C101D101E10D8B4E5EF0DF0E7EFF8
:101BC8000DF0EBEF0DF0010E2B6EF4EF0DF013A0FE
:101BD800F0EF0DF0F2EF0DF0F4EF0DF0E7EF0DF090
:101BE8002B50D8B4FAEF0DF0FCEF0DF020EF0EF00B
:101BF800010E1326000E14221522162216A007EF36
:101C08000EF009EF0EF020EF0EF013C01BF014C019
:101C18001CF015C01DF016C01EF01E341E321D32F9
:101C28001C321B321BC013F01CC014F01DC015F071
:101C38001EC016F0244A252A25BE2BEF0EF025508B
:101C480008E12428D8A02BEF0EF02DEF0EF038EF86
:101C58000EF0000E256E2468000E136E000E146E32
:101C6800000E156E000E166E25BE45EF0EF02550BF
:101C780006E12404D8B043EF0EF045EF0EF053EF21
:101C88000EF0000E256E000E246E000E136E000E70
:101C9800146E000E156E000E166E000E236E24C014
:101CA8002AF02AA05AEF0EF05CEF0EF05FEF0EF06C
:101CB800158E60EF0EF0159ED8902A30166E16EF2E
:101CC8000DF012000D6E0D50D8B46DEF0EF06FEFE1
:101CD8000EF091EF0EF008BE76EF0EF074EF0EF0F6
:101CE80091EF0EF005C009F006C00AF007C00BF02E
:101CF80008C00CF0091E0A1E0B1E0C1E092A000E35
:101D08000A220B220C2209C00FF00AC010F00BC0E7
:101D180011F00CC012F099EF0EF005C00FF006C0DC
:101D280010F007C011F008C012F005500610071097
:101D38000810D8A4A2EF0EF0A4EF0EF0AEEF0EF04C
:101D4800000E056E000E066E000E076E000E086E81
:101D58003FEF0FF0960E0E6EB8EF0EF00E2AD890E9
:101D68001232113210320F32000E0F14096E000EAB
:101D780010140A6E000E11140B6EFE0E12140C6E67
:101D880009500A100B100C10D8A4CDEF0EF0CFEFAD
:101D98000EF0B2EF0EF0DDEF0EF00E2A010E0F2658
:101DA800000E102211221222D89012321132103253
:101DB8000F32000E0F14096E000E10140A6E000E7A
:101DC80011140B6EFF0E12140C6E09500A100B1032
:101DD8000C10D8A4F2EF0EF0F4EF0EF0D1EF0EF0E5
:101DE800FCEF0EF00E06D8900F361036113612366C
:101DF80011BE01EF0FF003EF0FF00BEF0FF0020E23
:101E08000E6009EF0FF00BEF0FF0F6EF0EF00EB0CB
:101E180010EF0FF012EF0FF013EF0FF0119ED890A4
:101E28000E320EC009F00A6A0B6A0C6A09C00CF07F
:101E38000B6A0A6A096A09500F120A5010120B50ED
:101E480011120C5012120D50D8B42DEF0FF02FEFC5
:101E58000FF037EF0FF008BE36EF0FF034EF0FF04A
:101E680037EF0FF0128E0FC005F010C006F011C04A
:101E780007F012C008F0120041EC1AF0A10E056E2E
:101E8800000E066EF9EC17F0A10E056E000E066E38
:101E9800F9EC17F0E8EC19F00B0E0001F46F260EC0
:101EA800F36F5D0EE82EFED7F32FFCD7F42FFAD789
:101EB80000F000F0BAEC15F00B0E0001F46F260EDE
:101EC800F36F5D0EE82EFED7F32FFCD7F42FFAD769
:101ED80000F000F0E8EC19F00B0E0001F46F260E8C
:101EE800F36F5D0EE82EFED7F32FFCD7F42FFAD749
:101EF80000F000F01AEC16F00B0E0001F46F260E3D
:101F0800F36F5D0EE82EFED7F32FFCD7F42FFAD728
:101F180000F000F0E8EC19F00B0E0001F46F260E4B
:101F2800F36F5D0EE82EFED7F32FFCD7F42FFAD708
:101F380000F000F08A0E0001E86F000EE96F3C0E19
:101F4800EA6F04EC10F0150E0001F46F4B0EF36FFE
:101F5800BE0EE82EFED7F32FFCD7F42FFAD700F0E9
:101F6800E8EC19F00B0E0001F46F260EF36F5D0E0E
:101F7800E82EFED7F32FFCD7F42FFAD700F000F0A5
:101F88008A0E0001E86F000EE96F460EEA6F04EC56
:101F980010F0150E0001F46F4B0EF36FBE0EE82E15
:101FA800FED7F32FFCD7F42FFAD700F0E8EC19F09E
:101FB8000B0E0001F46F260EF36F5D0EE82EFED7B0
:101FC800F32FFCD7F42FFAD700F000F08A0E0001A7
:101FD800E86F000EE96F500EEA6F04EC10F0150E72
:101FE8000001F46F4B0EF36FBE0EE82EFED7F32FF1
:101FF800FCD7F42FFAD700F048EF0FF043EF01F0C9
:10200800000E0001F26F000EF16FE851E911D8A43B
:1020180010EF10F012EF10F014EF10F0C4EF10F002
:10202800000E176E000E186EC80E196E420E1A6E4C
:10203800EA51056E066A076A086A010E66EC0EF038
:1020480005C013F006C014F007C015F008C016F05C
:1020580099EC0CF013C030F014C031F015C032F018
:1020680016C033F0CB500001EB6FEC6B010EEB2781
:10207800000EEC23EBC005F0ECC006F0000E06BE27
:10208800FF0E076E086E010E66EC0EF005C02CF010
:1020980006C02DF007C02EF008C02FF084EC0AF01F
:1020A8002CC0EDF02DC0EEF02EC0EFF02FC0F0F0F8
:1020B800000E306E000E316E800E326E400E336EA2
:1020C800EDC02CF0EEC02DF0EFC02EF0F0C02FF0D8
:1020D80084EC0AF02CC0E0F02DC0E1F02EC0E2F054
:1020E8002FC0E3F0ECEC13F0E0C0F1F0E1C0F2F047
:1020F800E8C0D9FFE9C0DAFFDF50D8A486EF10F0B6
:1021080088EF10F0A1EF10F0F1C0EBF0030E000122
:10211800EB17EB3BBD50EB19CF0BEB19BD6EF1C0C4
:10212800EBF0F2C0ECF0D890EC33EB33D890EC3312
:10213800EB33EB51BE6EC4EF10F0E8C0D9FFE9C035
:10214800DAFFDE04D8A4ABEF10F0ADEF10F0C4EF67
:1021580010F0F1C0EBF0030E0001EB17EB3BBA50A7
:10216800EB19CF0BEB19BA6EF1C0EBF0F2C0ECF043
:10217800D890EC33EB33D890EC33EB33EB51BB6EA8
:102188001200010E0C6E08C0D9FF09C0DAFFDF503B
:10219800D8A4D1EF10F0D3EF10F01EEF11F0F7EF45
:1021A80010F0BD50F00B0809BD6E71EF11F0BD5075
:1021B800F00B0909BD6E71EF11F0BD50F00B02096B
:1021C800BD6E71EF11F0BD50F00B0A09BD6E71EFD5
:1021D80011F0BD50F00B0B09BD6E71EF11F0000E40
:1021E8000C6E71EF11F020EE02F00850D92609505C
:1021F800DA22DF500A6E0B6A0B50000AD8B407EFD8
:1022080011F0F3EF10F00A50020AD8B4E1EF10F021
:102218000A0AD8B4D5EF10F0010AD8B4DBEF10F0F1
:10222800030AD8B4E7EF10F0010AD8B4EDEF10F0C4
:10223800F3EF10F008C0D9FF09C0DAFFDE04D8A414
:1022480028EF11F02AEF11F071EF11F04AEF11F0B9
:10225800BA50F00B0809BA6E71EF11F0BA50F00BD2
:102268000909BA6E71EF11F0BA50F00B0209BA6E93
:1022780071EF11F0BA50F00B0A09BA6E71EF11F054
:10228800BA50F00B0B09BA6E71EF11F020EE02F0A4
:102298000850D9260950DA22DF500A6E0B6A0B5013
:1022A800000AD8B45AEF11F0F3EF10F00A50020AFE
:1022B800D8B438EF11F00A0AD8B42CEF11F0010A9B
:1022C800D8B432EF11F0030AD8B43EEF11F0010A86
:1022D800D8B444EF11F0F3EF10F008C005F009C0CE
:1022E80006F0C1EC17F00C501200010E0D6E0550EF
:1022F8000610D8B482EF11F084EF11F093EF11F0CB
:1023080005C0D9FF06C0DAFFDF50070B076E070EBE
:10231800076491EF11F093EF11F0F6EF11F0000E52
:102328000D6E17EF12F005C0D9FF06C0DAFFDF50B7
:10233800070B076E010E086E072AA5EF11F0D8905B
:102348000836072EA3EF11F00850FF0A096E05C0E2
:10235800D9FF06C0DAFFDF30E832E832070B0A6E31
:102368000A50020D740EF324D96E000EF420DA6EB2
:10237800DECF0BF0DDCF0CF00BC0D9FF0CC0DAFFBD
:102388000950DF1617EF12F005C0D9FF06C0DAFFB3
:10239800DF50070B076E010E086E072AD6EF11F003
:1023A800D8900836072ED4EF11F005C0D9FF06C023
:1023B800DAFFDF30E832E832070B096E0950020D08
:1023C800740EF324D96E000EF420DA6EDECF0AF014
:1023D800DDCF0BF00AC0D9FF0BC0DAFF0850DF12BF
:1023E80017EF12F005C0D9FF06C0DAFFDFBCFFEF18
:1023F80011F002EF12F0010E03EF12F0000E076E5B
:10240800086A0850000AD8B40CEF12F093EF11F0E4
:102418000750000AD8B497EF11F0010AD8B4C8EFF2
:1024280011F093EF11F00D501200010E0C6E08C060
:10243800D9FF09C0DAFFDF50D8A425EF12F027EF43
:1024480012F068EF12F045EF12F0BD50F00B0409DE
:10245800BD6EB1EF12F0BD50F00B0509BD6EB1EFC6
:1024680012F0BD50F00B0609BD6EB1EF12F0BD5071
:10247800F00B0709BD6EB1EF12F0000E0C6EB1EF54
:1024880012F020EE02F00850D9260950DA22DF5067
:102498000A6E0B6A0B50000AD8B455EF12F041EFE0
:1024A80012F00A50040AD8B429EF12F0010AD8B47D
:1024B8002FEF12F0030AD8B435EF12F0010AD8B49E
:1024C8003BEF12F041EF12F008C0D9FF09C0DAFF64
:1024D800DE04D8A472EF12F074EF12F0B1EF12F02C
:1024E8008EEF12F0BA50F00B0409BA6EB1EF12F089
:1024F800BA50F00B0509BA6EB1EF12F0BA50F00BF2
:102508000609BA6EB1EF12F0BA50F00B0709BA6EAD
:10251800B1EF12F020EE02F00850D9260950DA2265
:10252800DF500A6E0B6A0B50000AD8B49EEF12F007
:1025380041EF12F00A50040AD8B476EF12F0010AFB
:10254800D8B47CEF12F0030AD8B482EF12F0010A73
:10255800D8B488EF12F041EF12F008C005F009C0B6
:1025680006F0C1EC17F00C5012000001EB51EC1111
:10257800D8A4C1EF12F0C3EF12F0C5EF12F057EF75
:1025880013F0C69A20EE06F0EB51D926EC51DA2268
:10259800DFA0D1EF12F0D3EF12F0DBEF12F0EBC0B7
:1025A800E8F0ECC0E9F07AEC16F017EF13F020EE43
:1025B80006F0EB51D926EC51DA22DFB0E6EF12F043
:1025C800E8EF12F017EF13F020EE06F0EB51D926E2
:1025D800EC51DA22DFA6F3EF12F0F5EF12F0F8EF84
:1025E80012F0C58E06EF13F020EE06F0EB51D92657
:1025F800EC51DA22DFB603EF13F005EF13F006EF24
:1026080013F0C59EC69EC69CC68820EE05F0EB5109
:10261800D926EC51DA22DF50C86EEBC005F0ECC0C9
:1026280006F0A7EC19F04AEC1AF0000120EE06F0CB
:10263800EB51D926EC51DA22DFA225EF13F027EF70
:1026480013F02AEF13F0C78E38EF13F020EE06F0E0
:10265800EB51D926EC51DA22DFB235EF13F037EF20
:1026680013F038EF13F0C79E20EE06F0EB51D92691
:10267800EC51DA22DFA443EF13F045EF13F048EFF3
:1026880013F0C78C56EF13F020EE06F0EB51D92665
:10269800EC51DA22DFB453EF13F055EF13F056EF95
:1026A80013F0C79CC68A1200010E0E6E0550061064
:1026B800D8B461EF13F063EF13F072EF13F005C0B5
:1026C800D9FF06C0DAFFDF50070B086E070E086453
:1026D80070EF13F072EF13F0D5EF13F0000E0E6EDB
:1026E800EAEF13F005C0D9FF06C0DAFFDF50070B89
:1026F800086E010E096E082A84EF13F0D890093687
:10270800082E82EF13F00950FF0A0A6E05C0D9FFA0
:1027180006C0DAFFDF30E832E832070B0B6E0B50E9
:10272800020D6A0EF324D96E000EF420DA6EDECFA5
:102738000CF0DDCF0DF00CC0D9FF0DC0DAFF0A5048
:10274800DF16EAEF13F005C0D9FF06C0DAFFDF5045
:10275800070B086E010E096E082AB5EF13F0D89022
:102768000936082EB3EF13F005C0D9FF06C0DAFF0B
:10277800DF30E832E832070B0A6E0A50020D6A0EA3
:10278800F324D96E000EF420DA6EDECF0BF0DDCF25
:102798000CF00BC0D9FF0CC0DAFF0950DF12EAEFCA
:1027A80013F00750086E096A0950000AD8B4DFEF21
:1027B80013F072EF13F00850000AD8B476EF13F054
:1027C800010AD8B4A7EF13F072EF13F00E501200FD
:1027D8000001E235E335566E5650D8A4F6EF13F0F3
:1027E800F8EF13F002EF14F0000EE06F000EE16F47
:1027F800000EE26F000EE36F6FEF14F0E0C0E4F03C
:10280800E1C0E5F0E2C0E6F0E3C0E7F0200E12EF29
:1028180014F0D890E733E633E533E433E82E0DEFD0
:1028280014F0E451556EE28FFF0EE017FF0EE1172A
:10283800FF0EE217000EE317960E565E56BE29EFFE
:1028480014F027EF14F03FEF14F05650800A970F5A
:10285800D8B031EF14F033EF14F035EF14F0F8EF8F
:1028680013F0D890E333E233E133E033563E35EFEB
:1028780014F057EF14F01F0E566445EF14F047EFAD
:1028880014F04FEF14F0F8EF13F0D890E037E13779
:10289800E237E33756065650D8A455EF14F057EFF1
:1028A80014F049EF14F05550D8B45DEF14F05FEF11
:1028B80014F067EF14F0E31FE21FE11FE06D000E54
:1028C800E123E223E323E0C0E0F0E1C0E1F0E2C06D
:1028D800E2F0E3C0E3F0120012501310D8A477EF2F
:1028E80014F079EF14F07BEF14F0EAEF14F012C053
:1028F800D9FF13C0DAFFDF50D8A485EF14F087EFB3
:1029080014F08BEF14F0F00EBD1699EF14F012C00E
:10291800D9FF13C0DAFFDE04D8A495EF14F097EFBF
:1029280014F099EF14F0F00EBA1620EE01F01250E0
:10293800D9261350DA22DF50D8A4A5EF14F0A7EF58
:1029480014F0AFEF14F012C008F013C009F019EC3E
:1029580012F0DCEF14F020EE01F01250D9261350DB
:10296800DA22DE04D8A4BBEF14F0BDEF14F0C5EFF3
:1029780014F012C008F013C009F0C5EC10F0DCEF39
:1029880014F020EE01F01250D9261350DA22020E6C
:10299800DE18D8A4D2EF14F0D4EF14F0DCEF14F062
:1029A80012C008F013C009F02EEC17F0DCEF14F099
:1029B800030E12240F6E000E1320106E28EC19F06F
:1029C80012C005F013C006F051EC1AF01200000115
:1029D800E851E911D8A4F3EF14F0F5EF14F0F7EF8C
:1029E80014F058EF15F0EC51040DF350080FF06F88
:1029F800000E496E000E4A6E4C0E4B6E430E4C6E26
:102A0800FC0E306EA90E316E910E326E3F0E336E93
:102A1800ED51056E066A076A086A010E66EC0EF04B
:102A280005C02CF006C02DF007C02EF008C02FF00E
:102A380084EC0AF02CC045F02DC046F02EC047F0BB
:102A48002FC048F024EC08F045C0E0F046C0E1F0A3
:102A580047C0E2F048C0E3F0ECEC13F0E0C0EEF061
:102A6800E1C0EFF0E8C00AF0E9C00BF0EAC0D9FF16
:102A7800EBC0DAFFDF500C6EF0C00DF0EEC00EF0C8
:102A88009CEC18F00001F02BE8C00AF0E9C00BF04C
:102A9800EAC0D9FFEBC0DAFFDF500C6EF0C00DF0D2
:102AA800EF510E6E9CEC18F012000001ED51EE1182
:102AB800D8B461EF15F063EF15F06CEF15F0EF5136
:102AC800F011D8A46AEF15F06CEF15F06EEF15F061
:102AD800B9EF15F0EDC0EBF0EEC0ECF0B9EC12F088
:102AE800EDC00AF0EEC00BF0EFC0D9FFF0C0DAFF7E
:102AF800DF500C6EFE0E0D6E000120EE01F0EF515E
:102B0800D926F051DA22DF500E6E9CEC18F0EDC099
:102B18000AF0EEC00BF0EFC0D9FFF0C0DAFFDF50CB
:102B28000C6E000E0D6E000120EE02F0EF51D9265A
:102B3800F051DA22DF500E6E9CEC18F0EDC00AF06E
:102B4800EEC00BF0EFC0D9FFF0C0DAFFDF500C6E1B
:102B5800010E0D6E000120EE03F0EF51D926F05161
:102B6800DA22DF500E6E9CEC18F01200010E000104
:102B7800DF6FE8EC19F0960E0001E86F000EE96FC0
:102B88009D0EEA6F000EEB6F000EEC6F5A0EED6FA4
:102B9800EBEC14F0960E0001E86F000EE96F9D0E45
:102BA800EA6F000EEB6F010EEC6F5A0EED6FEBEC57
:102BB80014F0960E0001E86F000EE96F9D0EEA6FA3
:102BC800000EEB6F020EEC6F5A0EED6FEBEC14F08B
:102BD800960E0001E86F000EE96F9D0EEA6F000E79
:102BE800EB6F030EEC6F5A0EED6FEBEC14F0A30EC7
:102BF8000F6E000E106EC0EC19F0A20E0F6E000ED4
:102C0800106EC0EC19F08A0E0001E86F000EE96F33
:102C18005F0EEA6F04EC10F07E0E0001E86F000E04
:102C2800E96F5F0EEA6F04EC10F01200040E000169
:102C3800DF6FE8EC19F0960E0001E86F000EE96FFF
:102C48009D0EEA6F000EEB6F000EEC6F5A0EED6FE3
:102C5800EBEC14F0960E0001E86F000EE96F9D0E84
:102C6800EA6F000EEB6F010EEC6F5A0EED6FEBEC96
:102C780014F0960E0001E86F000EE96F9D0EEA6FE2
:102C8800000EEB6F020EEC6F5A0EED6FEBEC14F0CA
:102C9800960E0001E86F000EE96F9D0EEA6F000EB8
:102CA800EB6F030EEC6F5A0EED6FEBEC14F0A30E06
:102CB8000F6E000E106ED4EC19F0A20E0F6E000EFF
:102CC800106ED4EC19F08A0E0001E86F000EE96F5F
:102CD8005F0EEA6F04EC10F07E0E0001E86F000E44
:102CE800E96F5F0EEA6F04EC10F012000001E85182
:102CF800E911D8A482EF16F084EF16F086EF16F0EB
:102D0800D3EF16F020EE04F0E851D926E951DA2283
:102D1800DF50EA6FC650EA19F00BEA19C66E000ECA
:102D2800496E000E4A6E800E4B6EBF0E4C6EE8C0A8
:102D3800D9FFE9C0DAFFDECF05F0DECF06F0DECF3F
:102D480007F0DECF08F0000E66EC0EF005C017F0B5
:102D580006C018F007C019F008C01AF0000E136E6C
:102D6800240E146EF40E156E490E166E99EC0CF0C6
:102D780013C045F014C046F015C047F016C048F01F
:102D880024EC08F045C0E0F046C0E1F047C0E2F0AE
:102D980048C0E3F0ECEC13F00001E051C86E1200FB
:102DA800F2AAD9EF16F0DBEF16F0E4EF16F0F2A472
:102DB800E0EF16F0E2EF16F0E4EF16F053EC1AF03D
:102DC8009DA2E9EF16F0EBEF16F0ECEF16F09E502F
:102DD800A0A2F1EF16F0F3EF16F0F4EF16F0A15001
:102DE800A0A0F9EF16F0FBEF16F0FCEF16F0A150DB
:102DF8009DAA01EF17F003EF17F00CEF17F09EAA4A
:102E080008EF17F00AEF17F00CEF17F055EC1AF06F
:102E18009DA811EF17F013EF17F01CEF17F09EA8FD
:102E280018EF17F01AEF17F01CEF17F054EC1AF020
:102E3800A0A621EF17F023EF17F024EF17F0A15009
:102E48009DA629EF17F02BEF17F02CEF17F09E50E7
:102E58005B92110020EE09F00850D9260950DA22B9
:102E6800DF50CB6E090E0824056E000E0920066E91
:102E780031EC18F008C0D9FF09C0DAFFDF50D8A438
:102E880048EF17F04AEF17F05FEF17F020EE02F067
:102E98000850D9260950DA220C0EDE18D8A457EFAC
:102EA80017F059EF17F07EEF17F0BD50F00B0C0933
:102EB800BD6E7EEF17F008C0D9FF09C0DAFFDE0447
:102EC800D8A469EF17F06BEF17F07EEF17F020EE3C
:102ED80002F00850D9260950DA220C0EDE18D8A4C0
:102EE80078EF17F07AEF17F07EEF17F0BA50F00B83
:102EF8000C09BA6E1200A30E126E000E136EFBECD4
:102F080019F0A20E126E000E136EFBEC19F08A0E69
:102F1800126E000E136E70EC14F07E0E126E000E20
:102F2800136E70EC14F08A0E0001E86F000EE96F62
:102F38005F0EEA6F04EC10F07E0E0001E86F000EE1
:102F4800E96F5F0EEA6F04EC10F08A0E056E000E52
:102F5800066ECFEC18F07E0E056E000E066ECFECF6
:102F680018F0960E0001ED6F000EEE6F9D0EEF6FDC
:102F7800000EF06F59EC15F0120020EE04F0055029
:102F8800D9260650DA22DF50D8A4CDEF17F0CFEFBC
:102F980017F0D3EF17F0B196B18CF8EF17F020EED9
:102FA80004F00550D9260650DA22DE04D8A4DFEF53
:102FB80017F0E1EF17F0E5EF17F0B186B19CF8EFE5
:102FC80017F020EE04F00550D9260650DA22020E3A
:102FD800DE18D8A4F2EF17F0F4EF17F0F8EF17F0B7
:102FE800B196B19CF8EF17F0120005500610D8A45E
:102FF80000EF18F002EF18F004EF18F030EF18F0B7
:1030080005C0D9FF06C0DAFFDF50070B076E010EB7
:10301800086E072A12EF18F0D8900836072E10EF1E
:1030280018F005C0D9FF06C0DAFFDF30E832E83211
:10303800070B096E0950020D6A0EF324D96E000EB3
:10304800F420DA6EDECF0AF0DDCF0BF00AC0D9FF2C
:103058000BC0DAFF0850DF1A120005500610D8A47A
:1030680038EF18F03AEF18F03CEF18F067EF18F067
:10307800CA9420EE01F00550D9260650DA22DF5016
:10308800076ECA500718FC0B0718CA6E20EE02F02C
:103098000550D9260650DA22DF50076E0746074644
:1030A8000746CA500718870B0718CA6E05C0D9FF0C
:1030B80006C0DAFFDF50CC6E05C0D9FF06C0DAFFC4
:1030C800DF505A6ECA84120005500610D8B46FEF4C
:1030D80018F071EF18F07AEF18F008500910D8A41A
:1030E80078EF18F07AEF18F07CEF18F09BEF18F0F3
:1030F80007C0C9FFC7B083EF18F085EF18F07EEF5F
:1031080018F09E96C5BC8BEF18F08DEF18F095EF70
:1031180018F008C0D9FF09C0DAFF000EDF6E9BEF78
:1031280018F008C0D9FF09C0DAFF010EDF6E1200DF
:10313800060E0F6E0AC005F00BC006F08BEC19F0F6
:103148000AC005F00BC006F00CC007F00F0E086EA1
:10315800000E096E68EC18F00AC005F00BC006F006
:103168000DC007F00F0E086E000E096E68EC18F01F
:103178000AC005F00BC006F00EC007F00F0E086E6F
:10318800000E096E68EC18F00AC005F00BC006F0D6
:103198006FEC19F0120005500610D8A4D6EF18F0FD
:1031A800D8EF18F0DAEF18F0FCEF18F005C0D9FFE7
:1031B80006C0DAFFDF50D8A4E4EF18F0E6EF18F005
:1031C800ECEF18F0BD50F00B0C09BD6EFCEF18F0D9
:1031D80005C0D9FF06C0DAFFDE04D8A4F6EF18F060
:1031E800F8EF18F0FCEF18F0BA50F00B0C09BA6EB3
:1031F80012009A0EF66E320EF76E000EF86E00EEA2
:1032080060F010EE44F00900F5CFEEFFE550E15014
:10321800FAE19E0EF66E340EF76E000EF86E090097
:10322800F5CF57F00900F5CF58F00900F5CF59F060
:1032380000EEA4F03C0EEE6AE806FDE15A6A5B90E7
:103248005B92000140EF0FF00F501010D8A42FEF41
:1032580019F031EF19F035EF19F0000E116E4BEF40
:1032680019F00FC005F010C006F079EC11F0116EDE
:103278000FC005F010C006F00FC0D9FF10C0DAFF6C
:10328800000EDFBE010E076E58EC13F0116E1150E0
:103298001200800F810F820F830F840F890F8A0F0E
:1032A8008B0F8C0F8D0F920F930F940F950F960F16
:1032B8000102001100F4010000F9000F00020012E1
:1032C80000F4010000F9000FA08601000800038047
:1032D80079210411191805500610D8A476EF19F0B1
:1032E80078EF19F07AEF19F08AEF19F0C584C5B4B0
:1032F80080EF19F082EF19F07BEF19F09E96C7A8BE
:1033080088EF19F08AEF19F078EF19F012000550DC
:103318000610D8A492EF19F094EF19F096EF19F06F
:10332800A6EF19F0C580C5B09CEF19F09EEF19F013
:1033380097EF19F09E96C7A6A4EF19F0A6EF19F01B
:1033480094EF19F0120005500610D8A4AEEF19F04A
:10335800B0EF19F0B2EF19F0BFEF19F020EE04F05A
:103368000550D9260650DA22DF50076EC6500718D6
:10337800F00B0718C66E12000F501010D8A4C7EF34
:1033880019F0C9EF19F0CBEF19F0D3EF19F00FC00E
:1033980005F010C006F0000E076E58EC13F012008E
:1033A8000F501010D8A4DBEF19F0DDEF19F0DFEFA4
:1033B80019F0E7EF19F00FC005F010C006F0010E84
:1033C800076E58EC13F012008A0E0001E86F000E29
:1033D800E96F000EEA6F04EC10F07E0E0001E86F52
:1033E800000EE96F000EEA6F04EC10F012001250A4
:1033F8001310D8A402EF1AF004EF1AF006EF1AF02F
:103408000CEF1AF012C00FF013C010F028EC19F0EE
:103418001200016EF2900150D8B415EF1AF017EFB0
:103428001AF019EF1AF019EF1AF01200016EF29063
:103438000150D8B422EF1AF024EF1AF026EF1AF050
:1034480026EF1AF01200016EF2900150D8B42FEF57
:103458001AF031EF1AF033EF1AF033EF1AF01200C6
:10346800016EF2900150D8B43CEF1AF03EEF1AF01A
:1034780040EF1AF040EF1AF01200A10E0F6E000E86
:10348800106E28EC19F07FEC17F0120094869488DF
:093498001200F090120019180F47
:0A34A20012001200120012001200C6
:020000040020DA
:08000000FFFFFFFFFFFFFFFF00
:020000040030CA
:0E000000FF02191EFF8181FF0FC00FE00F40AD
:00000001FF
