:020000040000FA
:0400000043EF01F0D9
:060008007982EDED09F024
:100018007980D8CF5DF0E8CF5EF0E0CF5FF0F0A652
:1000280018EF00F01AEF00F023EF00F0F0A01FEF38
:1000380000F021EF00F023EF00F0F0EC0CF0F2A656
:1000480028EF00F02AEF00F043EF00F0F2A02FEFC6
:1000580000F031EF00F043EF00F081A836EF00F038
:1000680038EF00F043EF00F01FA03DEF00F03FEF46
:1000780000F043EF00F01F90010EDDEC0CF0F2A64B
:1000880048EF00F04AEF00F063EF00F0F2A04FEF06
:1000980000F051EF00F063EF00F081B856EF00F088
:1000A80058EF00F063EF00F01FB05DEF00F05FEF76
:1000B80000F063EF00F01F80000EDDEC0CF0F2A6FC
:1000C80068EF00F06AEF00F083EF00F0F2A06FEF46
:1000D80000F071EF00F083EF00F081AA76EF00F0F6
:1000E80078EF00F083EF00F01FA27DEF00F07FEFC4
:1000F80000F083EF00F01F92010ED0EC0CF0F2A696
:1001080088EF00F08AEF00F0A3EF00F0F2A08FEF85
:1001180000F091EF00F0A3EF00F081BA96EF00F045
:1001280098EF00F0A3EF00F01FB29DEF00F09FEFF3
:1001380000F0A3EF00F01F82000ED0EC0CF0F2A646
:10014800A8EF00F0AAEF00F0C3EF00F0F2A0AFEFC5
:1001580000F0B1EF00F0C3EF00F081ACB6EF00F0B3
:10016800B8EF00F0C3EF00F01FA4BDEF00F0BFEF41
:1001780000F0C3EF00F01F94010EC3EC0CF0F2A6E0
:10018800C8EF00F0CAEF00F0E3EF00F0F2A0CFEF05
:1001980000F0D1EF00F0E3EF00F081BCD6EF00F003
:1001A800D8EF00F0E3EF00F01FB4DDEF00F0DFEF71
:1001B80000F0E3EF00F01F84000EC3EC0CF0F2A691
:1001C800E8EF00F0EAEF00F003EF01F0F2A0EFEF44
:1001D80000F0F1EF00F003EF01F081AEF6EF00F070
:1001E800F8EF00F003EF01F01FA6FDEF00F0FFEFBE
:1001F80000F003EF01F01F96010EB6EC0CF0F2A62A
:1002080008EF01F00AEF01F023EF01F0F2A00FEF81
:1002180001F011EF01F023EF01F081BE16EF01F0BC
:1002280018EF01F023EF01F01FB61DEF01F01FEFEB
:1002380001F023EF01F01F86000EB6EC0CF09DAC28
:1002480028EF01F02AEF01F033EF01F09EAC2FEF19
:1002580001F031EF01F033EF01F0F2EC0CF09DA06A
:1002680038EF01F03AEF01F03BEF01F09E505FC02C
:10027800E0FF5EC0E8FF5DC0D8FF79901000E3EFB3
:020288000BF079
:101000000041542B554152543A393630302C302C53
:10101000300D0A0041542B524E414D453A526F62F9
:101020006F740D0A00202020202020202020202066
:101030002020200041542B505357443A313233344E
:101040000D0A0041542B524F4C453A300D0A002DE9
:101050003E200025660025690000010E686E605084
:101060006110D8B436EF08F038EF08F047EF08F019
:1010700060C0D9FF61C0DAFFDF50070B626E070E58
:10108000626445EF08F047EF08F0AAEF08F0000EA1
:10109000686ECBEF08F060C0D9FF61C0DAFFDF50A7
:1010A000070B626E010E636E622A59EF08F0D8904A
:1010B0006336622E57EF08F06350FF0A646E60C01B
:1010C000D9FF61C0DAFFDF30E832E832070B656E26
:1010D0006550020D150EF324D96E000EF420DA6E61
:1010E000DECF66F0DDCF67F066C0D9FF67C0DAFFFC
:1010F0006450DF16CBEF08F060C0D9FF61C0DAFFA3
:10110000DF50070B626E010E636E622A8AEF08F0F1
:10111000D8906336622E88EF08F060C0D9FF61C0B6
:10112000DAFFDF30E832E832070B646E6450020DFC
:10113000150EF324D96E000EF420DA6EDECF65F0C2
:10114000DDCF66F065C0D9FF66C0DAFF6350DF12FD
:10115000CBEF08F060C0D9FF61C0DAFFDFBCB3EFAE
:1011600008F0B6EF08F0010EB7EF08F0000E626E5F
:10117000636A6350000AD8B4C0EF08F047EF08F084
:101180006250000AD8B44BEF08F0010AD8B47CEFE3
:1011900008F047EF08F068501200010E696E6050C9
:1011A0006110D8B4D6EF08F0D8EF08F0E7EF08F0F8
:1011B00060C0D9FF61C0DAFFDF50070B636E070E16
:1011C0006364E5EF08F0E7EF08F04AEF09F0000E7E
:1011D000696E5FEF09F060C0D9FF61C0DAFFDF50D0
:1011E000070B636E010E646E632AF9EF08F0D89066
:1011F0006436632EF7EF08F06450FF0A656E60C036
:10120000D9FF61C0DAFFDF30E832E832070B666EE3
:101210006650020D0B0EF324D96E000EF420DA6E28
:10122000DECF67F0DDCF68F067C0D9FF68C0DAFFB6
:101230006550DF165FEF09F060C0D9FF61C0DAFFCB
:10124000DF50070B636E010E646E632A2AEF09F00C
:10125000D8906436632E28EF09F060C0D9FF61C0D2
:10126000DAFFDF30E832E832070B656E6550020DB9
:101270000B0EF324D96E000EF420DA6EDECF66F08A
:10128000DDCF67F066C0D9FF67C0DAFF6450DF12B8
:101290005FEF09F06250636E646A6450000AD8B46C
:1012A00054EF09F0E7EF08F06350000AD8B4EBEF11
:1012B00008F0010AD8B41CEF09F0E7EF08F0695014
:1012C000120071507210D8A468EF09F06AEF09F0AB
:1012D0006CEF09F0ECEF09F071C06AF072C06BF0CE
:1012E00045EC0CF0010E71246A6E000E72206B6EDC
:1012F00045EC0CF0000E756E75507124736E000E87
:101300007220746E020E73246A6E000E74206B6E6F
:1013100045EC0CF0752A030E756491EF09F093EF1C
:1013200009F07CEF09F0340E736EF20EE82EFED752
:10133000732EFCD771C06DF072C06EF0380E6F6EF8
:10134000AEEC0BF00D0E736EFC0EE82EFED7732E76
:10135000FCD771C06DF072C06EF0380E6F6EAEECDF
:101360000BF0640EE82EFED771C06DF072C06EF007
:10137000380E6F6EAEEC0BF071C06DF072C06EF097
:10138000010E6F6EAEEC0BF071C06DF072C06EF0BE
:10139000020E6F6EAEEC0BF071C06DF072C06EF0AD
:1013A000060E6F6EAEEC0BF071C06DF072C06EF099
:1013B0000D0E6F6EAEEC0BF071C06DF072C06EF082
:1013C000280E6F6EAEEC0BF071C06DF072C06EF057
:1013D000800E6F6EAEEC0BF012000600F2AAF3EF77
:1013E00009F0F5EF09F0FEEF09F0F2A4FAEF09F0C9
:1013F000FCEF09F0FEEF09F0F3EC0CF09DA203EF17
:101400000AF005EF0AF006EF0AF09E50A0A20BEFDB
:101410000AF00DEF0AF00EEF0AF0A150A0A013EFB2
:101420000AF015EF0AF016EF0AF0A1509DAA1BEF83
:101430000AF01DEF0AF026EF0AF09EAA22EF0AF04A
:1014400024EF0AF026EF0AF0F5EC0CF09DA82BEF44
:101450000AF02DEF0AF036EF0AF09EA832EF0AF0FC
:1014600034EF0AF036EF0AF0F4EC0CF0A0A63BEFF4
:101470000AF03DEF0AF03EEF0AF0A1509DA643EFBF
:101480000AF045EF0AF046EF0AF09E5079921100FB
:1014900071507210D8A44FEF0AF051EF0AF053EFD9
:1014A0000AF09FEF0AF0740682EF0AF071C06DF047
:1014B00072C06EF07450800F6F6EAEEC0BF09FEF49
:1014C0000AF071C06DF072C06EF07450C00F6F6E94
:1014D000AEEC0BF09FEF0AF071C06DF072C06EF0D1
:1014E0007450940F6F6EAEEC0BF09FEF0AF071C06A
:1014F0006DF072C06EF07450D40F6F6EAEEC0BF0E6
:101500009FEF0AF07350756E766A7650000AD8B471
:101510008CEF0AF09FEF0AF07550010AD8B456EF2D
:101520000AF0030AD8B461EF0AF0010AD8B46CEFEC
:101530000AF0070AD8B477EF0AF09FEF0AF012001A
:10154000A9EC0CF02C0E00019B6F000E9C6F010E9D
:101550009D6F010E9E6F250E9F6F100EA06FF7EC12
:101560000AF02C0E00019B6F000E9C6F020E9D6F07
:10157000010E9E6F250E9F6F100EA06FF7EC0AF004
:101580002C0E00019B6F000E9C6F020E9D6F010ED2
:101590009E6F4F0E9F6F100EA06FF7EC0AF0360E85
:1015A000606E000E616E010E626ECDEC08F00B0EE7
:1015B000786E260E776E5E0EE82EFED7772EFCD75D
:1015C000782EFAD7360E606E000E616E76EC0BF058
:1015D000060E786E130E776EAE0EE82EFED7772EBF
:1015E000FCD7782EFAD7E2EF0AF043EF01F00001C2
:1015F0009B519C11D8B4FFEF0AF001EF0BF00AEFFA
:101600000BF09F51A011D8A408EF0BF00AEF0BF0DC
:101610000CEF0BF038EF0BF09BC071F09CC072F038
:101620009DC073F09EC074F048EC0AF029EF0BF0F7
:101630009BC06DF09CC06EF09FC0F6FFA0C0F7FF8E
:10164000F86A0800F5CF6FF014EC0CF000019F4B26
:10165000A02B9FC0F6FFA0C0F7FFF86A0800F55066
:101660000009D8A436EF0BF038EF0BF018EF0BF0B1
:1016700012006A506B10D8A440EF0BF042EF0BF051
:1016800044EF0BF075EF0BF0020E6A24606E000E53
:101690006B20616E6C50010B626ECDEC08F0030E96
:1016A0006A24606E000E6B20616ED8906C30010B66
:1016B000626ECDEC08F0040E6A24606E000E6B20A2
:1016C000616E6C40E8423F0B010B626ECDEC08F09E
:1016D000050E6A24606E000E6B20616E6C38E84661
:1016E0001F0B010B626ECDEC08F012006050611010
:1016F000D8A47DEF0BF07FEF0BF081EF0BF0ADEF97
:101700000BF060C0D9FF61C0DAFFDF50070B626EDB
:10171000010E636E622A8FEF0BF0D8906336622E53
:101720008DEF0BF060C0D9FF61C0DAFFDF30E83227
:10173000E832070B646E6450020D0B0EF324D96E71
:10174000000EF420DA6EDECF65F0DDCF66F065C006
:10175000D9FF66C0DAFF6350DF1A12006D506E10B9
:10176000D8A4B5EF0BF0B7EF0BF0BBEF0BF0000E0A
:10177000706EE1EF0BF06DC060F06EC061F0000EB6
:10178000626ECDEC08F0706E6DC06AF06EC06BF0EA
:101790006F380F0B6C6E39EC0BF06DC06AF06EC0D9
:1017A0006BF06AEC0CF06DC06AF06EC06BF06FC04D
:1017B0006CF039EC0BF06DC06AF06EC06BF06AEC47
:1017C0000CF070501200D40EF66E190EF76E000E6B
:1017D000F86E00EE8FF010EE0CF00900F5CFEEFF82
:1017E000E550E150FAE11C0EF66E190EF76E000E90
:1017F000F86E00EE01F010EE36F00900F5CFEEFFC6
:10180000E550E150FAE100EE80F00F0EEE6AE806D6
:10181000FDE100EE37F0250EEE6AE806FDE1799075
:1018200079920001A0EF0AF06D506E10D8A41BEF62
:101830000CF01DEF0CF01FEF0CF044EF0CF06DC03E
:1018400060F06EC061F0010E626ECDEC08F06DC00C
:101850006AF06EC06BF06F380F0B6C6E39EC0BF0EA
:101860006DC06AF06EC06BF06AEC0CF06DC06AF08F
:101870006EC06BF06FC06CF039EC0BF06DC06AF0AD
:101880006EC06BF06AEC0CF012006A506B10D8A4BA
:101890004CEF0CF04EEF0CF052EF0CF0000E6C6EB3
:1018A00068EF0CF06AC060F06BC061F02DEC08F0DE
:1018B0006C6E6AC060F06BC061F06AC0D9FF6BC02B
:1018C000DAFF000EDFBE010E626ECDEC08F06C6E2A
:1018D0006C5012006A506B10D8A471EF0CF073EFCB
:1018E0000CF075EF0CF08DEF0CF0010E6A24606EB9
:1018F000000E6B20616E010E626ECDEC08F0030EDF
:10190000E82EFED700F0010E6A24606E000E6B20F8
:10191000616E000E626ECDEC08F01200800F810F38
:10192000820F830F840F890F8A0F8B0F8C0F8D0FFF
:10193000920F930F940F950F960F0F000200120055
:10194000F4010000F9000F18191A1B1C1D1A1B18AE
:101950001990360E6A6E000E6B6E45EC0CF02C0E74
:10196000716E000E726E61EC09F012005C6EF29006
:101970005C50D8B4BEEF0CF0C0EF0CF0C2EF0CF02E
:10198000C2EF0CF012005C6EF2905C50D8B4CBEF5A
:101990000CF0CDEF0CF0CFEF0CF0CFEF0CF012000D
:1019A0005C6EF2905C50D8B4D8EF0CF0DAEF0CF02B
:1019B000DCEF0CF0DCEF0CF012005C6EF2905C508F
:1019C000D8B4E5EF0CF0E7EF0CF0E9EF0CF0E9EF3D
:1019D0000CF012000102001100F4010000F9000FE8
:0C19E000F0901200120012001200120021
:020000040020DA
:08000000FFFFFFFFFFFFFFFF00
:020000040030CA
:0E000000FF020912FF8181FF0FC00FE00F40C9
:00000001FF
