:020000040000FA
:040000003BEF01F0E1
:060008007982FBED09F016
:100018007980D8CF02F0E8CF03F0E0CF04F0F0A663
:1000280018EF00F01AEF00F023EF00F0F0A01FEF38
:1000380000F021EF00F023EF00F014EC0CF0F2A632
:1000480028EF00F02AEF00F043EF00F0F2A02FEFC6
:1000580000F031EF00F043EF00F081A836EF00F038
:1000680038EF00F043EF00F073A03DEF00F03FEFF2
:1000780000F043EF00F07390010EEEEC0BF0F2A6E7
:1000880048EF00F04AEF00F063EF00F0F2A04FEF06
:1000980000F051EF00F063EF00F081B856EF00F088
:1000A80058EF00F063EF00F073B05DEF00F05FEF22
:1000B80000F063EF00F07380000EEEEC0BF0F2A698
:1000C80068EF00F06AEF00F083EF00F0F2A06FEF46
:1000D80000F071EF00F083EF00F081AA76EF00F0F6
:1000E80078EF00F083EF00F073A27DEF00F07FEF70
:1000F80000F083EF00F07392010EE1EC0BF0F2A632
:1001080088EF00F08AEF00F0A3EF00F0F2A08FEF85
:1001180000F091EF00F0A3EF00F081BA96EF00F045
:1001280098EF00F0A3EF00F073B29DEF00F09FEF9F
:1001380000F0A3EF00F07382000EE1EC0BF0F2A6E2
:10014800A8EF00F0AAEF00F0C3EF00F0F2A0AFEFC5
:1001580000F0B1EF00F0C3EF00F081ACB6EF00F0B3
:10016800B8EF00F0C3EF00F073A4BDEF00F0BFEFED
:1001780000F0C3EF00F07394010ED4EC0BF0F2A67C
:10018800C8EF00F0CAEF00F0E3EF00F0F2A0CFEF05
:1001980000F0D1EF00F0E3EF00F081BCD6EF00F003
:1001A800D8EF00F0E3EF00F073B4DDEF00F0DFEF1D
:1001B80000F0E3EF00F07384000ED4EC0BF0F2A62D
:1001C800E8EF00F0EAEF00F003EF01F0F2A0EFEF44
:1001D80000F0F1EF00F003EF01F081AEF6EF00F070
:1001E800F8EF00F003EF01F073A6FDEF00F0FFEF6A
:1001F80000F003EF01F07396010EC7EC0BF0F2A6C6
:1002080008EF01F00AEF01F023EF01F0F2A00FEF81
:1002180001F011EF01F023EF01F081BE16EF01F0BC
:1002280018EF01F023EF01F073B61DEF01F01FEF97
:1002380001F023EF01F07386000EC7EC0BF09DACC4
:1002480028EF01F02AEF01F02BEF01F09E509DA05E
:1002580030EF01F032EF01F033EF01F09E5004C0AF
:10026800E0FF03C0E8FF02C0D8FF7990100056EF06
:100278000BF02F50800B386E2F502F243A6E2EAE75
:1002880048EF01F04AEF01F04BEF01F03A803A50A5
:10029800D8B451EF01F053EF01F068EF01F03A28BC
:1002A800D8A459EF01F05BEF01F063EF01F0000E05
:1002B8002C6E000E2D6E000E2E6E000E2F6E2E8EE2
:1002C800000E2F6E70EF01F0000E2C6E000E2D6EDA
:1002D800000E2E6E000E2F6E3350800B396E385084
:1002E8003918D8B47AEF01F07CEF01F07DEF01F016
:1002F800388C33503324396E32AE85EF01F087EFF6
:1003080001F088EF01F039803950D8B48EEF01F050
:1003180090EF01F0A5EF01F03928D8A496EF01F08D
:1003280098EF01F0A0EF01F0000E306E000E316E74
:10033800000E326E000E336E328E000E336EADEF4D
:1003480001F0000E306E000E316E000E326E000E9F
:10035800336E3A50395CD8B0B4EF01F0B6EF01F023
:10036800DDEF01F038ACBBEF01F0BDEF01F0BFEFFE
:1003780001F0800E381A3AC03BF039C03AF03BC061
:1003880039F02CC03BF030C02CF03BC030F02DC011
:100398003BF031C02DF03BC031F02EC03BF032C0F5
:1003A8002EF03BC032F02FC03BF033C02FF03BC0E3
:1003B80033F0000E3B6E3A5039C034F0356A345E83
:1003C800000E355A35BEF2EF01F0355009E11A0E2C
:1003D800345CD8A0F2EF01F0F4EF01F02BEF02F05B
:1003E8002C502D102E102F10D8A4FDEF01F000EF87
:1003F80002F0010E01EF02F0000E3B6E000E2C6EB3
:10040800000E2D6E000E2E6E000E2F6E39C03AF0C3
:1004180034EF02F03BA013EF02F015EF02F01BEFF0
:1004280002F0D8903B3001093B6E1DEF02F0D890E6
:100438003B322CA022EF02F024EF02F025EF02F06D
:100448003B8E2F342F322E322D322C323A2A39500D
:100458003A5CD8A032EF02F034EF02F00EEF02F06F
:1004680038BC39EF02F03BEF02F07BEF02F03A5074
:10047800D8A441EF02F043EF02F04DEF02F0000E76
:100488002C6E000E2D6E000E2E6E000E2F6E9CEF41
:1004980003F030502C2631502D2232502E2233506A
:1004A8002F222FA05AEF02F05CEF02F008EF03F0C2
:1004B8003BA061EF02F063EF02F069EF02F0D89021
:1004C8003B3001093B6E6BEF02F0D8903B322CA019
:1004D80070EF02F072EF02F073EF02F03B8E2F34F0
:1004E8002F322E322D322C323A2A08EF03F03050B8
:1004F8002C5C31502D5832502E582F50800A346EB3
:100508003350800A3458D8B08CEF02F08EEF02F0E6
:10051800B9EF02F02C50305C346E2D503158356EE6
:100528002E503258366E2F503358376EFF0E342403
:100538002C6EFF0E35202D6EFF0E36202E6EFF0E10
:1005480037202F6E800E381A3B6C3B50D8A4AFEF83
:1005580002F0B1EF02F0C1EF02F0010E2C26000EFE
:100568002D222E222F22C1EF02F030502C5E315066
:100578002D5A32502E5A33502F5A2C502D102E10DF
:100588002F10D8A4CAEF02F0CCEF02F001EF03F06D
:100598003B50D8A4D2EF02F0D4EF02F001EF03F001
:1005A800000E2C6E000E2D6E000E2E6E000E2F6E9D
:1005B8009CEF03F0D8902C362D362E362F363BAED6
:1005C800E8EF02F0EAEF02F0EBEF02F02C803BA03C
:1005D800F0EF02F0F2EF02F0F6EF02F0D8803B36CF
:1005E800F8EF02F0D8903B363A50D8B4FEEF02F05C
:1005F80000EF03F001EF03F03A062EAE06EF03F02A
:1006080008EF03F0DEEF02F0000E396E3BAE0FEF9D
:1006180003F011EF03F029EF03F03BC034F07F0E35
:100628003416D8B41AEF03F01CEF03F020EF03F0F0
:10063800010E396E29EF03F02CA025EF03F027EF08
:1006480003F029EF03F01CEF03F03950D8B42FEF73
:1006580003F031EF03F05CEF03F0010E2C26000EDF
:100668002D222E222F222FA03CEF03F03EEF03F085
:100678005CEF03F02CC034F02DC035F02EC036F0FE
:100688002FC037F03734373236323532343234C04F
:100698002CF035C02DF036C02EF037C02FF03A2898
:1006A800D8B459EF03F05BEF03F05CEF03F03A2A9C
:1006B8003A28D8B462EF03F064EF03F06CEF03F06C
:1006C8003A50D8A46AEF03F06CEF03F07EEF03F022
:1006D800000E2C6E000E2D6E000E2E6E000E2F6E6C
:1006E8003A50D8A47AEF03F07CEF03F07EEF03F0E2
:1006F800000E386E3AA083EF03F085EF03F088EF21
:1007080003F02E8E89EF03F02E9ED8903A302F6E8C
:1007180038AE91EF03F093EF03F094EF03F02F8ED0
:100728002CC02CF02DC02DF02EC02EF02FC02FF095
:100738001200010E406E3C503D10D8A4A6EF03F005
:10074800A8EF03F0ACEF03F0000E406E68EF05F081
:10075800000E416E000E426E000E436E000E446E97
:1007680026EF05F0AC94B8963CC0D9FF3DC0DAFF3F
:10077800DECF3EF0DDCF3FF03EC005F03FC006F0D3
:10078800076A086A000E2CEC08F005C017F006C0CE
:1007980018F007C019F008C01AF0000E136E240EE6
:1007A800146EF40E156E4A0E166E6AEC05F013C040
:1007B80045F014C046F015C047F016C048F0000ECA
:1007C800176E000E186E800E196E420E1A6E45C016
:1007D80013F046C014F047C015F048C016F06AEC94
:1007E80005F013C02CF014C02DF015C02EF016C063
:1007F8002FF0000E306E000E316E800E326EBF0E7E
:10080800336E3DEC01F02CC041F02DC042F02EC0FB
:1008180043F02FC044F049EF05F0AC84B8963CC0D3
:10082800D9FF3DC0DAFFDECF3EF0DDCF3FF03EC05E
:1008380005F03FC006F0076A086A000E2CEC08F0C5
:1008480005C017F006C018F007C019F008C01AF064
:10085800000E136E240E146EF40E156E4A0E166EEC
:100868006AEC05F013C045F014C046F015C047F017
:1008780016C048F0000E176E000E186E800E196E26
:10088800410E1A6E45C013F046C014F047C015F06B
:1008980048C016F06AEC05F013C02CF014C02DF017
:1008A80015C02EF016C02FF0000E306E000E316EFF
:1008B800800E326EBF0E336E3DEC01F02CC041F05D
:1008C8002DC042F02EC043F02FC044F049EF05F090
:1008D800AC94B8863CC0D9FF3DC0DAFFDECF3EF00D
:1008E800DDCF3FF03EC005F03FC006F0076A086A5A
:1008F800000E2CEC08F005C017F006C018F007C071
:1009080019F008C01AF0000E136E240E146EF40EBF
:10091800156E4A0E166E6AEC05F013C045F014C049
:1009280046F015C047F016C048F0000E176E000ECE
:10093800186E800E196E410E1A6E45C013F046C02F
:1009480014F047C015F048C016F06AEC05F013C063
:100958002CF014C02DF015C02EF016C02FF0000E8C
:10096800306E000E316E800E326EBF0E336E3DEC6F
:1009780001F02CC041F02DC042F02EC043F02FC032
:1009880044F049EF05F0AC84B8863CC0D9FF3DC0BF
:10099800DAFFDECF3EF0DDCF3FF03EC005F03FC0CE
:1009A80006F0076A086A000E2CEC08F005C017F07C
:1009B80006C018F007C019F008C01AF0000E136E30
:1009C800240E146EF40E156E4A0E166E6AEC05F0BF
:1009D80013C045F014C046F015C047F016C048F0E3
:1009E800000E176E000E186E800E196E400E1A6EED
:1009F80045C013F046C014F047C015F048C016F0C3
:100A08006AEC05F013C02CF014C02DF015C02EF0C0
:100A180016C02FF0000E306E000E316E800E326E52
:100A2800BF0E336E3DEC01F02CC041F02DC042F0FA
:100A38002EC043F02FC044F049EF05F0000E406E81
:100A480049EF05F020EE04F03C50D9263D50DA225B
:100A5800DF503E6E3F6A3F50000AD8B436EF05F0CB
:100A680022EF05F03E50000AD8B4B6EF03F0010AB1
:100A7800D8B411EF04F0030AD8B46CEF04F0010AFB
:100A8800D8B4C7EF04F022EF05F041C005F042C02A
:100A980006F043C007F044C008F006EC09F0055022
:100AA800AF6E41C005F042C006F043C007F044C035
:100AB80008F006EC09F006C005F007C006F008C00B
:100AC80007F0086A0550B06E405012001650800BAF
:100AD800236E165016242A6E15AE75EF05F077EFC3
:100AE80005F078EF05F02A802A50D8B47EEF05F09B
:100AF80080EF05F095EF05F02A28D8A486EF05F0D9
:100B080088EF05F090EF05F0000E136E000E146EDE
:100B1800000E156E000E166E158E000E166E9DEFE9
:100B280005F0000E136E000E146E000E156E000E0A
:100B3800166E1A50800B231A1A501A242B6E19AEEF
:100B4800A8EF05F0AAEF05F0ABEF05F02B802B50CE
:100B5800D8B4B1EF05F0B3EF05F0C8EF05F02B28D6
:100B6800D8A4B9EF05F0BBEF05F0C3EF05F0000E10
:100B7800176E000E186E000E196E000E1A6E198E82
:100B8800000E1A6ED0EF05F0000E176E000E186EEC
:100B9800000E196E000E1A6E1750181019101A1040
:100BA800D8A4D9EF05F0DBEF05F0F3EF05F0000E60
:100BB800136E000E146E000E156E000E166E800E6B
:100BC80015127F0E16122350161213C013F014C0FC
:100BD80014F015C015F016C016F036EF07F02A50BD
:100BE800D8A4F9EF05F0FBEF05F005EF06F0000ECD
:100BF800136E000E146E000E156E000E166E36EF94
:100C080007F02B502AC01BF01C6A1B5E000E1C5AF2
:100C18007F0E1B24246E000E1C20256E13C01FF0AF
:100C280014C020F015C021F016C022F0000E136E7B
:100C3800000E146E000E156E000E166E000E266E57
:100C4800000E276E000E286E000E296E000E2B6E09
:100C580066EF06F02B50D8B434EF06F036EF06F006
:100C68004DEF06F0D8901F36203621362236D89020
:100C7800133614361536163629AE45EF06F047EF0B
:100C880006F048EF06F01380D89026362736283627
:100C9800293617501F5C18502058195021581A50DF
:100CA8002258D8A05AEF06F05CEF06F065EF06F080
:100CB800298C17501F5E1850205A1950215A1A5063
:100CC800225A2B2A190E2B646CEF06F06EEF06F0F1
:100CD8002EEF06F01F50201021102210D8B477EF05
:100CE80006F079EF06F091EF06F0268091EF06F016
:100CF800D890133614361536163629AE86EF06F018
:100D080088EF06F089EF06F01380D890263627364C
:100D1800283629362406D8A0250615AE96EF06F003
:100D280098EF06F07CEF06F0000E2B6E29AE9FEFD1
:100D380006F0A1EF06F0C5EF06F0FF0E26141B6EB5
:100D4800FF0E27141C6EFF0E28141D6E7F0E29142B
:100D58001E6E1B501C101D101E10D8B4B6EF06F0E6
:100D6800B8EF06F0BCEF06F0010E2B6EC5EF06F0EB
:100D780013A0C1EF06F0C3EF06F0C5EF06F0B8EF19
:100D880006F02B50D8B4CBEF06F0CDEF06F0F1EF1C
:100D980006F0010E1326000E14221522162216A0A4
:100DA800D8EF06F0DAEF06F0F1EF06F013C01BF00B
:100DB80014C01CF015C01DF016C01EF01E341E32E3
:100DC8001D321C321B321BC013F01CC014F01DC096
:100DD80015F01EC016F0244A252A25BEFCEF06F0A1
:100DE800255008E12428D8A0FCEF06F0FEEF06F015
:100DF80009EF07F0000E256E2468000E136E000E32
:100E0800146E000E156E000E166E25BE16EF07F056
:100E1800255006E12404D8B014EF07F016EF07F0C8
:100E280024EF07F0000E256E000E246E000E136EE0
:100E3800000E146E000E156E000E166E000E236E58
:100E480024C02AF02AA02BEF07F02DEF07F030EF8F
:100E580007F0158E31EF07F0159ED8902A30166EE0
:100E6800E7EF05F01200000E186E000E176E0A501C
:100E78000B10D8B442EF07F044EF07F04DEF07F03E
:100E88000C500D10D8A44BEF07F04DEF07F04FEFC3
:100E980007F02BEF08F09EAA54EF07F056EF07F083
:100EA8004DEF07F020EE03F00A50D9260B50DA2256
:100EB800DFA661EF07F063EF07F013EF08F020EE0D
:100EC80003F00A50D9260B50DA22DF50030B000931
:100ED800D8A471EF07F073EF07F095EF07F0AECFE6
:100EE80017F0186AABB07BEF07F07DEF07F083EFE0
:100EF80007F0000E126E000E116E87EF07F0010E5C
:100F0800126E000E116E11501726125018220CC0C6
:100F1800D9FF0DC0DAFF17C0DEFF18C0DDFF2BEFC9
:100F280008F020EE03F00A50D9260B50DA22DF50E1
:100F3800030BE806D8A4A3EF07F0A5EF07F0DAEF54
:100F480007F0AECF17F0186AABB0ADEF07F0AFEF10
:100F580007F0B5EF07F0000E146E000E136EB9EF30
:100F680007F0010E146E000E136E1350172614505E
:100F78001822175022EC0BF00E6E18500E18D8A439
:100F8800C8EF07F0CAEF07F011EF08F0FF0E1714CB
:100F98000E6E000E18140F6E0CC0D9FF0DC0DAFFCC
:100FA8000EC0DEFF0FC0DDFF2BEF08F020EE03F0D0
:100FB8000A50D9260B50DA22DF50030B020AD8A4B4
:100FC800E8EF07F0EAEF07F011EF08F0AECF17F0FF
:100FD800186AABB0F2EF07F0F4EF07F0FAEF07F09A
:100FE800000E166E000E156EFEEF07F0010E166E5F
:100FF800000E156E15501726165018221750EEECD5
:101008000AF00E6E18500E18D8A40DEF08F00FEF66
:1010180008F011EF08F0CAEF07F02BEF08F020EE08
:1010280003F00A50D9260B50DA22DFB61EEF08F07B
:1010380020EF08F011EF08F0AE500E6E0F6A0CC0EA
:10104800D9FF0DC0DAFF0EC0DEFF0FC0DDFF1200B2
:101058000D6E0D50D8B433EF08F035EF08F057EFA8
:1010680008F008BE3CEF08F03AEF08F057EF08F038
:1010780005C009F006C00AF007C00BF008C00CF064
:10108800091E0A1E0B1E0C1E092A000E0A220B221C
:101098000C2209C00FF00AC010F00BC011F00CC0F0
:1010A80012F05FEF08F005C00FF006C010F007C09F
:1010B80011F008C012F00550061007100810D8A447
:1010C80068EF08F06AEF08F074EF08F0000E056E9C
:1010D800000E066E000E076E000E086E05EF09F092
:1010E800960E0E6E7EEF08F00E2AD890123211324C
:1010F80010320F32000E0F14096E000E10140A6E13
:10110800000E11140B6EFE0E12140C6E09500A100C
:101118000B100C10D8A493EF08F095EF08F078EFB7
:1011280008F0A3EF08F00E2A010E0F26000E102279
:1011380011221222D8901232113210320F32000EC0
:101148000F14096E000E10140A6E000E11140B6EA7
:10115800FF0E12140C6E09500A100B100C10D8A4B4
:10116800B8EF08F0BAEF08F097EF08F0C2EF08F010
:101178000E06D8900F3610361136123611BEC7EF4C
:1011880008F0C9EF08F0D1EF08F0020E0E60CFEFBB
:1011980008F0D1EF08F0BCEF08F00EB0D6EF08F079
:1011A800D8EF08F0D9EF08F0119ED8900E320EC093
:1011B80009F00A6A0B6A0C6A09C00CF00B6A0A6A21
:1011C800096A09500F120A5010120B5011120C50D4
:1011D80012120D50D8B4F3EF08F0F5EF08F0FDEF58
:1011E80008F008BEFCEF08F0FAEF08F0FDEF08F091
:1011F800128E0FC005F010C006F011C007F012C023
:1012080008F01200073408340E6E0E50D8A40FEF01
:1012180009F011EF09F01BEF09F0000E056E000E42
:10122800066E000E076E000E086E88EF09F005C006
:1012380009F006C00AF007C00BF008C00CF0200E39
:101248002BEF09F0D8900C320B320A320932E82E13
:1012580026EF09F009500D6E078EFF0E0516FF0EDA
:101268000616FF0E0716000E0816960E0E5E0EBE28
:1012780042EF09F040EF09F058EF09F00E50800AEC
:10128800970FD8B04AEF09F04CEF09F04EEF09F08C
:1012980011EF09F0D89008320732063205320E3EB7
:1012A8004EEF09F070EF09F01F0E0E645EEF09F0C3
:1012B80060EF09F068EF09F011EF09F0D8900536F2
:1012C8000636073608360E060E50D8A46EEF09F01B
:1012D80070EF09F062EF09F00D50D8B476EF09F01D
:1012E80078EF09F080EF09F0081E071E061E056C4E
:1012F800000E06220722082205C005F006C006F0E7
:1013080007C007F008C008F012000A500B10D8A454
:1013180090EF09F092EF09F094EF09F0FAEF09F075
:1013280020EE02F00A50D9260B50DA22DFA69FEFF2
:1013380009F0A1EF09F0F8EF09F020EE02F00A50E9
:10134800D9260B50DA22DF50030B0009D8A4AFEFDF
:1013580009F0B1EF09F0C0EF09F00CC00EF00DC0B4
:101368000FF00FC00EF00F6A0E30D8A002D0AC807C
:1013780001D0AC90F8EF09F020EE02F00A50D9261F
:101388000B50DA22DF50030BE806D8A4CEEF09F0A1
:10139800D0EF09F0DCEF09F00C5022EC0BF00E6EE8
:1013A8000E30D8A002D0AC8001D0AC90F8EF09F094
:1013B80020EE02F00A50D9260B50DA22DF50030B38
:1013C800020AD8A4EAEF09F0ECEF09F0F8EF09F007
:1013D8000C50EEEC0AF00E6E0E30D8A002D0AC80A5
:1013E80001D0AC90F8EF09F00CC0ADFF1200060078
:1013F800F2A801EF0AF003EF0AF00CEF0AF0F2A2EC
:1014080008EF0AF00AEF0AF00CEF0AF018EC0CF0FB
:10141800F0A811EF0AF013EF0AF01CEF0AF0F0A29F
:1014280018EF0AF01AEF0AF01CEF0AF016EC0CF0AD
:10143800F2AA21EF0AF023EF0AF024EF0AF0F250A3
:101448009DA229EF0AF02BEF0AF02CEF0AF09E502C
:10145800A0A231EF0AF033EF0AF034EF0AF0A150FE
:10146800A0A039EF0AF03BEF0AF03CEF0AF0A150D8
:101478009DAA41EF0AF043EF0AF044EF0AF09E50AC
:101488009DA849EF0AF04BEF0AF04CEF0AF09E5086
:10149800A0A651EF0AF053EF0AF054EF0AF0A1505A
:1014A8009DA659EF0AF05BEF0AF05CEF0AF09E5038
:1014B80079921100010E076E05500610D8A467EF47
:1014C8000AF069EF0AF06DEF0AF0000E076EA4EF5C
:1014D8000AF005C0D9FF06C0DAFFDFA476EF0AF0EC
:1014E80078EF0AF096EF0AF0AC9A05C0D9FF06C06B
:1014F800DAFFDFA682EF0AF084EF0AF087EF0AF03E
:10150800AC8C93EF0AF005C0D9FF06C0DAFFDFB64E
:1015180090EF0AF092EF0AF093EF0AF0AC9CAC8AD5
:10152800A4EF0AF005C0D9FF06C0DAFFDFB49FEFC9
:101538000AF0A1EF0AF0A4EF0AF0AC9AA4EF0AF0BF
:1015480007501200010E076E05500610D8A4AFEF21
:101558000AF0B1EF0AF0B5EF0AF0000E076EECEFF3
:101568000AF005C0D9FF06C0DAFFDFA4BEEF0AF013
:10157800C0EF0AF0DEEF0AF0AB9805C0D9FF06C04D
:10158800DAFFDFA6CAEF0AF0CCEF0AF0CFEF0AF0D5
:10159800AB8CDBEF0AF005C0D9FF06C0DAFFDFB677
:1015A800D8EF0AF0DAEF0AF0DBEF0AF0AB9CAB8871
:1015B800ECEF0AF005C0D9FF06C0DAFFDFB4E7EFA9
:1015C8000AF0E9EF0AF0ECEF0AF0AB98ECEF0AF05A
:1015D80007501200076E000E086E000E096E000E0E
:1015E800096E09C005F0010E066E052AFEEF0AF025
:1015F800D8900636052EFCEF0AF0065007140009AD
:10160800D8B409EF0BF00BEF0BF00CEF0BF0082A36
:10161800092A070E096413EF0BF015EF0BF0F5EF2D
:101628000AF0082A08B01BEF0BF01DEF0BF020EFB3
:101638000BF0010E21EF0BF0000E1200076E000EEA
:10164800086E000E096E000E096E09C005F0010E45
:10165800066E052A32EF0BF0D8900636052E30EFCD
:101668000BF0065007140009D8B43DEF0BF03FEF1C
:101678000BF040EF0BF0082A092A070E096447EF20
:101688000BF049EF0BF029EF0BF0082A08A04FEFF9
:101698000BF051EF0BF054EF0BF0010E55EF0BF080
:1016A800000E1200F60EF66E170EF76E000EF86EAC
:1016B80000EE80F010EE14F00900F5CFEEFFE550D3
:1016C800E150FAE10A0EF66E180EF76E000EF86E8B
:1016D80000EE69F010EE10F00900F5CFEEFFE550CE
:1016E800E150FAE100EE4CF01D0EEE6AE806FDE16D
:1016F80079907992000EF86E0001ADEF0BF0495029
:101708004A10D8A48AEF0BF08CEF0BF08EEF0BF099
:10171800ACEF0BF0AB9E49C03CF04AC03DF09DECED
:1017280003F04B6EAC98948C020E4924056E000EA3
:101738004A20066E5EEC0AF04B16948E030E49247E
:10174800056E000E4A20066EA6EC0AF04B16AB8E0C
:1017580012000DEC0CF0740E0A6E000E0B6E000EEB
:101768000D6E410E0C6E89EC09F0740E0A6E000EB7
:101778000B6E680E0C6E000E0D6E37EC07F0AFEFB7
:101788000BF03BEF01F0016EF2900150D8B4CFEFAF
:101798000BF0D1EF0BF0D3EF0BF0D3EF0BF01200FF
:1017A800016EF2900150D8B4DCEF0BF0DEEF0BF0D5
:1017B800E0EF0BF0E0EF0BF01200016EF290015039
:1017C800D8B4E9EF0BF0EBEF0BF0EDEF0BF0EDEF2A
:1017D8000BF01200016EF2900150D8B4F6EF0BF046
:1017E800F8EF0BF0FAEF0BF0FAEF0BF01200800FA6
:1017F800810F820F830F840F890F8A0F8B0F8C0F35
:101808008D0F920F930F940F950F960F0F8025044D
:101818000400740E496E000E4A6E83EC0BF0120041
:0C182800F0901200F0921200F2921200F8
:020000040020DA
:08000000FFFFFFFFFFFFFFFF00
:020000040030CA
:0E000000FF02091EFF8181FF0FC00FE00F40BD
:00000001FF
