:020000040000FA
:0400000043EF01F0D9
:060008005A8262EF10F0C5
:100018005A80D8CF02F0E8CF03F0E0CF04F0F0A682
:1000280018EF00F01AEF00F023EF00F0F0A01FEF38
:1000380000F021EF00F023EF00F099EC12F0F2A6A7
:1000480028EF00F02AEF00F043EF00F0F2A02FEFC6
:1000580000F031EF00F043EF00F081A836EF00F038
:1000680038EF00F043EF00F053A03DEF00F03FEF12
:1000780000F043EF00F05390010E85EC12F0F2A669
:1000880048EF00F04AEF00F063EF00F0F2A04FEF06
:1000980000F051EF00F063EF00F081B856EF00F088
:1000A80058EF00F063EF00F053B05DEF00F05FEF42
:1000B80000F063EF00F05380000E85EC12F0F2A61A
:1000C80068EF00F06AEF00F083EF00F0F2A06FEF46
:1000D80000F071EF00F083EF00F081AA76EF00F0F6
:1000E80078EF00F083EF00F053A27DEF00F07FEF90
:1000F80000F083EF00F05392010E78EC12F0F2A6B4
:1001080088EF00F08AEF00F0A3EF00F0F2A08FEF85
:1001180000F091EF00F0A3EF00F081BA96EF00F045
:1001280098EF00F0A3EF00F053B29DEF00F09FEFBF
:1001380000F0A3EF00F05382000E78EC12F0F2A664
:10014800A8EF00F0AAEF00F0C3EF00F0F2A0AFEFC5
:1001580000F0B1EF00F0C3EF00F081ACB6EF00F0B3
:10016800B8EF00F0C3EF00F053A4BDEF00F0BFEF0D
:1001780000F0C3EF00F05394010E6BEC12F0F2A6FE
:10018800C8EF00F0CAEF00F0E3EF00F0F2A0CFEF05
:1001980000F0D1EF00F0E3EF00F081BCD6EF00F003
:1001A800D8EF00F0E3EF00F053B4DDEF00F0DFEF3D
:1001B80000F0E3EF00F05384000E6BEC12F0F2A6AF
:1001C800E8EF00F0EAEF00F003EF01F0F2A0EFEF44
:1001D80000F0F1EF00F003EF01F081AEF6EF00F070
:1001E800F8EF00F003EF01F053A6FDEF00F0FFEF8A
:1001F80000F003EF01F05396010E5EEC12F0F2A648
:1002080008EF01F00AEF01F023EF01F0F2A00FEF81
:1002180001F011EF01F023EF01F081BE16EF01F0BC
:1002280018EF01F023EF01F053B61DEF01F01FEFB7
:1002380001F023EF01F05386000E5EEC12F09DAC46
:1002480028EF01F02AEF01F033EF01F09EAC2FEF19
:1002580001F031EF01F033EF01F09BEC12F09DA0BB
:1002680038EF01F03AEF01F03BEF01F09E5004C087
:10027800E0FF03C0E8FF02C0D8FF5A90100080EFEB
:0202880011F073
:101000000041542B554152543A393630302C302C53
:10101000300D0A0041542B524E414D453A526F62F9
:101020006F740D0A0041542B505357443A313233F8
:10103000340D0A0041542B524F4C453A300D0A00F2
:071040002566002569000090
:101048002F50800B386E2F502F243A6E2EAE2FEF74
:1010580008F031EF08F032EF08F03A803A50D8B48F
:1010680038EF08F03AEF08F04FEF08F03A28D8A424
:1010780040EF08F042EF08F04AEF08F0000E2C6E3F
:10108800000E2D6E000E2E6E000E2F6E2E8E000E90
:101098002F6E57EF08F0000E2C6E000E2D6E000E0E
:1010A8002E6E000E2F6E3350800B396E3850391863
:1010B800D8B461EF08F063EF08F064EF08F0388CFB
:1010C80033503324396E32AE6CEF08F06EEF08F00F
:1010D8006FEF08F039803950D8B475EF08F077EF22
:1010E80008F08CEF08F03928D8A47DEF08F07FEFDE
:1010F80008F087EF08F0000E306E000E316E000E1B
:10110800326E000E336E328E000E336E94EF08F09E
:10111800000E306E000E316E000E326E000E336E11
:101128003A50395CD8B09BEF08F09DEF08F0C4EF57
:1011380008F038ACA2EF08F0A4EF08F0A6EF08F02A
:10114800800E381A3AC03BF039C03AF03BC039F04B
:101158002CC03BF030C02CF03BC030F02DC03BF031
:1011680031C02DF03BC031F02EC03BF032C02EF024
:101178003BC032F02FC03BF033C02FF03BC033F000
:10118800000E3B6E3A5039C034F0356A345E000EBA
:10119800355A35BED9EF08F0355009E11A0E345CDE
:1011A800D8A0D9EF08F0DBEF08F012EF09F02C50C7
:1011B8002D102E102F10D8A4E4EF08F0E7EF08F058
:1011C800010EE8EF08F0000E3B6E000E2C6E000ECC
:1011D8002D6E000E2E6E000E2F6E39C03AF01BEFEA
:1011E80009F03BA0FAEF08F0FCEF08F002EF09F075
:1011F800D8903B3001093B6E04EF09F0D8903B32A0
:101208002CA009EF09F00BEF09F00CEF09F03B8E69
:101218002F342F322E322D322C323A2A39503A5C62
:10122800D8A019EF09F01BEF09F0F5EF08F038BC6A
:1012380020EF09F022EF09F062EF09F03A50D8A444
:1012480028EF09F02AEF09F034EF09F0000E2C6EB0
:10125800000E2D6E000E2E6E000E2F6E83EF0AF01C
:1012680030502C2631502D2232502E2233502F222E
:101278002FA041EF09F043EF09F0EFEF09F03BA091
:1012880048EF09F04AEF09F050EF09F0D8903B30E9
:1012980001093B6E52EF09F0D8903B322CA057EF72
:1012A80009F059EF09F05AEF09F03B8E2F342F322D
:1012B8002E322D322C323A2AEFEF09F030502C5CC6
:1012C80031502D5832502E582F50800A346E3350DA
:1012D800800A3458D8B073EF09F075EF09F0A0EF21
:1012E80009F02C50305C346E2D503158356E2E502C
:1012F8003258366E2F503358376EFF0E34242C6E0A
:10130800FF0E35202D6EFF0E36202E6EFF0E372075
:101318002F6E800E381A3B6C3B50D8A496EF09F01C
:1013280098EF09F0A8EF09F0010E2C26000E2D22E7
:101338002E222F22A8EF09F030502C5E31502D5A62
:1013480032502E5A33502F5A2C502D102E102F1049
:10135800D8A4B1EF09F0B3EF09F0E8EF09F03B507A
:10136800D8A4B9EF09F0BBEF09F0E8EF09F0000ED7
:101378002C6E000E2D6E000E2E6E000E2F6E83EF5B
:101388000AF0D8902C362D362E362F363BAECFEFBE
:1013980009F0D1EF09F0D2EF09F02C803BA0D7EF8C
:1013A80009F0D9EF09F0DDEF09F0D8803B36DFEF1F
:1013B80009F0D8903B363A50D8B4E5EF09F0E7EF9A
:1013C80009F0E8EF09F03A062EAEEDEF09F0EFEF7D
:1013D80009F0C5EF09F0000E396E3BAEF6EF09F0E3
:1013E800F8EF09F010EF0AF03BC034F07F0E341626
:1013F800D8B401EF0AF003EF0AF007EF0AF0010E84
:10140800396E10EF0AF02CA00CEF0AF00EEF0AF07C
:1014180010EF0AF003EF0AF03950D8B416EF0AF0CB
:1014280018EF0AF043EF0AF0010E2C26000E2D22C9
:101438002E222F222FA023EF0AF025EF0AF043EFE8
:101448000AF02CC034F02DC035F02EC036F02FC075
:1014580037F03734373236323532343234C02CF044
:1014680035C02DF036C02EF037C02FF03A28D8B44A
:1014780040EF0AF042EF0AF043EF0AF03A2A3A281E
:10148800D8B449EF0AF04BEF0AF053EF0AF03A509C
:10149800D8A451EF0AF053EF0AF065EF0AF0000EF6
:1014A8002C6E000E2D6E000E2E6E000E2F6E3A5012
:1014B800D8A461EF0AF063EF0AF065EF0AF0000EB6
:1014C800386E3AA06AEF0AF06CEF0AF06FEF0AF094
:1014D8002E8E70EF0AF02E9ED8903A302F6E38AECE
:1014E80078EF0AF07AEF0AF07BEF0AF02F8E2CC023
:1014F8002CF02DC02DF02EC02EF02FC02FF0120092
:101508001650800B236E165016242A6E15AE8FEFD8
:101518000AF091EF0AF092EF0AF02A802A50D8B424
:1015280098EF0AF09AEF0AF0AFEF0AF02A28D8A449
:10153800A0EF0AF0A2EF0AF0AAEF0AF0000E136E6D
:10154800000E146E000E156E000E166E158E000E2F
:10155800166EB7EF0AF0000E136E000E146E000E32
:10156800156E000E166E1A50800B231A1A501A2484
:101578002B6E19AEC2EF0AF0C4EF0AF0C5EF0AF0FD
:101588002B802B50D8B4CBEF0AF0CDEF0AF0E2EF66
:101598000AF02B28D8A4D3EF0AF0D5EF0AF0DDEF34
:1015A8000AF0000E176E000E186E000E196E000E6F
:1015B8001A6E198E000E1A6EEAEF0AF0000E176EF8
:1015C800000E186E000E196E000E1A6E17501810C5
:1015D80019101A10D8A4F3EF0AF0F5EF0AF00DEF7E
:1015E8000BF0000E136E000E146E000E156E000E3A
:1015F800166E800E15127F0E16122350161213C087
:1016080013F014C014F015C015F016C016F050EF02
:101618000CF02A50D8A413EF0BF015EF0BF01FEFC6
:101628000BF0000E136E000E146E000E156E000EF9
:10163800166E50EF0CF02B502AC01BF01C6A1B5E74
:10164800000E1C5A7F0E1B24246E000E1C20256ED3
:1016580013C01FF014C020F015C021F016C022F0EE
:10166800000E136E000E146E000E156E000E166E30
:10167800000E266E000E276E000E286E000E296ED4
:10168800000E2B6E80EF0BF02B50D8B44EEF0BF002
:1016980050EF0BF067EF0BF0D8901F36203621364D
:1016A8002236D890133614361536163629AE5FEF23
:1016B8000BF061EF0BF062EF0BF01380D890263639
:1016C80027362836293617501F5C185020581950CD
:1016D80021581A502258D8A074EF0BF076EF0BF06F
:1016E8007FEF0BF0298C17501F5E1850205A1950A5
:1016F800215A1A50225A2B2A190E2B6486EF0BF006
:1017080088EF0BF048EF0BF01F502010211022102B
:10171800D8B491EF0BF093EF0BF0ABEF0BF0268002
:10172800ABEF0BF0D890133614361536163629AEB3
:10173800A0EF0BF0A2EF0BF0A3EF0BF01380D89003
:1017480026362736283629362406D8A0250615AE8B
:10175800B0EF0BF0B2EF0BF096EF0BF0000E2B6E24
:1017680029AEB9EF0BF0BBEF0BF0DFEF0BF0FF0E7C
:1017780026141B6EFF0E27141C6EFF0E28141D6EF8
:101788007F0E29141E6E1B501C101D101E10D8B47D
:10179800D0EF0BF0D2EF0BF0D6EF0BF0010E2B6E63
:1017A800DFEF0BF013A0DBEF0BF0DDEF0BF0DFEF5B
:1017B8000BF0D2EF0BF02B50D8B4E5EF0BF0E7EFBE
:1017C8000BF00BEF0CF0010E1326000E142215225D
:1017D800162216A0F2EF0BF0F4EF0BF00BEF0CF063
:1017E80013C01BF014C01CF015C01DF016C01EF06D
:1017F8001E341E321D321C321B321BC013F01CC09B
:1018080014F01DC015F01EC016F0244A252A25BE66
:1018180016EF0CF0255008E12428D8A016EF0CF09C
:1018280018EF0CF023EF0CF0000E256E2468000E64
:10183800136E000E146E000E156E000E166E25BE89
:1018480030EF0CF0255006E12404D8B02EEF0CF050
:1018580030EF0CF03EEF0CF0000E256E000E246EFB
:10186800000E136E000E146E000E156E000E166E2E
:10187800000E236E24C02AF02AA045EF0CF047EF93
:101888000CF04AEF0CF0158E4BEF0CF0159ED8902B
:101898002A30166E01EF0BF012000D6E0D50D8B401
:1018A80058EF0CF05AEF0CF07CEF0CF008BE61EF2B
:1018B8000CF05FEF0CF07CEF0CF005C009F006C0EF
:1018C8000AF007C00BF008C00CF0091E0A1E0B1E18
:1018D8000C1E092A000E0A220B220C2209C00FF046
:1018E8000AC010F00BC011F00CC012F084EF0CF01D
:1018F80005C00FF006C010F007C011F008C012F0C4
:101908000550061007100810D8A48DEF0CF08FEFC3
:101918000CF099EF0CF0000E056E000E066E000E2E
:10192800076E000E086E2AEF0DF0960E0E6EA3EFEE
:101938000CF00E2AD8901232113210320F32000EEB
:101948000F14096E000E10140A6E000E11140B6E9F
:10195800FE0E12140C6E09500A100B100C10D8A4AD
:10196800B8EF0CF0BAEF0CF09DEF0CF0C8EF0CF0EC
:101978000E2A010E0F26000E102211221222D890D4
:101988001232113210320F32000E0F14096E000E8F
:1019980010140A6E000E11140B6EFF0E12140C6E4A
:1019A80009500A100B100C10D8A4DDEF0CF0DFEF73
:1019B8000CF0BCEF0CF0E7EF0CF00E06D8900F36E9
:1019C80010361136123611BEECEF0CF0EEEF0CF0BB
:1019D800F6EF0CF0020E0E60F4EF0CF0F6EF0CF0E0
:1019E800E1EF0CF00EB0FBEF0CF0FDEF0CF0FEEFAA
:1019F8000CF0119ED8900E320EC009F00A6A0B6ADC
:101A08000C6A09C00CF00B6A0A6A096A09500F12BD
:101A18000A5010120B5011120C5012120D50D8B45B
:101A280018EF0DF01AEF0DF022EF0DF008BE21EFC0
:101A38000DF01FEF0DF022EF0DF0128E0FC005F024
:101A480010C006F011C007F012C008F01200000123
:101A5800D851D911D8A433EF0DF035EF0DF037EF89
:101A68000DF0CFEF0DF0C69A20EE06F0D851D9262A
:101A7800D951DA22DFA043EF0DF045EF0DF04DEF1D
:101A88000DF0D8C046F0D9C047F0BCEC10F089EF93
:101A98000DF020EE06F0D851D926D951DA22DFB060
:101AA80058EF0DF05AEF0DF089EF0DF020EE06F02B
:101AB800D851D926D951DA22DFA665EF0DF067EFA4
:101AC8000DF06AEF0DF0C58E78EF0DF020EE06F000
:101AD800D851D926D951DA22DFB675EF0DF077EF54
:101AE8000DF078EF0DF0C59EC69EC69CC68820EE08
:101AF80005F0D851D926D951DA22DF50C86ED8C09E
:101B080005F0D9C006F031EC12F096EC12F00001A5
:101B180020EE06F0D851D926D951DA22DFA297EF64
:101B28000DF099EF0DF09CEF0DF0C78EAAEF0DF0B8
:101B380020EE06F0D851D926D951DA22DFB2A7EF24
:101B48000DF0A9EF0DF0AAEF0DF0C79E20EE06F0FC
:101B5800D851D926D951DA22DFA4B5EF0DF0B7EF65
:101B68000DF0BAEF0DF0C78CC8EF0DF020EE06F0BF
:101B7800D851D926D951DA22DFB4C5EF0DF0C7EF15
:101B88000DF0C8EF0DF0C79CD8C005F0D9C006F01D
:101B9800F7EC0FF0C68A1200010E0D6E0550061004
:101BA800D8B4D9EF0DF0DBEF0DF0EAEF0DF005C07A
:101BB800D9FF06C0DAFFDF50070B076E070E076470
:101BC800E8EF0DF0EAEF0DF04DEF0EF0000E0D6EA0
:101BD8006EEF0EF005C0D9FF06C0DAFFDF50070B25
:101BE800076E010E086E072AFCEF0DF0D890083634
:101BF800072EFAEF0DF00850FF0A096E05C0D9FF4D
:101C080006C0DAFFDF30E832E832070B0A6E0A5006
:101C1800020D740EF324D96E000EF420DA6EDECFB6
:101C28000BF0DDCF0CF00BC0D9FF0CC0DAFF095068
:101C3800DF166EEF0EF005C0D9FF06C0DAFFDF50E1
:101C4800070B076E010E086E072A2DEF0EF0D890CD
:101C58000836072E2BEF0EF005C0D9FF06C0DAFFB5
:101C6800DF30E832E832070B096E0950020D740EB6
:101C7800F324D96E000EF420DA6EDECF0AF0DDCF41
:101C88000BF00AC0D9FF0BC0DAFF0850DF126EEF65
:101C98000EF005C0D9FF06C0DAFFDFBC56EF0EF024
:101CA80059EF0EF0010E5AEF0EF0000E076E086A9B
:101CB8000850000AD8B463EF0EF0EAEF0DF00750B1
:101CC800000AD8B4EEEF0DF0010AD8B41FEF0EF0F9
:101CD800EAEF0DF00D501200010E0E6E05500610C1
:101CE800D8B479EF0EF07BEF0EF08AEF0EF005C056
:101CF800D9FF06C0DAFFDF50070B086E070E08642D
:101D080088EF0EF08AEF0EF0EDEF0EF0000E0E6E7B
:101D180002EF0FF005C0D9FF06C0DAFFDF50070B4E
:101D2800086E010E096E082A9CEF0EF0D89009364D
:101D3800082E9AEF0EF00950FF0A0A6E05C0D9FF67
:101D480006C0DAFFDF30E832E832070B0B6E0B50C3
:101D5800020D6A0EF324D96E000EF420DA6EDECF7F
:101D68000CF0DDCF0DF00CC0D9FF0DC0DAFF0A5022
:101D7800DF1602EF0FF005C0D9FF06C0DAFFDF500B
:101D8800070B086E010E096E082ACDEF0EF0D890E9
:101D98000936082ECBEF0EF005C0D9FF06C0DAFFD2
:101DA800DF30E832E832070B0A6E0A50020D6A0E7D
:101DB800F324D96E000EF420DA6EDECF0BF0DDCFFF
:101DC8000CF00BC0D9FF0CC0DAFF0950DF1202EF8C
:101DD8000FF00750086E096A0950000AD8B4F7EFE7
:101DE8000EF08AEF0EF00850000AD8B48EEF0EF00D
:101DF800010AD8B4BFEF0EF08AEF0EF00E501200B1
:101E08003E343F34456E4550D8A40DEF0FF00FEF28
:101E18000FF019EF0FF0000E3C6E000E3D6E000E35
:101E28003E6E000E3F6E86EF0FF03CC040F03DC0A6
:101E380041F03EC042F03FC043F0200E29EF0FF0C2
:101E4800D8904332423241324032E82E24EF0FF02C
:101E58004050446E3E8EFF0E3C16FF0E3D16FF0EA0
:101E68003E16000E3F16960E455E45BE40EF0FF03B
:101E78003EEF0FF056EF0FF04550800A970FD8B09D
:101E880048EF0FF04AEF0FF04CEF0FF00FEF0FF0A5
:101E9800D8903F323E323D323C32453E4CEF0FF057
:101EA8006EEF0FF01F0E45645CEF0FF05EEF0FF062
:101EB80066EF0FF00FEF0FF0D8903C363D363E3608
:101EC8003F3645064550D8A46CEF0FF06EEF0FF083
:101ED80060EF0FF04450D8B474EF0FF076EF0FF0C6
:101EE8007EEF0FF03F1E3E1E3D1E3C6C000E3D2255
:101EF8003E223F223CC03CF03DC03DF03EC03EF09B
:101F08003FC03FF012004AEC12F0580E056E000E6A
:101F1800066E14EC11F0060E0001DB6F130EDA6F7B
:101F2800AD0EE82EFED7DA2FFCD7DB2FFAD700F05C
:101F380000F07E0E056E000E066E15EC12F07E0E99
:101F4800056E000E066E080E076E510E086E000E26
:101F5800096E4CEC11F07E0E056E000E066E310E09
:101F6800076E510E086E000E096E4CEC11F07E0ED5
:101F7800056E000E066EF9EC11F0060E0001DB6F1F
:101F8800130EDA6FAD0EE82EFED7DA2FFCD7DB2F53
:101F9800FAD700F000F07E0E056E000E066E15EC06
:101FA80012F07E0E056E000E066E080E076E510EBC
:101FB800086E000E096E4CEC11F07E0E056E000ED8
:101FC800066E300E076E510E086E000E096E4CEC50
:101FD80011F07E0E056E000E066EF9EC11F089EF19
:101FE8000FF043EF01F09D96D08EF28EF29E20EE18
:101FF80007F00550D9260650DA22DE04D8A407EFE8
:1020080010F009EF10F00CEF10F09F861BEF10F0A6
:1020180020EE07F00550D9260650DA22DF50D8A462
:1020280018EF10F01AEF10F01BEF10F09F969E9625
:102038009D8620EE0BF00550D9260650DA22DECF19
:10204800D2F0DDCFD3F020EE0DF00550D9260650A2
:10205800DA22DECFD0F0DDCFD1F0A096D08EF28E8E
:10206800F29E20EE08F00550D9260650DA22DE044A
:10207800D8A441EF10F043EF10F046EF10F0A2861D
:1020880055EF10F020EE08F00550D9260650DA2258
:10209800DF50D8A452EF10F054EF10F055EF10F0C5
:1020A800A296A196A08620EE09F00550D9260650E2
:1020B800DA22DECFCEF0DDCFCFF01200F2AA67EF42
:1020C80010F069EF10F072EF10F0F2A46EEF10F05C
:1020D80070EF10F072EF10F09CEC12F09DA277EF09
:1020E80010F079EF10F07AEF10F09E50A0A27FEF79
:1020F80010F081EF10F082EF10F0A150A0A087EF50
:1021080010F089EF10F08AEF10F0A1509DAA8FEF20
:1021180010F091EF10F09AEF10F09EAA96EF10F0E1
:1021280098EF10F09AEF10F09EEC12F09DA89FEF38
:1021380010F0A1EF10F0AAEF10F09EA8A6EF10F093
:10214800A8EF10F0AAEF10F09DEC12F0A0A6AFEFE8
:1021580010F0B1EF10F0B2EF10F0A1509DA6B7EF5C
:1021680010F0B9EF10F0BAEF10F09E505A9211002B
:1021780046504710D8A4C3EF10F0C5EF10F0C7EFD2
:1021880010F013EF11F020EE04F04650D926475016
:10219800DA22DF50486EC6504818F00B4818C66E51
:1021A800000E306E000E316E800E326EBF0E336E32
:1021B80046C0D9FF47C0DAFFDECF05F0DECF06F014
:1021C800DECF07F0DECF08F0000E51EC0CF005C0B2
:1021D80017F006C018F007C019F008C01AF0000E72
:1021E800136E240E146EF40E156E490E166E84ECE2
:1021F8000AF013C02CF014C02DF015C02EF016C034
:102208002FF024EC08F02CC03CF02DC03DF02EC07F
:102218003EF02FC03FF004EC0FF03C50C86E1200A7
:1022280005500610D8A41BEF11F01DEF11F01FEF99
:1022380011F04BEF11F005C0D9FF06C0DAFFDF50EF
:10224800070B076E010E086E072A2DEF11F0D890C4
:102258000836072E2BEF11F005C0D9FF06C0DAFFAC
:10226800DF30E832E832070B096E0950020D6A0EBA
:10227800F324D96E000EF420DA6EDECF0AF0DDCF3B
:102288000BF00AC0D9FF0BC0DAFF0850DF1A1200A2
:1022980005500610D8B453EF11F055EF11F05EEF6A
:1022A80011F008500910D8A45CEF11F05EEF11F09E
:1022B80060EF11F07FEF11F007C0C9FFC7B067EFFB
:1022C80011F069EF11F062EF11F09E96C5BC6FEF47
:1022D80011F071EF11F079EF11F008C0D9FF09C0C2
:1022E800DAFF000EDF6E7FEF11F008C0D9FF09C0DA
:1022F800DAFF010EDF6E1200AC0EF66E230EF76EDB
:10230800000EF86E00EE60F010EE45F00900F5CF13
:10231800EEFFE550E150FAE1240EF66E250EF76E59
:10232800000EF86E00EE52F010EE08F00900F5CF3E
:10233800EEFFE550E150FAE100EEA5F0330EEE6A4B
:10234800E806FDE100EE49F0090EEE6AE806FDE157
:102358005A905A92000187EF0FF00F501010D8A42E
:10236800B8EF11F0BAEF11F0BEEF11F0000E116ED8
:10237800D4EF11F00FC005F010C006F0D0EC0DF04E
:10238800116E0FC005F010C006F00FC0D9FF10C0C5
:10239800DAFF000EDFBE010E076E70EC0EF0116E54
:1023A80011501200800F810F820F830F840F890F45
:1023B8008A0F8B0F8C0F8D0F920F930F940F950F21
:1023C800960FA0860100080003000000000000002E
:1023D800000102001100F4010000F9000F000200E2
:0923E8001200F4010000F9000FDD
:1023F20005500610D8A400EF12F002EF12F004EF1D
:1024020012F014EF12F0C584C5B40AEF12F00CEF0B
:1024120012F005EF12F09E96C7A812EF12F014EF19
:1024220012F002EF12F0120005500610D8A41CEFB1
:1024320012F01EEF12F020EF12F030EF12F0C58012
:10244200C5B026EF12F028EF12F021EF12F09E969F
:10245200C7A62EEF12F030EF12F01EEF12F01200AC
:1024620005500610D8A438EF12F03AEF12F03CEF04
:1024720012F049EF12F020EE04F00550D926065072
:10248200DA22DF50076EC6500718F00B0718C66E27
:102492001200590E0F6E000E106EB1EC11F0580EB4
:1024A2000F6E000E106EB1EC11F07E0E0001D86FAF
:1024B200000ED96F2BEC0DF01200016EF29001505C
:1024C200D8B466EF12F068EF12F06AEF12F06AEF1A
:1024D20012F01200016EF2900150D8B473EF12F0B4
:1024E20075EF12F077EF12F077EF12F01200016E33
:1024F200F2900150D8B480EF12F082EF12F084EF24
:1025020012F084EF12F01200016EF2900150D8B472
:102512008DEF12F08FEF12F091EF12F091EF12F0B7
:1025220012005A0F1A1B181991909486948812005F
:0C253200F09012001200120012001200C3
:020000040020DA
:08000000FFFFFFFFFFFFFFFF00
:020000040030CA
:0E000000FF02191EFF8181FF0FC00FE00F40AD
:00000001FF
