:020000040000FA
:0400000043EF01F0D9
:060008004282E5EF1AF050
:100018004280D8CF1BF0E8CF1CF0E0CF1DF0F0A64F
:1000280018EF00F01AEF00F023EF00F0F0A01FEF38
:1000380000F021EF00F023EF00F02DEC26F0F2A6FF
:1000480028EF00F02AEF00F043EF00F0F2A02FEFC6
:1000580000F031EF00F043EF00F081A836EF00F038
:1000680038EF00F043EF00F03DA03DEF00F03FEF28
:1000780000F043EF00F03D90010E19EC26F0F2A6D7
:1000880048EF00F04AEF00F063EF00F0F2A04FEF06
:1000980000F051EF00F063EF00F081B856EF00F088
:1000A80058EF00F063EF00F03DB05DEF00F05FEF58
:1000B80000F063EF00F03D80000E19EC26F0F2A688
:1000C80068EF00F06AEF00F083EF00F0F2A06FEF46
:1000D80000F071EF00F083EF00F081AA76EF00F0F6
:1000E80078EF00F083EF00F03DA27DEF00F07FEFA6
:1000F80000F083EF00F03D92010E0CEC26F0F2A622
:1001080088EF00F08AEF00F0A3EF00F0F2A08FEF85
:1001180000F091EF00F0A3EF00F081BA96EF00F045
:1001280098EF00F0A3EF00F03DB29DEF00F09FEFD5
:1001380000F0A3EF00F03D82000E0CEC26F0F2A6D2
:10014800A8EF00F0AAEF00F0C3EF00F0F2A0AFEFC5
:1001580000F0B1EF00F0C3EF00F081ACB6EF00F0B3
:10016800B8EF00F0C3EF00F03DA4BDEF00F0BFEF23
:1001780000F0C3EF00F03D94010EFFEC25F0F2A66D
:10018800C8EF00F0CAEF00F0E3EF00F0F2A0CFEF05
:1001980000F0D1EF00F0E3EF00F081BCD6EF00F003
:1001A800D8EF00F0E3EF00F03DB4DDEF00F0DFEF53
:1001B80000F0E3EF00F03D84000EFFEC25F0F2A61E
:1001C800E8EF00F0EAEF00F003EF01F0F2A0EFEF44
:1001D80000F0F1EF00F003EF01F081AEF6EF00F070
:1001E800F8EF00F003EF01F03DA6FDEF00F0FFEFA0
:1001F80000F003EF01F03D96010EF2EC25F0F2A6B7
:1002080008EF01F00AEF01F023EF01F0F2A00FEF81
:1002180001F011EF01F023EF01F081BE16EF01F0BC
:1002280018EF01F023EF01F03DB61DEF01F01FEFCD
:1002380001F023EF01F03D86000EF2EC25F09DACB5
:1002480028EF01F02AEF01F033EF01F09EAC2FEF19
:1002580001F031EF01F033EF01F030EC26F09DA012
:1002680038EF01F03AEF01F03BEF01F09E501DC06E
:10027800E0FF1CC0E8FF1BC0D8FF4290100062EFEF
:0202880020F064
:101000000041542B554152543A393630302C302C53
:10101000300D0A0041542B524E414D453A526F62F9
:101020006F740D0A0041542B505357443A313233F8
:10103000340D0A0041542B524F4C453A300D0A00F2
:071040002566002569000090
:1010480000019F51800B01014F6F00019F519F25A7
:101058000101516F00019EAF34EF08F036EF08F040
:1010680038EF08F00101518101015151D8B43FEF27
:1010780008F041EF08F058EF08F05129D8A447EFDD
:1010880008F049EF08F052EF08F0000E00019C6FDD
:10109800000E9D6F000E9E6F000E9F6F00019E8FC9
:1010A800000E9F6F61EF08F0000E00019C6F000EAC
:1010B8009D6F000E9E6F000E9F6FA351800B010164
:1010C800506F4F515019D8B46CEF08F06EEF08F01C
:1010D8006FEF08F04F8D0001A351A3250101506F58
:1010E8000001A2AF7AEF08F07CEF08F07EEF08F07D
:1010F8000101508101015051D8B485EF08F087EF04
:1011080008F09EEF08F05029D8A48DEF08F08FEF73
:1011180008F098EF08F0000E0001A06F000EA16F14
:10112800000EA26F000EA36F0001A28F000EA36F26
:10113800A7EF08F0000E0001A06F000EA16F000ECF
:10114800A26F000EA36F01015151505DD8B0AFEFEF
:1011580008F0B1EF08F0D8EF08F04FADB6EF08F09F
:10116800B8EF08F0BAEF08F0800E4F1B51C152F1EA
:1011780050C151F152C150F19CC052F1A0C09CF035
:1011880052C1A0F09DC052F1A1C09DF052C1A1F082
:101198009EC052F1A2C09EF052C1A2F09FC052F16F
:1011A800A3C09FF052C1A3F0000E526F515150C11D
:1011B8004BF14C6B4B5F000E4C5B4CBFEDEF08F0F6
:1011C8004C5109E11A0E4B5DD8A0EDEF08F0EFEF96
:1011D80008F02DEF09F000019C519D119E119F11FF
:1011E800D8A4F9EF08F0FCEF08F0010EFDEF08F0C5
:1011F800000E0101526F000E00019C6F000E9D6FE2
:10120800000E9E6F000E9F6F50C151F136EF09F02E
:1012180052A111EF09F013EF09F019EF09F0D89076
:1012280052310109526F1BEF09F0D8905233000177
:101238009CA121EF09F023EF09F025EF09F0010146
:10124800528F00019F359F339E339D339C3301019C
:10125800512B5051515DD8A034EF09F036EF09F009
:101268000CEF09F001014FBD3CEF09F03EEF09F02A
:1012780085EF09F05151D8A444EF09F046EF09F081
:1012880051EF09F0000E00019C6F000E9D6F000EDB
:101298009E6F000E9F6FD2EF0AF00001A0519C27AD
:1012A800A1519D23A2519E23A3519F239FA15FEF8C
:1012B80009F061EF09F02FEF0AF0010152A167EF81
:1012C80009F069EF09F06FEF09F0D8905231010980
:1012D800526F71EF09F0D890523300019CA177EF5B
:1012E80009F079EF09F07BEF09F00101528F000155
:1012F8009F359F339E339D339C330101512B2FEF34
:101308000AF00001A0519C5DA1519D59A2519E591E
:101318009F51800A01014B6F0001A351800A01010E
:101328004B59D8B09AEF09F09CEF09F0D8EF09F0C3
:1013380000019C51A05D01014B6F00019D51A15915
:1013480001014C6F00019E51A25901014D6F00012E
:101358009F51A35901014E6FFF0E4B2500019C6F51
:10136800FF0E01014C2100019D6FFF0E01014D216F
:1013780000019E6FFF0E01014E2100019F6F800E3C
:1013880001014F1B526D5251D8A4CDEF09F0CFEF98
:1013980009F0E1EF09F0010E00019C27000E9D23E2
:1013A8009E239F23E1EF09F00001A0519C5FA1510A
:1013B8009D5BA2519E5BA3519F5B00019C519D11B7
:1013C8009E119F11D8A4EBEF09F0EDEF09F027EF7C
:1013D8000AF001015251D8A4F4EF09F0F6EF09F030
:1013E80027EF0AF0000E00019C6F000E9D6F000EA3
:1013F8009E6F000E9F6FD2EF0AF0D8909C379D37F2
:101408009E379F37010152AF0CEF0AF00EEF0AF03A
:1014180010EF0AF000019C81010152A116EF0AF0B9
:1014280018EF0AF01CEF0AF0D88052371EEF0AF0C6
:10143800D89052375151D8B424EF0AF026EF0AF069
:1014480027EF0AF0510700019EAF2DEF0AF02FEFAA
:101458000AF001EF0AF0000E0101506F52AF37EFAA
:101468000AF039EF0AF053EF0AF052C14BF17F0E40
:101478004B17D8B442EF0AF044EF0AF049EF0AF0EC
:10148800010E0101506F53EF0AF000019CA14FEFCC
:101498000AF051EF0AF053EF0AF044EF0AF00101A5
:1014A8005051D8B45AEF0AF05CEF0AF089EF0AF00D
:1014B800010E00019C27000E9D239E239F239FA1C0
:1014C80068EF0AF06AEF0AF089EF0AF09CC04BF166
:1014D8009DC04CF19EC04DF19FC04EF101014E35AB
:1014E8004E334D334C334B334BC19CF04CC19DF0C4
:1014F8004DC19EF04EC19FF05129D8B486EF0AF035
:1015080088EF0AF089EF0AF0512B01015129D8B46C
:1015180090EF0AF092EF0AF09AEF0AF05151D8A42E
:1015280098EF0AF09AEF0AF0AEEF0AF0000E000109
:101538009C6F000E9D6F000E9E6F000E9F6F010145
:101548005151D8A4AAEF0AF0ACEF0AF0AEEF0AF0B6
:10155800000E4F6F51A1B3EF0AF0B5EF0AF0B9EFE3
:101568000AF000019E8FBBEF0AF000019E9F010167
:10157800D890513100019F6F01014FAFC6EF0AF0BB
:10158800C8EF0AF0CAEF0AF000019F8F9CC09CF0D8
:101598009DC09DF09EC09EF09FC09FF0120000016C
:1015A8008651800B8F6F86518625956F85AFDFEF4B
:1015B8000AF0E1EF0AF0E2EF0AF095819551D8B40C
:1015C800E8EF0AF0EAEF0AF0FDEF0AF09529D8A44F
:1015D800F0EF0AF0F2EF0AF0FAEF0AF0000E836F6C
:1015E800000E846F000E856F000E866F858F05EFE5
:1015F8000BF0000E836F000E846F000E856F000ED7
:10160800866F8A51800B8F1B8A518A25906F89AF0C
:1016180010EF0BF012EF0BF013EF0BF090819051DD
:10162800D8B419EF0BF01BEF0BF02EEF0BF090294D
:10163800D8A421EF0BF023EF0BF02BEF0BF0000EEB
:10164800876F000E886F000E896F000E8A6F898F72
:1016580036EF0BF0000E876F000E886F000E896F53
:10166800000E8A6F9051D8B43CEF0BF03EEF0BF0B0
:1016780046EF0BF09551D8A444EF0BF046EF0BF072
:1016880050EF0BF0000E836F000E846F000E856F15
:10169800000E866FE8EF0CF089518303F3CF9AF0C0
:1016A800F4CF9BF09A51916F926B936B946B9B5113
:1016B800966F976B986B996B88518403F3CF9AF068
:1016C800F4CF9BF09A519127000E922393239423F1
:1016D8009B519627000E97239823992387518503BA
:1016E800F3CF9AF0F4CF9BF09A519127000E9223F2
:1016F800932394239B519627000E9723982399238D
:1017080093C094F092C093F091C092F0916B87517E
:101718008403F3CF9AF0F4CF9BF09A5191279B5111
:101728009223000E9323000E942388518303F3CF52
:101738009AF0F4CF9BF09A5191279B519223000E77
:101748009323000E942393C094F092C093F091C019
:1017580092F0916B87518303F3CF9AF0F4CF9BF00B
:101768009A5191279B519223000E9323000E9423A4
:1017780089518403F3CF9AF0F4CF9BF09A519627BE
:101788009B519723000E9823000E992388518503B7
:10179800F3CF9AF0F4CF9BF09A5196279B51972359
:1017A800000E9823000E992389518503F3CF9AF0F0
:1017B800F4CF9BF09A518B6F9B518C6F8D6B8E6B16
:1017C8008DC08EF08CC08DF08BC08CF08B6B8B51E4
:1017D80096278C5197238D5198238E51992391C028
:1017E8008BF092C08CF093C08DF094C08EF0190EDF
:1017F80003EF0CF0D8908E338D338C338B33E82E77
:10180800FEEF0BF08B5196278C5197238D5198231F
:101818008E51992393C094F092C093F091C092F0A6
:10182800916B905195C08BF08C6B8B27000E8C239D
:10183800820E8B259A6FFF0E8C219B6F39EF0CF06F
:10184800D890963797379837993794AF2EEF0CF092
:1018580030EF0CF031EF0CF09681D8909137923739
:10186800933794379A07D8A09B0798AF3EEF0CF0B0
:1018780040EF0CF024EF0CF0000E906F94AF47EFA0
:101888000CF049EF0CF06DEF0CF0FF0E91158B6F1B
:10189800FF0E92158C6FFF0E93158D6F7F0E9415AA
:1018A8008E6F8B518C118D118E11D8B45EEF0CF0A8
:1018B80060EF0CF064EF0CF0010E906F6DEF0CF020
:1018C80096A169EF0CF06BEF0CF06DEF0CF060EF88
:1018D8000CF09051D8B473EF0CF075EF0CF099EF51
:1018E8000CF0010E9627000E97239823992399A1AF
:1018F80080EF0CF082EF0CF099EF0CF096C08BF0B3
:1019080097C08CF098C08DF099C08EF08E358E33CC
:101918008D338C338B338BC096F08CC097F08DC091
:1019280098F08EC099F09A4B9B2B9BBFA4EF0CF0BC
:101938009B5108E19A29D8A0A4EF0CF0A6EF0CF06F
:10194800B0EF0CF0000E966F000E976F800E986F38
:101958007F0E996FDEEF0CF09BBFBDEF0CF09B5133
:1019680006E19A05D8B0BBEF0CF0BDEF0CF0C9EF5B
:101978000CF0000E966F000E976F000E986F000E19
:10198800996F000E8F6FDEEF0CF09AC095F0FF0E86
:101998009617FF0E97177F0E9817000E991795A1A7
:1019A800D8EF0CF0DAEF0CF0DBEF0CF0988FD89052
:1019B8009531996F8F51991396C083F097C084F031
:1019C80098C085F099C086F0120000016D51800B17
:1019D8007A6F6D516D25816F6CAFF5EF0CF0F7EFF5
:1019E8000CF0F8EF0CF081818151D8B4FEEF0CF0C7
:1019F80000EF0DF015EF0DF08129D8A406EF0DF0DA
:101A080008EF0DF010EF0DF0000E6A6F000E6B6F0F
:101A1800000E6C6F000E6D6F6C8F000E6D6F1DEFFA
:101A28000DF0000E6A6F000E6B6F000E6C6F000EEB
:101A38006D6F7151800B7A1B71517125826F70AF78
:101A480028EF0DF02AEF0DF02BEF0DF08281825177
:101A5800D8B431EF0DF033EF0DF048EF0DF08229D7
:101A6800D8A439EF0DF03BEF0DF043EF0DF0000E69
:101A78006E6F000E6F6F000E706F000E716F708FBB
:101A8800000E716F50EF0DF0000E6E6F000E6F6F4D
:101A9800000E706F000E716F6E516F117011711121
:101AA800D8A459EF0DF05BEF0DF073EF0DF0000EB9
:101AB8006A6F000E6B6F000E6C6F000E6D6F800EFC
:101AC8006C137F0E6D137A516D136AC06AF06BC088
:101AD8006BF06CC06CF06DC06DF0B6EF0EF081511C
:101AE800D8A479EF0DF07BEF0DF085EF0DF0000E27
:101AF8006A6F000E6B6F000E6C6F000E6D6FB6EFA5
:101B08000EF0825181C072F0736B725F000E735BCE
:101B18007F0E72257B6F000E73217C6F6AC076F092
:101B28006BC077F06CC078F06DC079F0000E6A6F0A
:101B3800000E6B6F000E6C6F000E6D6F000E7D6FE8
:101B4800000E7E6F000E7F6F000E806F000E826F9A
:101B5800E6EF0DF08251D8B4B4EF0DF0B6EF0DF00A
:101B6800CDEF0DF0D8907637773778377937D8902A
:101B78006A376B376C376D3780AFC5EF0DF0C7EF3D
:101B88000DF0C8EF0DF06A81D8907D377E377F372A
:101B980080376E51765D6F51775970517859715110
:101BA8007959D8A0DAEF0DF0DCEF0DF0E5EF0DF084
:101BB800808D6E51765F6F51775B7051785B715194
:101BC800795B822B190E8265ECEF0DF0EEEF0DF0CC
:101BD800AEEF0DF07651771178117911D8B4F7EF8F
:101BE8000DF0F9EF0DF011EF0EF07D8111EF0EF011
:101BF800D8906A376B376C376D3780AF06EF0EF0C9
:101C080008EF0EF009EF0EF06A81D8907D377E3725
:101C18007F3780377B07D8A07C076CAF16EF0EF0B4
:101C280018EF0EF0FCEF0DF0000E826F80AF1FEF83
:101C38000EF021EF0EF045EF0EF0FF0E7D15726FDE
:101C4800FF0E7E15736FFF0E7F15746F7F0E801564
:101C5800756F7251731174117511D8B436EF0EF097
:101C680038EF0EF03CEF0EF0010E826F45EF0EF0EC
:101C78006AA141EF0EF043EF0EF045EF0EF038EF9A
:101C88000EF08251D8B44BEF0EF04DEF0EF071EF1D
:101C98000EF0010E6A27000E6B236C236D236DA1D5
:101CA80058EF0EF05AEF0EF071EF0EF06AC072F0B6
:101CB8006BC073F06CC074F06DC075F0753575331A
:101CC80074337333723372C06AF073C06BF074C0CC
:101CD8006CF075C06DF07B4B7C2B7CBF7CEF0EF0FD
:101CE8007C5108E17B29D8A07CEF0EF07EEF0EF046
:101CF80089EF0EF0000E7C6F7B69000E6A6F000E94
:101D08006B6F000E6C6F000E6D6F7CBF96EF0EF060
:101D18007C5106E17B05D8B094EF0EF096EF0EF0FB
:101D2800A4EF0EF0000E7C6F000E7B6F000E6A6F42
:101D3800000E6B6F000E6C6F000E6D6F000E7A6FE9
:101D48007BC081F081A1ABEF0EF0ADEF0EF0B0EFEC
:101D58000EF06C8FB1EF0EF06C9FD89081316D6FE3
:101D680067EF0DF0120038EC17F0410E1E6E000EF2
:101D78001F6E9DEC21F0410E1E6E000E1F6E9DEC35
:101D880021F04E0E0101646FEB0EE82EFED7642F92
:101D9800FCD7CBEF0FF0BFEC25F0BFEF0EF090ECC7
:101DA8001CF0BFEF0EF0F0EC1CF0BFEF0EF030ECC3
:101DB8001CF0BFEF0EF00DEC1EF0BFEF0EF050EC74
:101DC8001DF0BFEF0EF0B0EC1DF0BFEF0EF03E0EB1
:101DD8000001686F000E696F7FEC23F0BFEF0EF013
:101DE8003E0E0001686F000E696FB2EC23F0BFEF82
:101DF8000EF031063150D8A404EF0FF006EF0FF0C3
:101E080008EF0FF0010E316EC60E5B6F000E5C6FAF
:101E1800CD0E5D6F000E5E6F080E5F6F31C060F112
:101E280071EC1AF0BFEF0EF0312AB40E31641FEFD7
:101E38000FF021EF0FF008EF0FF0B40E316E08EF3E
:101E48000FF030063050D8A42CEF0FF02EEF0FF023
:101E580030EF0FF0010E306EC60E5B6F000E5C6F38
:101E6800CD0E5D6F000E5E6F090E5F6F30C060F1C2
:101E780071EC1AF0BFEF0EF0302AB40E306447EF61
:101E88000FF049EF0FF030EF0FF0B40E306E30EF77
:101E98000FF02F062F50D8A454EF0FF056EF0FF085
:101EA80058EF0FF0010E2F6EC60E5B6F000E5C6FC1
:101EB800CD0E5D6F000E5E6F0A0E5F6F2FC060F172
:101EC80071EC1AF0BFEF0EF02F2AB40E2F646FEFEB
:101ED8000FF071EF0FF058EF0FF0B40E2F6E58EFB0
:101EE8000FF02E062E50D8A47CEF0FF07EEF0FF0E7
:101EF80080EF0FF0010E2E6EC60E5B6F000E5C6F4A
:101F0800CD0E5D6F000E5E6F0B0E5F6F2EC060F121
:101F180071EC1AF0BFEF0EF02E2AB40E2E6497EF74
:101F28000FF099EF0FF080EF0FF0B40E2E6E80EFE8
:101F38000FF0370E0001606F000E616F360E626F92
:101F4800000E636F350E646F000E656F340E666F9A
:101F5800000E676F330E686F000E696F76EC1FF026
:101F6800BFEF0EF0D10E0001836F000E846FF80EE4
:101F7800856F000E866FFC0E876F000E886F68EC09
:101F880018F0BFEF0EF09EEC14F0BFEF0EF03850D3
:101F98000101646F656B6551000AD8B4D6EF0FF084
:101FA800BFEF0EF06451000AD8B4CFEF0EF0010A6B
:101FB800D8B4D3EF0EF0030AD8B4D7EF0EF0010A65
:101FC800D8B4DBEF0EF0070AD8B4BFEF0EF0010A61
:101FD800D8B4BFEF0EF0030AD8B4DFEF0EF0010A51
:101FE800D8B4E3EF0EF00F0AD8B4E7EF0EF0010A09
:101FF800D8B4BFEF0EF0030AD8B4BFEF0EF01A0A38
:10200800D8B4EBEF0EF0010AD8B4F4EF0EF0030ADF
:10201800D8B4FDEF0EF0010AD8B418EF0FF0070A94
:10202800D8B425EF0FF0010AD8B440EF0FF0030A37
:10203800D8B44DEF0FF0010AD8B468EF0FF00F0ACB
:10204800D8B475EF0FF0010AD8B490EF0FF0540A26
:10205800D8B49DEF0FF0030AD8B4B6EF0FF0010A19
:10206800D8B4C7EF0FF0BFEF0EF043EF01F0000E4A
:1020780000016B6F000E6A6F60516111D8B447EFB1
:1020880010F049EF10F052EF10F062516311D8A42C
:1020980050EF10F052EF10F054EF10F032EF11F053
:1020A8009EAA59EF10F05BEF10F052EF10F020EEFF
:1020B80009F06051D9266151DA22DFB866EF10F0D5
:1020C80068EF10F075EF10F0AE50236E246A62C00E
:1020D800D9FF63C0DAFF23C0DEFF24C0DDFF32EF83
:1020E80011F020EE09F06051D9266151DA22DFA8FB
:1020F80080EF10F082EF10F032EF11F020EE09F0CF
:102108006051D9266151DA22DF30030B0009D8A4C7
:1021180090EF10F092EF10F0B4EF10F0AECF6AF03D
:102128006B6BABB09AEF10F09CEF10F0A2EF10F0D1
:10213800000E656F000E646FA6EF10F0010E656F5C
:10214800000E646F64516A2765516B2362C0D9FF22
:1021580063C0DAFF6AC0DEFF6BC0DDFF32EF11F04B
:1021680020EE09F06051D9266151DA22DF30030BE5
:10217800E806D8A4C2EF10F0C4EF10F0FAEF10F0A0
:10218800AECF6AF06B6BABB0CCEF10F0CEEF10F0C7
:10219800D4EF10F0000E676F000E666FD8EF10F0E6
:1021A800010E676F000E666F66516A2767516B23D1
:1021B8006A51E3EC22F0236E00016B512318D8A476
:1021C800E8EF10F0EAEF10F032EF11F0FF0E6A15A9
:1021D800236E000E6B15246E62C0D9FF63C0DAFF50
:1021E80023C0DEFF24C0DDFF32EF11F020EE09F03E
:1021F8006051D9266151DA22DF30030B020AD8A4D4
:1022080008EF11F00AEF11F032EF11F0AECF6AF0DB
:102218006B6BABB012EF11F014EF11F01AEF11F075
:10222800000E696F000E686F1EEF11F0010E696FE6
:10223800000E686F68516A2769516B236A51AFECC9
:1022480022F0236E00016B512318D8A42EEF11F051
:1022580030EF11F032EF11F0EAEF10F0ABB237EFD8
:1022680011F039EF11F040EF11F0ABA43EEF11F08F
:1022780040EF11F042EF11F0AB98AB881200000E5E
:10228800136E000E126E06500710D8B44EEF11F000
:1022980050EF11F059EF11F008500910D8A457EF7A
:1022A80011F059EF11F05BEF11F037EF12F09EAA21
:1022B80060EF11F062EF11F059EF11F020EE09F024
:1022C8000650D9260750DA22DFB86DEF11F06FEF0C
:1022D80011F07CEF11F0AE500A6E0B6A08C0D9FFFE
:1022E80009C0DAFF0AC0DEFF0BC0DDFF37EF12F0CE
:1022F80020EE09F00650D9260750DA22DFA887EF2A
:1023080011F089EF11F037EF12F020EE09F00650C6
:10231800D9260750DA22DF30030B0009D8A497EF3B
:1023280011F099EF11F0BBEF11F0AECF12F0136A74
:10233800ABB0A1EF11F0A3EF11F0A9EF11F0000E6F
:102348000D6E000E0C6EADEF11F0010E0D6E000E4D
:102358000C6E0C5012260D50132208C0D9FF09C06C
:10236800DAFF12C0DEFF13C0DDFF37EF12F020EEF8
:1023780009F00650D9260750DA22DF30030BE806A9
:10238800D8A4C9EF11F0CBEF11F000EF12F0AECFE7
:1023980012F0136AABB0D3EF11F0D5EF11F0DBEF09
:1023A80011F0000E0F6E000E0E6EDFEF11F0010E31
:1023B8000F6E000E0E6E0E5012260F501322125082
:1023C8004BEC23F00A6E13500A18D8A4EEEF11F064
:1023D800F0EF11F037EF12F0FF0E12140A6E000E34
:1023E80013140B6E08C0D9FF09C0DAFF0AC0DEFF5C
:1023F8000BC0DDFF37EF12F020EE09F00650D926AA
:102408000750DA22DF30030B020AD8A40EEF12F0CD
:1024180010EF12F037EF12F0AECF12F0136AABB034
:1024280018EF12F01AEF12F020EF12F0000E116EF2
:10243800000E106E24EF12F0010E116E000E106ED9
:102448001050122611501322125017EC23F00A6E66
:1024580013500A18D8A433EF12F035EF12F037EF03
:1024680012F0F0EF11F0ABB23CEF12F03EEF12F0C9
:1024780045EF12F0ABA443EF12F045EF12F047EF2F
:1024880012F0AB98AB8812000001646F0001645130
:10249800D8B451EF12F053EF12F075EF12F021BEDD
:1024A8005AEF12F058EF12F075EF12F01EC060F0FC
:1024B8001FC061F020C062F021C063F0601F611F7F
:1024C800621F631F602B000E61236223632360C0B9
:1024D80066F061C067F062C068F063C069F07DEFC4
:1024E80012F01EC066F01FC067F020C068F021C05F
:1024F80069F01E501F1020102110D8A486EF12F08A
:1025080088EF12F092EF12F0000E1E6E000E1F6E92
:10251800000E206E000E216E23EF13F0960E656FED
:102528009CEF12F0652BD8906933683367336633B4
:10253800000E6615606F000E6715616F000E681556
:10254800626FFE0E6915636F60516111621163114C
:10255800D8A4B1EF12F0B3EF12F096EF12F0C1EF7A
:1025680012F0652B010E6627000E67236823692386
:10257800D8906933683367336633000E6615606F29
:10258800000E6715616F000E6815626FFF0E691502
:10259800636F6051611162116311D8A4D6EF12F014
:1025A800D8EF12F0B5EF12F0E0EF12F06507D8900F
:1025B800663767376837693768BFE5EF12F0E7EFC6
:1025C80012F0EFEF12F0020E6561EDEF12F0EFEF8F
:1025D80012F0DAEF12F065B1F4EF12F0F6EF12F044
:1025E800F7EF12F0689FD890653365C060F0616BB3
:1025F800626B636B60C063F0626B616B606B6051B0
:10260800661361516713625168136351691364510A
:10261800D8B411EF13F013EF13F01BEF13F021BE32
:102628001AEF13F018EF13F01BEF13F0698F66C061
:102638001EF067C01FF068C020F069C021F01200CA
:10264800000E0101636F000E626F5B515C11D8A42C
:1026580030EF13F032EF13F034EF13F0E7EF13F02D
:10266800000E00016E6F000E6F6FC80E706F420E85
:10267800716F01015D511E6E1F6A206A216A010E89
:1026880048EC12F01EC06AF01FC06BF020C06CF05E
:1026980021C06DF0E9EC0CF06AC087F06BC088F0DF
:1026A8006CC089F06DC08AF0CB500001A46FA56B97
:1026B800010EA427000EA523A4C01EF0A5C01FF07C
:1026C800000E1FBEFF0E206E216E010E48EC12F0A8
:1026D8001EC083F01FC084F020C085F021C086F0A2
:1026E800D3EC0AF083C05EF184C05FF185C060F16D
:1026F80086C061F1000E0001876F000E886F800EA2
:10270800896F400E8A6F5EC183F05FC184F060C13B
:1027180085F061C186F0D3EC0AF083C053F184C020
:1027280054F185C055F186C056F1EFEC18F053C14D
:1027380062F154C163F15BC1D9FF5CC1DAFFDF50BC
:10274800D8A4A9EF13F0ABEF13F0C4EF13F062C1F4
:10275800A4F0030E0001A417A43BBD50A419CF0B8D
:10276800A419BD6E62C1A4F063C1A5F0D890A533C9
:10277800A433D890A533A433A451BE6EE7EF13F069
:102788005BC1D9FF5CC1DAFFDE04D8A4CEEF13F039
:10279800D0EF13F0E7EF13F062C1A4F0030E0001CD
:1027A800A417A43BBA50A419CF0BA419BA6E62C1DE
:1027B800A4F063C1A5F0D890A533A433D890A5336D
:1027C800A433A451BB6E1200010E0001606F21C03A
:1027D800D9FF22C0DAFFDF50D8A4F5EF13F0F7EFE6
:1027E80013F042EF14F01BEF14F0BD50F00B080982
:1027F800BD6E95EF14F0BD50F00B0909BD6E95EF55
:1028080014F0BD50F00B0209BD6E95EF14F0BD50E9
:10281800F00B0A09BD6E95EF14F0BD50F00B0B09D3
:10282800BD6E95EF14F0000E606F95EF14F020EE7A
:1028380002F02150D9262250DA22DF50236E246A72
:102848002450000AD8B42BEF14F017EF14F02350DB
:10285800020AD8B405EF14F00A0AD8B4F9EF13F055
:10286800010AD8B4FFEF13F0030AD8B40BEF14F041
:10287800010AD8B411EF14F017EF14F021C0D9FFF2
:1028880022C0DAFFDE04D8A44CEF14F04EEF14F0A7
:1028980095EF14F06EEF14F0BA50F00B0809BA6E09
:1028A80095EF14F0BA50F00B0909BA6E95EF14F0D1
:1028B800BA50F00B0209BA6E95EF14F0BA50F00B4B
:1028C8000A09BA6E95EF14F0BA50F00B0B09BA6EFC
:1028D80095EF14F020EE02F02150D9262250DA228A
:1028E800DF50236E246A2450000AD8B47EEF14F017
:1028F80017EF14F02350020AD8B45CEF14F00A0A58
:10290800D8B450EF14F0010AD8B456EF14F0030A03
:10291800D8B462EF14F0010AD8B468EF14F017EFD6
:1029280014F021C01EF022C01FF065EC21F0000158
:1029380060511200010E0001726F9D9A400E1E6ECA
:10294800000E1F6E010E206ED1EC17F034EF15F05B
:10295800330E6C6F010E6D6F390E6E6F000E6F6F58
:1029680044EC22F0240E3918D8A4BDEF14F0BFEFC0
:1029780014F034EF15F02BEF15F0330E6C6F010ED9
:102988006D6F390E6E6F000E6F6F44EC22F02C0ED7
:102998003918D8A4D2EF14F0D4EF14F02BEF15F0B7
:1029A8002C2A030E2C18D8A4DCEF14F0DEEF14F058
:1029B80000EF15F0000E2B6E330E00016C6F010E48
:1029C8006D6F1C0E2B246E6F6F6B010E6F2344EC22
:1029D80022F02B2A1B0E2B24D96EDA6A010EDA227A
:1029E8002C0EDE18D8A4FBEF14F0FDEF14F0E0EF86
:1029F80014F02C2A2BEF15F0050E2C18D8A407EF8D
:102A080015F009EF15F02BEF15F0000E2B6E330EB5
:102A180000016C6F010E6D6F0F0E2B246E6F6F6BC4
:102A2800010E6F2344EC22F02B2A0E0E2B24D96EB4
:102A3800DA6A010EDA222C0EDE18D8A426EF15F079
:102A480028EF15F00BEF15F0000E0001726F000172
:102A58007251D8A432EF15F034EF15F0C1EF14F02D
:102A680000017251D8A43BEF15F03DEF15F0ACEF23
:102A780014F0150E0001716F4B0E706FBE0EE82E2C
:102A8800FED7702FFCD7712FFAD700F0400E1E6EBC
:102A9800000E1F6E000E206ED1EC17F09D8A1200FA
:102AA800010E206E1E501F10D8B45DEF15F05FEFB9
:102AB80015F06FEF15F01EC0D9FF1FC0DAFFDF5009
:102AC800070B0001606F070E60656DEF15F06FEF83
:102AD80015F0D4EF15F0000E206EF5EF15F01EC0BE
:102AE800D9FF1FC0DAFFDF50070B606F010E616F5F
:102AF800602B81EF15F0D8906137602F7FEF15F0CC
:102B080000016151FF0A626F1EC0D9FF1FC0DAFFC2
:102B1800DF30E832E832070B636F6351020DB00E05
:102B2800F324D96E000EF420DA6EDECF64F0DDCF28
:102B380065F064C0D9FF65C0DAFF6251DF16F5EFB2
:102B480015F01EC0D9FF1FC0DAFFDF50070B606FFA
:102B5800010E616F602BB3EF15F0D8906137602FCD
:102B6800B1EF15F01EC0D9FF1FC0DAFFDF30E83221
:102B7800E832070B0001626F6251020DB00EF324B8
:102B8800D96E000EF420DA6EDECF63F0DDCF64F08C
:102B980063C0D9FF64C0DAFF6151DF12F5EF15F0A9
:102BA8001EC0D9FF1FC0DAFFDFBCDDEF15F0E0EF74
:102BB80015F0010EE1EF15F0000E606F616B6151C9
:102BC800000AD8B4EAEF15F06FEF15F06051000A6B
:102BD800D8B473EF15F0010AD8B4A5EF15F06FEF6C
:102BE80015F020501200010E0001606F21C0D9FFBE
:102BF80022C0DAFFDF50D8A404EF16F006EF16F073
:102C080047EF16F024EF16F0BD50F00B0409BD6E27
:102C180090EF16F0BD50F00B0509BD6E90EF16F061
:102C2800BD50F00B0609BD6E90EF16F0BD50F00BCD
:102C38000709BD6E90EF16F0000E606F90EF16F06A
:102C480020EE02F02150D9262250DA22DF50236EDE
:102C5800246A2450000AD8B434EF16F020EF16F096
:102C68002350040AD8B408EF16F0010AD8B40EEFBE
:102C780016F0030AD8B414EF16F0010AD8B41AEF04
:102C880016F020EF16F021C0D9FF22C0DAFFDE04CB
:102C9800D8A451EF16F053EF16F090EF16F06DEF41
:102CA80016F0BA50F00B0409BA6E90EF16F0BA504D
:102CB800F00B0509BA6E90EF16F0BA50F00B060942
:102CC800BA6E90EF16F0BA50F00B0709BA6E90EF93
:102CD80016F020EE02F02150D9262250DA22DF50D9
:102CE800236E246A2450000AD8B47DEF16F020EF32
:102CF80016F02350040AD8B455EF16F0010AD8B4D8
:102D08005BEF16F0030AD8B461EF16F0010AD8B4E5
:102D180067EF16F020EF16F021C01EF022C01FF05A
:102D280065EC21F000016051120001015B515C115A
:102D3800D8A4A1EF16F0A3EF16F0A5EF16F037EF21
:102D480017F0C69A20EE06F05B51D9265C51DA22BC
:102D5800DFA0B1EF16F0B3EF16F0BBEF16F05BC1D2
:102D6800A4F05CC1A5F06AEC1EF0F7EF16F020EEB7
:102D780006F05B51D9265C51DA22DFB0C6EF16F0B7
:102D8800C8EF16F0F7EF16F020EE06F05B51D926E3
:102D98005C51DA22DFA6D3EF16F0D5EF16F0D8EFA4
:102DA80016F0C58EE6EF16F020EE06F05B51D92638
:102DB8005C51DA22DFB6E3EF16F0E5EF16F0E6EF46
:102DC80016F0C59EC69EC69CC68820EE05F05B51CF
:102DD800D9265C51DA22DF50C86E5BC11EF05CC197
:102DE8001FF0CEEC24F02AEC26F0010120EE06F0CC
:102DF8005B51D9265C51DA22DFA205EF17F007EF05
:102E080017F00AEF17F0C78E18EF17F020EE06F04C
:102E18005B51D9265C51DA22DFB215EF17F017EFB4
:102E280017F018EF17F0C79E20EE06F05B51D92671
:102E38005C51DA22DFA423EF17F025EF17F028EF13
:102E480017F0C78C36EF17F020EE06F05B51D92645
:102E58005C51DA22DFB433EF17F035EF17F036EFB5
:102E680017F0C79CC68A1200410E226E000E236E10
:102E780071EC24F0400E226E000E236E71EC24F0EB
:102E88003E0E0001666F000E676FEFEC20F0A9ECB4
:102E980020F0C60E01015B6F000E5C6FCD0E5D6FFA
:102EA800000E5E6F000E5F6F5A0E606F71EC1AF0C5
:102EB800C60E01015B6F000E5C6FCD0E5D6F000EDC
:102EC8005E6F010E5F6F5A0E606F71EC1AF0C60EDE
:102ED80001015B6F000E5C6FCD0E5D6F000E5E6FC3
:102EE800020E5F6F5A0E606F71EC1AF0C60E010188
:102EF8005B6F000E5C6FCD0E5D6F000E5E6F030E94
:102F08005F6F5A0E606F71EC1AF0C60E01015B6FAD
:102F1800000E5C6FCD0E5D6F000E5E6F040E5F6F6E
:102F2800000E606F71EC1AF0C60E01015B6F000EA7
:102F38005C6FCD0E5D6F000E5E6F050E5F6F000E4D
:102F4800606F71EC1AF0C60E01015B6F000E5C6FCA
:102F5800CD0E5D6F000E5E6F060E5F6F000E606F28
:102F680071EC1AF0C60E01015B6F000E5C6FCD0E9E
:102F78005D6F000E5E6F070E5F6F000E606F71EC85
:102F88001AF0D10E0001666F000E676FF80E686FB9
:102F9800000E696F46EC24F01200010E216E1E50DF
:102FA8001F10D8B4DAEF17F0DCEF17F0ECEF17F0DA
:102FB8001EC0D9FF1FC0DAFFDF50070B0001606F8A
:102FC800070E6065EAEF17F0ECEF17F051EF18F015
:102FD800000E216E66EF18F01EC0D9FF1FC0DAFF81
:102FE800DF50070B606F010E616F602BFEEF17F06B
:102FF800D8906137602FFCEF17F000016151FF0A8C
:10300800626F1EC0D9FF1FC0DAFFDF30E832E83236
:10301800070B636F6351020DA60EF324D96E000EE1
:10302800F420DA6EDECF64F0DDCF65F064C0D9FF3E
:1030380065C0DAFF6251DF1666EF18F01EC0D9FFCF
:103048001FC0DAFFDF50070B606F010E616F602B46
:1030580030EF18F0D8906137602F2EEF18F01EC0AF
:10306800D9FF1FC0DAFFDF30E832E832070B000172
:10307800626F6251020DA60EF324D96E000EF42081
:10308800DA6EDECF63F0DDCF64F063C0D9FF64C0D1
:10309800DAFF6151DF1266EF18F02050606F616B44
:1030A8006151000AD8B45BEF18F0ECEF17F06051EB
:1030B800000AD8B4F0EF17F0010AD8B422EF18F0DC
:1030C800ECEF17F021501200000E00018B6F000E7C
:1030D8008A6F000E896F87518811D8A476EF18F08F
:1030E80078EF18F07AEF18F0EEEF18F0D59E85C05B
:1030F8001EF086C01FF0000E216E000E206E5AECE6
:1031080025F083C022F084C023F02EEC25F099EF3F
:1031180018F0010E83251E6E000E84211F6E8B0E83
:10312800206E000E216E1FEC1FF000018B51D8B4E9
:10313800A0EF18F0A2EF18F08DEF18F0D58EB1EFD0
:1031480018F0010E83251E6E000E84211F6E8B0E53
:10315800206E000E216E1FEC1FF000018B51D8A4C9
:10316800B8EF18F0BAEF18F0A5EF18F0D59E85C0A3
:103178001EF086C01FF0890E206E000E216EC5EC71
:103188001EF089C01EF08AC01FF0206A216A000E56
:1031980048EC12F01EC06AF01FC06BF020C06CF043
:1031A80021C06DF0330E00016E6F330E6F6F6B0E22
:1031B800706F420E716FE9EC0CF087C0D9FF88C0C0
:1031C800DAFF00016AC0DEFF6BC0DEFF6CC0DEFF05
:1031D8006DC0DEFF1200010155355635236E2350B0
:1031E800D8A4F9EF18F0FBEF18F005EF19F0000E6E
:1031F800536F000E546F000E556F000E566F72EF2E
:1032080019F053C157F154C158F155C159F156C17C
:103218005AF1200E15EF19F0D8905A335933583314
:103228005733E82E10EF19F05751226E558FFF0EC5
:103238005317FF0E5417FF0E5517000E5617960E0C
:10324800235E23BE2CEF19F02AEF19F042EF19F094
:103258002350800A970FD8B034EF19F036EF19F0E1
:1032680038EF19F0FBEF18F0D89056335533543334
:103278005333233E38EF19F05AEF19F01F0E236429
:1032880048EF19F04AEF19F052EF19F0FBEF18F078
:10329800D890533754375537563723062350D8A478
:1032A80058EF19F05AEF19F04CEF19F02250D8B432
:1032B80060EF19F062EF19F06AEF19F0561F551F09
:1032C800541F536D000E54235523562353C153F1F5
:1032D80054C154F155C155F156C156F1120023504D
:1032E8002410D8A47AEF19F07CEF19F07EEF19F0CA
:1032F800F3EF19F0D59E20EE03F02350D926245081
:10330800DA22DFA202D0D58C01D0D59C20EE03F0C2
:103318002350D9262450DA22DFB495EF19F097EF1D
:1033280019F0A6EF19F023C0D9FF24C0DAFFDF5047
:103338000001606FD5506019F80B6019D56ED596ED
:10334800B4EF19F020EE03F02350D9262450DA22E6
:10335800DFA4B1EF19F0B3EF19F0B4EF19F0D58687
:1033680020EE03F02350D9262450DA22DFA0BFEF45
:1033780019F0C1EF19F0CDEF19F020EE03F023504A
:10338800D9262450DA22DFA602D0D58801D0D598D4
:10339800928820EE03F02350D9262450DA22DFA0A9
:1033A80002D0D58A01D0D59A23C01EF024C01FF0C0
:1033B80020EE01F02350D9262450DA22DECF20F067
:1033C800DDCF21F05AEC25F020EE01F02350D9266C
:1033D8002450DA22DECFD7F0DDCFD8F0D58E120018
:1033E800000166516711D8A4FCEF19F0FEEF19F03F
:1033F80000EF1AF070EF1AF066C0D9FF67C0DAFF65
:10340800DF50D8A40AEF1AF00CEF1AF010EF1AF0F8
:10341800F00EBD161EEF1AF066C0D9FF67C0DAFFBE
:10342800DE04D8A41AEF1AF01CEF1AF01EEF1AF0F7
:10343800F00EBA1620EE01F06651D9266751DA224D
:10344800DF50D8A42AEF1AF02CEF1AF034EF1AF054
:1034580066C021F067C022F0F7EC15F061EF1AF0B2
:1034680020EE01F06651D9266751DA22DE04D8A48D
:1034780040EF1AF042EF1AF04AEF1AF066C021F056
:1034880067C022F0E8EC13F061EF1AF020EE01F0CB
:103498006651D9266751DA22020EDE18D8A457EFF2
:1034A8001AF059EF1AF061EF1AF066C021F067C000
:1034B80022F0C9EC1FF061EF1AF0030E0001662537
:1034C800226E000E6721236E71EC24F066C01EF098
:1034D80067C01FF02FEC26F0120001015B515C1150
:1034E800D8A479EF1AF07BEF1AF07DEF1AF0E4EF29
:1034F8001AF05F51040DF350080F636F000E0001BE
:10350800A06F000EA16F4C0EA26F430EA36FFC0EAE
:10351800876FA90E886F910E896F3F0E8A6F010120
:1035280060511E6E1F6A206A216A010E48EC12F073
:103538001EC083F01FC084F020C085F021C086F033
:10354800D3EC0AF083C09CF084C09DF085C09EF047
:1035580086C09FF024EC08F09CC053F19DC054F144
:103568009EC055F19FC056F1EFEC18F053C161F1C0
:1035780054C162F15BC160F05CC161F05DC1D9FF0B
:103588005EC1DAFFDF500001626F63C163F061C1A1
:1035980064F0E5EC23F00101632B5BC160F05CC1D2
:1035A80061F05DC1D9FF5EC1DAFFDF500001626FD3
:1035B80063C163F0010162510001646FE5EC23F01F
:1035C8001200FACF14F0FBCF15F0D9CF16F0DACFEE
:1035D80017F0F3CF18F0F4CF19F0F2AAF6EF1AF0BB
:1035E800F8EF1AF001EF1BF0F2A4FDEF1AF0FFEF6D
:1035F8001AF001EF1BF031EC26F09DA206EF1BF04C
:1036080008EF1BF009EF1BF09E50A0A20EEF1BF075
:1036180010EF1BF011EF1BF0A150A0A016EF1BF04C
:1036280018EF1BF019EF1BF0A1509DAA1EEF1BF01D
:1036380020EF1BF029EF1BF09EAA25EF1BF027EFC8
:103648001BF029EF1BF044EC25F09DA82EEF1BF092
:1036580030EF1BF039EF1BF09EA835EF1BF037EF6A
:103668001BF039EF1BF032EC26F0A0A63EEF1BF062
:1036780040EF1BF041EF1BF0A1509DA646EF1BF059
:1036880048EF1BF049EF1BF09E5019C0F4FF18C01B
:10369800F3FF17C0DAFF16C0D9FF15C0FBFF14C02F
:1036A800FAFF4292110006500710D8A45EEF1BF0F3
:1036B80060EF1BF062EF1BF0C8EF1BF020EE02F08A
:1036C8000650D9260750DA22DFA66DEF1BF06FEF00
:1036D8001BF0C6EF1BF020EE02F00650D92607506B
:1036E800DA22DF50030B0009D8A47DEF1BF07FEF2F
:1036F8001BF08EEF1BF008C00AF009C00BF00BC0DE
:103708000AF00B6A0A30D8A002D0AC8001D0AC9085
:10371800C6EF1BF020EE02F00650D9260750DA2239
:10372800DF50030BE806D8A49CEF1BF09EEF1BF0BC
:10373800AAEF1BF008504BEC23F00A6E0A30D8A011
:1037480002D0AC8001D0AC90C6EF1BF020EE02F0A6
:103758000650D9260750DA22DF50030B020AD8A4F4
:10376800B8EF1BF0BAEF1BF0C6EF1BF0085017ECD0
:1037780023F00A6E0A30D8A002D0AC8001D0AC90F9
:10378800C6EF1BF008C0ADFF120001015D515E11CC
:10379800D8B4D1EF1BF0D3EF1BF0DCEF1BF05F5177
:1037A8006011D8A4DAEF1BF0DCEF1BF0DEEF1BF0A2
:1037B8002FEF1CF05DC15BF15EC15CF199EC16F076
:1037C8005DC160F05EC161F05FC1D9FF60C1DAFF21
:1037D800DF500001626FFE0E636F010120EE01F001
:1037E8005F51D9266051DA22DF500001646FE5ECA1
:1037F80023F05DC160F05EC161F05FC1D9FF60C1B7
:10380800DAFFDF500001626F000E636F010120EEE6
:1038180002F05F51D9266051DA22DF500001646F4F
:10382800E5EC23F05DC160F05EC161F05FC1D9FFD6
:1038380060C1DAFFDF500001626F010E636F0101A2
:1038480020EE03F05F51D9266051DA22DF500001E3
:10385800646FE5EC23F01200020E0001F76FBFEC75
:1038680025F0C60E01015B6F000E5C6FCD0E5D6F1B
:10387800000E5E6F000E5F6F870E606F71EC1AF0BE
:10388800C60E01015B6F000E5C6FCD0E5D6F000E02
:103898005E6F010E5F6F780E606F71EC1AF0C60EE6
:1038A80001015B6F000E5C6FCD0E5D6F000E5E6FE9
:1038B800020E5F6F2D0E606F71EC1AF0C60E0101DB
:1038C8005B6F000E5C6FCD0E5D6F000E5E6F030EBA
:1038D8005F6F1E0E606F71EC1AF0D40E226E000E30
:1038E800236E84EC25F0D30E226E000E236E84EC3A
:1038F80025F0BA0E01015B6F000E5C6F5F0E5D6F05
:1039080024EC13F03F0E01015B6F010E5C6F5F0E3C
:103918005D6F24EC13F01200030E0001F76FBFEC8B
:1039280025F0C60E01015B6F000E5C6FCD0E5D6F5A
:10393800000E5E6F000E5F6F2D0E606F71EC1AF057
:10394800C60E01015B6F000E5C6FCD0E5D6F000E41
:103958005E6F010E5F6F1E0E606F71EC1AF0C60E7F
:1039680001015B6F000E5C6FCD0E5D6F000E5E6F28
:10397800020E5F6F870E606F71EC1AF0C60E0101C0
:103988005B6F000E5C6FCD0E5D6F000E5E6F030EF9
:103998005F6F780E606F71EC1AF0D40E226E000E15
:1039A800236E84EC25F0D30E226E000E236E84EC79
:1039B80025F0BA0E01015B6F000E5C6F5F0E5D6F44
:1039C80024EC13F03F0E01015B6F010E5C6F5F0E7C
:1039D8005D6F24EC13F01200010E0001F76FBFECCD
:1039E80025F0C60E01015B6F000E5C6FCD0E5D6F9A
:1039F800000E5E6F000E5F6F5A0E606F71EC1AF06A
:103A0800C60E01015B6F000E5C6FCD0E5D6F000E80
:103A18005E6F010E5F6F5A0E606F71EC1AF0C60E82
:103A280001015B6F000E5C6FCD0E5D6F000E5E6F67
:103A3800020E5F6F5A0E606F71EC1AF0C60E01012C
:103A48005B6F000E5C6FCD0E5D6F000E5E6F030E38
:103A58005F6F5A0E606F71EC1AF0D40E226E000E72
:103A6800236E84EC25F0D30E226E000E236E84ECB8
:103A780025F0BA0E01015B6F000E5C6F5F0E5D6F83
:103A880024EC13F03F0E01015B6F010E5C6F5F0EBB
:103A98005D6F24EC13F01200040E0001F76FBFEC09
:103AA80025F0C60E01015B6F000E5C6FCD0E5D6FD9
:103AB800000E5E6F000E5F6F5A0E606F71EC1AF0A9
:103AC800C60E01015B6F000E5C6FCD0E5D6F000EC0
:103AD8005E6F010E5F6F5A0E606F71EC1AF0C60EC2
:103AE80001015B6F000E5C6FCD0E5D6F000E5E6FA7
:103AF800020E5F6F5A0E606F71EC1AF0C60E01016C
:103B08005B6F000E5C6FCD0E5D6F000E5E6F030E77
:103B18005F6F5A0E606F71EC1AF0D40E226E000EB1
:103B2800236E98EC25F0D30E226E000E236E98ECCF
:103B380025F0BA0E01015B6F000E5C6F5F0E5D6FC2
:103B480024EC13F03F0E01015B6F010E5C6F5F0EFA
:103B58005D6F24EC13F01200BFEC25F0C60E0101D6
:103B68005B6F000E5C6FCD0E5D6F000E5E6F000E1A
:103B78005F6F870E606F71EC1AF0C60E01015B6F04
:103B8800000E5C6FCD0E5D6F000E5E6F010E5F6FF5
:103B9800780E606F71EC1AF0C60E01015B6F000EB3
:103BA8005C6FCD0E5D6F000E5E6F020E5F6F2D0EA7
:103BB800606F71EC1AF0C60E01015B6F000E5C6F4E
:103BC800CD0E5D6F000E5E6F030E5F6F1E0E606F91
:103BD80071EC1AF0D40E226E000E236E98EC25F0CC
:103BE800D30E226E000E236E98EC25F0BA0E01015A
:103BF8005B6F000E5C6F5F0E5D6F24EC13F03F0E81
:103C080001015B6F010E5C6F5F0E5D6F24EC13F0BA
:103C18001200BFEC25F0C60E01015B6F000E5C6F51
:103C2800CD0E5D6F000E5E6F000E5F6F2D0E606F24
:103C380071EC1AF0C60E01015B6F000E5C6FCD0EC1
:103C48005D6F000E5E6F010E5F6F1E0E606F71EC90
:103C58001AF0C60E01015B6F000E5C6FCD0E5D6F32
:103C6800000E5E6F020E5F6F870E606F71EC1AF0C8
:103C7800C60E01015B6F000E5C6FCD0E5D6F000E0E
:103C88005E6F030E5F6F780E606F71EC1AF0D40EE2
:103C9800226E000E236E98EC25F0D30E226E000ED5
:103CA800236E98EC25F0BA0E01015B6F000E5C6F75
:103CB8005F0E5D6F24EC13F03F0E01015B6F010E88
:103CC8005C6F5F0E5D6F24EC13F012000001A451CD
:103CD800A511D8A472EF1EF074EF1EF076EF1EF057
:103CE800C4EF1EF020EE04F0A451D926A551DA2223
:103CF800DF50246EC6502418F00B2418C66E000E30
:103D0800A06F000EA16F800EA26FBF0EA36FA4C09C
:103D1800D9FFA5C0DAFFDECF1EF0DECF1FF0DECF61
:103D280020F0DECF21F0000E48EC12F01EC06EF03D
:103D38001FC06FF020C070F021C071F0000E0001AC
:103D48006A6F240E6B6FF40E6C6F490E6D6FE9ECA1
:103D58000CF06AC09CF06BC09DF06CC09EF06DC00A
:103D68009FF024EC08F09CC053F19DC054F19EC014
:103D780055F19FC056F1EFEC18F001015351C86E90
:103D88001200000E236E000E226E1E501F10D8B4B3
:103D9800D0EF1EF0D2EF1EF0DBEF1EF02050211006
:103DA800D8A4D9EF1EF0DBEF1EF0DDEF1EF01EEFFA
:103DB8001FF020EE03F01E50D9261F50DA22DFB282
:103DC800E8EF1EF0EAEF1EF003EF1FF0D6CF23F066
:103DD800D7CF22F022500001616F606B2350626FD1
:103DE800636B605162276151632320C0D9FF21C0F2
:103DF800DAFF62C0DEFF63C0DDFF1EEF1FF020EEBA
:103E080003F01E50D9261F50DA22DFA20EEF1FF052
:103E180010EF1FF0DBEF1EF0D6CF23F02350000188
:103E2800606F616B20C0D9FF21C0DAFF60C0DEFF80
:103E380061C0DDFF12001E501F10D8B426EF1FF01E
:103E480028EF1FF041EF1FF020502110D8B42FEFBA
:103E58001FF031EF1FF041EF1FF01EC0D9FF1FC048
:103E6800DAFFDF50070B0001606F070E60653FEF58
:103E78001FF041EF1FF043EF1FF075EF1FF01EC05A
:103E8800D9FF1FC0DAFFDF50070B606F1EC0D9FFD4
:103E98001FC0DAFFDF30E832E832070B616F61518B
:103EA800020D290EF324D96E010EF420DA6EDECF4E
:103EB80062F0DDCF63F062C0D9FF63C0DAFFDF5084
:103EC800646F602B6AEF1FF0D8906433602F68EF3F
:103ED8001FF000016451010B20C0D9FF21C0DAFF97
:103EE800DF6E1200000160516111D8B47EEF1FF03F
:103EF80080EF1FF0A4EF1FF062516311D8B487EF71
:103F08001FF089EF1FF0A4EF1FF064516511D8B4BA
:103F180090EF1FF092EF1FF0A4EF1FF066516711AA
:103F2800D8B499EF1FF09BEF1FF0A4EF1FF0685172
:103F38006911D8A4A2EF1FF0A4EF1FF0A6EF1FF09D
:103F4800C8EF1FF0E3EC25F018EC25F060C01EF078
:103F580061C01FF01AEC20F062C01EF063C01FF0B1
:103F68001AEC20F064C01EF065C01FF01AEC20F0B7
:103F780066C01EF067C01FF01AEC20F068C01EF083
:103F880069C01FF01AEC20F0120020EE09F0215051
:103F9800D9262250DA22DF50CB6E090E21241E6E5C
:103FA800000E22201F6E0DEC22F021C0D9FF22C086
:103FB800DAFFDF50D8A4E3EF1FF0E5EF1FF0FAEFC8
:103FC8001FF020EE02F02150D9262250DA220C0EE2
:103FD800DE18D8A4F2EF1FF0F4EF1FF019EF20F06D
:103FE800BD50F00B0C09BD6E19EF20F021C0D9FFB0
:103FF80022C0DAFFDE04D8A404EF20F006EF20F098
:1040080019EF20F020EE02F02150D9262250DA22B2
:104018000C0EDE18D8A413EF20F015EF20F019EFDE
:1040280020F0BA50F00B0C09BA6E12001EC0D9FF6E
:104038001FC0DAFF000EDF6E000E216E83AE27EF81
:1040480020F029EF20F022EF20F01A0EE82EFED7FC
:1040580000F000F083AE33EF20F035EF20F044EFAE
:1040680020F01EC0D9FF1FC0DAFFDF50206ED880B5
:1040780020341EC0D9FF1FC0DAFFDF6E51EF20F0D9
:104088001EC0D9FF1FC0DAFFDF50206ED890203441
:104098001EC0D9FF1FC0DAFFDF6E83BE56EF20F0C7
:1040A80058EF20F051EF20F0212A070E21645FEF2E
:1040B80020F061EF20F022EF20F01200A40EF66E3F
:1040C8004B0EF76E000EF86E01EE29F010EE22F09E
:1040D8000900F5CFEEFFE550E150FAE1000EF66E6B
:1040E8004A0EF76E000EF86E00EEA6F010EE2FF0F6
:1040F8000900F5CFEEFFE550E150FAE14C0EF66EFF
:104108004C0EF76E000EF86E00EE3AF010EE08F066
:104118000900F5CFEEFFE550E150FAE101EE00F0BD
:10412800290EEE6AE806FDE100EED5F02B0EEE6AE8
:10413800E806FDE100EE25F0150EEE6AE806FDE161
:10414800429042920001B7EF0EF0D40E0001666F64
:10415800000E676FACEC25F0D30E0001666F000E01
:10416800676FACEC25F0BA0E0001666F000E676F42
:10417800F4EC19F03F0E0001666F010E676FF4EC66
:1041880019F0BA0E01015B6F000E5C6F000E5D6FD7
:1041980024EC13F03F0E01015B6F010E5C6F000E03
:1041A8005D6F24EC13F0BA0E1E6E000E1F6E18EC35
:1041B80024F03F0E1E6E010E1F6E18EC24F0C60E82
:1041C80001015D6F000E5E6FCD0E5F6F000E606FB8
:1041D800C9EC1BF01200000166516711D8A4F7EF73
:1041E80020F0F9EF20F0FBEF20F02CEF21F066C073
:1041F80022F067C023F071EC24F0010E000166255F
:10420800226E000E6721236E71EC24F0010E00016E
:1042180066251E6E000E67211F6E54EC15F066C0F1
:104228001EF067C01FF054EC15F066C01EF067C0A2
:104238001FF0000E206ED1EC17F0010E000166256C
:104248001E6E000E67211F6E000E206ED1EC17F057
:10425800120022502310D8A434EF21F036EF21F0B9
:1042680038EF21F064EF21F022C01EF023C01FF0C8
:10427800010E206ED1EC17F0060E0001676F130EC9
:10428800666FAD0EE82EFED7662FFCD7672FFAD7DC
:1042980000F000F022C01EF023C01FF0000E206EB8
:1042A800D1EC17F0060E0001676F130E666FAD0EA6
:1042B800E82EFED7662FFCD7672FFAD700F000F05C
:1042C800120020EE04F01E50D9261F50DA22DF50CB
:1042D800D8A471EF21F073EF21F077EF21F0B196B8
:1042E800B18C9CEF21F020EE04F01E50D9261F500F
:1042F800DA22DE04D8A483EF21F085EF21F089EFDC
:1043080021F0B186B19C9CEF21F020EE04F01E5004
:10431800D9261F50DA22020EDE18D8A496EF21F013
:1043280098EF21F09CEF21F0B196B19C9CEF21F021
:1043380012001E501F10D8A4A4EF21F0A6EF21F000
:10434800A8EF21F0D4EF21F01EC0D9FF1FC0DAFF7B
:10435800DF50070B206E010E216E202AB6EF21F0E8
:10436800D8902136202EB4EF21F01EC0D9FF1FC0EF
:10437800DAFFDF30E832E832070B226E2250020DF6
:10438800A60EF324D96E000EF420DA6EDECF23F0E9
:10439800DDCF24F023C0D9FF24C0DAFF2150DF1A73
:1043A800120001500210D8A4DCEF21F0DEEF21F05A
:1043B800E0EF21F00CEF22F001C0D9FF02C0DAFFD4
:1043C800DF50070B036E010E046E032AEEEF21F097
:1043D800D8900436032EECEF21F001C0D9FF02C0BB
:1043E800DAFFDF30E832E832070B056E0550020DC0
:1043F800A60EF324D96E000EF420DA6EDECF06F096
:10440800DDCF07F006C0D9FF07C0DAFF0450DF1A76
:1044180012001E501F10D8A414EF22F016EF22F03D
:1044280018EF22F043EF22F0CA9420EE01F01E505C
:10443800D9261F50DA22DF50206ECA502018FC0BF4
:104448002018CA6E20EE02F01E50D9261F50DA221C
:10445800DF50206E204620462046CA502018870B81
:104468002018CA6E1EC0D9FF1FC0DAFFDF50CC6EFD
:104478001EC0D9FF1FC0DAFFDF50326ECA84120097
:1044880000016C516D11D8B44CEF22F04EEF22F0C0
:1044980057EF22F06E516F11D8A455EF22F057EF65
:1044A80022F059EF22F06AEF22F09EAA5EEF22F086
:1044B80060EF22F059EF22F06CC060F06DC061F03F
:1044C8006EC062F06FC063F03BEC10F0ABB26FEF00
:1044D80022F071EF22F078EF22F0ABA476EF22F011
:1044E80078EF22F07AEF22F0AB98AB8812001E50DA
:1044F8001F10D8B482EF22F084EF22F08DEF22F063
:1045080021502210D8A48BEF22F08DEF22F08FEFEC
:1045180022F0AEEF22F020C0C9FFC7B096EF22F01C
:1045280098EF22F091EF22F09E96C5BC9EEF22F004
:10453800A0EF22F0A8EF22F021C0D9FF22C0DAFFB5
:10454800000EDF6EAEEF22F021C0D9FF22C0DAFFE5
:10455800010EDF6E1200206E000E216E000E226E1C
:10456800000E226E22C01EF0010E1F6E1E2ABFEF23
:1045780022F0D8901F361E2EBDEF22F01F502014B7
:104588000009D8B4CAEF22F0CCEF22F0CDEF22F028
:10459800212A222A070E2264D4EF22F0D6EF22F035
:1045A800B6EF22F0212A21B0DCEF22F0DEEF22F074
:1045B800E1EF22F0010EE2EF22F0000E1200206E71
:1045C800000E216E000E226E000E226E22C01EF01A
:1045D800010E1F6E1E2AF3EF22F0D8901F361E2EF2
:1045E800F1EF22F01F5020140009D8B4FEEF22F09A
:1045F80000EF23F001EF23F0212A222A070E22647C
:1046080008EF23F00AEF23F0EAEF22F0212A21A095
:1046180010EF23F012EF23F015EF23F0010E16EF41
:1046280023F0000E1200036E000E046E000E056EDD
:10463800000E056E05C001F0010E026E012A27EF7B
:1046480023F0D8900236012E25EF23F002500314F0
:104658000009D8B432EF23F034EF23F035EF23F01C
:10466800042A052A070E05643CEF23F03EEF23F0E9
:104678001EEF23F0042A04B044EF23F046EF23F0A2
:1046880049EF23F0010E4AEF23F0000E1200036EEB
:10469800000E046E000E056E000E056E05C001F0DA
:1046A800010E026E012A5BEF23F0D8900236012E2C
:1046B80059EF23F0025003140009D8B466EF23F031
:1046C80068EF23F069EF23F0042A052A070E056432
:1046D80070EF23F072EF23F052EF23F0042A04A0C6
:1046E80078EF23F07AEF23F07DEF23F0010E7EEFD1
:1046F80023F0000E1200000168516911D8A487EF59
:1047080023F089EF23F08BEF23F0B1EF23F0010EB4
:1047180068251E6E000E69211F6E010E206ED1ECF9
:1047280017F0000E00016B6F000E6A6F68C022F070
:1047380069C023F02DEC21F000016A4B6B2B6BBF95
:10474800AFEF23F06B5109E10A0E6A5DD8A0AFEF15
:1047580023F0B1EF23F09AEF23F012000001685123
:104768006911D8A4BAEF23F0BCEF23F0BEEF23F011
:10477800E4EF23F0010E68251E6E000E69211F6EFE
:10478800000E206ED1EC17F0000E00016B6F000ECA
:104798006A6F68C022F069C023F02DEC21F0000197
:1047A8006A4B6B2B6BBFE2EF23F06B5109E10A0EEA
:1047B8006A5DD8A0E2EF23F0E4EF23F0CDEF23F019
:1047C8001200060E236E60C01EF061C01FF0B2EC2E
:1047D80024F060C01EF061C01FF062C020F0230EFC
:1047E800216E000E226E7BEC22F060C01EF061C0CC
:1047F8001FF063C020F0230E216E000E226E7BECAA
:1048080022F060C01EF061C01FF064C020F0230ECB
:10481800216E000E226E7BEC22F060C01EF061C09B
:104828001FF096EC24F012001E501F10D8A41FEFA2
:1048380024F021EF24F023EF24F045EF24F01EC0EC
:10484800D9FF1FC0DAFFDF50D8A42DEF24F02FEFD7
:1048580024F035EF24F0BD50F00B0C09BD6E45EF88
:1048680024F01EC0D9FF1FC0DAFFDE04D8A43FEF32
:1048780024F041EF24F045EF24F0BA50F00B0C0976
:10488800BA6E1200000166516711D8B44EEF24F0D9
:1048980050EF24F059EF24F068516911D8A457EF6C
:1048A80024F059EF24F05BEF24F070EF24F066C099
:1048B80022F067C023F071EC24F0010E0001662598
:1048C800226E000E6721236E71EC24F068C023F07D
:1048D80069C024F073EC19F0120022502310D8A4F8
:1048E80078EF24F07AEF24F07EEF24F0000E246EA7
:1048F80094EF24F022C01EF023C01FF054EC15F0F2
:10490800246E22C01EF023C01FF022C0D9FF23C08E
:10491800DAFF000EDFBE010E206ED1EC17F0246E18
:10492800245012001E501F10D8A49DEF24F09FEFB2
:1049380024F0A1EF24F0B1EF24F0C584C5B4A7EFAB
:1049480024F0A9EF24F0A2EF24F09E96C7A8AFEFB9
:1049580024F0B1EF24F09FEF24F012001E501F1036
:10496800D8A4B9EF24F0BBEF24F0BDEF24F0CDEFCD
:1049780024F0C580C5B0C3EF24F0C5EF24F0BEEF26
:1049880024F09E96C7A6CBEF24F0CDEF24F0BBEF22
:1049980024F012001E501F10D8A4D5EF24F0D7EF32
:1049A80024F0D9EF24F0E6EF24F020EE04F01E50B6
:1049B800D9261F50DA22DF50206EC6502018F00B7F
:1049C8002018C66E1200330E066E010E076E380EE2
:1049D800086E000E096E43EC11F0330E0C6E010EDA
:1049E8000D6E3AC00EF06FEC25F0410E016E000E10
:1049F800026ED5EC21F01200890F8A0F8B0F8C0FF5
:104A08008D0F920F930F940F950F960F00020012BF
:104A180000F4010000F9000FA086010008000380DF
:074A28007921040B4A191863
:104A300083BE1DEF25F01FEF25F018EF25F083AEA4
:104A400024EF25F026EF25F01FEF25F083BE2BEF96
:104A500025F02DEF25F026EF25F0120022C01EF0E4
:104A600023C01FF0010E206ED1EC17F0060EE82EC9
:104A7000FED700F000F022C01EF023C01FF0000E91
:104A8000206ED1EC17F0120029502A10D8B44BEF49
:104A900025F04DEF25F059EF25F002D859EF25F01C
:104AA0000500FA6E2950FD6E2A50FE6EFF6AFA501C
:104AB00012001200010E226E1E501F10D8A463EFC8
:104AC00025F065EF25F069EF25F0000E226E6DEF01
:104AD00025F02150D76E20C0D6FF225012000C5076
:104AE0000D10D8A476EF25F078EF25F07AEF25F0B9
:104AF00083EF25F00CC006F00DC007F00EC008F0E3
:104B0000096A57EC1BF0120022502310D8A48BEF37
:104B100025F08DEF25F08FEF25F097EF25F022C0DF
:104B20001EF023C01FF0000E206ED1EC17F0120013
:104B300022502310D8A49FEF25F0A1EF25F0A3EF7A
:104B400025F0ABEF25F022C01EF023C01FF0010EB0
:104B5000206ED1EC17F01200000166516711D8A445
:104B6000B4EF25F0B6EF25F0B8EF25F0BEEF25F055
:104B700066C022F067C023F071EC24F01200BA0E78
:104B800001015B6F000E5C6F000E5D6F24EC13F093
:104B90003F0E01015B6F010E5C6F000E5D6F24EC38
:104BA00013F01200800F810F820F830F840F802576
:104BB00004CE49000000000900000102001100F4C9
:104BC000010000F9000F959E8C9E2F0E1E6EC00EE8
:104BD000E82EFED71E2EFCD78C8E140EE82EFED7A4
:104BE000958E12001A6EF2901A50D8B4FAEF25F092
:104BF000FCEF25F0FEEF25F0FEEF25F012001A6E17
:104C0000F2901A50D8B407EF26F009EF26F00BEF18
:104C100026F00BEF26F012001A6EF2901A50D8B45C
:104C200014EF26F016EF26F018EF26F018EF26F016
:104C300012001A6EF2901A50D8B421EF26F023EF2A
:104C400026F025EF26F025EF26F012007701010F60
:104C50001B1A9C10948694881200F0901200120087
:064C600012001200120018
:020000040020DA
:08000000FFFFFFFFFFFFFFFF00
:020000040030CA
:0E000000FF02191EFF8181FF0FC00FE00F40AD
:00000001FF
