:020000040000FA
:0400000053EF01F0C9
:060008006382BAED03F073
:100018006380D8CF44F0E8CF45F0E0CF46F0FACF80
:1000280047F0FBCF48F0D9CF49F0DACF4AF0F3CF09
:100038004BF0F4CF4CF0F0A624EF00F026EF00F0E0
:100048002FEF00F0F0A02BEF00F02DEF00F02FEFD6
:1000580000F065EC09F0F2A634EF00F036EF00F09E
:100068004FEF00F0F2A03BEF00F03DEF00F04FEF54
:1000780000F081A842EF00F044EF00F04FEF00F0ED
:100088001FA049EF00F04BEF00F04FEF00F01F907A
:10009800010E34EC08F0F2A654EF00F056EF00F031
:1000A8006FEF00F0F2A05BEF00F05DEF00F06FEF94
:1000B80000F081B862EF00F064EF00F06FEF00F03D
:1000C8001FB069EF00F06BEF00F06FEF00F01F80DA
:1000D800000E34EC08F0F2A674EF00F076EF00F0B2
:1000E8008FEF00F0F2A07BEF00F07DEF00F08FEFD4
:1000F80000F081AA82EF00F084EF00F08FEF00F0AB
:100108001FA289EF00F08BEF00F08FEF00F01F9235
:10011800010E09EC08F0F2A694EF00F096EF00F05B
:10012800AFEF00F0F2A09BEF00F09DEF00F0AFEF13
:1001380000F081BAA2EF00F0A4EF00F0AFEF00F0FA
:100148001FB2A9EF00F0ABEF00F0AFEF00F01F8295
:10015800000E09EC08F0F2A6B4EF00F0B6EF00F0DC
:10016800CFEF00F0F2A0BBEF00F0BDEF00F0CFEF53
:1001780000F081ACC2EF00F0C4EF00F0CFEF00F068
:100188001FA4C9EF00F0CBEF00F0CFEF00F01F94F1
:10019800010EDEEC07F0F2A6D4EF00F0D6EF00F087
:1001A800EFEF00F0F2A0DBEF00F0DDEF00F0EFEF93
:1001B80000F081BCE2EF00F0E4EF00F0EFEF00F0B8
:1001C8001FB4E9EF00F0EBEF00F0EFEF00F01F8451
:1001D800000EDEEC07F0F2A6F4EF00F0F6EF00F008
:1001E8000FEF01F0F2A0FBEF00F0FDEF00F00FEFD2
:1001F80001F081AE02EF01F004EF01F00FEF01F022
:100208001FA609EF01F00BEF01F00FEF01F01F96A9
:10021800010EB3EC07F0F2A614EF01F016EF01F0AF
:100228002FEF01F0F2A01BEF01F01DEF01F02FEF0F
:1002380001F081BE22EF01F024EF01F02FEF01F071
:100248001FB629EF01F02BEF01F02FEF01F01F8609
:10025800000EB3EC07F09DAC34EF01F036EF01F07F
:1002680037EF01F09E509DA03CEF01F03EEF01F00A
:100278003FEF01F09E504CC0F4FF4BC0F3FF4AC063
:10028800DAFF49C0D9FF48C0FBFF47C0FAFF46C0A4
:10029800E0FF45C0E8FF44C0D8FF6390100010EFAE
:1002A80009F0010E0001886F80518111D8B45FEF09
:1002B80001F061EF01F070EF01F080C0D9FF81C05B
:1002C800DAFFDF50070B826F070E82656EEF01F0D1
:1002D80070EF01F0D5EF01F0000E886FF6EF01F036
:1002E80080C0D9FF81C0DAFFDF50070B826F010E93
:1002F800836F822B82EF01F0D8908337822F80EFB3
:1003080001F000018351FF0A846F80C0D9FF81C0CA
:10031800DAFFDF30E832E832070B856F8551020DCE
:10032800150EF324D96E000EF420DA6EDECF86F0B7
:10033800DDCF87F086C0D9FF87C0DAFF8451DF168A
:10034800F6EF01F080C0D9FF81C0DAFFDF50070B5C
:10035800826F010E836F822BB4EF01F0D890833740
:10036800822FB2EF01F080C0D9FF81C0DAFF00010F
:10037800DF30E832E832070B846F8451020D150E26
:10038800F324D96E000EF420DA6EDECF85F0DDCFCF
:1003980086F085C0D9FF86C0DAFF8351DF12F6EFF9
:1003A80001F080C0D9FF81C0DAFFDFBCDEEF01F0C9
:1003B800E1EF01F0010EE2EF01F0000E826F836BB6
:1003C8008351000AD8B4EBEF01F070EF01F08251CD
:1003D800000AD8B474EF01F0010AD8B4A6EF01F00E
:1003E80070EF01F088511200010E0001846F8051F6
:1003F8008111D8A402EF02F004EF02F06EEF02F0D0
:10040800000E846F8DEF02F020EE02F08051D926A5
:100418008151DA22DE04D8A414EF02F016EF02F0BC
:1004280019EF02F0F18C8DEF02F020EE02F080510E
:10043800D9268151DA22DF50D8A425EF02F027EF20
:1004480002F004EF02F0F19C8DEF02F020EE02F0D2
:100458008051D9268151DA22DE04D8A436EF02F081
:1004680038EF02F03BEF02F0F18A8DEF02F020EE58
:1004780002F08051D9268151DA22DF50D8A447EF03
:1004880002F049EF02F004EF02F0F19A8DEF02F06A
:1004980020EE02F08051D9268151DA22DE04D8A458
:1004A80058EF02F05AEF02F05DEF02F0F1888DEF9D
:1004B80002F020EE02F08051D9268151DA22DF5075
:1004C800D8A469EF02F06BEF02F004EF02F0F198A4
:1004D8008DEF02F020EE03F08051D9268151DA2207
:1004E800DF50826F836B8351000AD8B47EEF02F02D
:1004F80004EF02F08251000AD8B408EF02F0010AB2
:10050800D8B42AEF02F0030AD8B44CEF02F004EF93
:1005180002F084511200010E0001896F805181118F
:10052800D8B499EF02F09BEF02F0AAEF02F080C076
:10053800D9FF81C0DAFFDF50070B836F070E836591
:10054800A8EF02F0AAEF02F00FEF03F0000E896F98
:1005580024EF03F080C0D9FF81C0DAFFDF50070B1A
:10056800836F010E846F832BBCEF02F0D890843721
:10057800832FBAEF02F000018451FF0A856F80C013
:10058800D9FF81C0DAFFDF30E832E832070B866F27
:100598008651020D0B0EF324D96E000EF420DA6E8C
:1005A800DECF87F0DDCF88F087C0D9FF88C0DAFFBB
:1005B8008551DF1624EF03F080C0D9FF81C0DAFF30
:1005C800DF50070B836F010E846F832BEEEF02F071
:1005D800D8908437832FECEF02F080C0D9FF81C018
:1005E800DAFF0001DF30E832E832070B856F85510A
:1005F800020D0B0EF324D96E000EF420DA6EDECF56
:1006080086F0DDCF87F086C0D9FF87C0DAFF845136
:10061800DF1224EF03F08251836F846B8451000A48
:10062800D8B419EF03F0AAEF02F08351000AD8B446
:10063800AEEF02F0010AD8B4E0EF02F0AAEF02F040
:1006480089511200000185518611D8A42EEF03F0BC
:1006580030EF03F094EF03F0000E896FB8EF03F06A
:1006680085C0D9FF86C0DAFFDECF80F0DDCF81F00C
:1006780020EE02F08551D9268651DA22DECF82F0AB
:10068800DDCF83F0EDEC08F00001896FB8EF03F0DF
:1006980085C0D9FF86C0DAFFDECF80F0DDCF81F0DC
:1006A80020EE02F08551D9268651DA22DECF82F07B
:1006B800DDCF83F0CAEC08F00001896FB8EF03F0D2
:1006C80085C0D9FF86C0DAFFDECF80F0DDCF81F0AC
:1006D80020EE02F08551D9268651DA22DECF82F04B
:1006E800DDCF83F0A7EC08F00001896FB8EF03F0C5
:1006F80085C0D9FF86C0DAFFDECF80F0DDCF81F07C
:1007080020EE02F08551D9268651DA22DECF82F01A
:10071800DDCF83F084EC08F00001896FB8EF03F0B7
:1007280020EE05F08551D9268651DA22DF50070BD5
:10073800876F886B8851000AD8B4A5EF03F030EFB3
:1007480003F08751040AD8B434EF03F0010AD8B48F
:100758004CEF03F0030AD8B464EF03F0010AD8B4ED
:100768007CEF03F030EF03F0895112000600FACF56
:1007780035F0FBCF36F0D9CF37F0DACF38F0F3CFFA
:1007880039F0F4CF3AF0F2A8CCEF03F0CEEF03F053
:10079800D7EF03F0F2A2D3EF03F0D5EF03F0D7EFD2
:1007A80003F095EC09F0F0A8DCEF03F0DEEF03F0BE
:1007B800E7EF03F0F0A2E3EF03F0E5EF03F0E7EF74
:1007C80003F07DEC09F0F2AAECEF03F0EEEF03F092
:1007D800EFEF03F0F2509DA2F4EF03F0F6EF03F011
:1007E800F7EF03F09E50A0A2FCEF03F0FEEF03F03A
:1007F800FFEF03F0A150A0A004EF04F006EF04F00F
:1008080007EF04F0A1509DAA0CEF04F00EEF04F0DE
:100818000FEF04F09E509DA814EF04F016EF04F0BB
:1008280017EF04F09E50A0A61CEF04F01EEF04F092
:100838001FEF04F0A1509DA624EF04F026EF04F06A
:1008480027EF04F09E503AC0F4FF39C0F3FF38C0D8
:10085800DAFF37C0D9FF36C0FBFF35C0FAFF639215
:100868001100010E0001846F80518111D8A43FEF5F
:1008780004F041EF04F045EF04F0000E846FABEF95
:1008880004F0D08E8CEF04F020EE04F08051D926CD
:100898008151DA22DE04D8A454EF04F056EF04F0B4
:1008A80059EF04F0F08CABEF04F020EE04F0805127
:1008B800D9268151DA22DF50D8A465EF04F067EF1A
:1008C80004F041EF04F0F09CABEF04F020EE04F0EC
:1008D8008051D9268151DA22DE04D8A476EF04F0BB
:1008E80078EF04F07BEF04F0F08EABEF04F020EE2D
:1008F80004F08051D9268151DA22DF50D8A487EF3D
:1009080004F089EF04F041EF04F0F09EABEF04F03F
:1009180020EE03F08051D9268151DA22DF50826F10
:10092800836B8351000AD8B49CEF04F041EF04F0C4
:100938008251000AD8B4ABEF04F0010AD8B448EFEA
:1009480004F0030AD8B46AEF04F041EF04F08451CC
:100958001200010E0001846F80518111D8A4B7EFF5
:1009680004F0B9EF04F0BDEF04F0000E846F0AEF55
:1009780005F020EE04F08051D9268151DA22DE04F8
:10098800D8A4C9EF04F0CBEF04F0CEEF04F0F28E58
:10099800EBEF04F020EE04F08051D9268151DA22E1
:1009A800DF50D8A4DAEF04F0DCEF04F0E0EF04F055
:1009B800F28CF28EEBEF04F0EBEF04F0F2880AEF22
:1009C80005F0F0860AEF05F0F0880AEF05F020EE52
:1009D80003F08051D9268151DA22DF50826F836B70
:1009E8008351000AD8B4FBEF04F0B9EF04F0825148
:1009F800000AD8B4E2EF04F0010AD8B4E5EF04F035
:100A0800030AD8B4E8EF04F0B9EF04F084511200F7
:100A1800010E0001846F80518111D8A416EF05F0F2
:100A280018EF05F01CEF05F0000E846F68EF05F075
:100A380020EE04F08051D9268151DA22DE04D8A4B0
:100A480028EF05F02AEF05F02DEF05F0F29E49EFAB
:100A580005F020EE04F08051D9268151DA22DF50CA
:100A6800D8A439EF05F03BEF05F03EEF05F0F29C16
:100A780049EF05F049EF05F0F29868EF05F0F096B8
:100A880068EF05F0F09868EF05F020EE03F080516C
:100A9800D9268151DA22DF50826F836B8351000A95
:100AA800D8B459EF05F018EF05F08251000AD8B410
:100AB80040EF05F0010AD8B443EF05F0030AD8B4B3
:100AC80046EF05F018EF05F084511200000183513C
:100AD8008411D8A472EF05F074EF05F09AEF05F0D1
:100AE800B9EF05F083C0D9FF84C0DAFFDECF80F00C
:100AF800DDCF81F0EFEC09F0B9EF05F083C0D9FF45
:100B080084C0DAFFDECF80F0DDCF81F0D9EC09F0C8
:100B1800B9EF05F083C0D9FF84C0DAFFDECF80F0DB
:100B2800DDCF81F0C3EC09F0B9EF05F020EE03F05A
:100B38008351D9268451DA22DF50856F866B86511E
:100B4800000AD8B4AAEF05F074EF05F08551000A41
:100B5800D8B476EF05F0010AD8B482EF05F0030A9D
:100B6800D8B48EEF05F074EF05F01200000188513B
:100B78008911D8A4C2EF05F0C4EF05F0C6EF05F05F
:100B8800FCEF05F088C080F089C081F00CEC05F01E
:100B980000018A6F88C080F089C081F037EC06F0C8
:100BA80000018A1788C080F089C081F035EC04F014
:100BB80000018A1788C080F089C081F0FDEC05F03B
:100BC80000018A1788C080F089C081F0F8EC01F034
:100BD80000018A1788C083F089C084F06AEC05F0A8
:100BE80088C080F089C081F0ADEC04F000018A175C
:100BF8001200010E0001846F80518111D8A407EF03
:100C080006F009EF06F016EF06F0000E846F35EFD8
:100C180006F0938035EF06F0938235EF06F0938463
:100C280035EF06F020EE03F08051D9268151DA2203
:100C3800DF50826F836B8351000AD8B426EF06F029
:100C480009EF06F08251000AD8B40DEF06F0010A48
:100C5800D8B410EF06F0030AD8B413EF06F009EF82
:100C680006F084511200010E0001846F8051811139
:100C7800D8A441EF06F043EF06F050EF06F0000E5F
:100C8800846F6FEF06F0F2926FEF06F0F0906FEF5F
:100C980006F0F0926FEF06F020EE03F08051D926AF
:100CA8008151DA22DF50826F836B8351000AD8B4F6
:100CB80060EF06F043EF06F08251000AD8B447EF20
:100CC80006F0010AD8B44AEF06F0030AD8B44DEF8B
:100CD80006F043EF06F0845112003B503C10D8A4B4
:100CE80078EF06F07AEF06F07CEF06F0A8EF06F052
:100CF8003BC0D9FF3CC0DAFFDF50070B3D6E010E49
:100D08003E6E3D2A8AEF06F0D8903E363D2E88EF9B
:100D180006F03BC0D9FF3CC0DAFFDF30E832E832EA
:100D2800070B3F6E3F50020D0B0EF324D96E000ED9
:100D3800F420DA6EDECF40F0DDCF41F040C0D9FFBD
:100D480041C0DAFF3E50DF1A12002D502E10D8A4F1
:100D5800B0EF06F0B2EF06F0B4EF06F0E0EF06F001
:100D68002DC0D9FF2EC0DAFFDF50070B2F6E010E02
:100D7800306E2F2AC2EF06F0D89030362F2EC0EFF3
:100D880006F02DC0D9FF2EC0DAFFDF30E832E83296
:100D9800070B316E3150020D0B0EF324D96E000E85
:100DA800F420DA6EDECF32F0DDCF33F032C0D9FF77
:100DB80033C0DAFF3050DF1A120000018C518D1158
:100DC800D8A4E9EF06F0EBEF06F0EDEF06F016EF2A
:100DD80007F08CC080F08DC081F080EC07F0000136
:100DE8008E6FF2908CC089F08DC08AF04AEC09F0C1
:100DF80000018E178CC080F08DC081F017EC07F0D1
:100E080000018E178CC085F08DC086F026EC03F0AB
:100E180000018E178CC080F08DC081F04CEC07F07B
:100E280000018E171200010E0001836F805181119D
:100E3800D8A421EF07F023EF07F027EF07F0000E03
:100E4800836F4AEF07F0D08E20EE04F08051D92648
:100E58008151DA22DE04D8A434EF07F036EF07F028
:100E680039EF07F0F1804AEF07F020EE04F08051E7
:100E7800D9268151DA22DF50D8A445EF07F047EF91
:100E880007F04AEF07F0F1904AEF07F0835112009C
:100E9800010E0001836F80518111D8A456EF07F02D
:100EA80058EF07F05CEF07F0000E836F7EEF07F056
:100EB80020EE04F08051D9268151DA22DE04D8A42C
:100EC80068EF07F06AEF07F06DEF07F0F28E7DEF3D
:100ED80007F020EE04F08051D9268151DA22DF5044
:100EE800D8A479EF07F07BEF07F07DEF07F0F28CDD
:100EF800F28EF28683511200010E0001836F805139
:100F08008111D8A48AEF07F08CEF07F090EF07F073
:100F1800000E836FB1EF07F020EE04F08051D92660
:100F28008151DA22DE04D8A49CEF07F09EEF07F087
:100F3800A1EF07F0F29EB0EF07F020EE04F0805129
:100F4800D9268151DA22DF50D8A4ADEF07F0AFEFF0
:100F580007F0B0EF07F0F29CF29683511200436E4F
:100F6800F2904350D8B4BBEF07F0BDEF07F0BFEFE6
:100F780007F0DDEF07F04350D8A4C5EF07F0C7EF3F
:100F880007F0DDEF07F04D504E10D8B4CEEF07F064
:100F9800D0EF07F0DDEF07F002D8DDEF07F005002E
:100FA800FA6E4D50FD6E4E50FE6EF850FF6EFA50C0
:100FB80012001200436EF2904350D8B4E6EF07F0E7
:100FC800E8EF07F0EAEF07F008EF08F04350D8A47D
:100FD800F0EF07F0F2EF07F008EF08F05150521069
:100FE800D8B4F9EF07F0FBEF07F008EF08F002D8E4
:100FF80008EF08F00500FA6E5150FD6E5250FE6E73
:10100800F850FF6EFA5012001200436EF2904350EF
:10101800D8B411EF08F013EF08F015EF08F033EF2C
:1010280008F04350D8A41BEF08F01DEF08F033EF89
:1010380008F055505610D8B424EF08F026EF08F001
:1010480033EF08F002D833EF08F00500FA6E555078
:10105800FD6E5650FE6EF850FF6EFA5012001200E8
:10106800436EF2904350D8B43CEF08F03EEF08F0DE
:1010780040EF08F05EEF08F04350D8A446EF08F0C0
:1010880048EF08F05EEF08F059505A10D8B44FEF07
:1010980008F051EF08F05EEF08F002D85EEF08F0B4
:1010A8000500FA6E5950FD6E5A50FE6EF850FF6EEC
:1010B800FA501200120000018A518B11D8A467EF70
:1010C80008F069EF08F06BEF08F083EF08F08AC0CA
:1010D80080F08BC081F055EC01F000018C6F8AC064
:1010E80080F08BC081F08AC0D9FF8BC0DAFF000E78
:1010F800DFBE010E826F8FEC02F000018C6F1200D0
:10110800010E0001846F80518111D8A48EEF08F080
:1011180090EF08F09DEF08F082518311D8A497EF63
:1011280008F099EF08F09DEF08F0000E846FA5EF26
:1011380008F080C04FF081C050F082C04DF083C0ED
:101148004EF084511200010E0001846F805181110C
:10115800D8A4B1EF08F0B3EF08F0C0EF08F082515F
:101168008311D8A4BAEF08F0BCEF08F0C0EF08F07C
:10117800000E846FC8EF08F080C053F081C054F0AF
:1011880082C051F083C052F084511200010E000158
:10119800846F80518111D8A4D4EF08F0D6EF08F0FD
:1011A800E3EF08F082518311D8A4DDEF08F0DFEFF8
:1011B80008F0E3EF08F0000E846FEBEF08F080C052
:1011C80057F081C058F082C055F083C056F0845162
:1011D8001200010E0001846F80518111D8A4F7EF2D
:1011E80008F0F9EF08F006EF09F082518311D8A44E
:1011F80000EF09F002EF09F006EF09F0000E846F26
:101208000EEF09F080C05BF081C05CF082C059F03D
:1012180083C05AF0845112005A0EF66E130EF76E00
:10122800000EF86E00EE01F010EE2CF00900F5CF7C
:10123800EEFFE550E150FAE100EE4DF0160EEE6AD1
:10124800E806FDE163906392000EF86E00011FEF5F
:101258000AF02C0E00018A6F000E8B6F5FEC08F00D
:101268002B0E00018A6F000E8B6F5FEC08F0260EC4
:101278000001886F000E896FBAEC05F0200E00019E
:101288008C6F000E8D6FE1EC06F01200010E00016C
:101298008B6F89518A11D8A454EF09F056EF09F0E1
:1012A8005AEF09F0000E8B6F62EF09F0050E8925E1
:1012B800806F000E8A21816F55EC01F000018B517F
:1012C8001200F0905F506010D8B46DEF09F06FEF26
:1012D80009F07CEF09F002D87CEF09F00500FA6EFE
:1012E8005F50FD6E6050FE6EF850FF6EFA501200AF
:1012F8001200F0925D505E10D8B485EF09F087EFC8
:1013080009F094EF09F002D894EF09F00500FA6E9D
:101318005D50FD6E5E50FE6EF850FF6EFA50120082
:101328001200F29261506210D8B49DEF09F09FEF5D
:1013380009F0ACEF09F002D8ACEF09F00500FA6E3D
:101348006150FD6E6250FE6EF850FF6EFA5012004A
:101358001200800F810F820F830F840F890F8A0F6D
:101368008B0F8C0F8D0F920F930F940F950F960F75
:101378000F00002214004C0A140001001210010E84
:101388000001826F80518111D8A4CDEF09F0CFEF11
:1013980009F0D3EF09F0000E826FD7EF09F080C093
:1013A8005DF081C05EF082511200010E0001826F73
:1013B80080518111D8A4E3EF09F0E5EF09F0E9EFD6
:1013C80009F0000E826FEDEF09F080C05FF081C078
:1013D80060F082511200010E0001826F805181116C
:1013E800D8A4F9EF09F0FBEF09F0FFEF09F0000EC0
:1013F800826F03EF0AF080C061F081C062F0825111
:10140800120063A20AEF0AF018EF0AF02C0E3B6EE6
:10141800000E3C6E71EC06F012002B0E3B6E000EB7
:101428003C6E71EC06F012002C0E2D6E000E2E6E26
:10143800A9EC06F012002DEC09F021EF0AF053EFA9
:0214480001F0B1
:020000040020DA
:08000000FFFFFFFFFFFFFFFF00
:020000040030CA
:0E000000FF02091EFF8181FF0FC00FE00F40BD
:00000001FF
