:020000040000FA
:0400000043EF01F0D9
:060008007982EDED09F024
:100018007980D8CF35F0E8CF36F0E0CF37F0F0A6CA
:1000280018EF00F01AEF00F023EF00F0F0A01FEF38
:1000380000F021EF00F023EF00F0F0EC0CF0F2A656
:1000480028EF00F02AEF00F043EF00F0F2A02FEFC6
:1000580000F031EF00F043EF00F081A836EF00F038
:1000680038EF00F043EF00F06DA03DEF00F03FEFF8
:1000780000F043EF00F06D90010EE3EC0CF0F2A6F7
:1000880048EF00F04AEF00F063EF00F0F2A04FEF06
:1000980000F051EF00F063EF00F081B856EF00F088
:1000A80058EF00F063EF00F06DB05DEF00F05FEF28
:1000B80000F063EF00F06D80000EE3EC0CF0F2A6A8
:1000C80068EF00F06AEF00F083EF00F0F2A06FEF46
:1000D80000F071EF00F083EF00F081AA76EF00F0F6
:1000E80078EF00F083EF00F06DA27DEF00F07FEF76
:1000F80000F083EF00F06D92010ED6EC0CF0F2A642
:1001080088EF00F08AEF00F0A3EF00F0F2A08FEF85
:1001180000F091EF00F0A3EF00F081BA96EF00F045
:1001280098EF00F0A3EF00F06DB29DEF00F09FEFA5
:1001380000F0A3EF00F06D82000ED6EC0CF0F2A6F2
:10014800A8EF00F0AAEF00F0C3EF00F0F2A0AFEFC5
:1001580000F0B1EF00F0C3EF00F081ACB6EF00F0B3
:10016800B8EF00F0C3EF00F06DA4BDEF00F0BFEFF3
:1001780000F0C3EF00F06D94010EC9EC0CF0F2A68C
:10018800C8EF00F0CAEF00F0E3EF00F0F2A0CFEF05
:1001980000F0D1EF00F0E3EF00F081BCD6EF00F003
:1001A800D8EF00F0E3EF00F06DB4DDEF00F0DFEF23
:1001B80000F0E3EF00F06D84000EC9EC0CF0F2A63D
:1001C800E8EF00F0EAEF00F003EF01F0F2A0EFEF44
:1001D80000F0F1EF00F003EF01F081AEF6EF00F070
:1001E800F8EF00F003EF01F06DA6FDEF00F0FFEF70
:1001F80000F003EF01F06D96010EBCEC0CF0F2A6D6
:1002080008EF01F00AEF01F023EF01F0F2A00FEF81
:1002180001F011EF01F023EF01F081BE16EF01F0BC
:1002280018EF01F023EF01F06DB61DEF01F01FEF9D
:1002380001F023EF01F06D86000EBCEC0CF09DACD4
:1002480028EF01F02AEF01F033EF01F09EAC2FEF19
:1002580001F031EF01F033EF01F0F2EC0CF09DA06A
:1002680038EF01F03AEF01F03BEF01F09E5037C054
:10027800E0FF36C0E8FF35C0D8FF79901000E2EF04
:020288000BF079
:101000000041542B554152543A393630302C302C53
:10101000300D0A0041542B524E414D453A526F62F9
:101020006F740D0A00202020202020202020202066
:101030002020200041542B505357443A313233344E
:101040000D0A0041542B524F4C453A300D0A002DE9
:101050003E200025660025690000010E406E3850D4
:101060003910D8B436EF08F038EF08F047EF08F041
:1010700038C0D9FF39C0DAFFDF50070B3A6E070ED0
:101080003A6445EF08F047EF08F0AAEF08F0000EC9
:10109000406ECBEF08F038C0D9FF39C0DAFFDF501F
:1010A000070B3A6E010E3B6E3A2A59EF08F0D890C2
:1010B0003B363A2E57EF08F03B50FF0A3C6E38C0E3
:1010C000D9FF39C0DAFFDF30E832E832070B3D6E76
:1010D0003D50020D610EF324D96E000EF420DA6E3D
:1010E000DECF3EF0DDCF3FF03EC0D9FF3FC0DAFF9C
:1010F0003C50DF16CBEF08F038C0D9FF39C0DAFF1B
:10110000DF50070B3A6E010E3B6E3A2A8AEF08F069
:10111000D8903B363A2E88EF08F038C0D9FF39C056
:10112000DAFFDF30E832E832070B3C6E3C50020D4C
:10113000610EF324D96E000EF420DA6EDECF3DF09E
:10114000DDCF3EF03DC0D9FF3EC0DAFF3B50DF129D
:10115000CBEF08F038C0D9FF39C0DAFFDFBCB3EFFE
:1011600008F0B6EF08F0010EB7EF08F0000E3A6E87
:101170003B6A3B50000AD8B4C0EF08F047EF08F0D4
:101180003A50000AD8B44BEF08F0010AD8B47CEF0B
:1011900008F047EF08F040501200010E416E385041
:1011A0003910D8B4D6EF08F0D8EF08F0E7EF08F020
:1011B00038C0D9FF39C0DAFFDF50070B3B6E070E8E
:1011C0003B64E5EF08F0E7EF08F04AEF09F0000EA6
:1011D000416E5FEF09F038C0D9FF39C0DAFFDF5048
:1011E000070B3B6E010E3C6E3B2AF9EF08F0D890DE
:1011F0003C363B2EF7EF08F03C50FF0A3D6E38C0FE
:10120000D9FF39C0DAFFDF30E832E832070B3E6E33
:101210003E50020D570EF324D96E000EF420DA6E04
:10122000DECF3FF0DDCF40F03FC0D9FF40C0DAFF56
:101230003D50DF165FEF09F038C0D9FF39C0DAFF43
:10124000DF50070B3B6E010E3C6E3B2A2AEF09F084
:10125000D8903C363B2E28EF09F038C0D9FF39C072
:10126000DAFFDF30E832E832070B3D6E3D50020D09
:10127000570EF324D96E000EF420DA6EDECF3EF066
:10128000DDCF3FF03EC0D9FF3FC0DAFF3C50DF1258
:101290005FEF09F03A503B6E3C6A3C50000AD8B40C
:1012A00054EF09F0E7EF08F03B50000AD8B4EBEF39
:1012B00008F0010AD8B41CEF09F0E7EF08F041503C
:1012C00012004A504B10D8A468EF09F06AEF09F0F9
:1012D0006CEF09F0ECEF09F04AC042F04BC043F06C
:1012E00044EC0CF0010E4A24426E000E4B20436E7B
:1012F00044EC0CF0000E4F6E4F504A244C6E000E22
:101300004B204D6E020E4C24426E000E4D20436E5B
:1013100044EC0CF04F2A030E4F6491EF09F093EF69
:1013200009F07CEF09F0340E4C6EF20EE82EFED779
:101330004C2EFCD74AC046F04BC047F0380E486EE2
:10134000ADEC0BF00D0E4C6EFC0EE82EFED74C2EC5
:10135000FCD74AC046F04BC047F0380E486EADECA3
:101360000BF0640EE82EFED74AC046F04BC047F0A3
:10137000380E486EADEC0BF04AC046F04BC047F05B
:10138000010E486EADEC0BF04AC046F04BC047F082
:10139000020E486EADEC0BF04AC046F04BC047F071
:1013A000060E486EADEC0BF04AC046F04BC047F05D
:1013B0000D0E486EADEC0BF04AC046F04BC047F046
:1013C000280E486EADEC0BF04AC046F04BC047F01B
:1013D000800E486EADEC0BF012000600F2AAF3EF9F
:1013E00009F0F5EF09F0FEEF09F0F2A4FAEF09F0C9
:1013F000FCEF09F0FEEF09F0F3EC0CF09DA203EF17
:101400000AF005EF0AF006EF0AF09E50A0A20BEFDB
:101410000AF00DEF0AF00EEF0AF0A150A0A013EFB2
:101420000AF015EF0AF016EF0AF0A1509DAA1BEF83
:101430000AF01DEF0AF026EF0AF09EAA22EF0AF04A
:1014400024EF0AF026EF0AF0F5EC0CF09DA82BEF44
:101450000AF02DEF0AF036EF0AF09EA832EF0AF0FC
:1014600034EF0AF036EF0AF0F4EC0CF0A0A63BEFF4
:101470000AF03DEF0AF03EEF0AF0A1509DA643EFBF
:101480000AF045EF0AF046EF0AF09E5079921100FB
:10149000AFEC0CF06E0E516E000E526E010E536EDC
:1014A000010E546E250E556E100E566EF8EC0AF0B5
:1014B0006E0E516E000E526E020E536E010E546E81
:1014C000250E556E100E566EF8EC0AF06E0E516E2B
:1014D000000E526E020E536E010E546E4F0E556E7C
:1014E000100E566EF8EC0AF0780E386E000E396E5B
:1014F000010E3A6ECDEC08F00B0E0001B66F260E11
:10150000B56F5D0EE82EFED7B52FFCD7B62FFAD7F4
:1015100000D0780E386E000E396E75EC0BF0060EAA
:101520000001B66F130EB56FAD0EE82EFED7B52FC6
:10153000FCD7B62FFAD700D089EF0AF043EF01F0BD
:101540004A504B10D8A4A7EF0AF0A9EF0AF0ABEF6E
:101550000AF0F7EF0AF04D06DAEF0AF04AC046F05B
:101560004BC047F04D50800F486EADEC0BF0F7EFDD
:101570000AF04AC046F04BC047F04D50C00F486ECD
:10158000ADEC0BF0F7EF0AF04AC046F04BC047F065
:101590004D50940F486EADEC0BF0F7EF0AF04AC0D7
:1015A00046F04BC047F04D50D40F486EADEC0BF0F9
:1015B000F7EF0AF04C504E6E4F6A4F50000AD8B405
:1015C000E4EF0AF0F7EF0AF04E50010AD8B4AEEF9C
:1015D0000AF0030AD8B4B9EF0AF0010AD8B4C4EF8C
:1015E0000AF0070AD8B4CFEF0AF0F7EF0AF01200BA
:1015F00051505210D8B4FFEF0AF001EF0BF00AEF90
:101600000BF055505610D8A408EF0BF00AEF0BF072
:101610000CEF0BF037EF0BF051C04AF052C04BF01B
:1016200053C04CF054C04DF0A0EC0AF028EF0BF082
:1016300051C046F052C047F055C0F6FF56C0F7FF04
:10164000F86A0800F5CF48F013EC0CF0554A562A1A
:1016500055C0F6FF56C0F7FFF86A0800F5500009BC
:10166000D8A435EF0BF037EF0BF018EF0BF01200AA
:1016700042504310D8A43FEF0BF041EF0BF043EF83
:101680000BF074EF0BF0020E4224386E000E432074
:10169000396E4450010B3A6ECDEC08F0030E422433
:1016A000386E000E4320396ED8904430010B3A6EEC
:1016B000CDEC08F0040E4224386E000E4320396E43
:1016C0004440E8423F0B010B3A6ECDEC08F0050EAA
:1016D0004224386E000E4320396E4438E8461F0B12
:1016E000010B3A6ECDEC08F0120038503910D8A436
:1016F0007CEF0BF07EEF0BF080EF0BF0ACEF0BF01C
:1017000038C0D9FF39C0DAFFDF50070B3A6E010E3F
:101710003B6E3A2A8EEF0BF0D8903B363A2E8CEF88
:101720000BF038C0D9FF39C0DAFFDF30E832E832D9
:10173000070B3C6E3C50020D570EF324D96E000E81
:10174000F420DA6EDECF3DF0DDCF3EF03DC0D9FFB4
:101750003EC0DAFF3B50DF1A120046504710D8A4B3
:10176000B4EF0BF0B6EF0BF0BAEF0BF0000E496ED2
:10177000E0EF0BF046C038F047C039F0000E3A6E8B
:10178000CDEC08F0496E46C042F047C043F04838FF
:101790000F0B446E38EC0BF046C042F047C043F0EC
:1017A00069EC0CF046C042F047C043F048C044F03A
:1017B00038EC0BF046C042F047C043F069EC0CF047
:1017C000495012003C0EF66E190EF76E000EF86EC0
:1017D00000EE80F010EE22F00900F5CFEEFFE550AC
:1017E000E150FAE11A0EF66E190EF76E000EF86E61
:1017F00000EE57F010EE22F00900F5CFEEFFE550B5
:10180000E150FAE100EEA2F0130EEE6AE806FDE107
:1018100000EE01F0330EEE6AE806FDE17990799270
:10182000000148EF0AF046504710D8A41AEF0CF018
:101830001CEF0CF01EEF0CF043EF0CF046C038F03C
:1018400047C039F0010E3A6ECDEC08F046C042F0C8
:1018500047C043F048380F0B446E38EC0BF046C0DD
:1018600042F047C043F069EC0CF046C042F047C07C
:1018700043F048C044F038EC0BF046C042F047C09B
:1018800043F069EC0CF0120042504310D8A44BEF27
:101890000CF04DEF0CF051EF0CF0000E446E67EFC2
:1018A0000CF042C038F043C039F02DEC08F0446E23
:1018B00042C038F043C039F042C0D9FF43C0DAFF1C
:1018C000000EDFBE010E3A6ECDEC08F0446E4450BF
:1018D000120042504310D8A470EF0CF072EF0CF0DD
:1018E00074EF0CF08CEF0CF0010E4224386E000EF9
:1018F0004320396E010E3A6ECDEC08F0030EE82E4F
:10190000FED700F0010E4224386E000E4320396EDF
:10191000000E3A6ECDEC08F01200890F8A0F8B0F83
:101920008C0F8D0F920F930F940F950F960F094800
:101930000F18191A1B1C1D1A1B181990800F810FE4
:10194000820F830F840F0102001100F4010000F9DF
:10195000000F0002001200F4010000F9000F780EE1
:10196000426E000E436E44EC0CF06E0E4A6E000E9A
:101970004B6E61EC09F01200346EF2903450D8B422
:10198000C4EF0CF0C6EF0CF0C8EF0CF0C8EF0CF091
:101990001200346EF2903450D8B4D1EF0CF0D3EF83
:1019A0000CF0D5EF0CF0D5EF0CF01200346EF29085
:1019B0003450D8B4DEEF0CF0E0EF0CF0E2EF0CF0B6
:1019C000E2EF0CF01200346EF2903450D8B4EBEF2A
:1019D0000CF0EDEF0CF0EFEF0CF0EFEF0CF012006D
:0C19E000F0901200120012001200120021
:020000040020DA
:08000000FFFFFFFFFFFFFFFF00
:020000040030CA
:0E000000FF020912FF8181FF0FC00FE00F40C9
:00000001FF
