:020000040000FA
:040000003BEF01F0E1
:06000800768256ED0AF0BD
:100018007680D8CF02F0E8CF03F0E0CF04F0F0A666
:1000280018EF00F01AEF00F023EF00F0F0A01FEF38
:1000380000F021EF00F023EF00F0DFEC0CF0F2A667
:1000480028EF00F02AEF00F043EF00F0F2A02FEFC6
:1000580000F031EF00F043EF00F081A836EF00F038
:1000680038EF00F043EF00F071A03DEF00F03FEFF4
:1000780000F043EF00F07190010ECCEC0CF0F2A60A
:1000880048EF00F04AEF00F063EF00F0F2A04FEF06
:1000980000F051EF00F063EF00F081B856EF00F088
:1000A80058EF00F063EF00F071B05DEF00F05FEF24
:1000B80000F063EF00F07180000ECCEC0CF0F2A6BB
:1000C80068EF00F06AEF00F083EF00F0F2A06FEF46
:1000D80000F071EF00F083EF00F081AA76EF00F0F6
:1000E80078EF00F083EF00F071A27DEF00F07FEF72
:1000F80000F083EF00F07192010EBFEC0CF0F2A655
:1001080088EF00F08AEF00F0A3EF00F0F2A08FEF85
:1001180000F091EF00F0A3EF00F081BA96EF00F045
:1001280098EF00F0A3EF00F071B29DEF00F09FEFA1
:1001380000F0A3EF00F07182000EBFEC0CF0F2A605
:10014800A8EF00F0AAEF00F0C3EF00F0F2A0AFEFC5
:1001580000F0B1EF00F0C3EF00F081ACB6EF00F0B3
:10016800B8EF00F0C3EF00F071A4BDEF00F0BFEFEF
:1001780000F0C3EF00F07194010EB2EC0CF0F2A69F
:10018800C8EF00F0CAEF00F0E3EF00F0F2A0CFEF05
:1001980000F0D1EF00F0E3EF00F081BCD6EF00F003
:1001A800D8EF00F0E3EF00F071B4DDEF00F0DFEF1F
:1001B80000F0E3EF00F07184000EB2EC0CF0F2A650
:1001C800E8EF00F0EAEF00F003EF01F0F2A0EFEF44
:1001D80000F0F1EF00F003EF01F081AEF6EF00F070
:1001E800F8EF00F003EF01F071A6FDEF00F0FFEF6C
:1001F80000F003EF01F07196010EA5EC0CF0F2A6E9
:1002080008EF01F00AEF01F023EF01F0F2A00FEF81
:1002180001F011EF01F023EF01F081BE16EF01F0BC
:1002280018EF01F023EF01F071B61DEF01F01FEF99
:1002380001F023EF01F07186000EA5EC0CF09DACE7
:1002480028EF01F02AEF01F02BEF01F09E509DA05E
:1002580030EF01F032EF01F033EF01F09E5004C0AF
:10026800E0FF03C0E8FF02C0D8FF76901000D5EF8A
:100278000BF02F50800B386E2F502F243A6E2EAE75
:1002880048EF01F04AEF01F04BEF01F03A803A50A5
:10029800D8B451EF01F053EF01F068EF01F03A28BC
:1002A800D8A459EF01F05BEF01F063EF01F0000E05
:1002B8002C6E000E2D6E000E2E6E000E2F6E2E8EE2
:1002C800000E2F6E70EF01F0000E2C6E000E2D6EDA
:1002D800000E2E6E000E2F6E3350800B396E385084
:1002E8003918D8B47AEF01F07CEF01F07DEF01F016
:1002F800388C33503324396E32AE85EF01F087EFF6
:1003080001F088EF01F039803950D8B48EEF01F050
:1003180090EF01F0A5EF01F03928D8A496EF01F08D
:1003280098EF01F0A0EF01F0000E306E000E316E74
:10033800000E326E000E336E328E000E336EADEF4D
:1003480001F0000E306E000E316E000E326E000E9F
:10035800336E3A50395CD8B0B4EF01F0B6EF01F023
:10036800DDEF01F038ACBBEF01F0BDEF01F0BFEFFE
:1003780001F0800E381A3AC03BF039C03AF03BC061
:1003880039F02CC03BF030C02CF03BC030F02DC011
:100398003BF031C02DF03BC031F02EC03BF032C0F5
:1003A8002EF03BC032F02FC03BF033C02FF03BC0E3
:1003B80033F0000E3B6E3A5039C034F0356A345E83
:1003C800000E355A35BEF2EF01F0355009E11A0E2C
:1003D800345CD8A0F2EF01F0F4EF01F02BEF02F05B
:1003E8002C502D102E102F10D8A4FDEF01F000EF87
:1003F80002F0010E01EF02F0000E3B6E000E2C6EB3
:10040800000E2D6E000E2E6E000E2F6E39C03AF0C3
:1004180034EF02F03BA013EF02F015EF02F01BEFF0
:1004280002F0D8903B3001093B6E1DEF02F0D890E6
:100438003B322CA022EF02F024EF02F025EF02F06D
:100448003B8E2F342F322E322D322C323A2A39500D
:100458003A5CD8A032EF02F034EF02F00EEF02F06F
:1004680038BC39EF02F03BEF02F07BEF02F03A5074
:10047800D8A441EF02F043EF02F04DEF02F0000E76
:100488002C6E000E2D6E000E2E6E000E2F6E9CEF41
:1004980003F030502C2631502D2232502E2233506A
:1004A8002F222FA05AEF02F05CEF02F008EF03F0C2
:1004B8003BA061EF02F063EF02F069EF02F0D89021
:1004C8003B3001093B6E6BEF02F0D8903B322CA019
:1004D80070EF02F072EF02F073EF02F03B8E2F34F0
:1004E8002F322E322D322C323A2A08EF03F03050B8
:1004F8002C5C31502D5832502E582F50800A346EB3
:100508003350800A3458D8B08CEF02F08EEF02F0E6
:10051800B9EF02F02C50305C346E2D503158356EE6
:100528002E503258366E2F503358376EFF0E342403
:100538002C6EFF0E35202D6EFF0E36202E6EFF0E10
:1005480037202F6E800E381A3B6C3B50D8A4AFEF83
:1005580002F0B1EF02F0C1EF02F0010E2C26000EFE
:100568002D222E222F22C1EF02F030502C5E315066
:100578002D5A32502E5A33502F5A2C502D102E10DF
:100588002F10D8A4CAEF02F0CCEF02F001EF03F06D
:100598003B50D8A4D2EF02F0D4EF02F001EF03F001
:1005A800000E2C6E000E2D6E000E2E6E000E2F6E9D
:1005B8009CEF03F0D8902C362D362E362F363BAED6
:1005C800E8EF02F0EAEF02F0EBEF02F02C803BA03C
:1005D800F0EF02F0F2EF02F0F6EF02F0D8803B36CF
:1005E800F8EF02F0D8903B363A50D8B4FEEF02F05C
:1005F80000EF03F001EF03F03A062EAE06EF03F02A
:1006080008EF03F0DEEF02F0000E396E3BAE0FEF9D
:1006180003F011EF03F029EF03F03BC034F07F0E35
:100628003416D8B41AEF03F01CEF03F020EF03F0F0
:10063800010E396E29EF03F02CA025EF03F027EF08
:1006480003F029EF03F01CEF03F03950D8B42FEF73
:1006580003F031EF03F05CEF03F0010E2C26000EDF
:100668002D222E222F222FA03CEF03F03EEF03F085
:100678005CEF03F02CC034F02DC035F02EC036F0FE
:100688002FC037F03734373236323532343234C04F
:100698002CF035C02DF036C02EF037C02FF03A2898
:1006A800D8B459EF03F05BEF03F05CEF03F03A2A9C
:1006B8003A28D8B462EF03F064EF03F06CEF03F06C
:1006C8003A50D8A46AEF03F06CEF03F07EEF03F022
:1006D800000E2C6E000E2D6E000E2E6E000E2F6E6C
:1006E8003A50D8A47AEF03F07CEF03F07EEF03F0E2
:1006F800000E386E3AA083EF03F085EF03F088EF21
:1007080003F02E8E89EF03F02E9ED8903A302F6E8C
:1007180038AE91EF03F093EF03F094EF03F02F8ED0
:100728002CC02CF02DC02DF02EC02EF02FC02FF095
:1007380012001650800B1F6E16501624256E15AE2B
:10074800A8EF03F0AAEF03F0ABEF03F025802550E4
:10075800D8B4B1EF03F0B3EF03F0C6EF03F02528E8
:10076800D8A4B9EF03F0BBEF03F0C3EF03F0000E1A
:10077800136E000E146E000E156E000E166E158E9A
:10078800CEEF03F0000E136E000E146E000E156E01
:10079800000E166E1A50800B1F1A1A501A24246E57
:1007A80019AED9EF03F0DBEF03F0DCEF03F02480A0
:1007B8002450D8B4E2EF03F0E4EF03F0F7EF03F0CE
:1007C8002428D8A4EAEF03F0ECEF03F0F4EF03F0E9
:1007D800000E176E000E186E000E196E000E1A6EBF
:1007E800198EFFEF03F0000E176E000E186E000E44
:1007F800196E000E1A6E2450D8B405EF04F007EFF6
:1008080004F00FEF04F02550D8A40DEF04F00FEF1B
:1008180004F019EF04F0000E136E000E146E000EB3
:10082800156E000E166EB1EF05F019501302F3CFD6
:100838002AF0F4CF2BF02A50206E216A226A236A0C
:100848002B50266E276A286A296A18501402F3CF9B
:100858002AF0F4CF2BF02A502026000E2122222243
:1008680023222B502626000E272228222922175021
:100878001502F3CF2AF0F4CF2BF02A502026000ED1
:100888002122222223222B502626000E272228222C
:10089800292222C023F021C022F020C021F0206AA2
:1008A80017501402F3CF2AF0F4CF2BF02A50202649
:1008B8002B502122000E2222000E23221850130250
:1008C800F3CF2AF0F4CF2BF02A5020262B502122E8
:1008D800000E2222000E232222C023F021C022F083
:1008E80020C021F0206A17501302F3CF2AF0F4CF6A
:1008F8002BF02A5020262B502122000E2222000EF7
:10090800232219501402F3CF2AF0F4CF2BF02A50E7
:1009180026262B502722000E2822000E29221850A6
:100928001502F3CF2AF0F4CF2BF02A5026262B50AD
:100938002722000E2822000E292219501502F3CF73
:100948002AF0F4CF2BF02A501B6E2B501C6E1D6A18
:100958001E6A1DC01EF01CC01DF01BC01CF01B6AC7
:100968001B5026261C5027221D5028221E502922A3
:1009780020C01BF021C01CF022C01DF023C01EF0B7
:10098800190ECCEF04F0D8901E321D321C321B32E7
:10099800E82EC7EF04F01B5026261C5027221D50B6
:1009A80028221E50292222C023F021C022F020C074
:1009B80021F0206A245025C01BF01C6A1B26000E5B
:1009C8001C22820E1B242A6EFF0E1C202B6E02EFA7
:1009D80005F0D890263627362836293623AEF7EF85
:1009E80004F0F9EF04F0FAEF04F02680D8902036EE
:1009F8002136223623362A06D8A02B0628AE07EF42
:100A080005F009EF05F0EDEF04F0000E246E23AEBB
:100A180010EF05F012EF05F036EF05F0FF0E201489
:100A28001B6EFF0E21141C6EFF0E22141D6E7F0E0E
:100A380023141E6E1B501C101D101E10D8B427EF57
:100A480005F029EF05F02DEF05F0010E246E36EFC5
:100A580005F026A032EF05F034EF05F036EF05F08B
:100A680029EF05F02450D8B43CEF05F03EEF05F02F
:100A780062EF05F0010E2626000E272228222922E1
:100A880029A049EF05F04BEF05F062EF05F026C00D
:100A98001BF027C01CF028C01DF029C01EF01E3412
:100AA8001E321D321C321B321BC026F01CC027F020
:100AB8001DC028F01EC029F02A4A2B2A2BBE6DEF34
:100AC80005F02B5008E12A28D8A06DEF05F06FEF4C
:100AD80005F079EF05F0000E266E000E276E800EE9
:100AE800286E7F0E296EA7EF05F02BBE86EF05F066
:100AF8002B5006E12A04D8B084EF05F086EF05F004
:100B080092EF05F0000E266E000E276E000E286E7E
:100B1800000E296E000E1F6EA7EF05F02AC025F003
:100B2800FF0E2616FF0E27167F0E2816000E291612
:100B380025A0A1EF05F0A3EF05F0A4EF05F0288E9E
:100B4800D8902530296E1F50291226C013F027C0CF
:100B580014F028C015F029C016F012001650800BAA
:100B6800236E165016242A6E15AEBDEF05F0BFEFA2
:100B780005F0C0EF05F02A802A50D8B4C6EF05F07A
:100B8800C8EF05F0DDEF05F02A28D8A4CEEF05F070
:100B9800D0EF05F0D8EF05F0000E136E000E146EBE
:100BA800000E156E000E166E158E000E166EE5EF11
:100BB80005F0000E136E000E146E000E156E000E7A
:100BC800166E1A50800B231A1A501A242B6E19AE5F
:100BD800F0EF05F0F2EF05F0F3EF05F02B802B5066
:100BE800D8B4F9EF05F0FBEF05F010EF06F02B286D
:100BF800D8A401EF06F003EF06F00BEF06F0000EA5
:100C0800176E000E186E000E196E000E1A6E198EF1
:100C1800000E1A6E18EF06F0000E176E000E186E12
:100C2800000E196E000E1A6E1750181019101A10AF
:100C3800D8A421EF06F023EF06F03BEF06F0000EF4
:100C4800136E000E146E000E156E000E166E800EDA
:100C580015127F0E16122350161213C013F014C06B
:100C680014F015C015F016C016F07EEF07F02A50E4
:100C7800D8A441EF06F043EF06F04DEF06F0000E62
:100C8800136E000E146E000E156E000E166E7EEFBB
:100C980007F02B502AC01BF01C6A1B5E000E1C5A62
:100CA8007F0E1B24246E000E1C20256E13C01FF01F
:100CB80014C020F015C021F016C022F0000E136EEB
:100CC800000E146E000E156E000E166E000E266EC7
:100CD800000E276E000E286E000E296E000E2B6E79
:100CE800AEEF06F02B50D8B47CEF06F07EEF06F09E
:100CF80095EF06F0D8901F36203621362236D89048
:100D0800133614361536163629AE8DEF06F08FEFEA
:100D180006F090EF06F01380D8902636273628364E
:100D2800293617501F5C18502058195021581A504E
:100D38002258D8A0A2EF06F0A4EF06F0ADEF06F017
:100D4800298C17501F5E1850205A1950215A1A50D2
:100D5800225A2B2A190E2B64B4EF06F0B6EF06F0D0
:100D680076EF06F01F50201021102210D8B4BFEFE4
:100D780006F0C1EF06F0D9EF06F02680D9EF06F0AD
:100D8800D890133614361536163629AECEEF06F03F
:100D9800D0EF06F0D1EF06F01380D890263627362C
:100DA800283629362406D8A0250615AEDEEF06F02B
:100DB800E0EF06F0C4EF06F0000E2B6E29AEE7EF69
:100DC80006F0E9EF06F00DEF07F0FF0E26141B6E94
:100DD800FF0E27141C6EFF0E28141D6E7F0E29149B
:100DE8001E6E1B501C101D101E10D8B4FEEF06F00E
:100DF80000EF07F004EF07F0010E2B6E0DEF07F080
:100E080013A009EF07F00BEF07F00DEF07F000EF65
:100E180007F02B50D8B413EF07F015EF07F039EFB0
:100E280007F0010E1326000E14221522162216A012
:100E380020EF07F022EF07F039EF07F013C01BF09F
:100E480014C01CF015C01DF016C01EF01E341E3252
:100E58001D321C321B321BC013F01CC014F01DC005
:100E680015F01EC016F0244A252A25BE44EF07F0C7
:100E7800255008E12428D8A044EF07F046EF07F0F2
:100E880051EF07F0000E256E2468000E136E000E59
:100E9800146E000E156E000E166E25BE5EEF07F07E
:100EA800255006E12404D8B05CEF07F05EEF07F0A8
:100EB8006CEF07F0000E256E000E246E000E136E08
:100EC800000E146E000E156E000E166E000E236EC8
:100ED80024C02AF02AA073EF07F075EF07F078EF27
:100EE80007F0158E79EF07F0159ED8902A30166E08
:100EF8002FEF06F012000D6E0D50D8B486EF07F0F4
:100F080088EF07F0AAEF07F008BE8FEF07F08DEF24
:100F180007F0AAEF07F005C009F006C00AF007C0FD
:100F28000BF008C00CF0091E0A1E0B1E0C1E092A25
:100F3800000E0A220B220C2209C00FF00AC010F082
:100F48000BC011F00CC012F0B2EF07F005C00FF0A3
:100F580006C010F007C011F008C012F005500610C6
:100F680007100810D8A4BBEF07F0BDEF07F0C7EFD4
:100F780007F0000E056E000E066E000E076E000EDE
:100F8800086E58EF08F0960E0E6ED1EF07F00E2A95
:100F9800D8901232113210320F32000E0F14096E2F
:100FA800000E10140A6E000E11140B6EFE0E1214B1
:100FB8000C6E09500A100B100C10D8A4E6EF07F0BD
:100FC800E8EF07F0CBEF07F0F6EF07F00E2A010E77
:100FD8000F26000E102211221222D890123211323E
:100FE80010320F32000E0F14096E000E10140A6E24
:100FF800000E11140B6EFF0E12140C6E09500A101D
:101008000B100C10D8A40BEF08F00DEF08F0EAEF66
:1010180007F015EF08F00E06D8900F361036113687
:10102800123611BE1AEF08F01CEF08F024EF08F092
:10103800020E0E6022EF08F024EF08F00FEF08F020
:101048000EB029EF08F02BEF08F02CEF08F0119EF6
:10105800D8900E320EC009F00A6A0B6A0C6A09C0F1
:101068000CF00B6A0A6A096A09500F120A5010122A
:101078000B5011120C5012120D50D8B446EF08F054
:1010880048EF08F050EF08F008BE4FEF08F04DEFBA
:1010980008F050EF08F0128E0FC005F010C006F0EF
:1010A80011C007F012C008F012004A504B10D8A423
:1010B80060EF08F062EF08F064EF08F0FBEF08F06B
:1010C800C69A20EE06F04A50D9264B50DA22DFA005
:1010D80070EF08F072EF08F07AEF08F04AC046F0B7
:1010E8004BC047F016EC0BF0B6EF08F020EE06F018
:1010F8004A50D9264B50DA22DFB085EF08F087EF47
:1011080008F0B6EF08F020EE06F04A50D9264B500A
:10111800DA22DFA692EF08F094EF08F097EF08F0D4
:10112800C58EA5EF08F020EE06F04A50D9264B50A0
:10113800DA22DFB6A2EF08F0A4EF08F0A5EF08F076
:10114800C59EC69EC69CC68820EE05F04A50D92684
:101158004B50DA22DF50C86E4AC005F04BC006F08B
:1011680064EC0CF0D9EC0CF020EE06F04A50D926CD
:101178004B50DA22DFA2C3EF08F0C5EF08F0C8EF42
:1011880008F0C78ED6EF08F020EE06F04A50D926B0
:101198004B50DA22DFB2D3EF08F0D5EF08F0D6EFE4
:1011A80008F0C79E20EE06F04A50D9264B50DA22A6
:1011B800DFA4E1EF08F0E3EF08F0E6EF08F0C78CF2
:1011C800F4EF08F020EE06F04A50D9264B50DA2208
:1011D800DFB4F1EF08F0F3EF08F0F4EF08F0C79C84
:1011E8004AC005F04BC006F0EBEC09F0C68A1200C5
:1011F8003E343F34456E4550D8A405EF09F007EF5B
:1012080009F011EF09F0000E3C6E000E3D6E000E65
:101218003E6E000E3F6E7EEF09F03CC040F03DC0D0
:1012280041F03EC042F03FC043F0200E21EF09F0EC
:10123800D8904332423241324032E82E1CEF09F056
:101248004050446E3E8EFF0E3C16FF0E3D16FF0EBC
:101258003E16000E3F16960E455E45BE38EF09F065
:1012680036EF09F04EEF09F04550800A970FD8B0D5
:1012780040EF09F042EF09F044EF09F007EF09F0F9
:10128800D8903F323E323D323C32453E44EF09F081
:1012980066EF09F01F0E456454EF09F056EF09F0A8
:1012A8005EEF09F007EF09F0D8903C363D363E3640
:1012B8003F3645064550D8A464EF09F066EF09F0BB
:1012C80058EF09F04450D8B46CEF09F06EEF09F00C
:1012D80076EF09F03F1E3E1E3D1E3C6C000E3D227F
:1012E8003E223F223CC03CF03DC03DF03EC03EF0B7
:1012F8003FC03FF0120046504710D8A486EF09F0CF
:1013080088EF09F08AEF09F0EAEF09F04A50040D76
:10131800F350080F4F6E000E306E000E316E4D0EFA
:10132800326E430E336E850E176EEB0E186E910EED
:10133800196E3F0E1A6E4B50056E066A076A086AE8
:10134800010E7FEC07F005C013F006C014F007C0CB
:1013580015F008C016F09DEC03F013C02CF014C073
:101368002DF015C02EF016C02FF03DEC01F02CC06A
:101378003CF02DC03DF02EC03EF02FC03FF0FCECFD
:1013880008F03CC04DF03DC04EF046C00BF047C0E1
:101398000CF048C0D9FF49C0DAFFDF500D6E4FC0CE
:1013A8000EF04DC00FF0A2EC0BF04F2A46C00BF028
:1013B80047C00CF048C0D9FF49C0DAFFDF500D6EB6
:1013C8004FC00EF04E500F6EA2EC0BF012009D961F
:1013D800D08EF28EF29E20EE07F00550D9260650E8
:1013E800DA22DE04D8A4FBEF09F0FDEF09F000EFE4
:1013F8000AF09F860FEF0AF020EE07F00550D92675
:101408000650DA22DF50D8A40CEF0AF00EEF0AF0EB
:101418000FEF0AF09F969E969D8620EE0BF00550E2
:10142800D9260650DA22DECF58F0DDCF59F020EE6B
:101438000DF00550D9260650DA22DECF56F0DDCF62
:1014480057F0A096D08EF28EF29E20EE08F005504E
:10145800D9260650DA22DE04D8A435EF0AF037EF91
:101468000AF03AEF0AF0A28649EF0AF020EE08F0F7
:101478000550D9260650DA22DF50D8A446EF0AF0E4
:1014880048EF0AF049EF0AF0A296A196A08620EE4E
:1014980009F00550D9260650DA22DECF54F0DDCF08
:1014A80055F012000600F2A85CEF0AF05EEF0AF0B1
:1014B80067EF0AF0F2A263EF0AF065EF0AF067EF50
:1014C8000AF0E3EC0CF0F0A86CEF0AF06EEF0AF00B
:1014D80077EF0AF0F0A273EF0AF075EF0AF077EFF2
:1014E8000AF0E1EC0CF0F2AA7CEF0AF07EEF0AF0C9
:1014F8007FEF0AF0F2509DA284EF0AF086EF0AF01F
:1015080087EF0AF09E50A0A28CEF0AF08EEF0AF047
:101518008FEF0AF0A150A0A094EF0AF096EF0AF01E
:1015280097EF0AF0A1509DAA9CEF0AF09EEF0AF0EF
:101538009FEF0AF09E509DA8A4EF0AF0A6EF0AF0CC
:10154800A7EF0AF09E50A0A6ACEF0AF0AEEF0AF0A3
:10155800AFEF0AF0A1509DA6B4EF0AF0B6EF0AF07B
:10156800B7EF0AF09E50769211004D504E10D8B445
:10157800C0EF0AF0C2EF0AF0CBEF0AF04F5050105C
:10158800D8A4C9EF0AF0CBEF0AF0CDEF0AF015EFB7
:101598000BF04DC04AF04EC04BF059EC08F04DC06E
:1015A8000BF04EC00CF04FC0D9FF50C0DAFFDF502F
:1015B8000D6EFE0E0E6E20EE01F04F50D9265050E3
:1015C800DA22DF500F6EA2EC0BF04DC00BF04EC0CC
:1015D8000CF04FC0D9FF50C0DAFFDF500D6E000E7F
:1015E8000E6E20EE02F04F50D9265050DA22DF500E
:1015F8000F6EA2EC0BF04DC00BF04EC00CF04FC0BC
:10160800D9FF50C0DAFFDF500D6E010E0E6E20EECE
:1016180003F04F50D9265050DA22DF500F6EA2EC5B
:101628000BF0120046504710D8A41DEF0BF01FEF27
:101638000BF021EF0BF06DEF0BF020EE04F04650AD
:10164800D9264750DA22DF50486EC6504818F00BAA
:101658004818C66E000E306E000E316E800E326E67
:10166800BF0E336E46C0D9FF47C0DAFFDECF05F0A4
:10167800DECF06F0DECF07F0DECF08F0000E7FECFD
:1016880007F005C017F006C018F007C019F008C029
:101698001AF0000E136E240E146EF40E156E490E19
:1016A800166EB2EC05F013C02CF014C02DF015C066
:1016B8002EF016C02FF03DEC01F02CC03CF02DC0F0
:1016C8003DF02EC03EF02FC03FF0FCEC08F03C503F
:1016D800C86E120005500610D8B475EF0BF077EFFE
:1016E8000BF080EF0BF008500910D8A47EEF0BF038
:1016F80080EF0BF082EF0BF0A1EF0BF007C0C9FFF2
:10170800C7B089EF0BF08BEF0BF084EF0BF09E96D0
:10171800C5BC91EF0BF093EF0BF09BEF0BF008C0FB
:10172800D9FF09C0DAFF000EDF6EA1EF0BF008C089
:10173800D9FF09C0DAFF010EDF6E1200060E106E27
:101748000BC005F00CC006F048EC0CF00BC005F01F
:101758000CC006F00DC007F0100E086E000E096EE2
:101768006EEC0BF00BC005F00CC006F00EC007F0D5
:10177800100E086E000E096E6EEC0BF00BC005F033
:101788000CC006F00FC007F0100E086E000E096EB0
:101798006EEC0BF00BC005F00CC006F02CEC0CF056
:1017A8001200FA0EF66E180EF76E000EF86E00EEC6
:1017B80080F010EE2DF00900F5CFEEFFE550E15076
:1017C800FAE1B80EF66E190EF76E000EF86E00EE1E
:1017D80071F010EE05F00900F5CFEEFFE550E1508D
:1017E800FAE100EE54F01D0EEE6AE806FDE176908F
:1017F8007692000EF86E000102EF0CF094EC0CF0FB
:10180800000E536E000E526E9E0E466E000E476E10
:10181800720E486E000E496E52C04AF070C04BF00E
:101828007FEC09F00F0E7026524A532A53BE26EF5A
:101838000CF0535009E1100E525CD8A026EF0CF0C2
:1018480028EF0CF008EF0CF028EF0CF03BEF01F05C
:1018580005500610D8A433EF0CF035EF0CF037EF35
:101868000CF047EF0CF0C584C5B43DEF0CF03FEF2A
:101878000CF038EF0CF09E96C7A845EF0CF047EF38
:101888000CF035EF0CF0120005500610D8A44FEFFD
:101898000CF051EF0CF053EF0CF063EF0CF0C58037
:1018A800C5B059EF0CF05BEF0CF054EF0CF09E96BE
:1018B800C7A661EF0CF063EF0CF051EF0CF01200CB
:1018C80005500610D8A46BEF0CF06DEF0CF06FEF1D
:1018D8000CF07CEF0CF020EE04F00550D9260650F1
:1018E800DA22DF50076EC6500718F00B0718C66ECD
:1018F8001200800F810F820F830F840F890F8A0FC8
:101908008B0F8C0F8D0F920F930F940F950F960FCF
:0F191800A086010008000300000000000000008E
:101928009E0E4A6E000E4B6E59EC08F09E0E4D6EE0
:10193800000E4E6E720E4F6E000E506EB9EC0AF02D
:101948001200016EF2900150D8B4ADEF0CF0AFEF79
:101958000CF0B1EF0CF0B1EF0CF01200016EF29048
:101968000150D8B4BAEF0CF0BCEF0CF0BEEF0CF09D
:10197800BEEF0CF01200016EF2900150D8B4C7EF20
:101988000CF0C9EF0CF0CBEF0CF0CBEF0CF0120021
:10199800016EF2900150D8B4D4EF0CF0D6EF0CF0F1
:1019A800D8EF0CF0D8EF0CF012009486948812004F
:0519B8000F80792104FD
:0C19BE00F0901200F0921200F292120061
:020000040020DA
:08000000FFFFFFFFFFFFFFFF00
:020000040030CA
:0E000000FF02091EFF8181FF0FC00FE00F40BD
:00000001FF
