:020000040000FA
:0400000043EF01F0D9
:0600080042826DEF1EF0C4
:100018004280D8CF1BF0E8CF1CF0E0CF1DF0F0A64F
:1000280018EF00F01AEF00F023EF00F0F0A01FEF38
:1000380000F021EF00F023EF00F0A0EC2EF0F2A684
:1000480028EF00F02AEF00F043EF00F0F2A02FEFC6
:1000580000F031EF00F043EF00F081A836EF00F038
:1000680038EF00F043EF00F040A03DEF00F03FEF25
:1000780000F043EF00F04090010E8DEC2EF0F2A658
:1000880048EF00F04AEF00F063EF00F0F2A04FEF06
:1000980000F051EF00F063EF00F081B856EF00F088
:1000A80058EF00F063EF00F040B05DEF00F05FEF55
:1000B80000F063EF00F04080000E8DEC2EF0F2A609
:1000C80068EF00F06AEF00F083EF00F0F2A06FEF46
:1000D80000F071EF00F083EF00F081AA76EF00F0F6
:1000E80078EF00F083EF00F040A27DEF00F07FEFA3
:1000F80000F083EF00F04092010E80EC2EF0F2A6A3
:1001080088EF00F08AEF00F0A3EF00F0F2A08FEF85
:1001180000F091EF00F0A3EF00F081BA96EF00F045
:1001280098EF00F0A3EF00F040B29DEF00F09FEFD2
:1001380000F0A3EF00F04082000E80EC2EF0F2A653
:10014800A8EF00F0AAEF00F0C3EF00F0F2A0AFEFC5
:1001580000F0B1EF00F0C3EF00F081ACB6EF00F0B3
:10016800B8EF00F0C3EF00F040A4BDEF00F0BFEF20
:1001780000F0C3EF00F04094010E73EC2EF0F2A6ED
:10018800C8EF00F0CAEF00F0E3EF00F0F2A0CFEF05
:1001980000F0D1EF00F0E3EF00F081BCD6EF00F003
:1001A800D8EF00F0E3EF00F040B4DDEF00F0DFEF50
:1001B80000F0E3EF00F04084000E73EC2EF0F2A69E
:1001C800E8EF00F0EAEF00F003EF01F0F2A0EFEF44
:1001D80000F0F1EF00F003EF01F081AEF6EF00F070
:1001E800F8EF00F003EF01F040A6FDEF00F0FFEF9D
:1001F80000F003EF01F04096010E66EC2EF0F2A637
:1002080008EF01F00AEF01F023EF01F0F2A00FEF81
:1002180001F011EF01F023EF01F081BE16EF01F0BC
:1002280018EF01F023EF01F040B61DEF01F01FEFCA
:1002380001F023EF01F04086000E66EC2EF09DAC35
:1002480028EF01F02AEF01F033EF01F09EAC2FEF19
:1002580001F031EF01F033EF01F0A3EC2EF09DA097
:1002680038EF01F03AEF01F03BEF01F09E501DC06E
:10027800E0FF1CC0E8FF1BC0D8FF4290100075EFDC
:0202880027F05D
:101000000041542B554152543A393630302C302C53
:10101000300D0A0041542B524E414D453A526F62F9
:101020006F740D0A0041542B505357443A313233F8
:10103000340D0A0041542B524F4C453A300D0A00F2
:071040002566002569000090
:1010480008EC15F0FD0E1E6E000E1F6E82EC29F0E6
:1010580058EF0AF020EC2EF0000E0001D96F640E54
:10106800D86F58EF0AF0AAEC21F030EF08F06AECDC
:1010780022F030EF08F0EAEC20F030EF08F00AEC4C
:1010880022F030EF08F04AEC21F030EF08F0E6ECFF
:1010980023F030EF08F0CAEC22F030EF08F089ECCA
:1010A80023F030EF08F0FC0E1E6E000E1F6E82EC6F
:1010B80029F058EF0AF0F80E226E000E236E47EC66
:1010C80028F058EF0AF0F80E226E000E236E8BEC13
:1010D80028F058EF0AF00001CE07CE51D8A477EFD8
:1010E80008F079EF08F07BEF08F0010ECE6FEB0EF9
:1010F80001016E6F000E6F6FF20E706F000E716F50
:10110800080E726FCEC073F1FBEC1DF04E0E01019C
:101118007D6FEB0EE82EFED77D2FFCD758EF0AF037
:101128000001CE2BB40ECE659CEF08F09EEF08F0C0
:101138007BEF08F0B40ECE6F7BEF08F00001CD070F
:10114800CD51D8A4AAEF08F0ACEF08F0AEEF08F044
:10115800010ECD6FEB0E01016E6F000E6F6FF20E78
:10116800706F000E716F090E726FCDC073F1FBECDA
:101178001DF08AEF08F00001CD2BB40ECD65C7EF46
:1011880008F0C9EF08F0AEEF08F0B40ECD6FAEEF7F
:1011980008F00001CC07CC51D8A4D5EF08F0D7EF60
:1011A80008F0D9EF08F0010ECC6FEB0E01016E6F5D
:1011B800000E6F6FF20E706F000E716F0A0E726F75
:1011C800CCC073F1FBEC1DF08AEF08F00001CC2BCA
:1011D800B40ECC65F2EF08F0F4EF08F0D9EF08F0A0
:1011E800B40ECC6FD9EF08F00001CB07CB51D8A4CF
:1011F80000EF09F002EF09F004EF09F0010ECB6FE0
:10120800EB0E01016E6F000E6F6FF20E706F000E25
:10121800716F0B0E726FCBC073F1FBEC1DF08AEF90
:1012280008F00001CB2BB40ECB651DEF09F01FEFC2
:1012380009F004EF09F0B40ECB6F04EF09F0FB0ED0
:101248000001606F000E616FDC0E626F000E636F4D
:10125800FA0E646F000E656FDB0E666F000E676F27
:10126800DA0E686F000E696FA5EC25F0140E010107
:101278007A6F010E7B6FFAC072F1736B000E756F97
:101288000A0E746F87EC20F001017251300F7C6FE9
:101298004FEC2DF00D0E01017D6FFB0EE82EFED7F1
:1012A8007D2FFCD700F000F0140E01017A6F010EBB
:1012B8007B6FFAC06EF16F6B000E716F0A0E706F64
:1012C80024EC20F001016E51300F7C6F4FEC2DF0B3
:1012D80030EF08F0140E7A6F010E7B6FFBC072F1CD
:1012E800736B000E756F0A0E746F87EC20F00101A6
:1012F8007251300F7C6F4FEC2DF00D0E01017D6F98
:10130800FB0EE82EFED77D2FFCD700F000F0140E60
:1013180001017A6F010E7B6FFBC06EF16F6B000EDF
:10132800716F0A0E706F24EC20F001016E51300FBE
:101338007C6F4FEC2DF030EF08F0F60E0001876F50
:10134800000E886FD00E896F000E8A6FD40E8B6FD7
:10135800000E8C6F7FEC1BF0140E01017A6F010EEA
:101368007B6F000E0001726F000E736FC80E746FF2
:10137800420E756FD4C06EF0D5C06FF0D6C070F055
:10138800D7C071F02DEC11F06EC066F16FC067F137
:1013980070C068F171C069F107EC1CF00101665179
:1013A800300F7C6F4FEC2DF0140E01017A6F010E97
:1013B8007B6F000E716F640E706FD4C066F1D5C07C
:1013C80067F1D6C068F1D7C069F107EC1CF00101DC
:1013D80066516E6F6F6B24EC20F06EC172F16FC1B5
:1013E80073F1000E0101756F0A0E746F87EC20F01F
:1013F80001017251300F7C6F4FEC2DF0000E01018E
:10140800716F640E706FD4C066F1D5C067F1D6C035
:1014180068F1D7C069F107EC1CF0010166516E6FE5
:101428006F6B24EC20F06EC17FF16FC180F1140E58
:1014380001017A6F010E7B6F7FC16EF180C16FF180
:10144800000E716F0A0E706F24EC20F001016E51CE
:10145800300F7C6F4FEC2DF030EF08F053EC18F0A4
:1014680030EF08F00DEC29F00D0E01017D6FFB0E39
:10147800E82EFED77D2FFCD700F000F0140E0101F6
:101488007A6F010E7B6FE7C066F1E8C067F1E9C0CB
:1014980068F1EAC069F107EC1CF0010166517C6F44
:1014A8004FEC2DF030EF08F0D8C07DF1D9C07EF1B7
:1014B80001017E51000AD8B464EF0AF058EF0AF02F
:1014C8007D51000AD8B42EEF08F0010AD8B437EFDE
:1014D80008F0030AD8B43BEF08F0010AD8B43FEF8C
:1014E80008F0070AD8B443EF08F0010AD8B447EF68
:1014F80008F0030AD8B44BEF08F0010AD8B44FEF4C
:1015080008F00F0AD8B453EF08F0010AD8B430EF46
:1015180008F0030AD8B457EF08F01A0AD8B45FEFF6
:1015280008F0010AD8B467EF08F0030AD8B46FEFDF
:1015380008F0010AD8B494EF08F0070AD8B4A2EF6B
:1015480008F0010AD8B4BFEF08F0030AD8B4CDEF09
:1015580008F0010AD8B4EAEF08F00F0AD8B4F8EF97
:1015680008F0010AD8B415EF09F0550AD8B423EFEA
:1015780009F0010AD8B46EEF09F0030AD8B4A1EF54
:1015880009F0010AD8B432EF0AF01F0AD8B436EFCE
:101598000AF058EF0AF043EF01F00001A351800B65
:1015A800AC6FA351A325AE6FA2AFDDEF0AF0DFEF5A
:1015B8000AF0E0EF0AF0AE81AE51D8B4E6EF0AF0D7
:1015C800E8EF0AF0FDEF0AF0AE29D8A4EEEF0AF032
:1015D800F0EF0AF0F8EF0AF0000EA06F000EA16F0E
:1015E800000EA26F000EA36FA28F000EA36F05EF6F
:1015F8000BF0000EA06F000EA16F000EA26F000E80
:10160800A36FA751800BAD6FAC51AD19D8B40FEFD4
:101618000BF011EF0BF012EF0BF0AC8DA751A725D3
:10162800AD6FA6AF1AEF0BF01CEF0BF01DEF0BF030
:10163800AD81AD51D8B423EF0BF025EF0BF03AEFA5
:101648000BF0AD29D8A42BEF0BF02DEF0BF035EFF5
:101658000BF0000EA46F000EA56F000EA66F000E13
:10166800A76FA68F000EA76F42EF0BF0000EA46FB6
:10167800000EA56F000EA66F000EA76FAE51AD5DF0
:10168800D8B049EF0BF04BEF0BF072EF0BF0ACADAD
:1016980050EF0BF052EF0BF054EF0BF0800EAC1B39
:1016A800AEC0AFF0ADC0AEF0AFC0ADF0A0C0AFF00F
:1016B800A4C0A0F0AFC0A4F0A1C0AFF0A5C0A1F035
:1016C800AFC0A5F0A2C0AFF0A6C0A2F0AFC0A6F010
:1016D800A3C0AFF0A7C0A3F0AFC0A7F0000EAF6FD4
:1016E800AE51ADC0A8F0A96BA85F000EA95BA9BF59
:1016F80087EF0BF0A95109E11A0EA85DD8A087EF72
:101708000BF089EF0BF0C0EF0BF0A051A111A21163
:10171800A311D8A492EF0BF095EF0BF0010E96EF02
:101728000BF0000EAF6F000EA06F000EA16F000E41
:10173800A26F000EA36FADC0AEF0C9EF0BF0AFA162
:10174800A8EF0BF0AAEF0BF0B0EF0BF0D890AF3189
:101758000109AF6FB2EF0BF0D890AF33A0A1B7EF8C
:101768000BF0B9EF0BF0BAEF0BF0AF8FA335A33343
:10177800A233A133A033AE2BAD51AE5DD8A0C7EFD5
:101788000BF0C9EF0BF0A3EF0BF0ACBDCEEF0BF0F5
:10179800D0EF0BF010EF0CF0AE51D8A4D6EF0BF051
:1017A800D8EF0BF0E2EF0BF0000EA06F000EA16F68
:1017B800000EA26F000EA36F31EF0DF0A451A02709
:1017C800A551A123A651A223A751A323A3A1EFEFBB
:1017D8000BF0F1EF0BF09DEF0CF0AFA1F6EF0BF073
:1017E800F8EF0BF0FEEF0BF0D890AF310109AF6FB7
:1017F80000EF0CF0D890AF33A0A105EF0CF007EF85
:101808000CF008EF0CF0AF8FA335A333A233A1334C
:10181800A033AE2B9DEF0CF0A451A05DA551A159AA
:10182800A651A259A351800AA86FA751800AA859A6
:10183800D8B021EF0CF023EF0CF04EEF0CF0A051D4
:10184800A45DA86FA151A559A96FA251A659AA6F65
:10185800A351A759AB6FFF0EA825A06FFF0EA921B2
:10186800A16FFF0EAA21A26FFF0EAB21A36F800EFE
:10187800AC1BAF6DAF51D8A444EF0CF046EF0CF0A1
:1018880056EF0CF0010EA027000EA123A223A323DC
:1018980056EF0CF0A451A05FA551A15BA651A25B25
:1018A800A751A35BA051A111A211A311D8A45FEF66
:1018B8000CF061EF0CF096EF0CF0AF51D8A467EF85
:1018C8000CF069EF0CF096EF0CF0000EA06F000E14
:1018D800A16F000EA26F000EA36F31EF0DF0D8902C
:1018E800A037A137A237A337AFAF7DEF0CF07FEF5A
:1018F8000CF080EF0CF0A081AFA185EF0CF087EF22
:101908000CF08BEF0CF0D880AF378DEF0CF0D8903F
:10191800AF37AE51D8B493EF0CF095EF0CF096EFCB
:101928000CF0AE07A2AF9BEF0CF09DEF0CF073EF3D
:101938000CF0000EAD6FAFAFA4EF0CF0A6EF0CF0FB
:10194800BEEF0CF0AFC0A8F07F0EA817D8B4AFEF69
:101958000CF0B1EF0CF0B5EF0CF0010EAD6FBEEF6F
:101968000CF0A0A1BAEF0CF0BCEF0CF0BEEF0CF03D
:10197800B1EF0CF0AD51D8B4C4EF0CF0C6EF0CF0D9
:10198800F1EF0CF0010EA027000EA123A223A32340
:10199800A3A1D1EF0CF0D3EF0CF0F1EF0CF0A0C045
:1019A800A8F0A1C0A9F0A2C0AAF0A3C0ABF0AB35C3
:1019B800AB33AA33A933A833A8C0A0F0A9C0A1F0BB
:1019C800AAC0A2F0ABC0A3F0AE29D8B4EEEF0CF0D9
:1019D800F0EF0CF0F1EF0CF0AE2BAE29D8B4F7EF26
:1019E8000CF0F9EF0CF001EF0DF0AE51D8A4FFEFB9
:1019F8000CF001EF0DF013EF0DF0000EA06F000ECC
:101A0800A16F000EA26F000EA36FAE51D8A40FEF06
:101A18000DF011EF0DF013EF0DF0000EAC6FAEA14D
:101A280018EF0DF01AEF0DF01DEF0DF0A28F1EEF5D
:101A38000DF0A29FD890AE31A36FACAF26EF0DF09A
:101A480028EF0DF029EF0DF0A38FA0C0A0F0A1C0E2
:101A5800A1F0A2C0A2F0A3C0A3F0120000018A5115
:101A6800800B936F8A518A25996F89AF3EEF0DF0ED
:101A780040EF0DF041EF0DF099819951D8B447EF3F
:101A88000DF049EF0DF05CEF0DF09929D8A44FEF58
:101A98000DF051EF0DF059EF0DF0000E876F000EAD
:101AA800886F000E896F000E8A6F898F64EF0DF0C2
:101AB800000E876F000E886F000E896F000E8A6F08
:101AC8008E51800B931B8E518E25946F8DAF6FEFC7
:101AD8000DF071EF0DF072EF0DF094819451D8B4C0
:101AE80078EF0DF07AEF0DF08DEF0DF09429D8A472
:101AF80080EF0DF082EF0DF08AEF0DF0000E8B6F86
:101B0800000E8C6F000E8D6F000E8E6F8D8F95EF0F
:101B18000DF0000E8B6F000E8C6F000E8D6F000E97
:101B28008E6F9451D8B49BEF0DF09DEF0DF0A5EF9B
:101B38000DF09951D8A4A3EF0DF0A5EF0DF0AFEF7C
:101B48000DF0000E876F000E886F000E896F000E73
:101B58008A6F47EF0FF08D518703F3CF9EF0F4CFD4
:101B68009FF09E51956F966B976B986B9F519A6FEC
:101B78009B6B9C6B9D6B8C518803F3CF9EF0F4CFCD
:101B88009FF09E519527000E9623972398239F51E7
:101B98009A27000E9B239C239D238B518903F3CF07
:101BA8009EF0F4CF9FF09E519527000E9623972321
:101BB80098239F519A27000E9B239C239D2397C00F
:101BC80098F096C097F095C096F0956B8B51880366
:101BD800F3CF9EF0F4CF9FF09E5195279F51962307
:101BE800000E9723000E98238C518703F3CF9EF0A5
:101BF800F4CF9FF09E5195279F519623000E97236F
:101C0800000E982397C098F096C097F095C096F06C
:101C1800956B8B518703F3CF9EF0F4CF9FF09E51C5
:101C280095279F519623000E9723000E98238D51D8
:101C38008803F3CF9EF0F4CF9FF09E519A279F51CF
:101C48009B23000E9C23000E9D238C518903F3CF08
:101C58009EF0F4CF9FF09E519A279F519B23000E30
:101C68009C23000E9D238D518903F3CF9EF0F4CF62
:101C78009FF09E518F6F9F51906F916B926B91C0A7
:101C880092F090C091F08FC090F08F6B8F519A278F
:101C980090519B2391519C2392519D2395C08FF085
:101CA80096C090F097C091F098C092F0190E62EF2C
:101CB8000EF0D8909233913390338F33E82E5DEF46
:101CC8000EF08F519A2790519B2391519C2392514A
:101CD8009D2397C098F096C097F095C096F0956BA5
:101CE800945199C08FF0906B8F27000E9023820E2D
:101CF8008F259E6FFF0E90219F6F98EF0EF0D89062
:101D08009A379B379C379D3798AF8DEF0EF08FEF42
:101D18000EF090EF0EF09A81D89095379637973756
:101D280098379E07D8A09F079CAF9DEF0EF09FEFB6
:101D38000EF083EF0EF0000E946F98AFA6EF0EF042
:101D4800A8EF0EF0CCEF0EF0FF0E95158F6FFF0E7B
:101D58009615906FFF0E9715916F7F0E9815926FDD
:101D68008F51901191119211D8B4BDEF0EF0BFEFC1
:101D78000EF0C3EF0EF0010E946FCCEF0EF09AA1A7
:101D8800C8EF0EF0CAEF0EF0CCEF0EF0BFEF0EF07A
:101D98009451D8B4D2EF0EF0D4EF0EF0F8EF0EF065
:101DA800010E9A27000E9B239C239D239DA1DFEF04
:101DB8000EF0E1EF0EF0F8EF0EF09AC08FF09BC036
:101DC80090F09CC091F09DC092F09235923391337F
:101DD80090338F338FC09AF090C09BF091C09CF0E5
:101DE80092C09DF09E4B9F2B9FBF03EF0FF09F511A
:101DF80008E19E29D8A003EF0FF005EF0FF00FEFD1
:101E08000FF0000E9A6F000E9B6F800E9C6F7F0E76
:101E18009D6F3DEF0FF09FBF1CEF0FF09F5106E144
:101E28009E05D8B01AEF0FF01CEF0FF028EF0FF057
:101E3800000E9A6F000E9B6F000E9C6F000E9D6F38
:101E4800000E936F3DEF0FF09EC099F0FF0E9A17AA
:101E5800FF0E9B177F0E9C17000E9D1799A137EF59
:101E68000FF039EF0FF03AEF0FF09C8FD8909931BF
:101E78009D6F93519D139AC087F09BC088F09CC0BA
:101E880089F09DC08AF01200010E0101706F0001F7
:101E9800B051B111D8A453EF0FF055EF0FF05AEF2E
:101EA8000FF0000E0101706F2BEF11F0000E010111
:101EB800716F000E726F000E736F000E746FE5EF96
:101EC80010F0AC94B896B0C0D9FFB1C0DAFFDECF3D
:101ED8006EF1DDCF6FF16EC160F06FC161F000018E
:101EE800626B636B000EFFEC15F060C072F061C0AE
:101EF80073F062C074F063C075F0000E00016E6F7D
:101F0800240E6F6FF40E706F4A0E716F2DEC11F086
:101F18006EC075F16FC076F170C077F171C078F15D
:101F2800000E0001726F000E736F800E746F420E08
:101F3800756F75C16EF076C16FF077C170F078C1BA
:101F480071F02DEC11F06EC0A0F06FC0A1F070C060
:101F5800A2F071C0A3F0000E0001A46F000EA56FDF
:101F6800800EA66FBF0EA76FD1EC0AF0A0C071F16A
:101F7800A1C072F1A2C073F1A3C074F10AEF11F00D
:101F8800AC84B896B0C0D9FFB1C0DAFFDECF6EF12D
:101F9800DDCF6FF16EC160F06FC161F00001626B5F
:101FA800636B000EFFEC15F060C072F061C073F057
:101FB80062C074F063C075F0000E00016E6F240EED
:101FC8006F6FF40E706F4A0E716F2DEC11F06EC0CA
:101FD80075F16FC076F170C077F171C078F1000EBD
:101FE8000001726F000E736F800E746F410E756F73
:101FF80075C16EF076C16FF077C170F078C171F07D
:102008002DEC11F06EC0A0F06FC0A1F070C0A2F06E
:1020180071C0A3F0000E0001A46F000EA56F800E22
:10202800A66FBF0EA76FD1EC0AF0A0C071F1A1C0D6
:1020380072F1A2C073F1A3C074F10AEF11F0AC946D
:10204800B886B0C0D9FFB1C0DAFFDECF6EF1DDCF00
:102058006FF16EC160F06FC161F00001626B636B7C
:10206800000EFFEC15F060C072F061C073F062C042
:1020780074F063C075F0000E00016E6F240E6F6F70
:10208800F40E706F4A0E716F2DEC11F06EC075F181
:102098006FC076F170C077F171C078F1000E000161
:1020A800726F000E736F800E746F410E756F75C17D
:1020B8006EF076C16FF077C170F078C171F02DECD9
:1020C80011F06EC0A0F06FC0A1F070C0A2F071C096
:1020D800A3F0000E0001A46F000EA56F800EA66F7E
:1020E800BF0EA76FD1EC0AF0A0C071F1A1C072F1C8
:1020F800A2C073F1A3C074F10AEF11F0AC84B886E2
:10210800B0C0D9FFB1C0DAFFDECF6EF1DDCF6FF11D
:102118006EC160F06FC161F00001626B636B000E0D
:10212800FFEC15F060C072F061C073F062C074F02B
:1021380063C075F0000E00016E6F240E6F6FF40E11
:10214800706F4A0E716F2DEC11F06EC075F16FC093
:1021580076F170C077F171C078F1000E0001726FEE
:10216800000E736F800E746F400E756F75C16EF040
:1021780076C16FF077C170F078C171F02DEC11F075
:102188006EC0A0F06FC0A1F070C0A2F071C0A3F043
:10219800000E0001A46F000EA56F800EA66FBF0E83
:1021A800A76FD1EC0AF0A0C071F1A1C072F1A2C072
:1021B80073F1A3C074F10AEF11F0000E706F0AEF0B
:1021C80011F0000120EE0BF0B051D926B151DA22FE
:1021D800DF5001016E6F6F6B6F51000AD8B4F7EFD3
:1021E80010F0E1EF10F06E51000AD8B465EF0FF06F
:1021F800010AD8B4C4EF0FF0030AD8B423EF10F0E3
:10220800010AD8B482EF10F0E1EF10F071C166F165
:1022180072C167F173C168F174C169F107EC1CF010
:1022280001016651AF6E71C166F172C167F173C188
:1022380068F174C169F107EC1CF0010167C166F12E
:1022480068C167F169C168F1696B6651B06E705118
:10225800120000017151800B7E6F71517125856FDD
:1022680070AF39EF11F03BEF11F03CEF11F08581C1
:102278008551D8B442EF11F044EF11F059EF11F045
:102288008529D8A44AEF11F04CEF11F054EF11F062
:10229800000E6E6F000E6F6F000E706F000E716F84
:1022A800708F000E716F61EF11F0000E6E6F000EEF
:1022B8006F6F000E706F000E716F7551800B7E1B73
:1022C80075517525866F74AF6CEF11F06EEF11F0D4
:1022D8006FEF11F086818651D8B475EF11F077EF62
:1022E80011F08CEF11F08629D8A47DEF11F07FEF63
:1022F80011F087EF11F0000E726F000E736F000E71
:10230800746F000E756F748F000E756F94EF11F077
:10231800000E726F000E736F000E746F000E756FF3
:102328007251731174117511D8A49DEF11F09FEFBC
:1023380011F0B7EF11F0000E6E6F000E6F6F000E08
:10234800706F000E716F800E70137F0E71137E51C7
:1023580071136EC06EF06FC06FF070C070F071C016
:1023680071F0FAEF12F08551D8A4BDEF11F0BFEF6C
:1023780011F0C9EF11F0000E6E6F000E6F6F000EB6
:10238800706F000E716FFAEF12F0865185C076F00B
:10239800776B765F000E775B7F0E76257F6F000E7A
:1023A8007721806F6EC07AF06FC07BF070C07CF0D0
:1023B80071C07DF0000E6E6F000E6F6F000E706FB3
:1023C800000E716F000E816F000E826F000E836F1A
:1023D800000E846F000E866F2AEF12F08651D8B473
:1023E800F8EF11F0FAEF11F011EF12F0D8907A37F8
:1023F8007B377C377D37D8906E376F3770377137BA
:1024080084AF09EF12F00BEF12F00CEF12F06E81AF
:10241800D890813782378337843772517A5D735108
:102428007B5974517C5975517D59D8A01EEF12F013
:1024380020EF12F029EF12F0848D72517A5F7351F8
:102448007B5B74517C5B75517D5B862B190E8665B1
:1024580030EF12F032EF12F0F2EF11F07A517B11F7
:102468007C117D11D8B43BEF12F03DEF12F055EF1F
:1024780012F0818155EF12F0D8906E376F377037B0
:10248800713784AF4AEF12F04CEF12F04DEF12F0B3
:102498006E81D89081378237833784377F07D8A0F9
:1024A800800770AF5AEF12F05CEF12F040EF12F0B5
:1024B800000E866F84AF63EF12F065EF12F089EFBC
:1024C80012F0FF0E8115766FFF0E8215776FFF0EE3
:1024D8008315786F7F0E8415796F7651771178118F
:1024E8007911D8B47AEF12F07CEF12F080EF12F085
:1024F800010E866F89EF12F06EA185EF12F087EF5B
:1025080012F089EF12F07CEF12F08651D8B48FEFF9
:1025180012F091EF12F0B5EF12F0010E6E27000ED7
:102528006F237023712371A19CEF12F09EEF12F0BC
:10253800B5EF12F06EC076F06FC077F070C078F02B
:1025480071C079F07935793378337733763376C05B
:102558006EF077C06FF078C070F079C071F07F4B83
:10256800802B80BFC0EF12F0805108E17F29D8A0EE
:10257800C0EF12F0C2EF12F0CDEF12F0000E806F34
:102588007F69000E6E6F000E6F6F000E706F000E89
:10259800716F80BFDAEF12F0805106E17F05D8B085
:1025A800D8EF12F0DAEF12F0E8EF12F0000E806FB9
:1025B800000E7F6F000E6E6F000E6F6F000E706F53
:1025C800000E716F000E7E6F7FC085F085A1EFEF62
:1025D80012F0F1EF12F0F4EF12F0708FF5EF12F045
:1025E800709FD8908531716FABEF11F01200000E1B
:1025F80000016B6F000E6A6F60516111D8B407EF6C
:1026080013F009EF13F012EF13F062516311D8A41D
:1026180010EF13F012EF13F014EF13F0F2EF13F0C2
:102628009EAA19EF13F01BEF13F012EF13F020EE30
:1026380009F06051D9266151DA22DFB826EF13F08C
:1026480028EF13F035EF13F0AE50236E246A62C002
:10265800D9FF63C0DAFF23C0DEFF24C0DDFFF2EF3D
:1026680013F020EE09F06051D9266151DA22DFA873
:1026780040EF13F042EF13F0F2EF13F020EE09F001
:102688006051D9266151DA22DF30030B0009D8A442
:1026980050EF13F052EF13F074EF13F0AECF6AF06F
:1026A8006B6BABB05AEF13F05CEF13F062EF13F003
:1026B800000E656F000E646F66EF13F0010E656F14
:1026C800000E646F64516A2765516B2362C0D9FF9D
:1026D80063C0DAFF6AC0DEFF6BC0DDFFF2EF13F004
:1026E80020EE09F06051D9266151DA22DF30030B60
:1026F800E806D8A482EF13F084EF13F0BAEF13F0D2
:10270800AECF6AF06B6BABB08CEF13F08EEF13F0BB
:1027180094EF13F0000E676F000E666F98EF13F0DA
:10272800010E676F000E666F66516A2767516B234B
:102738006A51C8EC2AF0236E00016B512318D8A403
:10274800A8EF13F0AAEF13F0F2EF13F0FF0E6A15DB
:10275800236E000E6B15246E62C0D9FF63C0DAFFCA
:1027680023C0DEFF24C0DDFFF2EF13F020EE09F0F6
:102778006051D9266151DA22DF30030B020AD8A44E
:10278800C8EF13F0CAEF13F0F2EF13F0AECF6AF010
:102798006B6BABB0D2EF13F0D4EF13F0DAEF13F0AA
:1027A800000E696F000E686FDEEF13F0010E696F9F
:1027B800000E686F68516A2769516B236A5194EC5F
:1027C8002AF0236E00016B512318D8A4EEEF13F002
:1027D800F0EF13F0F2EF13F0AAEF13F0ABB2F7EF4C
:1027E80013F0F9EF13F000EF14F0ABA4FEEF13F0C1
:1027F80000EF14F002EF14F0AB98AB881200000E53
:10280800136E000E126E06500710D8B40EEF14F0B7
:1028180010EF14F019EF14F008500910D8A417EFAE
:1028280014F019EF14F01BEF14F0F7EF14F09EAA50
:1028380020EF14F022EF14F019EF14F020EE09F055
:102848000650D9260750DA22DFB82DEF14F02FEF03
:1028580014F03CEF14F0AE500A6E0B6A08C0D9FFB2
:1028680009C0DAFF0AC0DEFF0BC0DDFFF7EF14F086
:1028780020EE09F00650D9260750DA22DFA847EFE4
:1028880014F049EF14F0F7EF14F020EE09F00650B9
:10289800D9260750DA22DF30030B0009D8A457EFF6
:1028A80014F059EF14F07BEF14F0AECF12F0136A66
:1028B800ABB061EF14F063EF14F069EF14F0000EA1
:1028C8000D6E000E0C6E6DEF14F0010E0D6E000E05
:1028D8000C6E0C5012260D50132208C0D9FF09C0E7
:1028E800DAFF12C0DEFF13C0DDFFF7EF14F020EEB1
:1028F80009F00650D9260750DA22DF30030BE80624
:10290800D8A489EF14F08BEF14F0C0EF14F0AECF19
:1029180012F0136AABB093EF14F095EF14F09BEF3D
:1029280014F0000E0F6E000E0E6E9FEF14F0010EE5
:102938000F6E000E0E6E0E5012260F5013221250FC
:1029480030EC2BF00A6E13500A18D8A4AEEF14F02E
:10295800B0EF14F0F7EF14F0FF0E12140A6E000E29
:1029680013140B6E08C0D9FF09C0DAFF0AC0DEFFD6
:102978000BC0DDFFF7EF14F020EE09F00650D92662
:102988000750DA22DF30030B020AD8A4CEEF14F086
:10299800D0EF14F0F7EF14F0AECF12F0136AABB02B
:1029A800D8EF14F0DAEF14F0E0EF14F0000E116E27
:1029B800000E106EE4EF14F0010E116E000E106E92
:1029C80010501226115013221250FCEC2AF00A6EF5
:1029D80013500A18D8A4F3EF14F0F5EF14F0F7EF3A
:1029E80014F0B0EF14F0ABB2FCEF14F0FEEF14F0FB
:1029F80005EF15F0ABA403EF15F005EF15F007EFA1
:102A080015F0AB98AB881200FD0E0001666F000E42
:102A1800676F81EC2CF0410E0001666F000E676F46
:102A280081EC2CF0FC0E0001666F000E676F81ECE4
:102A38002CF0F80E0001696F000E6A6FCFEC28F0D9
:102A4800BCEC27F0EB0E01016E6F000E6F6FF20EFB
:102A5800706F000E716F000E726F5A0E736FFBEC81
:102A68001DF01A0E01017B6FF80EE82EFED77B2FA2
:102A7800FCD700F0EB0E01016E6F000E6F6FF20EC7
:102A8800706F000E716F010E726F5A0E736FFBEC50
:102A98001DF01A0E01017B6FF80EE82EFED77B2F72
:102AA800FCD700F0EB0E01016E6F000E6F6FF20E97
:102AB800706F000E716F020E726F5A0E736FFBEC1F
:102AC8001DF01A0E01017B6FF80EE82EFED77B2F42
:102AD800FCD700F0EB0E01016E6F000E6F6FF20E67
:102AE800706F000E716F030E726F5A0E736FFBECEE
:102AF8001DF01A0E01017B6FF80EE82EFED77B2F12
:102B0800FCD700F0EB0E01016E6F000E6F6FF20E36
:102B1800706F000E716F080E726F000E736FFBEC12
:102B28001DF01A0E01017B6FF80EE82EFED77B2FE1
:102B3800FCD700F0EB0E01016E6F000E6F6FF20E06
:102B4800706F000E716F090E726F000E736FFBECE1
:102B58001DF01A0E01017B6FF80EE82EFED77B2FB1
:102B6800FCD700F0EB0E01016E6F000E6F6FF20ED6
:102B7800706F000E716F0A0E726F000E736FFBECB0
:102B88001DF01A0E01017B6FF80EE82EFED77B2F81
:102B9800FCD700F0EB0E01016E6F000E6F6FF20EA6
:102BA800706F000E716F0B0E726F000E736FFBEC7F
:102BB8001DF01A0E01017B6FF80EE82EFED77B2F51
:102BC800FCD700F0F60E0001696F000E6A6FD00E98
:102BD8006B6F000E6C6F56EC2CF0140E0101796FC0
:102BE800010E7A6FC9EC2BF0380E216E010E226EA1
:102BF8009AEC26F012000001686F00016851D8B401
:102C080008EF16F00AEF16F02CEF16F063BF11EF7D
:102C180016F00FEF16F02CEF16F060C064F061C0EC
:102C280065F062C066F063C067F0641F651F661FC9
:102C3800671F642B000E65236623672364C06AF050
:102C480065C06BF066C06CF067C06DF034EF16F0CD
:102C580060C06AF061C06BF062C06CF063C06DF078
:102C68006051611162116311D8A43DEF16F03FEF76
:102C780016F049EF16F0000E606F000E616F000E3F
:102C8800626F000E636FDAEF16F0960E696F53EFFE
:102C980016F0692BD8906D336C336B336A33000EA2
:102CA8006A15646F000E6B15656F000E6C15666F04
:102CB800FE0E6D15676F6451651166116711D8A412
:102CC80068EF16F06AEF16F04DEF16F078EF16F091
:102CD800692B010E6A27000E6B236C236D23D89095
:102CE8006D336C336B336A33000E6A15646F000EF4
:102CF8006B15656F000E6C15666FFF0E6D15676FAF
:102D08006451651166116711D8A48DEF16F08FEF25
:102D180016F06CEF16F097EF16F06907D8906A373F
:102D28006B376C376D376CBF9CEF16F09EEF16F063
:102D3800A6EF16F0020E6961A4EF16F0A6EF16F0E2
:102D480091EF16F069B1ABEF16F0ADEF16F0AEEFFC
:102D580016F06C9FD890693369C064F0656B666B38
:102D6800676B64C067F0666B656B646B64516A136C
:102D780065516B1366516C1367516D136851D8B464
:102D8800C8EF16F0CAEF16F0D2EF16F063BFD1EF16
:102D980016F0CFEF16F0D2EF16F06D8F6AC060F024
:102DA8006BC061F06CC062F06DC063F01200000E81
:102DB8000101756F000E746F0001B051B111D8A4F4
:102DC800E8EF16F0EAEF16F0ECEF16F09EEF17F0CA
:102DD800000E726F000E736FC80E746F420E756F1F
:102DE800B251606F616B626B636B010EFFEC15F0A3
:102DF80060C06EF061C06FF062C070F063C071F0C7
:102E08002DEC11F06EC08BF06FC08CF070C08DF09F
:102E180071C08EF0CB5001016E6F6F6B010E6E2783
:102E2800000E6F236EC160F06FC161F00001000EEB
:102E380061BFFF0E626F636F010EFFEC15F060C09B
:102E480087F061C088F062C089F063C08AF032EC14
:102E58000DF087C070F188C071F189C072F18AC025
:102E680073F1000E00018B6F000E8C6F800E8D6F5A
:102E7800400E8E6F70C187F071C188F072C189F001
:102E880073C18AF032EC0DF087C066F188C067F133
:102E980089C068F18AC069F107EC1CF066C174F159
:102EA80067C175F1B0C0D9FFB1C0DAFFDF50D8A44F
:102EB80060EF17F062EF17F07BEF17F074C16EF157
:102EC800030E01016E176E3BBD506E19CF0B6E19C4
:102ED800BD6E74C16EF175C16FF1D8906F336E33EA
:102EE800D8906F336E336E51BE6E9EEF17F0B0C040
:102EF800D9FFB1C0DAFFDE04D8A485EF17F087EF59
:102F080017F09EEF17F074C16EF1030E01016E17F2
:102F18006E3BBA506E19CF0B6E19BA6E74C16EF152
:102F280075C16FF1D8906F336E33D8906F336E33AD
:102F38006E51BB6E1200010E256E21C0D9FF22C052
:102F4800DAFFDF50D8A4ABEF17F0ADEF17F0F8EFCA
:102F580017F0D1EF17F0BD50F00B0809BD6E4BEF1D
:102F680018F0BD50F00B0909BD6E4BEF18F0BD50BD
:102F7800F00B0209BD6E4BEF18F0BD50F00B0A09BB
:102F8800BD6E4BEF18F0BD50F00B0B09BD6E4BEF4B
:102F980018F0000E256E4BEF18F020EE02F02150CD
:102FA800D9262250DA22DF50236E246A2450000AE0
:102FB800D8B4E1EF17F0CDEF17F02350020AD8B4D8
:102FC800BBEF17F00A0AD8B4AFEF17F0010AD8B46C
:102FD800B5EF17F0030AD8B4C1EF17F0010AD8B457
:102FE800C7EF17F0CDEF17F021C0D9FF22C0DAFFE5
:102FF800DE04D8A402EF18F004EF18F04BEF18F035
:1030080024EF18F0BA50F00B0809BA6E4BEF18F01D
:10301800BA50F00B0909BA6E4BEF18F0BA50F00B22
:103028000209BA6E4BEF18F0BA50F00B0A09BA6EE3
:103038004BEF18F0BA50F00B0B09BA6E4BEF18F0C3
:1030480020EE02F02150D9262250DA22DF50236EDA
:10305800246A2450000AD8B434EF18F0CDEF17F0E2
:103068002350020AD8B412EF18F00A0AD8B406EFAF
:1030780018F0010AD8B40CEF18F0030AD8B418EF06
:1030880018F0010AD8B41EEF18F0CDEF17F021C0E0
:103098001EF022C01FF04AEC29F025501200010E44
:1030A800256E9D9A410E1E6E000E1F6E010E206E3B
:1030B800E8EC1AF0E8EF18F0140E00016C6F010E3E
:1030C8006D6F3C0E6E6F000E6F6F29EC2AF0240EA8
:1030D8003C18D8A472EF18F074EF18F0E8EF18F065
:1030E800E0EF18F0140E00016C6F010E6D6F3C0ECE
:1030F8006E6F000E6F6F29EC2AF02C0E3C18D8A4C6
:1031080088EF18F08AEF18F0E0EF18F0372A030E6E
:103118003718D8A492EF18F094EF18F0B6EF18F01B
:10312800000E366E140E00016C6F010E6D6F590E95
:1031380036246E6F6F6B010E6F2329EC2AF0362A46
:10314800580E3624D96EDA6A010EDA222C0EDE18F1
:10315800D8A4B1EF18F0B3EF18F096EF18F0372AAB
:10316800E0EF18F0050E3718D8A4BDEF18F0BFEF40
:1031780018F0E0EF18F0000E366E140E00016C6FB8
:10318800010E6D6F4C0E36246E6F6F6B010E6F2340
:1031980029EC2AF0362A4B0E3624D96EDA6A010E4B
:1031A800DA222C0EDE18D8A4DCEF18F0DEEF18F0C7
:1031B800C1EF18F0000E256E2550D8A4E6EF18F0E0
:1031C800E8EF18F076EF18F02550D8A4EEEF18F0D5
:1031D800F0EF18F060EF18F0150E0001716F4B0E4C
:1031E800706FBE0EE82EFED7702FFCD7712FFAD75E
:1031F80000F0410E1E6E000E1F6E000E206EE8ECF1
:103208001AF09D8A1200010E0001606F1E501F10F7
:10321800D8B411EF19F013EF19F022EF19F01EC00E
:10322800D9FF1FC0DAFFDF50070B206E070E20649E
:1032380020EF19F022EF19F085EF19F0000E606FFA
:10324800A6EF19F01EC0D9FF1FC0DAFFDF50070B29
:10325800206E010E216E202A34EF19F0D890213605
:10326800202E32EF19F02150FF0A226E1EC0D9FF1E
:103278001FC0DAFFDF30E832E832070B236E235035
:10328800020D0A0EF324D96E010EF420DA6EDECF99
:1032980024F0DDCF25F024C0D9FF25C0DAFF225065
:1032A800DF16A6EF19F01EC0D9FF1FC0DAFFDF50E6
:1032B800070B206E010E216E202A65EF19F0D890B9
:1032C8002136202E63EF19F01EC0D9FF1FC0DAFF88
:1032D800DF30E832E832070B226E2250020D0A0E68
:1032E800F324D96E010EF420DA6EDECF23F0DDCFA1
:1032F80024F023C0D9FF24C0DAFF2150DF12A6EF43
:1033080019F01EC0D9FF1FC0DAFFDFBC8EEF19F01D
:1033180091EF19F0010E92EF19F0000E206E216A5C
:103328002150000AD8B49BEF19F022EF19F0205071
:10333800000AD8B426EF19F0010AD8B457EF19F0EB
:1033480022EF19F0000160511200010E256E21C014
:10335800D9FF22C0DAFFDF50D8A4B5EF19F0B7EFD4
:1033680019F0F8EF19F0D5EF19F0BD50F00B04097A
:10337800BD6E41EF1AF0BD50F00B0509BD6E41EF6F
:103388001AF0BD50F00B0609BD6E41EF1AF0BD50A2
:10339800F00B0709BD6E41EF1AF0000E256E41EFE4
:1033A8001AF020EE02F02150D9262250DA22DF50FE
:1033B800236E246A2450000AD8B4E5EF19F0D1EF3F
:1033C80019F02350040AD8B4B9EF19F0010AD8B497
:1033D800BFEF19F0030AD8B4C5EF19F0010AD8B441
:1033E800CBEF19F0D1EF19F021C0D9FF22C0DAFFD5
:1033F800DE04D8A402EF1AF004EF1AF041EF1AF035
:103408001EEF1AF0BA50F00B0409BA6E41EF1AF029
:10341800BA50F00B0509BA6E41EF1AF0BA50F00B2A
:103428000609BA6E41EF1AF0BA50F00B0709BA6EE6
:1034380041EF1AF020EE02F02150D9262250DA226C
:10344800DF50236E246A2450000AD8B42EEF1AF0F5
:10345800D1EF19F02350040AD8B406EF1AF0010A84
:10346800D8B40CEF1AF0030AD8B412EF1AF0010A14
:10347800D8B418EF1AF0D1EF19F021C01EF022C00D
:103488001FF04AEC29F02550120001016E516F110E
:10349800D8A451EF1AF053EF1AF055EF1AF0E7EFEE
:1034A8001AF0C69A20EE06F06E51D9266F51DA222C
:1034B800DFA061EF1AF063EF1AF06BEF1AF06EC13C
:1034C800B0F06FC1B1F043EC24F0A7EF1AF020EE92
:1034D80006F06E51D9266F51DA22DFB076EF1AF076
:1034E80078EF1AF0A7EF1AF020EE06F06E51D92601
:1034F8006F51DA22DFA683EF1AF085EF1AF088EF12
:103508001AF0C58E96EF1AF020EE06F06E51D92605
:103518006F51DA22DFB693EF1AF095EF1AF096EFB3
:103528001AF0C59EC69EC69CC68820EE05F06E5150
:10353800D9266F51DA22DF50C86E6EC11EF06FC1F6
:103548001FF01DEC2DF09AEC2EF0010120EE06F094
:103558006E51D9266F51DA22DFA2B5EF1AF0B7EF14
:103568001AF0BAEF1AF0C78EC8EF1AF020EE06F07C
:103578006E51D9266F51DA22DFB2C5EF1AF0C7EFC4
:103588001AF0C8EF1AF0C79E20EE06F06E51D92641
:103598006F51DA22DFA4D3EF1AF0D5EF1AF0D8EF83
:1035A8001AF0C78CE6EF1AF020EE06F06E51D92615
:1035B8006F51DA22DFB4E3EF1AF0E5EF1AF0E6EF25
:1035C8001AF0C79CC68A1200010E216E1E501F10E9
:1035D800D8B4F1EF1AF0F3EF1AF003EF1BF01EC0A6
:1035E800D9FF1FC0DAFFDF50070B0001606F070E1D
:1035F800606501EF1BF003EF1BF068EF1BF0000E96
:10360800216E7DEF1BF01EC0D9FF1FC0DAFFDF500F
:10361800070B606F010E616F602B15EF1BF0D890E0
:103628006137602F13EF1BF000016151FF0A626FD1
:103638001EC0D9FF1FC0DAFFDF30E832E832070BBF
:10364800636F6351020DDD0EF324D96E000EF42072
:10365800DA6EDECF64F0DDCF65F064C0D9FF65C0F7
:10366800DAFF6251DF167DEF1BF01EC0D9FF1FC0C5
:10367800DAFFDF50070B606F010E616F602B47EFB9
:103688001BF0D8906137602F45EF1BF01EC0D9FFA3
:103698001FC0DAFFDF30E832E832070B0001626F43
:1036A8006251020DDD0EF324D96E000EF420DA6E9D
:1036B800DECF63F0DDCF64F063C0D9FF64C0DAFF0A
:1036C8006151DF127DEF1BF02050606F616B61511B
:1036D800000AD8B472EF1BF003EF1BF06051000A28
:1036E800D8B407EF1BF0010AD8B439EF1BF003EF89
:1036F8001BF021501200000E00018F6F000E8E6F1C
:10370800000E8D6F8B518C11D8A48DEF1BF08FEFAD
:103718001BF091EF1BF006EF1CF0D59E89C01EF040
:103728008AC01FF0000E216E000E206EA8EC2DF04E
:1037380087C022F088C023F07CEC2DF0B0EF1BF09E
:10374800010E87251E6E000E88211F6E8F0E206EBB
:10375800000E216E4EEC25F000018F51D8B4B7EF62
:103768001BF0B9EF1BF0A4EF1BF0D58EC8EF1BF0D0
:10377800010E87251E6E000E88211F6E8F0E206E8B
:10378800000E216E4EEC25F000018F51D8A4CFEF2A
:103798001BF0D1EF1BF0BCEF1BF0D59E89C01EF0CB
:1037A8008AC01FF08D0E206E000E216E9EEC24F054
:1037B8008DC060F08EC061F00001626B636B000E1B
:1037C800FFEC15F060C06EF061C06FF062C070F081
:1037D80063C071F0330E0001726F330E736F6B0E9E
:1037E800746F420E756F2DEC11F08BC0D9FF8CC031
:1037F800DAFF00016EC0DEFF6FC0DEFF70C0DEFFC3
:1038080071C0DEFF1200010168356935256E25504B
:10381800D8A411EF1CF013EF1CF01DEF1CF0000EE4
:10382800666F000E676F000E686F000E696F8AEF93
:103838001CF066C16AF167C16BF168C16CF169C1BE
:103848006DF1200E2DEF1CF0D8906D336C336B3377
:103858006A33E82E28EF1CF06A51246E688FFF0E39
:103868006617FF0E6717FF0E6817000E6917960E8A
:10387800255E25BE44EF1CF042EF1CF05AEF1CF009
:103888002550800A970FD8B04CEF1CF04EEF1CF073
:1038980050EF1CF013EF1CF0D8906933683367338E
:1038A8006633253E50EF1CF072EF1CF01F0E2564A6
:1038B80060EF1CF062EF1CF06AEF1CF013EF1CF0D5
:1038C800D890663767376837693725062550D8A4F2
:1038D80070EF1CF072EF1CF064EF1CF02450D8B4A9
:1038E80078EF1CF07AEF1CF082EF1CF0691F681F5C
:1038F800671F666D000E67236823692366C166F13A
:1039080067C167F168C168F169C169F112002350A4
:103918002410D8A492EF1CF094EF1CF096EF1CF042
:103928000AEF1DF0D59E20EE03F02350D92624502F
:10393800DA22DFA202D0D58C01D0D59C20EE03F08C
:103948002350D9262450DA22DFB4ADEF1CF0AFEFB4
:103958001CF0BDEF1CF023C0D9FF24C0DAFFDF50F4
:10396800256ED5502518F80B2518D56ED596CBEFB2
:103978001CF020EE03F02350D9262450DA22DFA4CD
:10398800C8EF1CF0CAEF1CF0CBEF1CF0D58620EE78
:1039980003F02350D9262450DA22DFA0D6EF1CF0FA
:1039A800D8EF1CF0E4EF1CF020EE03F02350D926EA
:1039B8002450DA22DFA602D0D58801D0D598928883
:1039C80020EE03F02350D9262450DA22DFA002D0BB
:1039D800D58A01D0D59A23C01EF024C01FF020EE4E
:1039E80001F02350D9262450DA22DECF20F0DDCF93
:1039F80021F0A8EC2DF020EE01F02350D926245018
:103A0800DA22DECFB5F0DDCFB6F0D58E1200000198
:103A180069516A11D8A413EF1DF015EF1DF017EFC7
:103A28001DF087EF1DF069C0D9FF6AC0DAFFDF50CB
:103A3800D8A421EF1DF023EF1DF027EF1DF0F00EA5
:103A4800BD1635EF1DF069C0D9FF6AC0DAFFDE0484
:103A5800D8A431EF1DF033EF1DF035EF1DF0F00E57
:103A6800BA1620EE01F06951D9266A51DA22DF50E0
:103A7800D8A441EF1DF043EF1DF04BEF1DF069C0D6
:103A880021F06AC022F0A9EC19F078EF1DF020EEC1
:103A980001F06951D9266A51DA22DE04D8A457EF19
:103AA8001DF059EF1DF061EF1DF069C021F06AC0EB
:103AB80022F09FEC17F078EF1DF020EE01F069512D
:103AC800D9266A51DA22020EDE18D8A46EEF1DF04C
:103AD80070EF1DF078EF1DF069C021F06AC022F088
:103AE800F8EC25F078EF1DF0030E00016925666FEC
:103AF800000E6A21676F81EC2CF069C01EF06AC065
:103B08001FF0A2EC2EF01200000160516111D8A440
:103B180090EF1DF092EF1DF094EF1DF0FAEF1DF0FD
:103B280020EE02F06051D9266151DA22DFA69FEF1C
:103B38001DF0A1EF1DF0F8EF1DF020EE02F060512E
:103B4800D9266151DA22DF50030B0009D8A4AFEF60
:103B58001DF0B1EF1DF0C0EF1DF062C023F063C08F
:103B680024F024C023F0246A2330D8A002D0AC80EB
:103B780001D0AC90F8EF1DF020EE02F06051D9268C
:103B88006151DA22DF50030BE806D8A4CEEF1DF00E
:103B9800D0EF1DF0DCEF1DF06251C8EC2AF0236E67
:103BA8002330D8A002D0AC8001D0AC90F8EF1DF043
:103BB80020EE02F06051D9266151DA22DF50030B62
:103BC800020AD8A4EAEF1DF0ECEF1DF0F8EF1DF0A3
:103BD800625194EC2AF0236E2330D8A002D0AC8036
:103BE80001D0AC90F8EF1DF062C0ADFF12000101EA
:103BF8006E516F11D8A403EF1EF005EF1EF007EF0A
:103C08001EF06CEF1EF07251040DF350080F000106
:103C1800B26F000EA46F000EA56F510EA66F430E73
:103C2800A76F9A0E8B6F990E8C6FD90E8D6F3F0E02
:103C38008E6F010173510001606F616B626B636B82
:103C4800010EFFEC15F060C087F061C088F062C01B
:103C580089F063C08AF032EC0DF087C0A0F088C00C
:103C6800A1F089C0A2F08AC0A3F0D1EC0AF0A0C0EC
:103C780066F1A1C067F1A2C068F1A3C069F107ECC1
:103C88001CF066C1B0F067C1B1F06EC160F06FC1E1
:103C980061F070C1D9FF71C1DAFFDF500001626FB6
:103CA800B2C063F0B0C064F064EC2BF00001B22B3A
:103CB8006EC160F06FC161F070C1D9FF71C1DAFFE8
:103CC800DF50626FB2C063F0B151646F64EC2BF0E7
:103CD8001200FACF14F0FBCF15F0D9CF16F0DACFD7
:103CE80017F0F3CF18F0F4CF19F0F2AA7EEF1EF018
:103CF80080EF1EF089EF1EF0F2A485EF1EF087EF2B
:103D08001EF089EF1EF0A4EC2EF09DA28EEF1EF09F
:103D180090EF1EF091EF1EF09E50A0A296EF1EF0BD
:103D280098EF1EF099EF1EF0A150A0A09EEF1EF094
:103D3800A0EF1EF0A1EF1EF0A1509DAAA6EF1EF065
:103D4800A8EF1EF0B1EF1EF09EAAADEF1EF0AFEF88
:103D58001EF0B1EF1EF092EC2DF09DA8B6EF1EF00C
:103D6800B8EF1EF0C1EF1EF09EA8BDEF1EF0BFEF2A
:103D78001EF0C1EF1EF0A5EC2EF0A0A6C6EF1EF0B7
:103D8800C8EF1EF0C9EF1EF0A1509DA6CEEF1EF0A1
:103D9800D0EF1EF0D1EF1EF09E5019C0F4FF18C0EE
:103DA800F3FF17C0DAFF16C0D9FF15C0FBFF14C018
:103DB800FAFF4292110006500710D8A4E6EF1EF051
:103DC800E8EF1EF0EAEF1EF050EF1FF020EE02F0D1
:103DD8000650D9260750DA22DFA6F5EF1EF0F7EFD6
:103DE8001EF04EEF1FF020EE02F00650D9260750C5
:103DF800DA22DF50030B0009D8A405EF1FF007EF04
:103E08001FF016EF1FF008C00AF009C00BF00BC036
:103E18000AF00B6A0A30D8A002D0AC8001D0AC906E
:103E28004EEF1FF020EE02F00650D9260750DA2296
:103E3800DF50030BE806D8A424EF1FF026EF1FF08D
:103E480032EF1FF0085030EC2BF00A6E0A30D8A081
:103E580002D0AC8001D0AC904EEF1FF020EE02F003
:103E68000650D9260750DA22DF50030B020AD8A4DD
:103E780040EF1FF042EF1FF04EEF1FF00850FCEC30
:103E88002AF00A6E0A30D8A002D0AC8001D0AC90DB
:103E98004EEF1FF008C0ADFF1200206E7BEF1FF041
:103EA8009280BCEF1FF09282BCEF1FF09284BCEFAF
:103EB8001FF09286BCEF1FF0928ABCEF1FF096802D
:103EC800BCEF1FF09682BCEF1FF09684BCEF1FF08A
:103ED8009384BCEF1FF09386BCEF1FF09382BCEF76
:103EE8001FF09388BCEF1FF09380BCEF1FF02050A9
:103EF8001E6E1F6A1F50000AD8B485EF1FF0BCEF72
:103F08001FF01E50000AD8B454EF1FF0010AD8B4AD
:103F180057EF1FF0030AD8B45AEF1FF0010AD8B4BC
:103F28005DEF1FF0070AD8B460EF1FF0010AD8B49C
:103F380063EF1FF0030AD8B466EF1FF0010AD8B484
:103F480069EF1FF00F0AD8B46CEF1FF0010AD8B45C
:103F58006FEF1FF0030AD8B472EF1FF0010AD8B44C
:103F680075EF1FF0070AD8B478EF1FF0BCEF1FF009
:103F78001200010170517111D8B4C5EF1FF0C7EFDD
:103F88001FF0D0EF1FF072517311D8A4CEEF1FF0BD
:103F9800D0EF1FF0D2EF1FF023EF20F070C16EF1C9
:103FA80071C16FF149EC1AF070C160F071C161F034
:103FB80072C1D9FF73C1DAFFDF500001626FFE0ED4
:103FC800636F010120EE01F07251D9267351DA2294
:103FD800DF500001646F64EC2BF070C160F071C1B8
:103FE80061F072C1D9FF73C1DAFFDF500001626F5F
:103FF800000E636F010120EE02F07251D926735151
:10400800DA22DF500001646F64EC2BF070C160F0BD
:1040180071C161F072C1D9FF73C1DAFFDF500001CD
:10402800626F010E636F010120EE03F07251D92611
:104038007351DA22DF500001646F64EC2BF0120038
:10404800000E0001B16F01016FBF2FEF20F02DEFBF
:1040580020F036EF20F06E6D6F1FD8B06F2B010E79
:104068000001B16F010171BF3EEF20F03CEF20F07D
:1040780042EF20F0706D711FD8B0712B7051711123
:10408800D8B449EF20F04BEF20F074EF20F0010E88
:104098000001B06F55EF20F0D890703771370001EC
:1040A800B02B010171AF5BEF20F05DEF20F050EF16
:1040B80020F0010170516E5D71516F59D8A067EF02
:1040C80020F069EF20F06DEF20F070516E5F7151B4
:1040D8006F5BD890713370330001B02F5DEF20F023
:1040E8000001B151D8B47BEF20F07DEF20F082EFD2
:1040F80020F001016E6D6F1FD8B06F2B6EC16EF18D
:104108006FC16FF11200000E0101776F75BF91EF5B
:1041180020F08FEF20F097EF20F0746D751FD8B066
:10412800752B010E776F73BF9EEF20F09CEF20F088
:10413800A4EF20F0726D731FD8B0732B010E771B9C
:10414800000E796F000E786F74517511D8B4AFEF07
:1041580020F0B1EF20F0D9EF20F0010E766FB9EF23
:1041680020F0D89074377537762B75AFBEEF20F0F6
:10417800C0EF20F0B5EF20F0D89078377937745138
:10418800725D75517359D8A0CCEF20F0CEEF20F0B6
:10419800D3EF20F07451725F7551735B7881D890BA
:1041A80075337433762FC0EF20F07751D8B4DFEF32
:1041B80020F0E1EF20F0E5EF20F0786D791FD8B01E
:1041C800792B78C172F179C173F11200020E0001E6
:1041D800CF6F20EC2EF0EB0E01016E6F000E6F6FAB
:1041E800F20E706F000E716F000E726F870E736F94
:1041F800FBEC1DF0EB0E01016E6F000E6F6FF20EFF
:10420800706F000E716F010E726F780E736FFBEC9A
:104218001DF0EB0E01016E6F000E6F6FF20E706FE6
:10422800000E716F020E726F2D0E736FFBEC1DF096
:10423800EB0E01016E6F000E6F6FF20E706F000EC5
:10424800716F030E726F1E0E736FFBEC1DF0FF0E85
:10425800226E000E236ED2EC2DF0FE0E226E000EA2
:10426800236ED2EC2DF02C0E0001B06F010EB16F51
:10427800550EB26FDBEC16F0200E0001B06F010E88
:10428800B16F2D0EB26FDBEC16F01200020E0001BA
:10429800CF6F20EC2EF0EB0E01016E6F000E6F6FEA
:1042A800F20E706F000E716F000E726F5A0E736F00
:1042B800FBEC1DF0EB0E01016E6F000E6F6FF20E3E
:1042C800706F000E716F010E726F5A0E736FFBECF8
:1042D8001DF0EB0E01016E6F000E6F6FF20E706F26
:1042E800000E716F020E726F5A0E736FFBEC1DF0A9
:1042F800EB0E01016E6F000E6F6FF20E706F000E05
:10430800716F030E726F5A0E736FFBEC1DF0FF0E88
:10431800226E000E236ED2EC2DF0FE0E226E000EE1
:10432800236ED2EC2DF02C0E0001B06F010EB16F90
:10433800550EB26FDBEC16F0200E0001B06F010EC7
:10434800B16F000EB26FDBEC16F01200030E000125
:10435800CF6F20EC2EF0EB0E01016E6F000E6F6F29
:10436800F20E706F000E716F000E726F2D0E736F6C
:10437800FBEC1DF0EB0E01016E6F000E6F6FF20E7D
:10438800706F000E716F010E726F1E0E736FFBEC73
:104398001DF0EB0E01016E6F000E6F6FF20E706F65
:1043A800000E716F020E726F870E736FFBEC1DF0BB
:1043B800EB0E01016E6F000E6F6FF20E706F000E44
:1043C800716F030E726F780E736FFBEC1DF0FF0EAA
:1043D800226E000E236ED2EC2DF0FE0E226E000E21
:1043E800236ED2EC2DF02C0E0001B06F010EB16FD0
:1043F8002D0EB26FDBEC16F0200E0001B06F010E2F
:10440800B16F550EB26FDBEC16F01200030E00010F
:10441800CF6F20EC2EF0EB0E01016E6F000E6F6F68
:10442800F20E706F000E716F000E726F5A0E736F7E
:10443800FBEC1DF0EB0E01016E6F000E6F6FF20EBC
:10444800706F000E716F010E726F5A0E736FFBEC76
:104458001DF0EB0E01016E6F000E6F6FF20E706FA4
:10446800000E716F020E726F5A0E736FFBEC1DF027
:10447800EB0E01016E6F000E6F6FF20E706F000E83
:10448800716F030E726F5A0E736FFBEC1DF0FF0E07
:10449800226E000E236ED2EC2DF0FE0E226E000E60
:1044A800236ED2EC2DF02C0E0001B06F010EB16F0F
:1044B800000EB26FDBEC16F0200E0001B06F010E9B
:1044C800B16F550EB26FDBEC16F01200010E000151
:1044D800CF6F20EC2EF0EB0E01016E6F000E6F6FA8
:1044E800F20E706F000E716F000E726F5A0E736FBE
:1044F800FBEC1DF0EB0E01016E6F000E6F6FF20EFC
:10450800706F000E716F010E726F5A0E736FFBECB5
:104518001DF0EB0E01016E6F000E6F6FF20E706FE3
:10452800000E716F020E726F5A0E736FFBEC1DF066
:10453800EB0E01016E6F000E6F6FF20E706F000EC2
:10454800716F030E726F5A0E736FFBEC1DF0FF0E46
:10455800226E000E236ED2EC2DF0FE0E226E000E9F
:10456800236ED2EC2DF02C0E0001B06F010EB16F4E
:10457800550EB26FDBEC16F0200E0001B06F010E85
:10458800B16F550EB26FDBEC16F01200040E00018D
:10459800CF6F20EC2EF0EB0E01016E6F000E6F6FE7
:1045A800F20E706F000E716F000E726F5A0E736FFD
:1045B800FBEC1DF0EB0E01016E6F000E6F6FF20E3B
:1045C800706F000E716F010E726F5A0E736FFBECF5
:1045D8001DF0EB0E01016E6F000E6F6FF20E706F23
:1045E800000E716F020E726F5A0E736FFBEC1DF0A6
:1045F800EB0E01016E6F000E6F6FF20E706F000E02
:10460800716F030E726F5A0E736FFBEC1DF0FF0E85
:10461800226E000E236EE6EC2DF0FE0E226E000ECA
:10462800236EE6EC2DF02C0E0001B06F010EB16F79
:10463800550EB26FDBEC16F0200E0001B06F010EC4
:10464800B16F550EB26FDBEC16F01200010E226E40
:104658001E501F10D8B433EF23F035EF23F03EEF90
:1046680023F020502110D8A43CEF23F03EEF23F094
:1046780042EF23F0000E226E87EF23F020EE03F0C6
:104688001E50D9261F50DA22DF50D8A44EEF23F04F
:1046980050EF23F074EF23F0C3500001606F616B9B
:1046A800060ED89060376137E82E55EF23F0C450D6
:1046B800636F626B6051622761516323060E646FFA
:1046C800633563336233642F64EF23F020C0D9FF6E
:1046D80021C0DAFF62C0DEFF63C0DDFF87EF23F091
:1046E800C350C4CF60F00001616B60C061F0606BC3
:1046F8006027000E612320C0D9FF21C0DAFF60C007
:10470800DEFF61C0DDFF2250120020EC2EF0EB0E20
:1047180001016E6F000E6F6FF20E706F000E716FF9
:10472800000E726F870E736FFBEC1DF0EB0E01012C
:104738006E6F000E6F6FF20E706F000E716F010ECC
:10474800726F780E736FFBEC1DF0EB0E01016E6F4C
:10475800000E6F6FF20E706F000E716F020E726FA7
:104768002D0E736FFBEC1DF0EB0E01016E6F000E4A
:104778006F6FF20E706F000E716F030E726F1E0E68
:10478800736FFBEC1DF0FF0E226E000E236EE6EC3D
:104798002DF0FE0E226E000E236EE6EC2DF02C0E90
:1047A8000001B06F010EB16F550EB26FDBEC16F061
:1047B800200E0001B06F010EB16F2D0EB26FDBEC51
:1047C80016F0120020EC2EF0EB0E01016E6F000EB9
:1047D8006F6FF20E706F000E716F000E726F2D0EFC
:1047E800736FFBEC1DF0EB0E01016E6F000E6F6F27
:1047F800F20E706F000E716F010E726F1E0E736FE6
:10480800FBEC1DF0EB0E01016E6F000E6F6FF20EE8
:10481800706F000E716F020E726F870E736FFBEC74
:104828001DF0EB0E01016E6F000E6F6FF20E706FD0
:10483800000E716F030E726F780E736FFBEC1DF034
:10484800FF0E226E000E236EE6EC2DF0FE0E226E99
:10485800000E236EE6EC2DF02C0E0001B06F010E59
:10486800B16F2D0EB26FDBEC16F0200E0001B06FA9
:10487800010EB16F550EB26FDBEC16F0120000019D
:10488800B051B111D8A44BEF24F04DEF24F04FEF05
:1048980024F09DEF24F020EE04F0B051D926B15158
:1048A800DA22DF50B26FC650B219F00BB219C66ED9
:1048B800000EA46F000EA56F800EA66FBF0EA76F27
:1048C800B0C0D9FFB1C0DAFFDECF60F0DECF61F053
:1048D800DECF62F0DECF63F0000EFFEC15F060C0B3
:1048E80072F061C073F062C074F063C075F0000EBE
:1048F80000016E6F240E6F6FF40E706F490E716FAA
:104908002DEC11F06EC0A0F06FC0A1F070C0A2F045
:1049180071C0A3F0D1EC0AF0A0C066F1A1C067F1A4
:10492800A2C068F1A3C069F107EC1CF0010166514F
:10493800C86E1200000E0001616F000E606F1E50FD
:104948001F10D8B4AAEF24F0ACEF24F0B5EF24F090
:1049580020502110D8A4B3EF24F0B5EF24F0B7EF1E
:1049680024F0F6EF24F020EE03F01E50D9261F5055
:10497800DA22DFB2C2EF24F0C4EF24F0DCEF24F037
:10498800D6CF61F0D7CF60F06051236E226A6151B3
:10499800246E256A225024262350252220C0D9FFC0
:1049A80021C0DAFF24C0DEFF25C0DDFFF6EF24F0CA
:1049B80020EE03F01E50D9261F50DA22DFA2E7EFBF
:1049C80024F0E9EF24F0B5EF24F0D6CF61F061517F
:1049D800226E236A20C0D9FF21C0DAFF22C0DEFF81
:1049E80023C0DDFF1200010E236E21502210D8A42F
:1049F80000EF25F002EF25F006EF25F0000E236EFC
:104A08004CEF25F020EE06F02150D9262250DA226C
:104A1800DFA611EF25F013EF25F03CEF25F0AB985A
:104A280021C01EF022C01FF049EC26F0236E20EEB4
:104A380006F02150D9262250DA22DFA826EF25F0E9
:104A480028EF25F02BEF25F0AB8C39EF25F020EE81
:104A580006F02150D9262250DA22DFB836EF25F0A9
:104A680038EF25F039EF25F0AB9CAB884CEF25F0FB
:104A780020EE06F02150D9262250DA22DFB647EF81
:104A880025F049EF25F04CEF25F0AB984CEF25F0D9
:104A9800235012001E501F10D8B455EF25F057EFC1
:104AA80025F070EF25F020502110D8B45EEF25F0E6
:104AB80060EF25F070EF25F01EC0D9FF1FC0DAFFA8
:104AC800DF50070B0001606F070E60656EEF25F081
:104AD80070EF25F072EF25F0A4EF25F01EC0D9FF86
:104AE8001FC0DAFFDF50070B606F1EC0D9FF1FC061
:104AF800DAFFDF30E832E832070B616F6151020DEF
:104B0800000EF324D96E010EF420DA6EDECF62F0C7
:104B1800DDCF63F062C0D9FF63C0DAFFDF50646F96
:104B2800602B99EF25F0D8906433602F97EF25F02C
:104B380000016451010B20C0D9FF21C0DAFFDF6EEC
:104B48001200000160516111D8B4ADEF25F0AFEF4C
:104B580025F0D3EF25F062516311D8B4B6EF25F0F4
:104B6800B8EF25F0D3EF25F064516511D8B4BFEF45
:104B780025F0C1EF25F0D3EF25F066516711D8B4C1
:104B8800C8EF25F0CAEF25F0D3EF25F06851691179
:104B9800D8A4D1EF25F0D3EF25F0D5EF25F0F7EF26
:104BA80025F057EC2EF066EC2DF060C01EF061C0C9
:104BB8001FF02DEC27F062C01EF063C01FF02DEC33
:104BC80027F064C01EF065C01FF02DEC27F066C00A
:104BD8001EF067C01FF02DEC27F068C01EF069C0FA
:104BE8001FF02DEC27F0120020EE09F02150D926F5
:104BF8002250DA22DF50CB6E090E21241E6E000EE1
:104C080022201F6EF2EC29F021C0D9FF22C0DAFF62
:104C1800DF50D8A412EF26F014EF26F029EF26F083
:104C280020EE02F02150D9262250DA220C0EDE188E
:104C3800D8A421EF26F023EF26F048EF26F0BD5048
:104C4800F00B0C09BD6E48EF26F021C0D9FF22C039
:104C5800DAFFDE04D8A433EF26F035EF26F048EF6C
:104C680026F020EE02F02150D9262250DA220C0E2E
:104C7800DE18D8A442EF26F044EF26F048EF26F0DD
:104C8800BA50F00B0C09BA6E1200010E206E1E50BD
:104C98001F10D8A452EF26F054EF26F058EF26F054
:104CA800000E206E98EF26F09D9A1EC0D9FF1FC0F7
:104CB800DAFFDECF34F0DDCF35F020EE04F01E5001
:104CC800D9261F50DA22DECFC7F0DDCFC8F020EE9C
:104CD80002F01E50D9261F50DA22DECFC9F0DDCFF0
:104CE800CAF0D08E20EE06F01E50D9261F50DA22C8
:104CF800DFA081EF26F083EF26F087EF26F09F8A6A
:104D0800F28E97EF26F020EE06F01E50D9261F509F
:104D1800DA22DFB092EF26F094EF26F097EF26F034
:104D28009F9AF28EF28C9D8A2050120021502210F8
:104D3800D8A4A1EF26F0A3EF26F0A5EF26F0E4EF24
:104D480026F0C29020EE01F02150D9262250DA2216
:104D5800DF50236E234623462346C0502318C70B33
:104D68002318C06E20EE02F02150D9262250DA22F4
:104D7800DF50236EC0502318F80B2318C06E21C0D3
:104D8800D9FF22C0DAFFDF50236E23462346C250E4
:104D98002318C30B2318C26E21C0D9FF22C0DAFF23
:104DA800DF5051EC1FF021C01EF022C01FF0F9ECBB
:104DB8002BF021C01EF022C01FF097EC2BF0C28010
:104DC8001200010E206E1E501F10D8A4EEEF26F020
:104DD800F0EF26F0F4EF26F0000E206E2BEF27F010
:104DE8001EC0D9FF1FC0DAFFDFA4FDEF26F0FFEFDA
:104DF80026F01DEF27F0AC9A1EC0D9FF1FC0DAFFBE
:104E0800DFA609EF27F00BEF27F00EEF27F0AC8CA9
:104E18001AEF27F01EC0D9FF1FC0DAFFDFB617EF61
:104E280027F019EF27F01AEF27F0AC9CAC8A2BEF8C
:104E380027F01EC0D9FF1FC0DAFFDFB426EF27F026
:104E480028EF27F02BEF27F0AC9A2BEF27F0205014
:104E580012001EC0D9FF1FC0DAFF000EDF6E000E61
:104E6800216E83AE3AEF27F03CEF27F035EF27F0BD
:104E78001A0EE82EFED700F000F083AE46EF27F0BA
:104E880048EF27F057EF27F01EC0D9FF1FC0DAFF01
:104E9800DF50206ED88020341EC0D9FF1FC0DAFF33
:104EA800DF6E64EF27F01EC0D9FF1FC0DAFFDF50A6
:104EB800206ED89020341EC0D9FF1FC0DAFFDF6EE5
:104EC80083BE69EF27F06BEF27F064EF27F0212A04
:104ED800070E216472EF27F074EF27F035EF27F003
:104EE8001200520EF66E590EF76E000EF86E01EEB5
:104EF80000F010EE3DF00900F5CFEEFFE550E1506F
:104F0800FAE18A0EF66E5C0EF76E000EF86E00EE91
:104F1800DDF010EE23F00900F5CFEEFFE550E1508B
:104F2800FAE13A0EF66E5D0EF76E000EF86E00EEC0
:104F38003DF010EE05F00900F5CFEEFFE550E15029
:104F4800FAE101EE3DF0290EEE6AE806FDE100EE19
:104F5800B3F02A0EEE6AE806FDE100EE26F0170E21
:104F6800EE6AE806FDE142904292000124EF08F063
:104F7800FF0E0001696F000E6A6F0DEC2EF0FE0E39
:104F88000001696F000E6A6F0DEC2EF02C0E000107
:104F9800696F010E6A6F0BEC1DF0200E0001696F3E
:104FA800010E6A6F0BEC1DF02C0E0001B06F010EA4
:104FB800B16F000EB26FDBEC16F0200E0001B06F7F
:104FC800010EB16F000EB26FDBEC16F02C0E1E6EE8
:104FD800010E1F6E28EC2CF0200E1E6E010E1F6EA7
:104FE80028EC2CF0EB0E0101706F000E716FF20EC1
:104FF800726F000E736FBDEC1FF012000001655157
:105008006611D8B40AEF28F00CEF28F015EF28F055
:1050180068516911D8A413EF28F015EF28F017EF9D
:1050280028F046EF28F065C021F066C022F067C07E
:1050380023F0C8EC2CF000016B6F65C01EF066C051
:105048001FF033EC2EF000016B6F35EF28F065C0D0
:105058001EF066C01FF068C020F069C021F02AEC7D
:1050680023F0C2B23AEF28F03CEF28F02BEF28F0FB
:10507800340E00016A6FF10EE82EFED76A2FFCD7B6
:1050880000F000F0120022502310D8A44EEF28F0B0
:1050980050EF28F052EF28F08AEF28F0010E222472
:1050A8001E6E000E23201F6E010E206EE8EC1AF013
:1050B800000E256E000E246E22C01EF023C01FF0C5
:1050C800010E206EE8EC1AF0C80E00F000F0E82E91
:1050D800FCD722C01EF023C01FF0000E206EE8ECA3
:1050E8001AF0C80E00F000F0E82EFCD7244A252A52
:1050F80025BE88EF28F0255009E10A0E245CD8A0C7
:1051080088EF28F08AEF28F060EF28F0120022508C
:105118002310D8A492EF28F094EF28F096EF28F007
:10512800CEEF28F0010E22241E6E000E23201F6EE3
:10513800000E206EE8EC1AF0000E256E000E246EAC
:1051480022C01EF023C01FF0010E206EE8EC1AF0FA
:10515800C80E00F000F0E82EFCD722C01EF023C0D5
:105168001FF0000E206EE8EC1AF0C80E00F000F0F8
:10517800E82EFCD7244A252A25BECCEF28F0255056
:1051880009E10A0E245CD8A0CCEF28F0CEEF28F075
:10519800A4EF28F01200000169516A11D8A4D7EFD2
:1051A80028F0D9EF28F0DBEF28F00CEF29F069C0E0
:1051B80066F06AC067F081EC2CF0010E00016925E9
:1051C800666F000E6A21676F81EC2CF0010E0001FA
:1051D80069251E6E000E6A211F6E07EC19F069C062
:1051E8001EF06AC01FF007EC19F069C01EF06AC013
:1051F8001FF0000E206EE8EC1AF0010E0001692580
:105208001E6E000E6A211F6E000E206EE8EC1AF06A
:105218001200380E0001656F010E666F000E676F91
:105228003A0E686F000E696F02EC28F03AC01EF063
:105238003BC01FF0000E216E0D0E206EFAEC2DF013
:105248001EC060F01FC061F00001626B636B000E4E
:10525800FFEC15F060C06EF061C06FF062C070F0D6
:1052680063C071F0000E0001726F000E736F800E44
:10527800746F440E756F2DEC11F06EC0E7F06FC0BF
:10528800E8F070C0E9F071C0EAF0120020EE04F016
:105298001E50D9261F50DA22DF50D8A456EF29F025
:1052A80058EF29F05CEF29F0B196B18C81EF29F025
:1052B80020EE04F01E50D9261F50DA22DE04D8A4AE
:1052C80068EF29F06AEF29F06EEF29F0B186B19CFA
:1052D80081EF29F020EE04F01E50D9261F50DA2263
:1052E800020EDE18D8A47BEF29F07DEF29F081EFBC
:1052F80029F0B196B19C81EF29F012001E501F10C1
:10530800D8A489EF29F08BEF29F08DEF29F0B9EFB8
:1053180029F01EC0D9FF1FC0DAFFDF50070B206E2F
:10532800010E216E202A9BEF29F0D8902136202EDD
:1053380099EF29F01EC0D9FF1FC0DAFFDF30E8322D
:10534800E832070B226E2250020DDD0EF324D96ECF
:10535800000EF420DA6EDECF23F0DDCF24F023C078
:10536800D9FF24C0DAFF2150DF1A120001500210C1
:10537800D8A4C1EF29F0C3EF29F0C5EF29F0F1EF68
:1053880029F001C0D9FF02C0DAFFDF50070B036E16
:10539800010E046E032AD3EF29F0D8900436032EA9
:1053A800D1EF29F001C0D9FF02C0DAFFDF30E832BF
:1053B800E832070B056E0550020DDD0EF324D96E99
:1053C800000EF420DA6EDECF06F0DDCF07F006C05F
:1053D800D9FF07C0DAFF0450DF1A12001E501F1051
:1053E800D8A4F9EF29F0FBEF29F0FDEF29F028EF19
:1053F8002AF0CA9420EE01F01E50D9261F50DA2256
:10540800DF50206ECA502018FC0B2018CA6E20EE00
:1054180002F01E50D9261F50DA22DF50206E204697
:1054280020462046CA502018870B2018CA6E1EC076
:10543800D9FF1FC0DAFFDF50CC6E1EC0D9FF1FC0D6
:10544800DAFFDF50396ECA84120000016C516D1109
:10545800D8B431EF2AF033EF2AF03CEF2AF06E513E
:105468006F11D8A43AEF2AF03CEF2AF03EEF2AF069
:105478004FEF2AF09EAA43EF2AF045EF2AF03EEFBD
:105488002AF06CC060F06DC061F06EC062F06FC051
:1054980063F0FBEC12F0ABB254EF2AF056EF2AF0AF
:1054A8005DEF2AF0ABA45BEF2AF05DEF2AF05FEF27
:1054B8002AF0AB98AB8812001E501F10D8B467EFC3
:1054C8002AF069EF2AF072EF2AF021502210D8A4AE
:1054D80070EF2AF072EF2AF074EF2AF093EF2AF0B7
:1054E80020C0C9FFC7B07BEF2AF07DEF2AF076EF26
:1054F8002AF09E96C5BC83EF2AF085EF2AF08DEF3F
:105508002AF021C0D9FF22C0DAFF000EDF6E93EF28
:105518002AF021C0D9FF22C0DAFF010EDF6E120087
:10552800206E000E216E000E226E000E226E22C02A
:105538001EF0010E1F6E1E2AA4EF2AF0D8901F3607
:105548001E2EA2EF2AF01F5020140009D8B4AFEF86
:105558002AF0B1EF2AF0B2EF2AF0212A222A070E08
:105568002264B9EF2AF0BBEF2AF09BEF2AF0212A38
:1055780021B0C1EF2AF0C3EF2AF0C6EF2AF0010EDE
:10558800C7EF2AF0000E1200206E000E216E000EEA
:10559800226E000E226E22C01EF0010E1F6E1E2A01
:1055A800D8EF2AF0D8901F361E2ED6EF2AF01F50BB
:1055B80020140009D8B4E3EF2AF0E5EF2AF0E6EF6B
:1055C8002AF0212A222A070E2264EDEF2AF0EFEFB3
:1055D8002AF0CFEF2AF0212A21A0F5EF2AF0F7EFE1
:1055E8002AF0FAEF2AF0010EFBEF2AF0000E120063
:1055F800036E000E046E000E056E000E056E05C0EB
:1056080001F0010E026E012A0CEF2BF0D890023641
:10561800012E0AEF2BF0025003140009D8B417EF3B
:105628002BF019EF2BF01AEF2BF0042A052A070E9E
:10563800056421EF2BF023EF2BF003EF2BF0042A66
:1056480004B029EF2BF02BEF2BF02EEF2BF0010EEF
:105658002FEF2BF0000E1200036E000E046E000EEA
:10566800056E000E056E05C001F0010E026E012ADE
:1056780040EF2BF0D8900236012E3EEF2BF002506F
:1056880003140009D8B44BEF2BF04DEF2BF04EEF7D
:105698002BF0042A052A070E056455EF2BF057EF67
:1056A8002BF037EF2BF0042A04A05DEF2BF05FEF0F
:1056B8002BF062EF2BF0010E63EF2BF0000E1200BF
:1056C800060E236E60C01EF061C01FF001EC2DF0C5
:1056D80060C01EF061C01FF062C020F0230E216E72
:1056E800000E226E60EC2AF060C01EF061C01FF050
:1056F80063C020F0230E216E000E226E60EC2AF0AB
:1057080060C01EF061C01FF064C020F0230E216E3F
:10571800000E226E60EC2AF060C01EF061C01FF01F
:10572800E5EC2CF012001E501F10D8A49EEF2BF0B1
:10573800A0EF2BF0A2EF2BF0C8EF2BF020EE04F037
:105748001E50D9261F50DA22DF50D8A4AEEF2BF016
:10575800B0EF2BF0B4EF2BF0C19AC198C8EF2BF043
:1057680020EE04F01E50D9261F50DA22DE04D8A4F9
:10577800C0EF2BF0C2EF2BF0C6EF2BF0C18AC18827
:10578800C8EF2BF0C19AC1981200010179517A1122
:10579800D8A4D1EF2BF0D3EF2BF0D5EF2BF0F8EF07
:1057A8002BF0AB9E79C1B0F07AC1B1F048EC0FF0A4
:1057B8000001B26FAC98948C020E010179251E6E1F
:1057C800000E7A211F6EE5EC26F00001B217948EC8
:1057D800030E01017925216E000E7A21226EF7EC65
:1057E80024F00001B217AB8E12001E501F10D8A46F
:1057F80000EF2CF002EF2CF004EF2CF027EF2CF048
:1058080020EE03F01E50D9261F50DA22DF50D8A40C
:1058180010EF2CF012EF2CF015EF2CF0C09E27EFB4
:105828002CF020EE03F01E50D9261F50DA22DE0499
:10583800D8A421EF2CF023EF2CF026EF2CF0C08E0B
:1058480027EF2CF0C08E12001E501F10D8A42FEF87
:105858002CF031EF2CF033EF2CF055EF2CF01EC06C
:10586800D9FF1FC0DAFFDF50D8A43DEF2CF03FEF7F
:105878002CF045EF2CF0BD50F00B0C09BD6E55EF28
:105888002CF01EC0D9FF1FC0DAFFDE04D8A44FEFEA
:105898002CF051EF2CF055EF2CF0BA50F00B0C090E
:1058A800BA6E1200000169516A11D8B45EEF2CF08B
:1058B80060EF2CF069EF2CF06B516C11D8A467EFF6
:1058C8002CF069EF2CF06BEF2CF080EF2CF069C016
:1058D80066F06AC067F081EC2CF0010E00016925C2
:1058E800666F000E6A21676F81EC2CF06BC023F0A5
:1058F8006CC024F08BEC1CF012000001665167119B
:10590800D8A489EF2CF08BEF2CF08FEF2CF0000E41
:10591800686FA7EF2CF066C01EF067C01FF007EC99
:1059280019F00001686F66C01EF067C01FF066C0FE
:10593800D9FF67C0DAFF000EDFBE010E206EE8EC6B
:105948001AF00001686F68511200800F810F820FF2
:10595800830F840F920F930F940F950F960F802546
:10596800046C5A000000000900000102001100F454
:10597800010000F9000F0002001200F4010000F914
:07598800000F000502010001
:10599000010E256E21502210D8A4D1EF2CF0D3EFA8
:1059A0002CF0D7EF2CF0000E256EE3EF2CF023C087
:1059B00024F024462446C2502418C30B2418C26E77
:1059C000235051EC1FF0255012001E501F10D8A478
:1059D000ECEF2CF0EEEF2CF0F0EF2CF000EF2DF0D0
:1059E000C584C5B4F6EF2CF0F8EF2CF0F1EF2CF0F5
:1059F0009E96C7A8FEEF2CF000EF2DF0EEEF2CF0F6
:105A000012001E501F10D8A408EF2DF00AEF2DF041
:105A10000CEF2DF01CEF2DF0C580C5B012EF2DF06E
:105A200014EF2DF00DEF2DF09E96C7A61AEF2DF076
:105A30001CEF2DF00AEF2DF012001E501F10D8A4FD
:105A400024EF2DF026EF2DF028EF2DF035EF2DF07F
:105A500020EE04F01E50D9261F50DA22DF50206EAF
:105A6000C6502018F00B2018C66E1200140E066ED9
:105A7000010E076ED80E086E000E096E03EC14F0CE
:105A8000140E0C6E010E0D6E3DC00EF0BDEC2DF02F
:105A9000FD0E016E000E026EBAEC29F0120001013B
:105AA0007A517B11D8A457EF2DF059EF2DF05BEF11
:105AB0002DF065EF2DF07AC160F07BC161F07CC103
:105AC00062F00001636B88EC1DF0120083BE6BEF87
:105AD0002DF06DEF2DF066EF2DF083AE72EF2DF00F
:105AE00074EF2DF06DEF2DF083BE79EF2DF07BEF8D
:105AF0002DF074EF2DF0120022C01EF023C01FF015
:105B0000010E206EE8EC1AF0060EE82EFED700F02B
:105B100000F022C01EF023C01FF0000E206EE8EC43
:105B20001AF0120034503510D8B499EF2DF09BEFD5
:105B30002DF0A7EF2DF002D8A7EF2DF00500FA6E9B
:105B40003450FD6E3550FE6EFF6AFA50120012009E
:105B5000010E226E1E501F10D8A4B1EF2DF0B3EF2E
:105B60002DF0B7EF2DF0000E226EBBEF2DF021507F
:105B7000D76E20C0D6FF225012000C500D10D8A4B2
:105B8000C4EF2DF0C6EF2DF0C8EF2DF0D1EF2DF0C2
:105B90000CC006F00DC007F00EC008F0096ADFEC7B
:105BA0001EF0120022502310D8A4D9EF2DF0DBEF05
:105BB0002DF0DDEF2DF0E5EF2DF022C01EF023C01B
:105BC0001FF0000E206EE8EC1AF012002250231095
:105BD000D8A4EDEF2DF0EFEF2DF0F1EF2DF0F9EF70
:105BE0002DF022C01EF023C01FF0010E206EE8EC45
:105BF0001AF012001E502002F3CF22F0F4CF23F04F
:105C00001E502102F35023261F502002F35023265A
:105C100022C01EF023C01FF01200000169516A115A
:105C2000D8A415EF2EF017EF2EF019EF2EF01FEF7E
:105C30002EF069C066F06AC067F081EC2CF01200AB
:105C40002C0E0001B06F010EB16F000EB26FDBECD5
:105C500016F0200E0001B06F010EB16F000EB26F92
:105C6000DBEC16F01200010E206E1E501F10D8A49F
:105C70003CEF2EF03EEF2EF042EF2EF0000E206EA5
:105C800043EF2EF0C28220501200890F8A0F8B0F33
:105C90008C0F8D0F00004041A0860100080003809A
:0D5CA0007921040B4A1B1A134D82101918AC
:105CAE00959E8C9E2F0E1E6EC00EE82EFED71E2EBB
:105CBE00FCD78C8E140EE82EFED7958E12001A6E1F
:105CCE00F2901A50D8B46EEF2EF070EF2EF072EFF5
:105CDE002EF072EF2EF012001A6EF2901A50D8B407
:105CEE007BEF2EF07DEF2EF07FEF2EF07FEF2EF07C
:105CFE0012001A6EF2901A50D8B488EF2EF08AEF76
:105D0E002EF08CEF2EF08CEF2EF012001A6EF29019
:105D1E001A50D8B495EF2EF097EF2EF099EF2EF093
:105D2E0099EF2EF012009486948812007701010FDD
:015D3E009CC8
:0C5D4000F090120012001200120012007D
:020000040020DA
:08000000FFFFFFFFFFFFFFFF00
:020000040030CA
:0E000000FF02191EFF8181FF0FC00FE00F40AD
:00000001FF
