:020000040000FA
:0400000043EF01F0D9
:060008005682A1ED13F089
:100018005680D8CF27F0E8CF28F0E0CF29F0F0A617
:1000280018EF00F01AEF00F023EF00F0F0A01FEF38
:1000380000F021EF00F023EF00F021EC1BF0F2A616
:1000480028EF00F02AEF00F043EF00F0F2A02FEFC6
:1000580000F031EF00F043EF00F081A836EF00F038
:1000680038EF00F043EF00F04CA03DEF00F03FEF19
:1000780000F043EF00F04C90010E0BEC1BF0F2A6E1
:1000880048EF00F04AEF00F063EF00F0F2A04FEF06
:1000980000F051EF00F063EF00F081B856EF00F088
:1000A80058EF00F063EF00F04CB05DEF00F05FEF49
:1000B80000F063EF00F04C80000E0BEC1BF0F2A692
:1000C80068EF00F06AEF00F083EF00F0F2A06FEF46
:1000D80000F071EF00F083EF00F081AA76EF00F0F6
:1000E80078EF00F083EF00F04CA27DEF00F07FEF97
:1000F80000F083EF00F04C92010EFEEC1AF0F2A62D
:1001080088EF00F08AEF00F0A3EF00F0F2A08FEF85
:1001180000F091EF00F0A3EF00F081BA96EF00F045
:1001280098EF00F0A3EF00F04CB29DEF00F09FEFC6
:1001380000F0A3EF00F04C82000EFEEC1AF0F2A6DD
:10014800A8EF00F0AAEF00F0C3EF00F0F2A0AFEFC5
:1001580000F0B1EF00F0C3EF00F081ACB6EF00F0B3
:10016800B8EF00F0C3EF00F04CA4BDEF00F0BFEF14
:1001780000F0C3EF00F04C94010EF1EC1AF0F2A677
:10018800C8EF00F0CAEF00F0E3EF00F0F2A0CFEF05
:1001980000F0D1EF00F0E3EF00F081BCD6EF00F003
:1001A800D8EF00F0E3EF00F04CB4DDEF00F0DFEF44
:1001B80000F0E3EF00F04C84000EF1EC1AF0F2A628
:1001C800E8EF00F0EAEF00F003EF01F0F2A0EFEF44
:1001D80000F0F1EF00F003EF01F081AEF6EF00F070
:1001E800F8EF00F003EF01F04CA6FDEF00F0FFEF91
:1001F80000F003EF01F04C96010EE4EC1AF0F2A6C1
:1002080008EF01F00AEF01F023EF01F0F2A00FEF81
:1002180001F011EF01F023EF01F081BE16EF01F0BC
:1002280018EF01F023EF01F04CB61DEF01F01FEFBE
:1002380001F023EF01F04C86000EE4EC1AF09DACBF
:1002480028EF01F02AEF01F033EF01F09EAC2FEF19
:1002580001F031EF01F033EF01F023EC1BF09DA02A
:1002680038EF01F03AEF01F03BEF01F09E5029C062
:10027800E0FF28C0E8FF27C0D8FF56901000FEEF27
:0202880017F06D
:101000000041542B554152543A393630302C302C53
:10101000300D0A0041542B524E414D453A526F62F9
:101020006F740D0A002D2020202020202020202059
:101030002020200041542B505357443A313233344E
:101040000D0A0041542B524F4C453A300D0A002DE9
:071050003E200025690000AD
:101058000001E351800B0101116F0001E351E32509
:101068000101136F0001E2AF3CEF08F03EEF08F01A
:1010780040EF08F00101138101011351D8B447EF83
:1010880008F049EF08F060EF08F01329D8A44FEFF3
:1010980008F051EF08F05AEF08F0000E0001E06F79
:1010A800000EE16F000EE26F000EE36F0001E28FA9
:1010B800000EE36F69EF08F0000E0001E06F000E0C
:1010C800E16F000EE26F000EE36FE751800B010144
:1010D800126F11511219D8B474EF08F076EF08F0B6
:1010E80077EF08F0118D0001E751E7250101126F34
:1010F8000001E6AF82EF08F084EF08F086EF08F011
:101108000101128101011251D8B48DEF08F08FEF5F
:1011180008F0A6EF08F01229D8A495EF08F097EF89
:1011280008F0A0EF08F0000E0001E46F000EE56F74
:10113800000EE66F000EE76F0001E68F000EE76F06
:10114800AFEF08F0000E0001E46F000EE56F000E2F
:10115800E66F000EE76F01011351125DD8B0B7EFCB
:1011680008F0B9EF08F0E0EF08F011ADBEEF08F0B5
:10117800C0EF08F0C2EF08F0800E111B13C114F184
:1011880012C113F114C112F1E0C014F1E4C0E0F08F
:1011980014C1E4F0E1C014F1E5C0E1F014C1E5F0D8
:1011A800E2C014F1E6C0E2F014C1E6F0E3C014F1C5
:1011B800E7C0E3F014C1E7F0000E146F135112C139
:1011C8000DF10E6B0D5F000E0E5B0EBFF5EF08F014
:1011D8000E5109E11A0E0D5DD8A0F5EF08F0F7EFF2
:1011E80008F035EF09F00001E051E111E211E311D7
:1011F800D8A401EF09F004EF09F0010E05EF09F09A
:10120800000E0101146F000E0001E06F000EE16F87
:10121800000EE26F000EE36F12C113F13EEF09F00A
:1012280014A119EF09F01BEF09F021EF09F0D8908C
:1012380014310109146F23EF09F0D8901433000119
:10124800E0A129EF09F02BEF09F02DEF09F00101DA
:10125800148F0001E335E333E233E133E033010176
:10126800132B1251135DD8A03CEF09F03EEF09F0A3
:1012780014EF09F0010111BD44EF09F046EF09F040
:101288008DEF09F01351D8A44CEF09F04EEF09F097
:1012980059EF09F0000E0001E06F000EE16F000E3B
:1012A800E26F000EE36FDAEF0AF00001E451E02785
:1012B800E551E123E651E223E751E323E3A167EF98
:1012C80009F069EF09F037EF0AF0010114A16FEF97
:1012D80009F071EF09F077EF09F0D890143101099E
:1012E800146F79EF09F0D89014330001E0A17FEF73
:1012F80009F081EF09F083EF09F00101148F000173
:10130800E335E333E233E133E0330101132B37EF05
:101318000AF00001E451E05DE551E159E651E25976
:10132800E351800A01010D6F0001E751800A0101B4
:101338000D59D8B0A2EF09F0A4EF09F0E0EF09F0D9
:101348000001E051E45D01010D6F0001E151E55933
:1013580001010E6F0001E251E65901010F6F000112
:10136800E351E7590101106FFF0E0D250001E06FF1
:10137800FF0E01010E210001E16FFF0E01010F2197
:101388000001E26FFF0E010110210001E36F800EE2
:101398000101111B146D1451D8A4D5EF09F0D7EF32
:1013A80009F0E9EF09F0010E0001E027000EE12342
:1013B800E223E323E9EF09F00001E451E05FE5519E
:1013C800E15BE651E25BE751E35B0001E051E111CB
:1013D800E211E311D8A4F3EF09F0F5EF09F02FEFCC
:1013E8000AF001011451D8A4FCEF09F0FEEF09F04E
:1013F8002FEF0AF0000E0001E06F000EE16F000E03
:10140800E26F000EE36FDAEF0AF0D890E037E137C9
:10141800E237E337010114AF14EF0AF016EF0AF0D0
:1014280018EF0AF00001E081010114A11EEF0AF093
:1014380020EF0AF024EF0AF0D880143726EF0AF0DC
:10144800D89014371351D8B42CEF0AF02EEF0AF0C5
:101458002FEF0AF013070001E2AF35EF0AF037EF7C
:101468000AF009EF0AF0000E0101126F14AF3FEF06
:101478000AF041EF0AF05BEF0AF014C10DF17F0E9C
:101488000D17D8B44AEF0AF04CEF0AF051EF0AF002
:10149800010E0101126F5BEF0AF00001E0A157EFA6
:1014A8000AF059EF0AF05BEF0AF04CEF0AF001017D
:1014B8001251D8B462EF0AF064EF0AF091EF0AF023
:1014C800010E0001E027000EE123E223E323E3A15C
:1014D80070EF0AF072EF0AF091EF0AF0E0C00DF138
:1014E800E1C00EF1E2C00FF1E3C010F101011035C7
:1014F80010330F330E330D330DC1E0F00EC1E1F0A0
:101508000FC1E2F010C1E3F01329D8B48EEF0AF04E
:1015180090EF0AF091EF0AF0132B01011329D8B4C8
:1015280098EF0AF09AEF0AF0A2EF0AF01351D8A444
:10153800A0EF0AF0A2EF0AF0B6EF0AF0000E0001E1
:10154800E06F000EE16F000EE26F000EE36F010125
:101558001351D8A4B2EF0AF0B4EF0AF0B6EF0AF0CC
:10156800000E116F13A1BBEF0AF0BDEF0AF0C1EF37
:101578000AF00001E28FC3EF0AF00001E29F0101C7
:10158800D89013310001E36F010111AFCEEF0AF0DB
:10159800D0EF0AF0D2EF0AF00001E38FE0C0E0F0EC
:1015A800E1C0E1F0E2C0E2F0E3C0E3F012000001C4
:1015B800D751800B0101046F0001D751D7250101D4
:1015C8000B6F0001D6AFEBEF0AF0EDEF0AF0EFEF8B
:1015D8000AF001010B8101010B51D8B4F6EF0AF0B2
:1015E800F8EF0AF00FEF0BF00B29D8A4FEEF0AF082
:1015F80000EF0BF009EF0BF0000E0001D46F000EA6
:10160800D56F000ED66F000ED76F0001D68F000E73
:10161800D76F18EF0BF0000E0001D46F000ED56FD6
:10162800000ED66F000ED76FDB51800B0101041B33
:101638000001DB51DB2501010C6F0001DAAF27EF58
:101648000BF029EF0BF02BEF0BF001010C810101DE
:101658000C51D8B432EF0BF034EF0BF04BEF0BF02A
:101668000C29D8A43AEF0BF03CEF0BF045EF0BF048
:10167800000E0001D86F000ED96F000EDA6F000E51
:10168800DB6F0001DA8F000EDB6F54EF0BF0000EFA
:101698000001D86F000ED96F000EDA6F000EDB6FF5
:1016A800D851D911DA11DB11D8A45DEF0BF05FEF37
:1016B8000BF079EF0BF0000ED46F000ED56F000E13
:1016C800D66F000ED76F800ED6137F0ED713010189
:1016D80004510001D713D4C0D4F0D5C0D5F0D6C07A
:1016E800D6F0D7C0D7F0F1EF0CF001010B51D8A418
:1016F80080EF0BF082EF0BF08DEF0BF0000E000186
:10170800D46F000ED56F000ED66F000ED76FF1EFB5
:101718000CF00C510BC1DCF00001DD6BDC5F000E3E
:10172800DD5B7F0EDC250101056F000E0001DD2168
:101738000101066FD4C000F1D5C001F1D6C002F195
:10174800D7C003F1000E0001D46F000ED56F000E54
:10175800D66F000ED76F000E0101076F000E086FDD
:10176800000E096F000E0A6F000E0C6F08EF0CF0E8
:101778000C51D8B4C2EF0BF0C4EF0BF0DFEF0BF055
:10178800D89000370137023703370001D890D43793
:10179800D537D637D73701010AAFD5EF0BF0D7EFDA
:1017A8000BF0D9EF0BF00001D4810101D890073775
:1017B800083709370A370001D8510101005D0001D7
:1017C800D951010101590001DA5101010259000101
:1017D800DB5101010359D8A0F4EF0BF0F6EF0BF041
:1017E80007EF0CF00A8D0001D8510101005F0001DC
:1017F800D9510101015B0001DA510101025B0001CD
:10180800DB510101035B0C2B190E0C650EEF0CF07C
:1018180010EF0CF0BCEF0BF0005101110211031195
:10182800D8B419EF0CF01BEF0CF036EF0CF0078171
:1018380036EF0CF0D890D437D537D637D7370101E3
:101848000AAF29EF0CF02BEF0CF02DEF0CF0000194
:10185800D4810101D8900737083709370A370507B7
:10186800D8A006070001D6AF3CEF0CF03EEF0CF015
:101878001EEF0CF0000E01010C6F0AAF46EF0CF0E2
:1018880048EF0CF074EF0CF0FF0E07150001DC6F49
:10189800FF0E010108150001DD6FFF0E010109159A
:1018A8000001DE6F7F0E01010A150001DF6FDC51B8
:1018B800DD11DE11DF11D8B464EF0CF066EF0CF027
:1018C8006BEF0CF0010E01010C6F74EF0CF0D4A15A
:1018D80070EF0CF072EF0CF074EF0CF066EF0CF098
:1018E80001010C51D8B47BEF0CF07DEF0CF0A3EFA5
:1018F8000CF0010E0001D427000ED523D623D723E0
:10190800D7A189EF0CF08BEF0CF0A3EF0CF0D4C04B
:10191800DCF0D5C0DDF0D6C0DEF0D7C0DFF0DF35B3
:10192800DF33DE33DD33DC33DCC0D4F0DDC0D5F0AB
:10193800DEC0D6F0DFC0D7F00101054B062B010150
:1019480006BFAFEF0CF0065108E10529D8A0AFEFAC
:101958000CF0B1EF0CF0BDEF0CF0000E066F05694E
:10196800000E0001D46F000ED56F000ED66F000E6A
:10197800D76F010106BFCBEF0CF0065106E1050554
:10198800D8B0C9EF0CF0CBEF0CF0DBEF0CF0000E89
:10199800066F000E056F000E0001D46F000ED56FA4
:1019A800000ED66F000ED76F000E0101046F05C13F
:1019B8000BF10BA1E2EF0CF0E4EF0CF0E8EF0CF008
:1019C8000001D68FEAEF0CF00001D69F0101D890F4
:1019D8000B310001D76F6BEF0BF01200010E010104
:1019E800176F0001E851E911D8A4FDEF0CF0FFEFE3
:1019F8000CF004EF0DF0000E0101176FCFEF0EF0A1
:101A0800000E0101186F000E196F000E1A6F000EFC
:101A18001B6F8BEF0EF0AC94B896E8C0D9FFE9C005
:101A2800DAFFDECF15F1DDCF16F115C12AF016C1A8
:101A38002BF02C6A2D6A000ED7EC0FF02AC0D8F0D4
:101A48002BC0D9F02CC0DAF02DC0DBF0000E00015D
:101A5800D46F1B0ED56FB70ED66F4B0ED76FDBEC5E
:101A68000AF0D4C01CF1D5C01DF1D6C01EF1D7C0F4
:101A78001FF1000E0001D86F000ED96F800EDA6FCB
:101A8800420EDB6F1CC1D4F01DC1D5F01EC1D6F0CB
:101A98001FC1D7F0DBEC0AF0D4C0E0F0D5C0E1F00C
:101AA800D6C0E2F0D7C0E3F0000E0001E46F000EEC
:101AB800E56F800EE66FBF0EE76F2CEC08F0E0C014
:101AC80018F1E1C019F1E2C01AF1E3C01BF1B0EF5F
:101AD8000EF0AC84B896E8C0D9FFE9C0DAFFDECFD3
:101AE80015F1DDCF16F115C12AF016C12BF02C6ABD
:101AF8002D6A000ED7EC0FF02AC0D8F02BC0D9F011
:101B08002CC0DAF02DC0DBF0000E0001D46F1B0EE4
:101B1800D56FB70ED66F4B0ED76FDBEC0AF0D4C07B
:101B28001CF1D5C01DF1D6C01EF1D7C01FF1000EA3
:101B38000001D86F000ED96F800EDA6F410EDB6F8F
:101B48001CC1D4F01DC1D5F01EC1D6F01FC1D7F0FD
:101B5800DBEC0AF0D4C0E0F0D5C0E1F0D6C0E2F08A
:101B6800D7C0E3F0000E0001E46F000EE56F800EB1
:101B7800E66FBF0EE76F2CEC08F0E0C018F1E1C08B
:101B880019F1E2C01AF1E3C01BF1B0EF0EF0AC940A
:101B9800B886E8C0D9FFE9C0DAFFDECF15F1DDCF9E
:101BA80016F115C12AF016C12BF02C6A2D6A000E09
:101BB800D7EC0FF02AC0D8F02BC0D9F02CC0DAF03F
:101BC8002DC0DBF0000E0001D46F1B0ED56FB70ED1
:101BD800D66F4B0ED76FDBEC0AF0D4C01CF1D5C022
:101BE8001DF1D6C01EF1D7C01FF1000E0001D86F3D
:101BF800000ED96F800EDA6F410EDB6F1CC1D4F076
:101C08001DC1D5F01EC1D6F01FC1D7F0DBEC0AF01C
:101C1800D4C0E0F0D5C0E1F0D6C0E2F0D7C0E3F020
:101C2800000E0001E46F000EE56F800EE66FBF0E38
:101C3800E76F2CEC08F0E0C018F1E1C019F1E2C040
:101C48001AF1E3C01BF1B0EF0EF0AC84B886E8C01F
:101C5800D9FFE9C0DAFFDECF15F1DDCF16F115C1E6
:101C68002AF016C12BF02C6A2D6A000ED7EC0FF063
:101C78002AC0D8F02BC0D9F02CC0DAF02DC0DBF088
:101C8800000E0001D46F1B0ED56FB70ED66F4B0E2A
:101C9800D76FDBEC0AF0D4C01CF1D5C01DF1D6C05B
:101CA8001EF1D7C01FF1000E0001D86F000ED96FCA
:101CB800800EDA6F400EDB6F1CC1D4F01DC1D5F069
:101CC8001EC1D6F01FC1D7F0DBEC0AF0D4C0E0F09B
:101CD800D5C0E1F0D6C0E2F0D7C0E3F0000E0001B5
:101CE800E46F000EE56F800EE66FBF0EE76F2CEC19
:101CF80008F0E0C018F1E1C019F1E2C01AF1E3C040
:101D08001BF1B0EF0EF0000E176FB0EF0EF00001F0
:101D180020EE0BF0E851D926E951DA22DF50010113
:101D2800156F166B1651000AD8B49DEF0EF087EFA9
:101D38000EF01551000AD8B40FEF0DF0010AD8B40F
:101D48006DEF0DF0030AD8B4CBEF0DF0010AD8B44B
:101D580029EF0EF087EF0EF018C12AF019C12BF009
:101D68001AC12CF01BC12DF01DEC13F02A50AF6ED8
:101D780018C12AF019C12BF01AC12CF01BC12DF083
:101D88001DEC13F02BC02AF02CC02BF02DC02CF02A
:101D98002D6A2A50B06E010117511200000E146E00
:101DA800000E136E06500710D8B4DDEF0EF0DFEF0B
:101DB8000EF0E8EF0EF008500910D8A4E6EF0EF088
:101DC800E8EF0EF0EAEF0EF0C6EF0FF09EAAEFEF85
:101DD8000EF0F1EF0EF0E8EF0EF020EE09F00650ED
:101DE800D9260750DA22DFB8FCEF0EF0FEEF0EF02E
:101DF8000BEF0FF0AE500A6E0B6A08C0D9FF09C08E
:101E0800DAFF0AC0DEFF0BC0DDFFC6EF0FF020EEE1
:101E180009F00650D9260750DA22DFA816EF0FF08E
:101E280018EF0FF0C6EF0FF020EE09F00650D92694
:101E38000750DA22DF30030B0009D8A426EF0FF091
:101E480028EF0FF04AEF0FF0AECF13F0146AABB0E3
:101E580030EF0FF032EF0FF038EF0FF0000E0E6E8C
:101E6800000E0D6E3CEF0FF0010E0E6E000E0D6EA3
:101E78000D5013260E50142208C0D9FF09C0DAFFEE
:101E880013C0DEFF14C0DDFFC6EF0FF020EE09F02F
:101E98000650D9260750DA22DF30030BE806D8A40B
:101EA80058EF0FF05AEF0FF08FEF0FF0AECF13F09F
:101EB800146AABB062EF0FF064EF0FF06AEF0FF047
:101EC800000E106E000E0F6E6EEF0FF0010E106E0A
:101ED800000E0F6E0F50132610501422135069EC89
:101EE80018F00A6E14500A18D8A47DEF0FF07FEF8F
:101EF8000FF0C6EF0FF0FF0E13140A6E000E141445
:101F08000B6E08C0D9FF09C0DAFF0AC0DEFF0BC09C
:101F1800DDFFC6EF0FF020EE09F00650D926075076
:101F2800DA22DF30030B020AD8A49DEF0FF09FEFEF
:101F38000FF0C6EF0FF0AECF13F0146AABB0A7EFF7
:101F48000FF0A9EF0FF0AFEF0FF0000E126E000EBA
:101F5800116EB3EF0FF0010E126E000E116E1150DC
:101F6800132612501422135035EC18F00A6E145030
:101F78000A18D8A4C2EF0FF0C4EF0FF0C6EF0FF0A5
:101F88007FEF0FF0ABB2CBEF0FF0CDEF0FF0D4EF48
:101F98000FF0ABA4D2EF0FF0D4EF0FF0D6EF0FF0A5
:101FA800AB98AB8812000001CE6F0001CE51D8B4B7
:101FB800E0EF0FF0E2EF0FF004EF10F02DBEE9EFC5
:101FC8000FF0E7EF0FF004EF10F02AC0CAF02BC0B3
:101FD800CBF02CC0CCF02DC0CDF0CA1FCB1FCC1F2E
:101FE800CD1FCA2B000ECB23CC23CD23CAC0D0F0E3
:101FF800CBC0D1F0CCC0D2F0CDC0D3F00CEF10F0F4
:102008002AC0D0F02BC0D1F02CC0D2F02DC0D3F014
:102018002A502B102C102D10D8A415EF10F017EF04
:1020280010F021EF10F0000E2A6E000E2B6E000E3D
:102038002C6E000E2D6EB2EF10F0960ECF6F2BEFB8
:1020480010F0CF2BD890D333D233D133D033000E06
:10205800D015CA6F000ED115CB6F000ED215CC6FFC
:10206800FE0ED315CD6FCA51CB11CC11CD11D8A40A
:1020780040EF10F042EF10F025EF10F050EF10F0A5
:10208800CF2B010ED027000ED123D223D323D890F3
:10209800D333D233D133D033000ED015CA6F000EEC
:1020A800D115CB6F000ED215CC6FFF0ED315CD6FA7
:1020B800CA51CB11CC11CD11D8A465EF10F067EF40
:1020C80010F044EF10F06FEF10F0CF07D890D03732
:1020D800D137D237D337D2BF74EF10F076EF10F084
:1020E8007EEF10F0020ECF617CEF10F07EEF10F063
:1020F80069EF10F0CFB183EF10F085EF10F086EFA5
:1021080010F0D29FD890CF33CFC0CAF0CB6BCC6B36
:10211800CD6BCAC0CDF0CC6BCB6BCA6BCA51D01398
:10212800CB51D113CC51D213CD51D313CE51D8B4F6
:10213800A0EF10F0A2EF10F0AAEF10F02DBEA9EF5B
:1021480010F0A7EF10F0AAEF10F0D38FD0C02AF04C
:10215800D1C02BF0D2C02CF0D3C02DF01200010E4C
:102168002C6E2A502B10D8B4BCEF10F0BEEF10F034
:10217800CEEF10F02AC0D9FF2BC0DAFFDF50070BD3
:102188000001CA6F070ECA65CCEF10F0CEEF10F051
:1021980033EF11F0000E2C6E54EF11F02AC0D9FF66
:1021A8002BC0DAFFDF50070BCA6F010ECB6FCA2BAB
:1021B800E0EF10F0D890CB37CA2FDEEF10F0000117
:1021C800CB51FF0ACC6F2AC0D9FF2BC0DAFFDF3012
:1021D800E832E832070BCD6FCD51020D940EF3248F
:1021E800D96E000EF420DA6EDECFCEF0DDCFCFF060
:1021F800CEC0D9FFCFC0DAFFCC51DF1654EF11F0B3
:102208002AC0D9FF2BC0DAFFDF50070BCA6F010EB7
:10221800CB6FCA2B12EF11F0D890CB37CA2F10EF23
:1022280011F02AC0D9FF2BC0DAFFDF30E832E832DC
:10223800070B0001CC6FCC51020D940EF324D96E1C
:10224800000EF420DA6EDECFCDF0DDCFCEF0CDC0BB
:10225800D9FFCEC0DAFFCB51DF1254EF11F02AC0FC
:10226800D9FF2BC0DAFFDFBC3CEF11F03FEF11F0D4
:10227800010E40EF11F0000ECA6FCB6BCB51000A74
:10228800D8B449EF11F0CEEF10F0CA51000AD8B413
:10229800D2EF10F0010AD8B404EF11F0CEEF10F02D
:1022A8002C5012000001D851D911D8A45EEF11F0BA
:1022B80060EF11F062EF11F0F1EF11F0D8C0D0F03B
:1022C800D9C0D1F08BEC19F0010E0001D825D06FE0
:1022D800000ED921D16F8BEC19F0000E0001DC6FD4
:1022E800DC51D825DA6F000ED921DB6F020EDA2512
:1022F800D06F000EDB21D16F8BEC19F00001DC2BC5
:10230800030EDC658AEF11F08CEF11F074EF11F019
:102318009C0E0001DA6FD70EE82EFED7DA2FFCD715
:10232800D8C0D4F0D9C0D5F0380E0001D66F8EECE5
:1023380017F0270E0001DA6FF50EE82EFED7DA2F18
:10234800FCD7D8C0D4F0D9C0D5F0380E0001D66F6C
:102358008EEC17F0B40E00D0E82EFDD7D8C0D4F01C
:10236800D9C0D5F0380E0001D66F8EEC17F0D8C062
:10237800D4F0D9C0D5F0010E0001D66F8EEC17F05D
:10238800D8C0D4F0D9C0D5F0020E0001D66F8EECBB
:1023980017F0D8C0D4F0D9C0D5F0060E0001D66F1A
:1023A8008EEC17F0D8C0D4F0D9C0D5F00D0E0001CE
:1023B800D66F8EEC17F0D8C0D4F0D9C0D5F0280E5F
:1023C8000001D66F8EEC17F0D8C0D4F0D9C0D5F084
:1023D800800E0001D66F8EEC17F01200010E2D6EE4
:1023E8002A502B10D8B4FBEF11F0FDEF11F00DEFD0
:1023F80012F02AC0D9FF2BC0DAFFDF50070B00010B
:10240800CA6F070ECA650BEF12F00DEF12F072EFEC
:1024180012F0000E2D6E87EF12F02AC0D9FF2BC0E4
:10242800DAFFDF50070BCA6F010ECB6FCA2B1FEF05
:1024380012F0D890CB37CA2F1DEF12F00001CB5104
:10244800FF0ACC6F2AC0D9FF2BC0DAFFDF30E83291
:10245800E832070BCD6FCD51020D8A0EF324D96EE9
:10246800000EF420DA6EDECFCEF0DDCFCFF0CEC096
:10247800D9FFCFC0DAFFCC51DF1687EF12F02AC0A0
:10248800D9FF2BC0DAFFDF50070BCA6F010ECB6FE5
:10249800CA2B51EF12F0D890CB37CA2F4FEF12F05A
:1024A8002AC0D9FF2BC0DAFFDF30E832E832070B49
:1024B8000001CC6FCC51020D8A0EF324D96E000EA8
:1024C800F420DA6EDECFCDF0DDCFCEF0CDC0D9FF6F
:1024D800CEC0DAFFCB51DF1287EF12F02C50CA6F53
:1024E800CB6BCB51000AD8B47CEF12F00DEF12F091
:1024F800CA51000AD8B411EF12F0010AD8B443EF58
:1025080012F00DEF12F02D501200010E0A6E01505C
:102518000210D8B492EF12F094EF12F0A3EF12F079
:1025280001C0D9FF02C0DAFFDF50070B046E070EA7
:102538000464A1EF12F0A3EF12F006EF13F0000EFF
:102548000A6E1BEF13F001C0D9FF02C0DAFFDF509B
:10255800070B046E010E056E042AB5EF12F0D89031
:102568000536042EB3EF12F00550FF0A066E01C0BF
:10257800D9FF02C0DAFFDF30E832E832070B076E16
:102588000750020D8A0EF324D96E000EF420DA6E7D
:10259800DECF08F0DDCF09F008C0D9FF09C0DAFFA7
:1025A8000650DF161BEF13F001C0D9FF02C0DAFF97
:1025B800DF50070B046E010E056E042AE6EF12F0D9
:1025C800D8900536042EE4EF12F001C0D9FF02C0FE
:1025D800DAFFDF30E832E832070B066E0650020DEC
:1025E8008A0EF324D96E000EF420DA6EDECF07F0DF
:1025F800DDCF08F007C0D9FF08C0DAFF0550DF12A9
:102608001BEF13F00350046E056A0550000AD8B496
:1026180010EF13F0A3EF12F00450000AD8B4A7EF9C
:1026280012F0010AD8B4D8EF12F0A3EF12F00A5052
:1026380012002C342D340001CF6FCF51D8A427EFCE
:1026480013F029EF13F033EF13F0000E2A6E000E8B
:102658002B6E000E2C6E000E2D6EA0EF13F02AC00C
:10266800CAF02BC0CBF02CC0CCF02DC0CDF0200E82
:1026780043EF13F0D890CD33CC33CB33CA33E82EA5
:102688003EEF13F0CA51CE6F2C8EFF0E2A16FF0EA6
:102698002B16FF0E2C16000E2D16960ECF5FCFBFF1
:1026A8005AEF13F058EF13F070EF13F0CF51800A80
:1026B800970FD8B062EF13F064EF13F066EF13F0E2
:1026C80029EF13F0D8902D322C322B322A32CF3FFB
:1026D80066EF13F088EF13F01F0ECF6576EF13F057
:1026E80078EF13F080EF13F029EF13F0D8902A3623
:1026F8002B362C362D36CF07CF51D8A486EF13F0C2
:1027080088EF13F07AEF13F0CE51D8B48EEF13F0B0
:1027180090EF13F098EF13F02D1E2C1E2B1E2A6C31
:10272800000E2B222C222D222AC02AF02BC02BF09F
:102738002CC02CF02DC02DF012000600FACF20F08E
:10274800FBCF21F0D9CF22F0DACF23F0F3CF24F05A
:10275800F4CF25F0F2AAB3EF13F0B5EF13F0BEEF04
:1027680013F0F2A4BAEF13F0BCEF13F0BEEF13F0BE
:10277800FDEC19F09DA2C3EF13F0C5EF13F0C6EFFF
:1027880013F09E50A0A2CBEF13F0CDEF13F0CEEFD5
:1027980013F0A150A0A0D3EF13F0D5EF13F0D6EFAC
:1027A80013F0A1509DAADBEF13F0DDEF13F0E6EF75
:1027B80013F09EAAE2EF13F0E4EF13F0E6EF13F044
:1027C800A6EC1AF09DA8EBEF13F0EDEF13F0F6EF7F
:1027D80013F09EA8F2EF13F0F4EF13F0F6EF13F0F6
:1027E80024EC1BF0A0A6FBEF13F0FDEF13F0FEEFB7
:1027F80013F0A1509DA603EF14F005EF14F006EFB7
:1028080014F09E5025C0F4FF24C0F3FF23C0DAFF64
:1028180022C0D9FF21C0FBFF20C0FAFF5692110049
:1028280006500710D8A41BEF14F01DEF14F01FEF8B
:1028380014F085EF14F020EE02F00650D926075068
:10284800DA22DFA62AEF14F02CEF14F083EF14F04D
:1028580020EE02F00650D9260750DA22DF50030B8B
:102868000009D8A43AEF14F03CEF14F04BEF14F041
:1028780008C00AF009C00BF00BC00AF00B6A0A3056
:10288800D8A002D0AC8001D0AC9083EF14F020EE39
:1028980002F00650D9260750DA22DF50030BE8066B
:1028A800D8A459EF14F05BEF14F067EF14F0085058
:1028B80069EC18F00A6E0A30D8A002D0AC8001D0BA
:1028C800AC9083EF14F020EE02F00650D9260750A2
:1028D800DA22DF50030B020AD8A475EF14F077EF61
:1028E80014F083EF14F0085035EC18F00A6E0A3033
:1028F800D8A002D0AC8001D0AC9083EF14F008C00F
:10290800ADFF12000001D851D911D8A48EEF14F0F0
:1029180090EF14F092EF14F0DEEF14F0DB07C1EF44
:1029280014F0D8C0D4F0D9C0D5F0DB51800FD66FE1
:102938008EEC17F0DEEF14F0D8C0D4F0D9C0D5F083
:10294800DB51C00FD66F8EEC17F0DEEF14F0D8C055
:10295800D4F0D9C0D5F0DB51940FD66F8EEC17F0B8
:10296800DEEF14F0D8C0D4F0D9C0D5F0DB51D40FC5
:10297800D66F8EEC17F0DEEF14F0DA51DC6FDD6BFA
:10298800DD51000AD8B4CBEF14F0DEEF14F0DC51BF
:10299800010AD8B495EF14F0030AD8B4A0EF14F0E4
:1029A800010AD8B4ABEF14F0070AD8B4B6EF14F0A4
:1029B800DEEF14F01200010E2D6E0001CA51CB118A
:1029C800D8A4E9EF14F0EBEF14F0EFEF14F0000ED9
:1029D8002D6E36EF15F020EE06F0CA51D926CB51F0
:1029E800DA22DFA6FAEF14F0FCEF14F026EF15F068
:1029F800AB98CAC02AF0CBC02BF03DEC16F02D6E78
:102A0800000120EE06F0CA51D926CB51DA22DFA800
:102A180010EF15F012EF15F015EF15F0AB8C23EF52
:102A280015F020EE06F0CA51D926CB51DA22DFB8CC
:102A380020EF15F022EF15F023EF15F0AB9CAB88D3
:102A480036EF15F020EE06F0CA51D926CB51DA221E
:102A5800DFB631EF15F033EF15F036EF15F0AB9820
:102A680036EF15F02D50120013501410D8A43FEF74
:102A780015F041EF15F043EF15F08FEF15F016063E
:102A880072EF15F013C00FF014C010F01650800F3D
:102A9800116E01EC19F08FEF15F013C00FF014C090
:102AA80010F01650C00F116E01EC19F08FEF15F0F1
:102AB80013C00FF014C010F01650940F116E01ECF3
:102AC80019F08FEF15F013C00FF014C010F0165066
:102AD800D40F116E01EC19F08FEF15F01550176E29
:102AE800186A1850000AD8B47CEF15F08FEF15F06B
:102AF8001750010AD8B446EF15F0030AD8B451EFBD
:102B080015F0010AD8B45CEF15F0070AD8B467EFDE
:102B180015F08FEF15F012000001DF51E011D8B465
:102B280098EF15F09AEF15F0A3EF15F0E351E411C3
:102B3800D8A4A1EF15F0A3EF15F0A5EF15F0E6EF77
:102B480015F0DFC0D8F0E0C0D9F0E1C0DAF0E2C09B
:102B5800DBF086EC14F0CDEF15F0DFC0D4F0E0C068
:102B6800D5F0E3C0F6FFE4C0F7FF000EF86E0F0ED5
:102B7800F76403D00800F55005D0F6CFE9FFF7CF8A
:102B8800EAFFEF500001D66F9DEC18F00001E34B0F
:102B9800E42BE3C0F6FFE4C0F7FF000EF86E0F0E5B
:102BA800F76403D00800F55005D0F6CFE9FFF7CF5A
:102BB800EAFFEF500009D8A4E4EF15F0E6EF15F0AE
:102BC800B1EF15F0120063EC19F0BE0E0001DF6FD3
:102BD800000EE06F020EE16F010EE26F4F0EE36F21
:102BE800100EE46F90EC15F00400540E2A6E000EDF
:102BF8002B6E010E2C6EF2EC11F01F0E0101246FEA
:102C0800710E236F1E0EE82EFED7232FFCD7242F1C
:102C1800FAD700F00400540E2A6E000E2B6E000E38
:102C28002C6EF2EC11F01F0E0101246F710E236F50
:102C38001E0EE82EFED7232FFCD7242FFAD700F03C
:102C48000400550E2A6E000E2B6E54EC17F01F0E62
:102C58000101246F710E236F1E0EE82EFED7232F5D
:102C6800FCD7242FFAD700F0040025EF16F043EF25
:102C780001F0010E2C6E2A502B10D8A446EF16F046
:102C880048EF16F04CEF16F0000E2C6E8CEF16F095
:102C98009D9A2AC0D9FF2BC0DAFFDECF42F0DDCFE4
:102CA80043F020EE04F02A50D9262B50DA22DECF4A
:102CB800FCF0DDCFFDF020EE02F02A50D9262B5093
:102CC800DA22DECFFEF0DDCFFFF0D08E20EE06F068
:102CD8002A50D9262B50DA22DFA075EF16F077EFAD
:102CE80016F07BEF16F09F8AF28E8BEF16F020EE2F
:102CF80006F02A50D9262B50DA22DFB086EF16F0DC
:102D080088EF16F08BEF16F09F9AF28EF28C9D8A60
:102D18002C501200010E2C6E2A502B10D8A497EFBD
:102D280016F099EF16F09DEF16F0000E2C6ED4EF0A
:102D380016F02AC0D9FF2BC0DAFFDFA4A6EF16F0E1
:102D4800A8EF16F0C6EF16F0AC9A2AC0D9FF2BC030
:102D5800DAFFDFA6B2EF16F0B4EF16F0B7EF16F011
:102D6800AC8CC3EF16F02AC0D9FF2BC0DAFFDFB650
:102D7800C0EF16F0C2EF16F0C3EF16F0AC9CAC8AA9
:102D8800D4EF16F02AC0D9FF2BC0DAFFDFB4CFEF9B
:102D980016F0D1EF16F0D4EF16F0AC9AD4EF16F087
:102DA8002C5012000001D051D111D8A4DEEF16F03A
:102DB800E0EF16F0E2EF16F016EF17F0020ED0254E
:102DC8002A6E000ED1212B6ED251010B2C6EF2EC23
:102DD80011F0030E0001D0252A6E000ED1212B6EB2
:102DE800D890D231010B2C6EF2EC11F0040E0001D8
:102DF800D0252A6E000ED1212B6ED241E8423F0B1E
:102E0800010B2C6EF2EC11F0050E0001D0252A6E94
:102E1800000ED1212B6ED239E8461F0B010B2C6E08
:102E2800F2EC11F012000B500C10D8A41EEF17F0A2
:102E380020EF17F022EF17F053EF17F0020E0B24D4
:102E4800016E000E0C20026E0D50010B036E89EC12
:102E580012F0030E0B24016E000E0C20026ED890A7
:102E68000D30010B036E89EC12F0040E0B24016E79
:102E7800000E0C20026E0D40E8423F0B010B036E62
:102E880089EC12F0050E0B24016E000E0C20026E68
:102E98000D38E8461F0B010B036E89EC12F0120087
:102EA8002A502B10D8A45BEF17F05DEF17F05FEFF7
:102EB80017F08DEF17F02AC0D9FF2BC0DAFFDF50CB
:102EC800070B0001CA6F010ECB6FCA2B6EEF17F00C
:102ED800D890CB37CA2F6CEF17F02AC0D9FF2BC078
:102EE800DAFFDF30E832E832070B0001CC6FCC5153
:102EF800020D8A0EF324D96E000EF420DA6EDECFAE
:102F0800CDF0DDCFCEF0CDC0D9FFCEC0DAFFCB51AA
:102F1800DF1A12000001D451D511D8A496EF17F08A
:102F280098EF17F09CEF17F0000ED76FC3EF17F06C
:102F3800D4C02AF0D5C02BF0000E2C6EF2EC11F0A4
:102F48000001D76FD4C0D0F0D5C0D1F0D6390F0B5F
:102F5800D26FD6EC16F0D4C0D0F0D5C0D1F0D8ECF2
:102F680019F0D4C0D0F0D5C0D1F0D6C0D2F0D6EC8C
:102F780016F0D4C0D0F0D5C0D1F0D8EC19F00001CB
:102F8800D751120001500210D8A4CDEF17F0CFEF9F
:102F980017F0D1EF17F0FDEF17F001C0D9FF02C00D
:102FA800DAFFDF50070B036E010E046E032ADFEF12
:102FB80017F0D8900436032EDDEF17F001C0D9FFC3
:102FC80002C0DAFFDF30E832E832070B056E055041
:102FD800020D8A0EF324D96E000EF420DA6EDECFCD
:102FE80006F0DDCF07F006C0D9FF07C0DAFF0450AE
:102FF800DF1A1200660EF66E330EF76E000EF86ECC
:1030080000EE80F010EE4AF00900F5CFEEFFE55033
:10301800E150FAE1300EF66E360EF76E000EF86EDD
:1030280000EE49F010EE0DF00900F5CFEEFFE55087
:10303800E150FAE101EE25F01A0EEE6AE806FDE12C
:1030480000EEEAF0160EEE6AE806FDE100EE2EF05C
:103058001B0EEE6AE806FDE1569056920001E7EF76
:1030680015F0036E000E046E000E056E000E056E60
:1030780005C001F0010E026E012A45EF18F0D89044
:103088000236012E43EF18F0025003140009D8B499
:1030980050EF18F052EF18F053EF18F0042A052AF1
:1030A800070E05645AEF18F05CEF18F03CEF18F0C3
:1030B800042A04B062EF18F064EF18F067EF18F014
:1030C800010E68EF18F0000E1200036E000E046E79
:1030D800000E056E000E056E05C001F0010E026EB1
:1030E800012A79EF18F0D8900236012E77EF18F000
:1030F800025003140009D8B484EF18F086EF18F0D2
:1031080087EF18F0042A052A070E05648EEF18F0D9
:1031180090EF18F070EF18F0042A04A096EF18F05A
:1031280098EF18F09BEF18F0010E9CEF18F0000EC6
:1031380012000001D451D511D8A4A5EF18F0A7EFBB
:1031480018F0A9EF18F0CFEF18F0D4C02AF0D5C0C6
:103158002BF0010E2C6EF2EC11F0D4C0D0F0D5C0DB
:10316800D1F00001D6390F0BD26FD6EC16F0D4C0CF
:10317800D0F0D5C0D1F0D8EC19F0D4C0D0F0D5C07B
:10318800D1F0D6C0D2F0D6EC16F0D4C0D0F0D5C06D
:10319800D1F0D8EC19F01200010120512111D8A466
:1031A800D8EF18F0DAEF18F0DCEF18F000EF19F0AC
:1031B800AB9E20C1E8F021C1E9F0F2EC0CF001016E
:1031C800226FAC98948C020E20252A6E000E2121C5
:1031D8002B6E8EEC16F001012217948E030E20251B
:1031E8000001CA6F000E010121210001CB6FDFEC45
:1031F80014F001012217AB8E12000F501010D8A442
:1032080008EF19F00AEF19F00CEF19F031EF19F087
:103218000FC001F010C002F0000E036E89EC12F02E
:103228000FC00BF010C00CF011380F0B0D6E17EC1F
:1032380017F00FC00BF010C00CF047EC1AF00FC0DD
:103248000BF010C00CF011C00DF017EC17F00FC008
:103258000BF010C00CF047EC1AF012000F501010D1
:10326800D8A439EF19F03BEF19F03DEF19F062EFF0
:1032780019F00FC001F010C002F0010E036E89ECC6
:1032880012F00FC00BF010C00CF011380F0B0D6EC0
:1032980017EC17F00FC00BF010C00CF047EC1AF049
:1032A8000FC00BF010C00CF011C00DF017EC17F0A8
:1032B8000FC00BF010C00CF047EC1AF01200540EBF
:1032C8000001D06F000ED16F8BEC19F0550E000184
:1032D800D06F000ED16F8BEC19F0530E0001D06F38
:1032E800000ED16F8BEC19F01FEC1BF09E0E010144
:1032F800206F000E216FD0EC18F00400BE0E000104
:10330800D86F000ED96F56EC11F0040012000001BE
:10331800D051D111D8A493EF19F095EF19F099EF86
:1033280019F0000ED26FB1EF19F0D0C02AF0D1C059
:103338002BF0B3EC10F00001D26FD0C02AF0D1C04E
:103348002BF0D0C0D9FFD1C0DAFF000EDFBE010ECE
:103358002C6EF2EC11F00001D26FD2511200800FE6
:10336800810F820F830F840F890F8A0F8B0F8C0FA9
:103378008D0F920F930F940F950F960F802504448D
:1033880034000000000900000102001100102700AD
:103398000011000200120010270000101011121373
:1033A800141507EE85A235010001D051D111D8A41A
:1033B800E0EF19F0E2EF19F0E4EF19F0FCEF19F083
:1033C800010ED0252A6E000ED1212B6E010E2C6E17
:1033D800F2EC11F00A0EE82EFED7010E0001D025FE
:1033E8002A6E000ED1212B6E000E2C6EF2EC11F01D
:1033F8001200F294020E2E240E6E000E2F200F6E75
:103408000FC00EF00F6A0E50D76E2E50020FD66EF8
:1034180030503110D8B413EF1AF015EF1AF021EF2D
:103428001AF002D821EF1AF00500FA6E3050FD6E3E
:103438003150FE6EFF6AFA50120012009E0E066EA0
:10344800000E076E480E086E000E096ED2EC0EF0E4
:103458009E0E0D6E000E0E6E4BC00FF0BCEC1AF0F7
:10346800BE0E1A6E000E1B6E020E1C6E040E1D6E32
:1034780048C01EF088EC1AF0550E016E000E026E60
:10348800C6EC17F012000B500C10D8A44EEF1AF02F
:1034980050EF1AF052EF1AF069EF1AF0010E0B24F0
:1034A800016E000E0C20026E010E036E89EC12F004
:1034B8000A0EE82EFED7010E0B24016E000E0C201A
:1034C800026E000E036E89EC12F012000B500C1005
:1034D800D8A471EF1AF073EF1AF075EF1AF087EFAE
:1034E8001AF0010E0B24016E000E0C20026E000E65
:1034F800036E89EC12F00BC001F00CC002F0000E54
:10350800036E89EC12F012001A501B10D8A48FEF2A
:103518001AF091EF1AF093EF1AF0A5EF1AF01AC00B
:1035280013F01BC014F01CC015F01DC016F038ECC9
:1035380015F01AC00FF01BC010F01EC011F032ECCD
:1035480019F0120042504310D8B4ADEF1AF0AFEFA3
:103558001AF0BBEF1AF002D8BBEF1AF00500FA6EAA
:103568004250FD6E4350FE6EFF6AFA501200120080
:103578000D500E10D8A4C3EF1AF0C5EF1AF0C7EF1C
:103588001AF0D0EF1AF00DC006F00EC007F00FC009
:1035980008F0096A14EC14F01200510E0B6E000EBC
:1035A8000C6E6AEC1AF04F0E0B6E000E0C6E6AEC85
:1035B8001AF04D0E0B6E000E0C6E6AEC1AF012002B
:1035C800266EF2902650D8B4ECEF1AF0EEEF1AF00F
:1035D800F0EF1AF0F0EF1AF01200266EF290265073
:1035E800D8B4F9EF1AF0FBEF1AF0FDEF1AF0FDEF7F
:1035F8001AF01200266EF2902650D8B406EF1BF08F
:1036080008EF1BF00AEF1BF00AEF1BF01200266E02
:10361800F2902650D8B413EF1BF015EF1BF017EFFC
:103628001BF017EF1BF012000101770F1C1D1A1B6E
:05363800181908991AA1
:0C363E00D1801200F09012001200120067
:020000040020DA
:08000000FFFFFFFFFFFFFFFF00
:020000040030CA
:0E000000FF020912FF8181FF0FC00FE00F40C9
:00000001FF
