:020000040000FA
:0400000043EF01F0D9
:060008005B8258EF09F0D5
:100018005B80D8CF47F0E8CF48F0E0CF49F0F0A6B2
:1000280018EF00F01AEF00F023EF00F0F0A01FEF38
:1000380000F021EF00F023EF00F049EC0BF0F2A6FE
:1000480028EF00F02AEF00F043EF00F0F2A02FEFC6
:1000580000F031EF00F043EF00F081A836EF00F038
:1000680038EF00F043EF00F040A03DEF00F03FEF25
:1000780000F043EF00F04090010E3CEC0BF0F2A6CC
:1000880048EF00F04AEF00F063EF00F0F2A04FEF06
:1000980000F051EF00F063EF00F081B856EF00F088
:1000A80058EF00F063EF00F040B05DEF00F05FEF55
:1000B80000F063EF00F04080000E3CEC0BF0F2A67D
:1000C80068EF00F06AEF00F083EF00F0F2A06FEF46
:1000D80000F071EF00F083EF00F081AA76EF00F0F6
:1000E80078EF00F083EF00F040A27DEF00F07FEFA3
:1000F80000F083EF00F04092010E2FEC0BF0F2A617
:1001080088EF00F08AEF00F0A3EF00F0F2A08FEF85
:1001180000F091EF00F0A3EF00F081BA96EF00F045
:1001280098EF00F0A3EF00F040B29DEF00F09FEFD2
:1001380000F0A3EF00F04082000E2FEC0BF0F2A6C7
:10014800A8EF00F0AAEF00F0C3EF00F0F2A0AFEFC5
:1001580000F0B1EF00F0C3EF00F081ACB6EF00F0B3
:10016800B8EF00F0C3EF00F040A4BDEF00F0BFEF20
:1001780000F0C3EF00F04094010E22EC0BF0F2A661
:10018800C8EF00F0CAEF00F0E3EF00F0F2A0CFEF05
:1001980000F0D1EF00F0E3EF00F081BCD6EF00F003
:1001A800D8EF00F0E3EF00F040B4DDEF00F0DFEF50
:1001B80000F0E3EF00F04084000E22EC0BF0F2A612
:1001C800E8EF00F0EAEF00F003EF01F0F2A0EFEF44
:1001D80000F0F1EF00F003EF01F081AEF6EF00F070
:1001E800F8EF00F003EF01F040A6FDEF00F0FFEF9D
:1001F80000F003EF01F04096010E15EC0BF0F2A6AB
:1002080008EF01F00AEF01F023EF01F0F2A00FEF81
:1002180001F011EF01F023EF01F081BE16EF01F0BC
:1002280018EF01F023EF01F040B61DEF01F01FEFCA
:1002380001F023EF01F04086000E15EC0BF09DACA9
:1002480028EF01F02AEF01F033EF01F09EAC2FEF19
:1002580001F031EF01F033EF01F04BEC0BF09DA012
:1002680038EF01F03AEF01F03BEF01F09E5049C042
:10027800E0FF48C0E8FF47C0D8FF5B90100069EF77
:020288000AF07A
:101000000041542B554152543A393630302C302C53
:10101000300D0A0041542B524E414D453A526F62F9
:101020006F740D0A0041542B505357443A313233F8
:10103000340D0A0041542B524F4C453A300D0A00F2
:071040002566002569000090
:10104800010E526E4A504B10D8B42DEF08F02FEF16
:1010580008F03EEF08F04AC0D9FF4BC0DAFFDF5076
:10106800070B4C6E070E4C643CEF08F03EEF08F09F
:10107800A1EF08F0000E526EC2EF08F04AC0D9FF87
:101088004BC0DAFFDF50070B4C6E010E4D6E4C2A39
:1010980050EF08F0D8904D364C2E4EEF08F04D50DA
:1010A800FF0A4E6E4AC0D9FF4BC0DAFFDF30E83284
:1010B800E832070B4F6E4F50020D340EF324D96EF1
:1010C800000EF420DA6EDECF50F0DDCF51F050C0C4
:1010D800D9FF51C0DAFF4E50DF16C2EF08F04AC000
:1010E800D9FF4BC0DAFFDF50070B4C6E010E4D6E77
:1010F8004C2A81EF08F0D8904D364C2E7FEF08F03F
:101108004AC0D9FF4BC0DAFFDF30E832E832070BBC
:101118004E6E4E50020D340EF324D96E000EF4209C
:10112800DA6EDECF4FF0DDCF50F04FC0D9FF50C0A0
:10113800DAFF4D50DF12C2EF08F04AC0D9FF4BC0AA
:10114800DAFFDFBCAAEF08F0ADEF08F0010EAEEF52
:1011580008F0000E4C6E4D6A4D50000AD8B4B7EF37
:1011680008F03EEF08F04C50000AD8B442EF08F0FF
:10117800010AD8B473EF08F03EEF08F0525012009D
:10118800010E536E4A504B10D8B4CDEF08F0CFEF94
:1011980008F0DEEF08F04AC0D9FF4BC0DAFFDF5095
:1011A800070B4D6E070E4D64DCEF08F0DEEF08F01C
:1011B80041EF09F0000E536E56EF09F04AC0D9FF0F
:1011C8004BC0DAFFDF50070B4D6E010E4E6E4D2AF5
:1011D800F0EF08F0D8904E364D2EEEEF08F04E5056
:1011E800FF0A4F6E4AC0D9FF4BC0DAFFDF30E83242
:1011F800E832070B506E5050020D2A0EF324D96EB8
:10120800000EF420DA6EDECF51F0DDCF52F051C07F
:10121800D9FF52C0DAFF4F50DF1656EF09F04AC027
:10122800D9FF4BC0DAFFDF50070B4D6E010E4E6E33
:101238004D2A21EF09F0D8904E364D2E1FEF09F0B8
:101248004AC0D9FF4BC0DAFFDF30E832E832070B7B
:101258004F6E4F50020D2A0EF324D96E000EF42063
:10126800DA6EDECF50F0DDCF51F050C0D9FF51C05B
:10127800DAFF4E50DF1256EF09F04C504D6E4E6AB1
:101288004E50000AD8B44BEF09F0DEEF08F04D508D
:10129800000AD8B4E2EF08F0010AD8B413EF09F055
:1012A800DEEF08F053501200F2AA5DEF09F05FEF8D
:1012B80009F068EF09F0F2A464EF09F066EF09F0AD
:1012C80068EF09F04CEC0BF09DA26DEF09F06FEFA1
:1012D80009F070EF09F09E50A0A275EF09F077EFC2
:1012E80009F078EF09F0A150A0A07DEF09F07FEF99
:1012F80009F080EF09F0A1509DAA85EF09F087EF6A
:1013080009F090EF09F09EAA8CEF09F08EEF09F032
:1013180090EF09F04EEC0BF09DA895EF09F097EFD0
:1013280009F0A0EF09F09EA89CEF09F09EEF09F0E4
:10133800A0EF09F04DEC0BF0A0A6A5EF09F0A7EF80
:1013480009F0A8EF09F0A1509DA6ADEF09F0AFEFA5
:1013580009F0B0EF09F09E505B9211003FC028F0F1
:101368003EC029F008EC0BF0450E4A6E000E4B6E9D
:10137800010E4C6EC4EC08F00B0E5A6E260E596E18
:101388005E0EE82EFED7592EFCD75A2EFAD7450EF8
:101398004A6E000E4B6E31EC0AF0060E5A6E130EB2
:1013A800596EAE0EE82EFED7592EFCD75A2EFAD714
:1013B800000E026E000E016E280E546E000E556E61
:1013C8009AEC0AF0014A022A025009E1C80E015CAF
:1013D800D8A0F1EF09F0F3EF09F0E0EF09F0CBEF57
:1013E80009F043EF01F057505810D8A4FEEF09F068
:1013F80000EF0AF002EF0AF030EF0AF057C054F09D
:1014080058C055F0C4EC0AF0010E5724546E000E73
:101418005820556EC4EC0AF0010E57244A6E000E8F
:1014280058204B6E24EC08F057C04AF058C04BF0D7
:1014380024EC08F057C04AF058C04BF0000E4C6E30
:10144800C4EC08F0010E57244A6E000E58204B6E6B
:10145800000E4C6EC4EC08F012004A504B10D8A491
:1014680038EF0AF03AEF0AF03CEF0AF068EF0AF0BA
:101478004AC0D9FF4BC0DAFFDF50070B4C6E010E94
:101488004D6E4C2A4AEF0AF0D8904D364C2E48EF54
:101498000AF04AC0D9FF4BC0DAFFDF30E832E83241
:1014A800070B4E6E4E50020D2A0EF324D96E000E15
:1014B800F420DA6EDECF4FF0DDCF50F04FC0D9FF09
:1014C80050C0DAFF4D50DF1A1200D20EF66E150E1C
:1014D800F76E000EF86E00EE60F010EE22F00900D4
:1014E800F5CFEEFFE550E150FAE1F40EF66E150E79
:1014F800F76E000EF86E00EE2AF010EE1CF00900F0
:10150800F5CFEEFFE550E150FAE100EE82F00F0E64
:10151800EE6AE806FDE100EE01F0290EEE6AE80643
:10152800FDE15B905B920001B2EF09F05450551059
:10153800D8A4A1EF0AF0A3EF0AF0A5EF0AF0C3EFD1
:101548000AF054C04AF055C04BF0010E4C6EC4EC82
:1015580008F0030E566E980EE82EFED7562EFCD7CE
:1015680054C04AF055C04BF0000E4C6EC4EC08F065
:10157800030E566E980EE82EFED7562EFCD7120094
:1015880054505510D8A4CBEF0AF0CDEF0AF0D1EFA4
:101598000AF0000E566EE7EF0AF054C04AF055C044
:1015A8004BF024EC08F0566E54C04AF055C04BF08E
:1015B80054C0D9FF55C0DAFF000EDFBE010E4C6ED5
:1015C800C4EC08F0566E56501200800F810F820F3F
:1015D800830F840F0102001100F4010000F9000FCD
:1015E8000002001200F4010000F9000F890F8A0FB1
:1015F8008B0F8C0F8D0F920F930F940F950F960FE3
:1016080012110F1A1B181990280E576E000E586EDB
:10161800F7EC09F0450E546E000E556EC4EC0AF056
:101628001200466EF2904650D8B41DEF0BF01FEF33
:101638000BF021EF0BF021EF0BF01200466EF29049
:101648004650D8B42AEF0BF02CEF0BF02EEF0BF02E
:101658002EEF0BF01200466EF2904650D8B437EFDA
:101668000BF039EF0BF03BEF0BF03BEF0BF01200F8
:10167800466EF2904650D8B444EF0BF046EF0BF0AC
:1016880048EF0BF048EF0BF01200F0901200120038
:0616980012001200120016
:020000040020DA
:08000000FFFFFFFFFFFFFFFF00
:020000040030CA
:0E000000FF02191EFF8181FF0FC00FE00F40AD
:00000001FF
