:020000040000FA
:0400000095EF7EF00A
:10FCF0007EEC7EF07AEF7EF000EF00F01F0E2A6EB1
:0AFD0000000E2B6EAAEC7EF012003C
:10FD0B00800F810F820F830F840F890F8A0F8B0F48
:10FD1B008C0F8D0F920F930F940F950F960F100B57
:10FD2B000EF66EFD0EF76E000EF86E00EE01F01083
:10FD3B00EE1FF00900F5CFEEFFE550E150FAE100C0
:10FD4B000EF86E000178EF7EF02A502B10D8A4B17C
:10FD5B00EF7EF0B3EF7EF0B5EF7EF0CBEF7EF02AC7
:10FD6B00C020F02BC021F060EC7FF02C6E2AC0205D
:10FD7B00F02BC021F02AC0D9FF2BC0DAFF000EDF19
:10FD8B00BE010E226ECCEC7EF02C6E1200010E2901
:10FD9B006E20502110D8B4D5EF7EF0D7EF7EF0E671
:10FDAB00EF7EF020C0D9FF21C0DAFFDF50070B2315
:10FDBB006E070E2364E4EF7EF0E6EF7EF049EF7FF3
:10FDCB00F0000E296E5EEF7FF020C0D9FF21C0DA64
:10FDDB00FFDF50070B236E010E246E232AF8EF7EF4
:10FDEB00F0D8902436232EF6EF7EF02450FF0A2510
:10FDFB006E20C0D9FF21C0DAFFDF30E832E83207CE
:10FE0B000B266E2650020D0B0EF324D96E000EF44A
:10FE1B0020DA6EDECF27F0DDCF28F027C0D9FF2800
:10FE2B00C0DAFF2550DF165EEF7FF020C0D9FF212F
:10FE3B00C0DAFFDF50070B236E010E246E232A2935
:10FE4B00EF7FF0D8902436232E27EF7FF020C0D9F8
:10FE5B00FF21C0DAFFDF30E832E832070B256E25D1
:10FE6B0050020D0B0EF324D96E000EF420DA6EDE69
:10FE7B00CF26F0DDCF27F026C0D9FF27C0DAFF242D
:10FE8B0050DF125EEF7FF02250236E246A24500065
:10FE9B000AD8B453EF7FF0E6EF7EF02350000AD878
:10FEAB00B4EAEF7EF0010AD8B41BEF7FF0E6EF7EE9
:10FEBB00F029501200010E286E20502110D8B46981
:10FECB00EF7FF06BEF7FF07AEF7FF020C0D9FF214F
:10FEDB00C0DAFFDF50070B226E070E226478EF7F2C
:10FEEB00F07AEF7FF0DDEF7FF0000E286EFEEF7FF4
:10FEFB00F020C0D9FF21C0DAFFDF50070B226E01C3
:10FF0B000E236E222A8CEF7FF0D8902336222E8A76
:10FF1B00EF7FF02350FF0A246E20C0D9FF21C0DAF7
:10FF2B00FFDF30E832E832070B256E2550020D1546
:10FF3B000EF324D96E000EF420DA6EDECF26F0DD40
:10FF4B00CF27F026C0D9FF27C0DAFF2450DF16FEDB
:10FF5B00EF7FF020C0D9FF21C0DAFFDF50070B2263
:10FF6B006E010E236E222ABDEF7FF0D8902336222E
:10FF7B002EBBEF7FF020C0D9FF21C0DAFFDF30E8C6
:10FF8B0032E832070B246E2450020D150EF324D9E0
:10FF9B006E000EF420DA6EDECF25F0DDCF26F025D5
:10FFAB00C0D9FF26C0DAFF2350DF12FEEF7FF0200F
:10FFBB00C0D9FF21C0DAFFDFBCE6EF7FF0E9EF7FAE
:10FFCB00F0010EEAEF7FF0000E226E236A23500041
:10FFDB000AD8B4F3EF7FF07AEF7FF02250000AD803
:10FFEB00B47EEF7FF0010AD8B4AFEF7FF07AEF7FEA
:05FFFB00F02850120087
:020000040020DA
:08000000FFFFFFFFFFFFFFFF00
:020000040030CA
:0E000000FF02091EFF8181FF0FC00FE00F40BD
:00000001FF
