:020000040000FA
:040000003BEF01F0E1
:06000800618289ED11F098
:100018006180D8CF1CF0E8CF1DF0E0CF1EF0F0A62D
:1000280018EF00F01AEF00F023EF00F0F0A01FEF38
:1000380000F021EF00F023EF00F06EEC16F0F2A6CE
:1000480028EF00F02AEF00F043EF00F0F2A02FEFC6
:1000580000F031EF00F043EF00F081A836EF00F038
:1000680038EF00F043EF00F05FA03DEF00F03FEF06
:1000780000F043EF00F05F90010E61EC16F0F2A67D
:1000880048EF00F04AEF00F063EF00F0F2A04FEF06
:1000980000F051EF00F063EF00F081B856EF00F088
:1000A80058EF00F063EF00F05FB05DEF00F05FEF36
:1000B80000F063EF00F05F80000E61EC16F0F2A62E
:1000C80068EF00F06AEF00F083EF00F0F2A06FEF46
:1000D80000F071EF00F083EF00F081AA76EF00F0F6
:1000E80078EF00F083EF00F05FA27DEF00F07FEF84
:1000F80000F083EF00F05F92010E54EC16F0F2A6C8
:1001080088EF00F08AEF00F0A3EF00F0F2A08FEF85
:1001180000F091EF00F0A3EF00F081BA96EF00F045
:1001280098EF00F0A3EF00F05FB29DEF00F09FEFB3
:1001380000F0A3EF00F05F82000E54EC16F0F2A678
:10014800A8EF00F0AAEF00F0C3EF00F0F2A0AFEFC5
:1001580000F0B1EF00F0C3EF00F081ACB6EF00F0B3
:10016800B8EF00F0C3EF00F05FA4BDEF00F0BFEF01
:1001780000F0C3EF00F05F94010E47EC16F0F2A612
:10018800C8EF00F0CAEF00F0E3EF00F0F2A0CFEF05
:1001980000F0D1EF00F0E3EF00F081BCD6EF00F003
:1001A800D8EF00F0E3EF00F05FB4DDEF00F0DFEF31
:1001B80000F0E3EF00F05F84000E47EC16F0F2A6C3
:1001C800E8EF00F0EAEF00F003EF01F0F2A0EFEF44
:1001D80000F0F1EF00F003EF01F081AEF6EF00F070
:1001E800F8EF00F003EF01F05FA6FDEF00F0FFEF7E
:1001F80000F003EF01F05F96010E3AEC16F0F2A65C
:1002080008EF01F00AEF01F023EF01F0F2A00FEF81
:1002180001F011EF01F023EF01F081BE16EF01F0BC
:1002280018EF01F023EF01F05FB61DEF01F01FEFAB
:1002380001F023EF01F05F86000E3AEC16F09DAC5A
:1002480028EF01F02AEF01F02BEF01F09E509DA05E
:1002580030EF01F032EF01F033EF01F09E501EC095
:10026800E0FF1DC0E8FF1CC0D8FF6190100029EF17
:0202780015F07F
:101000000061686D65640D0A00003C50800B0001B2
:10101000BB6F3C503C24BD6F3BAE11EF08F013EFAB
:1010200008F014EF08F0BD81BD51D8B41AEF08F0F4
:101030001CEF08F031EF08F0BD29D8A422EF08F02A
:1010400024EF08F02CEF08F0000E396E000E3A6E17
:10105000000E3B6E000E3C6E3B8E000E3C6E39EF78
:1010600008F0000E396E000E3A6E000E3B6E000E58
:101070003C6E4050800BBC6FBB51BC19D8B443EFE1
:1010800008F045EF08F046EF08F0BB8D40504024D3
:10109000BC6F3FAE4EEF08F050EF08F051EF08F094
:1010A000BC81BC51D8B457EF08F059EF08F06EEF8F
:1010B00008F0BC29D8A45FEF08F061EF08F069EFF1
:1010C00008F0000E3D6E000E3E6E000E3F6E000EEC
:1010D000406E3F8E000E406E76EF08F0000E3D6EC3
:1010E000000E3E6E000E3F6E000E406EBD51BC5DA8
:1010F000D8B07DEF08F07FEF08F0A6EF08F0BBADA9
:1011000084EF08F086EF08F088EF08F0800EBB1B34
:10111000BDC0BEF0BCC0BDF0BEC0BCF039C0BEF0AA
:101120003DC039F0BEC03DF03AC0BEF03EC03AF01E
:10113000BEC03EF03BC0BEF03FC03BF0BEC03FF083
:101140003CC0BEF040C03CF0BEC040F0000EBE6FE0
:10115000BD51BCC0B7F0B86BB75F000EB85BB8BF8D
:10116000BBEF08F0B85109E11A0EB75DD8A0BBEF8C
:1011700008F0BDEF08F0F4EF08F039503A103B10DA
:101180003C10D8A4C6EF08F0C9EF08F0010ECAEF72
:1011900008F0000EBE6F000E396E000E3A6E000EA3
:1011A0003B6E000E3C6EBCC0BDF0FDEF08F0BEA172
:1011B000DCEF08F0DEEF08F0E4EF08F0D890BE3185
:1011C0000109BE6FE6EF08F0D890BE3339A0EBEF0F
:1011D00008F0EDEF08F0EEEF08F0BE8F3C343C3243
:1011E0003B323A323932BD2BBC51BD5DD8A0FBEF4A
:1011F00008F0FDEF08F0D7EF08F0BBBD02EF09F0F3
:1012000004EF09F044EF09F0BD51D8A40AEF09F04A
:101210000CEF09F016EF09F0000E396E000E3A6E71
:10122000000E3B6E000E3C6E65EF0AF03D50392615
:101230003E503A223F503B2240503C223CA023EFFC
:1012400009F025EF09F0D1EF09F0BEA12AEF09F06E
:101250002CEF09F032EF09F0D890BE310109BE6FD2
:1012600034EF09F0D890BE3339A039EF09F03BEFE5
:1012700009F03CEF09F0BE8F3C343C323B323A324D
:101280003932BD2BD1EF09F03D50395C3E503A5810
:101290003F503B583C50800AB76F4050800AB759C6
:1012A000D8B055EF09F057EF09F082EF09F0395047
:1012B0003D5CB76F3A503E58B86F3B503F58B96FDE
:1012C0003C504058BA6FFF0EB725396EFF0EB8215B
:1012D0003A6EFF0EB9213B6EFF0EBA213C6E800EB6
:1012E000BB1BBE6DBE51D8A478EF09F07AEF09F0B0
:1012F0008AEF09F0010E3926000E3A223B223C22E9
:101300008AEF09F03D50395E3E503A5A3F503B5A01
:1013100040503C5A39503A103B103C10D8A493EF3F
:1013200009F095EF09F0CAEF09F0BE51D8A49BEF80
:1013300009F09DEF09F0CAEF09F0000E396E000EBA
:101340003A6E000E3B6E000E3C6E65EF0AF0D890D0
:1013500039363A363B363C36BEAFB1EF09F0B3EF23
:1013600009F0B4EF09F03980BEA1B9EF09F0BBEF85
:1013700009F0BFEF09F0D880BE37C1EF09F0D8906F
:10138000BE37BD51D8B4C7EF09F0C9EF09F0CAEFB5
:1013900009F0BD073BAECFEF09F0D1EF09F0A7EFA1
:1013A00009F0000EBC6FBEAFD8EF09F0DAEF09F01C
:1013B000F2EF09F0BEC0B7F07F0EB717D8B4E3EF75
:1013C00009F0E5EF09F0E9EF09F0010EBC6FF2EF6B
:1013D00009F039A0EEEF09F0F0EF09F0F2EF09F0B3
:1013E000E5EF09F0BC51D8B4F8EF09F0FAEF09F0D5
:1013F00025EF0AF0010E3926000E3A223B223C224C
:101400003CA005EF0AF007EF0AF025EF0AF039C01B
:10141000B7F03AC0B8F03BC0B9F03CC0BAF0BA354A
:10142000BA33B933B833B733B7C039F0B8C03AF0CC
:10143000B9C03BF0BAC03CF0BD29D8B422EF0AF0E5
:1014400024EF0AF025EF0AF0BD2BBD29D8B42BEF0D
:101450000AF02DEF0AF035EF0AF0BD51D8A433EFB2
:101460000AF035EF0AF047EF0AF0000E396E000E71
:101470003A6E000E3B6E000E3C6EBD51D8A443EF99
:101480000AF045EF0AF047EF0AF0000EBB6FBDA16E
:101490004CEF0AF04EEF0AF051EF0AF03B8E52EF9C
:1014A0000AF03B9ED890BD313C6EBBAF5AEF0AF0BC
:1014B0005CEF0AF05DEF0AF03C8E39C039F03AC0BB
:1014C0003AF03BC03BF03CC03CF01200010E000182
:1014D000C36FBF51C011D8A470EF0AF072EF0AF0C9
:1014E00076EF0AF0000EC36F32EF0CF0000EC46FFF
:1014F000000EC56F000EC66F000EC76FF0EF0BF049
:10150000AC94B896BFC0D9FFC0C0DAFFDECFC1F03F
:10151000DDCFC2F0C1C01FF0C2C020F0216A226A34
:10152000000EF8EC0EF01FC031F020C032F021C0E8
:1015300033F022C034F0000E2D6E240E2E6EF40E09
:101540002F6E4A0E306E35EC0CF02DC0C8F02EC058
:10155000C9F02FC0CAF030C0CBF0000E316E000EC3
:10156000326E800E336E420E346EC8C02DF0C9C08C
:101570002EF0CAC02FF0CBC030F035EC0CF02DC0EF
:1015800039F02EC03AF02FC03BF030C03CF0000ED6
:101590003D6E000E3E6E800E3F6EBF0E406E05EC3F
:1015A00008F039C0C4F03AC0C5F03BC0C6F03CC03A
:1015B000C7F013EF0CF0AC84B896BFC0D9FFC0C021
:1015C000DAFFDECFC1F0DDCFC2F0C1C01FF0C2C074
:1015D00020F0216A226A000EF8EC0EF01FC031F0F4
:1015E00020C032F021C033F022C034F0000E2D6E46
:1015F000240E2E6EF40E2F6E4A0E306E35EC0CF06B
:101600002DC0C8F02EC0C9F02FC0CAF030C0CBF03A
:10161000000E316E000E326E800E336E410E346E4F
:10162000C8C02DF0C9C02EF0CAC02FF0CBC030F01A
:1016300035EC0CF02DC039F02EC03AF02FC03BF045
:1016400030C03CF0000E3D6E000E3E6E800E3F6ED0
:10165000BF0E406E05EC08F039C0C4F03AC0C5F0CA
:101660003BC0C6F03CC0C7F013EF0CF0AC94B8869A
:10167000BFC0D9FFC0C0DAFFDECFC1F0DDCFC2F0FE
:10168000C1C01FF0C2C020F0216A226A000EF8EC2F
:101690000EF01FC031F020C032F021C033F022C064
:1016A00034F0000E2D6E240E2E6EF40E2F6E4A0EA8
:1016B000306E35EC0CF02DC0C8F02EC0C9F02FC034
:1016C000CAF030C0CBF0000E316E000E326E800ECC
:1016D000336E410E346EC8C02DF0C9C02EF0CAC0A2
:1016E0002FF0CBC030F035EC0CF02DC039F02EC00F
:1016F0003AF02FC03BF030C03CF0000E3D6E000EC3
:101700003E6E800E3F6EBF0E406E05EC08F039C095
:10171000C4F03AC0C5F03BC0C6F03CC0C7F013EF00
:101720000CF0AC84B886BFC0D9FFC0C0DAFFDECFF2
:10173000C1F0DDCFC2F0C1C01FF0C2C020F0216AED
:10174000226A000EF8EC0EF01FC031F020C032F01B
:1017500021C033F022C034F0000E2D6E240E2E6E08
:10176000F40E2F6E4A0E306E35EC0CF02DC0C8F022
:101770002EC0C9F02FC0CAF030C0CBF0000E316EC1
:10178000000E326E800E336E400E346EC8C02DF0E7
:10179000C9C02EF0CAC02FF0CBC030F035EC0CF031
:1017A0002DC039F02EC03AF02FC03BF030C03CF0D5
:1017B000000E3D6E000E3E6E800E3F6EBF0E406E00
:1017C00005EC08F039C0C4F03AC0C5F03BC0C6F023
:1017D0003CC0C7F013EF0CF0000EC36F13EF0CF01A
:1017E00020EE0BF0BF51D926C051DA22DF50C16F75
:1017F000C26BC251000AD8B400EF0CF0ECEF0BF052
:10180000C151000AD8B480EF0AF0010AD8B4DBEF66
:101810000AF0030AD8B436EF0BF0010AD8B491EFFE
:101820000BF0ECEF0BF0C4C01FF0C5C020F0C6C039
:1018300021F0C7C022F006EC11F01F50AF6EC4C0FB
:101840001FF0C5C020F0C6C021F0C7C022F006ECD2
:1018500011F020C01FF021C020F022C021F0226A28
:101860001F50B06E0001C35112003050800B0001B8
:10187000AE6F30503024B56F2FAE41EF0CF043EF18
:101880000CF044EF0CF0B581B551D8B44AEF0CF030
:101890004CEF0CF061EF0CF0B529D8A452EF0CF02E
:1018A00054EF0CF05CEF0CF0000E2D6E000E2E6E5F
:1018B000000E2F6E000E306E2F8E000E306E69EF10
:1018C0000CF0000E2D6E000E2E6E000E2F6E000E10
:1018D000306E3450800BAE1B34503424B66F33AEB0
:1018E00074EF0CF076EF0CF077EF0CF0B681B65198
:1018F000D8B47DEF0CF07FEF0CF094EF0CF0B6292C
:10190000D8A485EF0CF087EF0CF08FEF0CF0000EF1
:10191000316E000E326E000E336E000E346E338E5A
:10192000000E346E9CEF0CF0000E316E000E326E25
:10193000000E336E000E346E3150321033103410FE
:10194000D8A4A5EF0CF0A7EF0CF0BFEF0CF0000E41
:101950002D6E000E2E6E000E2F6E000E306E800E5D
:101960002F127F0E3012AE5130122DC02DF02EC02E
:101970002EF02FC02FF030C030F002EF0EF0B55136
:10198000D8A4C5EF0CF0C7EF0CF0D1EF0CF0000EAF
:101990002D6E000E2E6E000E2F6E000E306E02EFBA
:1019A0000EF0B651B5C035F0366A355E000E365AC7
:1019B0007F0E3524AF6F000E3620B06F2DC0AAF019
:1019C0002EC0ABF02FC0ACF030C0ADF0000E2D6ECD
:1019D000000E2E6E000E2F6E000E306E000EB16FD8
:1019E000000EB26F000EB36F000EB46F000EB66F34
:1019F00032EF0DF0B651D8B400EF0DF002EF0DF05C
:101A000019EF0DF0D890AA37AB37AC37AD37D89077
:101A10002D362E362F363036B4AF11EF0DF013EFD2
:101A20000DF014EF0DF02D80D890B137B237B337E9
:101A3000B4373150AA5D3250AB593350AC593450A1
:101A4000AD59D8A026EF0DF028EF0DF031EF0DF0D5
:101A5000B48D3150AA5F3250AB5B3350AC5B345025
:101A6000AD5BB62B190EB66538EF0DF03AEF0DF001
:101A7000FAEF0CF0AA51AB11AC11AD11D8B443EF91
:101A80000DF045EF0DF05DEF0DF0B1815DEF0DF064
:101A9000D8902D362E362F363036B4AF52EF0DF0AB
:101AA00054EF0DF055EF0DF02D80D890B137B237CF
:101AB000B337B437AF07D8A0B0072FAE62EF0DF041
:101AC00064EF0DF048EF0DF0000EB66FB4AF6BEFA2
:101AD0000DF06DEF0DF091EF0DF0FF0EB115356EBD
:101AE000FF0EB215366EFF0EB315376E7F0EB415AE
:101AF000386E3550361037103810D8B482EF0DF0EC
:101B000084EF0DF088EF0DF0010EB66F91EF0DF040
:101B10002DA08DEF0DF08FEF0DF091EF0DF084EF14
:101B20000DF0B651D8B497EF0DF099EF0DF0BDEF71
:101B30000DF0010E2D26000E2E222F22302230A075
:101B4000A4EF0DF0A6EF0DF0BDEF0DF02DC035F0B8
:101B50002EC036F02FC037F030C038F0383438326D
:101B600037323632353235C02DF036C02EF037C020
:101B70002FF038C030F0AF4BB02BB0BFC8EF0DF036
:101B8000B05108E1AF29D8A0C8EF0DF0CAEF0DF0B1
:101B9000D5EF0DF0000EB06FAF69000E2D6E000E88
:101BA0002E6E000E2F6E000E306EB0BFE2EF0DF005
:101BB000B05106E1AF05D8B0E0EF0DF0E2EF0DF067
:101BC000F0EF0DF0000EB06F000EAF6F000E2D6E37
:101BD000000E2E6E000E2F6E000E306E000EAE6FD9
:101BE000AFC0B5F0B5A1F7EF0DF0F9EF0DF0FCEFD8
:101BF0000DF02F8EFDEF0DF02F9ED890B531306E89
:101C0000B3EF0CF01200000E146E000E136E0650AF
:101C10000710D8B40EEF0EF010EF0EF019EF0EF023
:101C200008500910D8A417EF0EF019EF0EF01BEFB3
:101C30000EF0F7EF0EF09EAA20EF0EF022EF0EF05E
:101C400019EF0EF020EE09F00650D9260750DA22DF
:101C5000DFA82DEF0EF02FEF0EF0DFEF0EF020EEED
:101C600009F00650D9260750DA22DF30030B0009AD
:101C7000D8A43DEF0EF03FEF0EF061EF0EF0AECFC7
:101C800013F0146AABB047EF0EF049EF0EF04FEFD0
:101C90000EF0000E0E6E000E0D6E53EF0EF0010EE4
:101CA0000E6E000E0D6E0D5013260E50142208C03D
:101CB000D9FF09C0DAFF13C0DEFF14C0DDFFF7EF64
:101CC0000EF020EE09F00650D9260750DA22DF3058
:101CD000030BE806D8A46FEF0EF071EF0EF0A6EF3D
:101CE0000EF0AECF13F0146AABB079EF0EF07BEFCD
:101CF0000EF081EF0EF0000E106E000E0F6E85EFED
:101D00000EF0010E106E000E0F6E0F5013261050C5
:101D100014221350F5EC14F00A6E14500A18D8A4CB
:101D200094EF0EF096EF0EF0DDEF0EF0FF0E1314B1
:101D30000A6E000E14140B6E08C0D9FF09C0DAFF3A
:101D40000AC0DEFF0BC0DDFFF7EF0EF020EE09F05A
:101D50000650D9260750DA22DF30030B020AD8A436
:101D6000B4EF0EF0B6EF0EF0DDEF0EF0AECF13F0E5
:101D7000146AABB0BEEF0EF0C0EF0EF0C6EF0EF07F
:101D8000000E126E000E116ECAEF0EF0010E126EF2
:101D9000000E116E11501326125014221350C1EC74
:101DA00014F00A6E14500A18D8A4D9EF0EF0DBEF25
:101DB0000EF0DDEF0EF096EF0EF0F7EF0EF020EEE6
:101DC00009F00650D9260750DA22DFB8EAEF0EF004
:101DD000ECEF0EF0DDEF0EF0AE500A6E0B6A08C0AD
:101DE000D9FF09C0DAFF0AC0DEFF0BC0DDFF120019
:101DF000276E2750D8B4FFEF0EF001EF0FF023EF5E
:101E00000FF022BE08EF0FF006EF0FF023EF0FF0F8
:101E10001FC023F020C024F021C025F022C026F0EE
:101E2000231E241E251E261E232A000E24222522C0
:101E3000262223C029F024C02AF025C02BF026C07A
:101E40002CF02BEF0FF01FC029F020C02AF021C08A
:101E50002BF022C02CF01F50201021102210D8A4EB
:101E600034EF0FF036EF0FF040EF0FF0000E1F6E63
:101E7000000E206E000E216E000E226ED1EF0FF0CC
:101E8000960E286E4AEF0FF0282AD8902C322B326B
:101E90002A322932000E2914236E000E2A14246ED1
:101EA000000E2B14256EFE0E2C14266E23502410CB
:101EB00025102610D8A45FEF0FF061EF0FF044EF6C
:101EC0000FF06FEF0FF0282A010E2926000E2A22AC
:101ED0002B222C22D8902C322B322A322932000E7F
:101EE0002914236E000E2A14246E000E2B14256E66
:101EF000FF0E2C14266E2350241025102610D8A473
:101F000084EF0FF086EF0FF063EF0FF08EEF0FF01E
:101F10002806D89029362A362B362C362BBE93EF3E
:101F20000FF095EF0FF09DEF0FF0020E28609BEF82
:101F30000FF09DEF0FF088EF0FF028B0A2EF0FF039
:101F4000A4EF0FF0A5EF0FF02B9ED890283228C0F9
:101F500023F0246A256A266A23C026F0256A246AAB
:101F6000236A2350291224502A1225502B1226505E
:101F70002C122750D8B4BFEF0FF0C1EF0FF0C9EF0C
:101F80000FF022BEC8EF0FF0C6EF0FF0C9EF0FF051
:101F90002C8E29C01FF02AC020F02BC021F02CC0AD
:101FA00022F01200010E276E1F502010D8B4DBEF74
:101FB0000FF0DDEF0FF0ECEF0FF01FC0D9FF20C0E6
:101FC000DAFFDF50070B216E070E2164EAEF0FF0F6
:101FD000ECEF0FF04FEF10F0000E276E70EF10F0E7
:101FE0001FC0D9FF20C0DAFFDF50070B216E010EA2
:101FF000226E212AFEEF0FF0D8902236212EFCEF20
:102000000FF02250FF0A236E1FC0D9FF20C0DAFF55
:10201000DF30E832E832070B246E2450020D940EB4
:10202000F324D96E000EF420DA6EDECF25F0DDCF7A
:1020300026F025C0D9FF26C0DAFF2350DF1670EF47
:1020400010F01FC0D9FF20C0DAFFDF50070B216E50
:10205000010E226E212A2FEF10F0D8902236212E69
:102060002DEF10F01FC0D9FF20C0DAFFDF30E832BB
:10207000E832070B236E2350020D940EF324D96E21
:10208000000EF420DA6EDECF24F0DDCF25F024C080
:10209000D9FF25C0DAFF2250DF1270EF10F01FC009
:1020A000D9FF20C0DAFFDFBC58EF10F05BEF10F073
:1020B000010E5CEF10F0000E216E226A2250000A21
:1020C000D8B465EF10F0ECEF0FF02150000AD8B44F
:1020D000F0EF0FF0010AD8B421EF10F0ECEF0FF0A1
:1020E00027501200010E286E1F502010D8B47BEF2D
:1020F00010F07DEF10F08CEF10F01FC0D9FF20C062
:10210000DAFFDF50070B226E070E22648AEF10F011
:102110008CEF10F0EFEF10F0000E286E04EF11F0CE
:102120001FC0D9FF20C0DAFFDF50070B226E010E5F
:10213000236E222A9EEF10F0D8902336222E9CEF99
:1021400010F02350FF0A246E1FC0D9FF20C0DAFF11
:10215000DF30E832E832070B256E2550020D8A0E7B
:10216000F324D96E000EF420DA6EDECF26F0DDCF38
:1021700027F026C0D9FF27C0DAFF2450DF1604EF6E
:1021800011F01FC0D9FF20C0DAFFDF50070B226E0D
:10219000010E236E222ACFEF10F0D8902336222E84
:1021A000CDEF10F01FC0D9FF20C0DAFFDF30E832DA
:1021B000E832070B246E2450020D8A0EF324D96EE8
:1021C000000EF420DA6EDECF25F0DDCF26F025C03C
:1021D000D9FF26C0DAFF2350DF1204EF11F021509F
:1021E000226E236A2350000AD8B4F9EF10F08CEF66
:1021F00010F02250000AD8B490EF10F0010AD8B4C1
:10220000C1EF10F08CEF10F028501200213422346E
:10221000286E2850D8A40FEF11F011EF11F01BEF2A
:1022200011F0000E1F6E000E206E000E216E000ECB
:10223000226E88EF11F01FC023F020C024F021C0CF
:1022400025F022C026F0200E2BEF11F0D890263278
:10225000253224322332E82E26EF11F02350276E48
:10226000218EFF0E1F16FF0E2016FF0E2116000EE8
:102270002216960E285E28BE42EF11F040EF11F0B4
:1022800058EF11F02850800A970FD8B04AEF11F09C
:102290004CEF11F04EEF11F011EF11F0D890223207
:1022A000213220321F32283E4EEF11F070EF11F034
:1022B0001F0E28645EEF11F060EF11F068EF11F06F
:1022C00011EF11F0D8901F3620362136223628061D
:1022D0002850D8A46EEF11F070EF11F062EF11F0FA
:1022E0002750D8B476EF11F078EF11F080EF11F0AD
:1022F000221E211E201E1F6C000E202221222222BF
:102300001FC01FF020C020F021C021F022C022F009
:1023100012000600FACF15F0FBCF16F0D9CF17F058
:10232000DACF18F0F3CF19F0F4CF1AF0F2A89BEF40
:1023300011F09DEF11F0A6EF11F0F2A2A2EF11F053
:10234000A4EF11F0A6EF11F072EC16F0F0A8ABEFCD
:1023500011F0ADEF11F0B6EF11F0F0A2B2EF11F005
:10236000B4EF11F0B6EF11F070EC16F0F2AABBEF7B
:1023700011F0BDEF11F0BEEF11F0F2509DA2C3EFCE
:1023800011F0C5EF11F0C6EF11F09E50A0A2CBEFF7
:1023900011F0CDEF11F0CEEF11F0A150A0A0D3EFCE
:1023A00011F0D5EF11F0D6EF11F0A1509DAADBEF9F
:1023B00011F0DDEF11F0E6EF11F09EAAE2EF11F05F
:1023C000E4EF11F0E6EF11F001EC16F09DA8EBEF51
:1023D00011F0EDEF11F0EEEF11F09E50A0A6F3EF2B
:1023E00011F0F5EF11F0F6EF11F0A1509DA6FBEF03
:1023F00011F0FDEF11F0FEEF11F09E501AC0F4FF46
:1024000019C0F3FF18C0DAFF17C0D9FF16C0FBFFD1
:1024100015C0FAFF6192110024502510D8A413EFC3
:1024200012F015EF12F017EF12F07DEF12F020EE20
:1024300002F02450D9262550DA22DFA622EF12F02E
:1024400024EF12F07BEF12F020EE02F02450D92698
:102450002550DA22DF50030B0009D8A432EF12F026
:1024600034EF12F043EF12F026C028F027C029F015
:1024700029C028F0296A2830D8A002D0AC8001D029
:10248000AC907BEF12F020EE02F02450D9262550BC
:10249000DA22DF50030BE806D8A451EF12F053EF15
:1024A00012F05FEF12F026508DEC14F0286E2830F9
:1024B000D8A002D0AC8001D0AC907BEF12F020EE1F
:1024C00002F02450D9262550DA22DF50030B020AED
:1024D000D8A46DEF12F06FEF12F07BEF12F02650E0
:1024E00059EC14F0286E2830D8A002D0AC8001D06E
:1024F000AC907BEF12F026C0ADFF12000650071023
:10250000D8A485EF12F087EF12F089EF12F0EFEF09
:1025100012F020EE02F00650D9260750DA22DFA68C
:1025200094EF12F096EF12F0EDEF12F020EE02F0C1
:102530000650D9260750DA22DF50030B0009D8A431
:10254000A4EF12F0A6EF12F0B5EF12F008C00AF0F7
:1025500009C00BF00BC00AF00B6A0A30D8A002D0F9
:10256000AC8001D0AC90EDEF12F020EE02F00650FE
:10257000D9260750DA22DF50030BE806D8A4C3EFB0
:1025800012F0C5EF12F0D1EF12F00850F5EC14F094
:102590000A6E0A30D8A002D0AC8001D0AC90EDEF2A
:1025A00012F020EE02F00650D9260750DA22DF5052
:1025B000030B020AD8A4DFEF12F0E1EF12F0EDEF07
:1025C00012F00850C1EC14F00A6E0A30D8A002D004
:1025D000AC8001D0AC90EDEF12F008C0ADFF12005E
:1025E000010E246E22502310D8A4F9EF12F0FBEF55
:1025F00012F0FFEF12F0000E246E45EF13F020EE04
:1026000006F02250D9262350DA22DFA60AEF13F073
:102610000CEF13F035EF13F0AB9822C01FF023C07E
:1026200020F047EC13F0246E20EE06F02250D9265D
:102630002350DA22DFA81FEF13F021EF13F024EF6D
:1026400013F0AB8C32EF13F020EE06F02250D926B7
:102650002350DA22DFB82FEF13F031EF13F032EF0F
:1026600013F0AB9CAB8845EF13F020EE06F0225040
:10267000D9262350DA22DFB640EF13F042EF13F0F1
:1026800045EF13F0AB9845EF13F024501200010E04
:10269000216E1F502010D8A450EF13F052EF13F00A
:1026A00056EF13F0000E216E96EF13F09D9A1FC0A7
:1026B000D9FF20C0DAFFDECF41F0DDCF42F020EEBF
:1026C00004F01F50D9262050DA22DECFD1F0DDCF22
:1026D000D2F020EE02F01F50D9262050DA22DECFB1
:1026E000D3F0DDCFD4F0D08E20EE06F01F50D926E7
:1026F0002050DA22DFA07FEF13F081EF13F085EF97
:1027000013F09F8AF28E95EF13F020EE06F01F5023
:10271000D9262050DA22DFB090EF13F092EF13F0B9
:1027200095EF13F09F9AF28EF28C9D8A2150120041
:10273000010E216E1F502010D8A4A1EF13F0A3EFBB
:1027400013F0A7EF13F0000E216EDEEF13F01FC0A1
:10275000D9FF20C0DAFFDFA4B0EF13F0B2EF13F01F
:10276000D0EF13F0AC9A1FC0D9FF20C0DAFFDFA66C
:10277000BCEF13F0BEEF13F0C1EF13F0AC8CCDEF54
:1027800013F01FC0D9FF20C0DAFFDFB6CAEF13F085
:10279000CCEF13F0CDEF13F0AC9CAC8ADEEF13F06E
:1027A0001FC0D9FF20C0DAFFDFB4D9EF13F0DBEF91
:1027B00013F0DEEF13F0AC9ADEEF13F021501200AD
:1027C000000E3A6E000E396E30503110D8B4EBEF77
:1027D00013F0EDEF13F0F6EF13F032503310D8A4EE
:1027E000F4EF13F0F6EF13F0F8EF13F020EF14F01E
:1027F000000E3A6E000E396E15EF14F030C02BF05B
:1028000031C02CF039503224366E3A503320376EB6
:1028100036C0F6FF37C0F7FFF86A0800F5502D6E96
:102820002E6AC8EC15F0394A3A2A3450395C3550D2
:102830003A58D8A01EEF14F020EF14F0FEEF13F07A
:10284000120001500210D8A428EF14F02AEF14F05F
:102850002CEF14F058EF14F001C0D9FF02C0DAFFDA
:10286000DF50070B036E010E046E032A3AEF14F0DB
:10287000D8900436032E38EF14F001C0D9FF02C0FF
:10288000DAFFDF30E832E832070B056E0550020D43
:102890008A0EF324D96E000EF420DA6EDECF06F035
:1028A000DDCF07F006C0D9FF07C0DAFF0450DF1AFA
:1028B0001200216E000E226E000E236E000E236E9B
:1028C00023C01FF0010E206E1F2A69EF14F0D8906C
:1028D00020361F2E67EF14F0205021140009D8B4C1
:1028E00074EF14F076EF14F077EF14F0222A232A15
:1028F000070E23647EEF14F080EF14F060EF14F005
:10290000222A22B086EF14F088EF14F08BEF14F037
:10291000010E8CEF14F0000E1200216E000E226EDC
:10292000000E236E000E236E23C01FF0010E206EDA
:102930001F2A9DEF14F0D89020361F2E9BEF14F025
:10294000205021140009D8B4A8EF14F0AAEF14F015
:10295000ABEF14F0222A232A070E2364B2EF14F0FF
:10296000B4EF14F094EF14F0222A22A0BAEF14F07E
:10297000BCEF14F0BFEF14F0010EC0EF14F0000E26
:102980001200036E000E046E000E056E000E056E42
:1029900005C001F0010E026E012AD1EF14F0D890AB
:1029A0000236012ECFEF14F0025003140009D8B400
:1029B000DCEF14F0DEEF14F0DFEF14F0042A052A48
:1029C000070E0564E6EF14F0E8EF14F0C8EF14F01A
:1029D000042A04B0EEEF14F0F0EF14F0F3EF14F06B
:1029E000010EF4EF14F0000E1200036E000E046EE0
:1029F000000E056E000E056E05C001F0010E026EA0
:102A0000012A05EF15F0D8900236012E03EF15F0DC
:102A1000025003140009D8B410EF15F012EF15F0AE
:102A200013EF15F0042A052A070E05641AEF15F0B6
:102A30001CEF15F0FCEF14F0042A04A022EF15F0AF
:102A400024EF15F027EF15F0010E28EF15F0000E1A
:102A500012002E0EF66E2C0EF76E000EF86E00EEC3
:102A600080F010EE2AF00900F5CFEEFFE550E150BE
:102A7000FAE1E80EF66E2C0EF76E000EF86E090005
:102A8000F5CF5FF00900F5CF60F00001D66BD56B94
:102A9000D46BD36BD26BD16B00EE41F01E0EEE6A9D
:102AA000E806FDE1619061920001A7EF15F00001D9
:102AB000CC51CD11D8A45FEF15F061EF15F063EFA5
:102AC00015F084EF15F0AB9ECCC0BFF0CDC0C0F0C8
:102AD00066EC0AF00001CE6FAC98948C020ECC2507
:102AE0001F6E000ECD21206E98EC13F00001CE1762
:102AF000948E030ECC25226E000ECD21236EF0ECB9
:102B000012F00001CE17AB8E120029502A10D8A463
:102B10008CEF15F08EEF15F090EF15F0A6EF15F095
:102B200029C01FF02AC020F0D2EC0FF02B6E29C074
:102B30001FF02AC020F029C0D9FF2AC0DAFF000EFA
:102B4000DFBE010E216E72EC10F02B6E12002CEC29
:102B500016F0060E0001D06F130ECF6FAD0EE82EEB
:102B6000FED7CF2FFCD7D02FFAD700D09E0E306ED5
:102B7000000E316E010E326E100E336E000E356E89
:102B8000060E346EE0EC13F0A9EF15F03BEF01F008
:102B90002B502C10D8A4CFEF15F0D1EF15F0D3EFB8
:102BA00015F0E4EF15F0ACA2D8EF15F0DAEF15F060
:102BB000D3EF15F02BC024F02CC025F02DC026F04B
:102BC0002EC027F00CEC12F012005D2A600E016E90
:102BD000000E026E21EC14F09E0E066E000E076EC3
:102BE0005E0E086E000E096E03EC0EF09E0E066E71
:102BF000000E076E000E096E770E086E7EEC12F066
:102C0000120041504210D8B408EF16F00AEF16F047
:102C100016EF16F002D816EF16F00500FA6E4150C6
:102C2000FD6E4250FE6EFF6AFA5012001200800FD5
:102C3000810F820F830F840F890F8A0F8B0F8C0FE8
:102C40008D0F920F930F940F950F960F802504CA46
:102C50002B00000000090000600E296E000E2A6E95
:102C600085EC15F09E0E0001CC6F000ECD6F57EC79
:102C700015F012001B6EF2901B50D8B442EF16F004
:102C800044EF16F046EF16F046EF16F012001B6EFA
:102C9000F2901B50D8B44FEF16F051EF16F053EFEF
:102CA00016F053EF16F012001B6EF2901B50D8B4C2
:102CB0005CEF16F05EEF16F060EF16F060EF16F0C6
:102CC00012001B6EF2901B50D8B469EF16F06BEF38
:102CD00016F06DEF16F06DEF16F01200F090120086
:0A2CE000F0921200F29212000F1A97
:020000040020DA
:08000000FFFFFFFFFFFFFFFF00
:020000040030CA
:0E000000FF02091EFF8181FF0FC00FE00F40BD
:00000001FF
