:0400000043EF01F0D9
:060008007A8258ED09F0B8
:100018007A80D8CF68F0E8CF69F0E0CF6AF0F0A630
:1000280018EF00F01AEF00F023EF00F0F0A01FEF38
:1000380000F021EF00F023EF00F0D3EC0AF0F2A675
:1000480028EF00F02AEF00F043EF00F0F2A02FEFC6
:1000580000F031EF00F043EF00F081A836EF00F038
:1000680038EF00F043EF00F021A03DEF00F03FEF44
:1000780000F043EF00F02190010EC6EC0AF0F2A662
:1000880048EF00F04AEF00F063EF00F0F2A04FEF06
:1000980000F051EF00F063EF00F081B856EF00F088
:1000A80058EF00F063EF00F021B05DEF00F05FEF74
:1000B80000F063EF00F02180000EC6EC0AF0F2A613
:1000C80068EF00F06AEF00F083EF00F0F2A06FEF46
:1000D80000F071EF00F083EF00F081AA76EF00F0F6
:1000E80078EF00F083EF00F021A27DEF00F07FEFC2
:1000F80000F083EF00F02192010EB9EC0AF0F2A6AD
:1001080088EF00F08AEF00F0A3EF00F0F2A08FEF85
:1001180000F091EF00F0A3EF00F081BA96EF00F045
:1001280098EF00F0A3EF00F021B29DEF00F09FEFF1
:1001380000F0A3EF00F02182000EB9EC0AF0F2A65D
:10014800A8EF00F0AAEF00F0C3EF00F0F2A0AFEFC5
:1001580000F0B1EF00F0C3EF00F081ACB6EF00F0B3
:10016800B8EF00F0C3EF00F021A4BDEF00F0BFEF3F
:1001780000F0C3EF00F02194010EACEC0AF0F2A6F7
:10018800C8EF00F0CAEF00F0E3EF00F0F2A0CFEF05
:1001980000F0D1EF00F0E3EF00F081BCD6EF00F003
:1001A800D8EF00F0E3EF00F021B4DDEF00F0DFEF6F
:1001B80000F0E3EF00F02184000EACEC0AF0F2A6A8
:1001C800E8EF00F0EAEF00F003EF01F0F2A0EFEF44
:1001D80000F0F1EF00F003EF01F081AEF6EF00F070
:1001E800F8EF00F003EF01F021A6FDEF00F0FFEFBC
:1001F80000F003EF01F02196010E9FEC0AF0F2A641
:1002080008EF01F00AEF01F023EF01F0F2A00FEF81
:1002180001F011EF01F023EF01F081BE16EF01F0BC
:1002280018EF01F023EF01F021B61DEF01F01FEFE9
:1002380001F023EF01F02186000E9FEC0AF09DAC3F
:1002480028EF01F02AEF01F033EF01F09EAC2FEF19
:1002580001F031EF01F033EF01F0D5EC0AF09DA089
:1002680038EF01F03AEF01F03BEF01F09E506AC021
:10027800E0FF69C0E8FF68C0D8FF7A9010005FEF20
:020288000AF07A
:101000000041542B554152543A393630302C302C53
:10101000300D0A0041542B524E414D453A526F62F9
:101020006F740D0A0041542B505357443A313233F8
:10103000340D0A0041542B524F4C453A300D0A00F2
:071040002566002569000090
:10104800010E736E6B506C10D8B42DEF08F02FEFB3
:1010580008F03EEF08F06BC0D9FF6CC0DAFFDF5034
:10106800070B6D6E070E6D643CEF08F03EEF08F05D
:10107800A1EF08F0000E736EC2EF08F06BC0D9FF45
:101088006CC0DAFFDF50070B6D6E010E6E6E6D2AB5
:1010980050EF08F0D8906E366D2E4EEF08F06E5077
:1010A800FF0A6F6E6BC0D9FF6CC0DAFFDF30E83221
:1010B800E832070B706E7050020D150EF324D96ECE
:1010C800000EF420DA6EDECF71F0DDCF72F071C061
:1010D800D9FF72C0DAFF6F50DF16C2EF08F06BC09D
:1010E800D9FF6CC0DAFFDF50070B6D6E010E6E6E14
:1010F8006D2A81EF08F0D8906E366D2E7FEF08F0DC
:101108006BC0D9FF6CC0DAFFDF30E832E832070B7A
:101118006F6E6F50020D150EF324D96E000EF42079
:10112800DA6EDECF70F0DDCF71F070C0D9FF71C01C
:10113800DAFF6E50DF12C2EF08F06BC0D9FF6CC047
:10114800DAFFDFBCAAEF08F0ADEF08F0010EAEEF52
:1011580008F0000E6D6E6E6A6E50000AD8B4B7EFD4
:1011680008F03EEF08F06D50000AD8B442EF08F0DE
:10117800010AD8B473EF08F03EEF08F0735012007C
:10118800010E746E6B506C10D8B4CDEF08F0CFEF31
:1011980008F0DEEF08F06BC0D9FF6CC0DAFFDF5053
:1011A800070B6E6E070E6E64DCEF08F0DEEF08F0DA
:1011B80041EF09F0000E746E56EF09F06BC0D9FFCD
:1011C8006CC0DAFFDF50070B6E6E010E6F6E6E2A71
:1011D800F0EF08F0D8906F366E2EEEEF08F06F50F3
:1011E800FF0A706E6BC0D9FF6CC0DAFFDF30E832DF
:1011F800E832070B716E7150020D0B0EF324D96E95
:10120800000EF420DA6EDECF72F0DDCF73F072C01C
:10121800D9FF73C0DAFF7050DF1656EF09F06BC0C4
:10122800D9FF6CC0DAFFDF50070B6E6E010E6F6ED0
:101238006E2A21EF09F0D8906F366E2E1FEF09F055
:101248006BC0D9FF6CC0DAFFDF30E832E832070B39
:10125800706E7050020D0B0EF324D96E000EF42040
:10126800DA6EDECF71F0DDCF72F071C0D9FF72C0D7
:10127800DAFF6F50DF1256EF09F06D506E6E6F6A2D
:101288006F50000AD8B44BEF09F0DEEF08F06E504B
:10129800000AD8B4E2EF08F0010AD8B413EF09F055
:1012A800DEEF08F0745012000600F2AA5EEF09F0B3
:1012B80060EF09F069EF09F0F2A465EF09F067EF54
:1012C80009F069EF09F0D6EC0AF09DA26EEF09F07B
:1012D80070EF09F071EF09F09E50A0A276EF09F0C7
:1012E80078EF09F079EF09F0A150A0A07EEF09F09E
:1012F80080EF09F081EF09F0A1509DAA86EF09F06F
:1013080088EF09F091EF09F09EAA8DEF09F08FEFB1
:1013180009F091EF09F0D8EC0AF09DA896EF09F0D2
:1013280098EF09F0A1EF09F09EA89DEF09F09FEF53
:1013380009F0A1EF09F0D7EC0AF0A0A6A6EF09F092
:10134800A8EF09F0A9EF09F0A1509DA6AEEF09F0AA
:10135800B0EF09F0B1EF09F09E507A921100785081
:101368007910D8A4BAEF09F0BCEF09F0BEEF09F084
:10137800ECEF09F078C075F079C076F017EC0AF058
:10138800010E7824756E000E7920766E17EC0AF03F
:10139800010E78246B6E000E79206C6E24EC08F038
:1013A80078C06BF079C06CF024EC08F078C06BF072
:1013B80079C06CF0000E6D6EC4EC08F0010E782454
:1013C8006B6E000E79206C6E000E6D6EC4EC08F02A
:1013D800120075507610D8A4F4EF09F0F6EF09F072
:1013E800F8EF09F016EF0AF075C06BF076C06CF0F4
:1013F800010E6D6EC4EC08F0030E776E980EE82EA1
:10140800FED7772EFCD775C06BF076C06CF0000E57
:101418006D6EC4EC08F0030E776E980EE82EFED7BA
:10142800772EFCD7120075507610D8A41EEF0AF05C
:1014380020EF0AF024EF0AF0000E776E3AEF0AF078
:1014480075C06BF076C06CF024EC08F0776E75C050
:101458006BF076C06CF075C0D9FF76C0DAFF000E6D
:10146800DFBE010E6D6EC4EC08F0776E7750120087
:1014780020C065F01FC066F0650E786E000E796EAC
:10148800B3EC09F0000E3F6E000E3E6E650E756EF1
:10149800000E766EEDEC09F03E4A3F2A3F5009E116
:1014A800C80E3E5CD8A05BEF0AF05DEF0AF04AEF89
:1014B8000AF043EF01F0000EF66E150EF76E000EFF
:1014C800F86E00EE01F010EE3DF00900F5CFEEFFEA
:1014D800E550E150FAE100EE80F00F0EEE6AE80602
:1014E800FDE100EE3EF0290EEE6AE806FDE17A9095
:1014F8007A9200013CEF0AF0800F810F820F830F70
:10150800840F890F8A0F8B0F8C0F8D0F920F930FFB
:10151800940F950F960F12110F0102001100F4019C
:101528000000F9000F0002001200F4010000F900A9
:051538000F1A1B181939
:10153E00676EF2906750D8B4A7EF0AF0A9EF0AF0E1
:10154E00ABEF0AF0ABEF0AF01200676EF290675045
:10155E00D8B4B4EF0AF0B6EF0AF0B8EF0AF0B8EF6D
:10156E000AF01200676EF2906750D8B4C1EF0AF01D
:10157E00C3EF0AF0C5EF0AF0C5EF0AF01200676E6E
:10158E00F2906750D8B4CEEF0AF0D0EF0AF0D2EF57
:10159E000AF0D2EF0AF01200F090120012001200C0
:0415AE001200120015
:020000040020DA
:08000000FFFFFFFFFFFFFFFF00
:020000040030CA
:0E000000FF020912FF8181FF0FC00FE00F40C9
:00000001FF
