:020000040000FA
:0400000043EF01F0D9
:06000800568228ED24F0F1
:100018005680D8CF27F0E8CF28F0E0CF29F0F0A617
:1000280018EF00F01AEF00F023EF00F0F0A01FEF38
:1000380000F021EF00F023EF00F0BBEC31F0F2A666
:1000480028EF00F02AEF00F043EF00F0F2A02FEFC6
:1000580000F031EF00F043EF00F081A836EF00F038
:1000680038EF00F043EF00F04BA03DEF00F03FEF1A
:1000780000F043EF00F04B90010EA7EC31F0F2A630
:1000880048EF00F04AEF00F063EF00F0F2A04FEF06
:1000980000F051EF00F063EF00F081B856EF00F088
:1000A80058EF00F063EF00F04BB05DEF00F05FEF4A
:1000B80000F063EF00F04B80000EA7EC31F0F2A6E1
:1000C80068EF00F06AEF00F083EF00F0F2A06FEF46
:1000D80000F071EF00F083EF00F081AA76EF00F0F6
:1000E80078EF00F083EF00F04BA27DEF00F07FEF98
:1000F80000F083EF00F04B92010E9AEC31F0F2A67B
:1001080088EF00F08AEF00F0A3EF00F0F2A08FEF85
:1001180000F091EF00F0A3EF00F081BA96EF00F045
:1001280098EF00F0A3EF00F04BB29DEF00F09FEFC7
:1001380000F0A3EF00F04B82000E9AEC31F0F2A62B
:10014800A8EF00F0AAEF00F0C3EF00F0F2A0AFEFC5
:1001580000F0B1EF00F0C3EF00F081ACB6EF00F0B3
:10016800B8EF00F0C3EF00F04BA4BDEF00F0BFEF15
:1001780000F0C3EF00F04B94010E8DEC31F0F2A6C5
:10018800C8EF00F0CAEF00F0E3EF00F0F2A0CFEF05
:1001980000F0D1EF00F0E3EF00F081BCD6EF00F003
:1001A800D8EF00F0E3EF00F04BB4DDEF00F0DFEF45
:1001B80000F0E3EF00F04B84000E8DEC31F0F2A676
:1001C800E8EF00F0EAEF00F003EF01F0F2A0EFEF44
:1001D80000F0F1EF00F003EF01F081AEF6EF00F070
:1001E800F8EF00F003EF01F04BA6FDEF00F0FFEF92
:1001F80000F003EF01F04B96010E80EC31F0F2A60F
:1002080008EF01F00AEF01F023EF01F0F2A00FEF81
:1002180001F011EF01F023EF01F081BE16EF01F0BC
:1002280018EF01F023EF01F04BB61DEF01F01FEFBF
:1002380001F023EF01F04B86000E80EC31F09DAC0D
:1002480028EF01F02AEF01F033EF01F09EAC2FEF19
:1002580001F031EF01F033EF01F0BEEC31F09DA079
:1002680038EF01F03AEF01F03BEF01F09E5029C062
:10027800E0FF28C0E8FF27C0D8FF5690100046EFDF
:020288002CF058
:101000000041542B554152543A393630302C302C53
:10101000300D0A0020202020202020202020202009
:10102000202020200041542B524E414D453A526F12
:10103000626F740D0A002D20202020202020202007
:10104000202020200041542B505357443A31323352
:10105000340D0A0062617474657279206C6F7700D8
:1010600041542B524F4C453A300D0A006261747462
:101070006572793A2000494E46004E414E00696E35
:1010800066006E616E006C660025660025690000D2
:10109000000E0101736F000E726FC5C084F1C6C0EF
:1010A00085F1C7C086F1C8C087F187BF5CEF08F043
:1010B0005AEF08F072EF08F0000E736F010E726FB6
:1010C00084C180F085C181F086C182F087C183F040
:1010D000E3EC30F080C084F181C085F182C086F1FC
:1010E00083C087F1000E01018B6F000E8A6F2DC047
:1010F00076F12EC077F172517311D8A482EF08F007
:1011000084EF08F08BEF08F031A489EF08F08BEF43
:1011100008F0A5EF08F072517311D8A492EF08F00F
:1011200094EF08F09AEF08F0000E596F2B0E586FED
:101130009EEF08F0000E596F2D0E586F58C100F247
:101140008A4B8B2B7607D8A0770784C180F085C1A6
:1011500081F086C182F087C183F0A8EC23F0000102
:1011600080058111D8A4B7EF08F0B9EF08F017EFA8
:1011700009F0BF0ECA6FFF0ECB6FC951CC6FCD6B9C
:10118000CA51CC27CB51CD23CD510AE11A0ECC5DEB
:10119000D8A0CDEF08F0D0EF08F0010ED1EF08F0A5
:1011A000000E01015A6F5B6B5A515B11D8B4DBEF33
:1011B00008F0DDEF08F0EEEF08F0000E8A250001E0
:1011C000806F020E01018B210001816F760E826F0C
:1011D000100E836F45EC2EF0FDEF08F0000E8A250F
:1011E0000001806F020E01018B210001816F7E0ED4
:1011F000826F100E836F45EC2EF00101FD0E7627F5
:10120000FF0E7723C3C08DF0C4C08EF0000E000126
:101210008F6F020E906F76C191F077C192F0C1ECA2
:1012200026F08DC0C3F08EC0C4F0AAEF0EF084C1CA
:1012300080F085C181F086C182F087C183F0A8EC7F
:1012400023F0000180518111D8A429EF09F02BEF80
:1012500009F071EF09F0BF0ECA6FFF0ECB6FC951D5
:10126000CC6FCD6BCA51CC27CB51CD23CD510AE1E8
:101270001A0ECC5DD8A03FEF09F042EF09F0010E45
:1012800043EF09F0000E01015C6F5D6B5C515D1175
:10129000D8B44DEF09F04FEF09F060EF09F0000E00
:1012A0008A250001806F020E01018B210001816FF0
:1012B0007A0E826F100E836F45EC2EF0FDEF08F072
:1012C000000E8A250001806F020E01018B210001B2
:1012D000816F820E826F100E836F45EC2EF0FDEF52
:1012E00008F0000E01018C6F000E8D6F800E8E6F66
:1012F0003F0E8F6F000E896F000E886F84C180F0E3
:1013000085C181F086C182F087C183F0000E0001A3
:10131000846F000E856F000E866F000E876FA0EC45
:1013200029F00001D8B097EF09F099EF09F01FEF0D
:101330000AF0B8EF09F08CC180F08DC181F08EC148
:1013400082F08FC183F0000E846F000E856F200E37
:10135000866F410E876F22EC13F080C08CF181C044
:101360008DF182C08EF183C08FF10101884B892BF2
:1013700084C199F085C19AF086C19BF087C19CF029
:10138000000E0001846F000E856F200E866F410EE7
:10139000876F8CC180F08DC181F08EC182F08FC1CA
:1013A00083F022EC13F080C09DF081C09EF082C0DB
:1013B0009FF083C0A0F025EC23F00001D8B0E3EF4C
:1013C00009F0E5EF09F09BEF09F005EF0AF08CC199
:1013D00092F08DC193F08EC194F08FC195F0000E04
:1013E000966F000E976F200E986F410E996F14EC58
:1013F00017F092C08CF193C08DF194C08EF195C01E
:101400008FF101018807D8A0890784C199F085C1AF
:101410009AF086C19BF087C19CF08CC19DF08DC174
:101420009EF08EC19FF08FC1A0F025EC23F000014B
:10143000D8A01DEF0AF01FEF0AF0E7EF09F0C9C0CE
:1014400084F0856BB2EC2DF0000184510101796FBD
:1014500079C178F1670E7919D8A431EF0AF033EF2A
:101460000AF059EF0AF02F503010D8A43AEF0AF0E2
:101470003CEF0AF040EF0AF0000E306E010E2F6EC6
:1014800030BE4DEF0AF0305006E12F04D8B04BEFDC
:101490000AF04DEF0AF053EF0AF0000E756F060EDA
:1014A000746F62EF0AF02FC074F130C075F162EF13
:1014B0000AF030BE5EEF0AF060EF0AF04DEF0AF07E
:1014C00053EF0AF0670E7919D8A469EF0AF06BEFB1
:1014D0000AF0A1EF0AF089AF79EF0AF0FC0E885DFF
:1014E000FF0E8959D8A077EF0AF079EF0AF09EEF46
:1014F0000AF0FF0E0001CA6FFF0ECB6F74C1CCF073
:1015000075C1CDF0CA51CC27CB51CD2301018851F3
:101510000001CC5DCD51800ACE6F01018951800A56
:101520000001CE59D8A097EF0AF099EF0AF09EEF8C
:101530000AF0660E0101786FA1EF0AF0650E010155
:10154000786F74C16AF175C16BF1670E7919D8A40F
:10155000ACEF0AF0AEEF0AF0BEEF0AF0660E7819B3
:10156000D8A4B5EF0AF0B7EF0AF0C0EF0AF089BFD0
:10157000BEEF0AF0BCEF0AF0C0EF0AF06A4B6B2B2B
:10158000660E7819D8A4C7EF0AF0C9EF0AF0E9EFA0
:101590000AF089BFD0EF0AF0CEEF0AF0DCEF0AF0D4
:1015A000000E8C6F000E8D6F800E8E6F3F0E8F6F52
:1015B000000E896F000E886F670E7919D8B4E3EFBB
:1015C0000AF0E5EF0AF0E9EF0AF088516A2789513D
:1015D0006B23000E836F000E826F84C17AF185C188
:1015E0007BF186C17CF187C17DF18CC16CF18DC12D
:1015F0006DF18EC16EF18FC16FF17BEF0BF07AC18F
:1016000092F07BC193F07CC194F07DC195F08CC1C8
:1016100096F08DC197F08EC198F08FC199F014ECBF
:1016200017F092C0ABF093C0ACF094C0ADF095C091
:10163000AEF054EC1AF0ABC07EF1ACC07FF1ADC09F
:1016400080F1AEC081F17EC180F07FC181F080C1A8
:1016500082F081C183F0A1EC22F080C070F181C0E2
:1016600071F17AC1BBF07BC1BCF07CC1BDF07DC122
:10167000BEF08CC184F08DC185F08EC186F08FC123
:1016800087F07EC180F07FC181F080C182F081C18E
:1016900083F022EC13F080C0BFF081C0C0F082C0A4
:1016A000C1F083C0C2F0BDEC2FF0BBC07AF1BCC06A
:1016B0007BF1BDC07CF1BEC07DF18CC192F08DC1CB
:1016C00093F08EC194F08FC195F0000E0001966FDB
:1016D000000E976F200E986F410E996F14EC17F063
:1016E00092C08CF193C08DF194C08EF195C08FF1B2
:1016F0000101824B832B6A51825D8351800A000174
:10170000CA6F01016B51800A0001CA59D8A08BEF42
:101710000BF08DEF0BF0FFEF0AF08CC180F08DC164
:1017200081F08EC182F08FC183F0000E846F000EB5
:10173000856FA00E866F400E876F22EC13F080C07D
:101740007EF181C07FF182C080F183C081F17AC1D6
:1017500099F07BC19AF07CC19BF07DC19CF07EC169
:101760009DF07FC19EF080C19FF081C1A0F025EC6B
:1017700023F00001D8B0BFEF0BF0C1EF0BF0CCEFBE
:101780000BF0000E01017E6F000E7F6F000E806F68
:10179000000E816FF6EF0BF07AC180F07BC181F013
:1017A0007CC182F07DC183F07EC184F07FC185F071
:1017B00080C186F081C187F0A0EC29F00001D8A09B
:1017C000E4EF0BF0E6EF0BF0F6EF0BF0010170B178
:1017D000ECEF0BF0EEEF0BF0F6EF0BF0000E7E6F80
:1017E000000E7F6F000E806F000E816F84C1ABF022
:1017F00085C1ACF086C1ADF087C1AEF07EC1AFF05F
:101800007FC1B0F080C1B1F081C1B2F0ABEC0EF09D
:10181000ABC07AF1ACC07BF1ADC07CF1AEC07DF164
:101820007AC199F07BC19AF07CC19BF07DC19CF09C
:10183000000E0001846F000E856F200E866F410E32
:10184000876F6CC180F06DC181F06EC182F06FC195
:1018500083F022EC13F080C09DF081C09EF082C026
:101860009FF083C0A0F025EC23F00001D8A03BEF4F
:101870000CF03DEF0CF067EF0CF00101884B892B69
:101880006CC180F06DC181F06EC182F06FC183F0D8
:10189000000E0001846F000E856F200E866F410ED2
:1018A000876F22EC13F080C06CF181C06DF182C0B3
:1018B0006EF183C06FF1660E01017819D8A463EF51
:1018C0000CF065EF0CF067EF0CF06A4B6B2B6CC102
:1018D0008CF16DC18DF16EC18EF16FC18FF1650E0E
:1018E00001017819D8B477EF0CF079EF0CF07FEFA5
:1018F0000CF088C168F189C169F183EF0CF0000E2A
:10190000696F000E686F000E676F000E666F000E45
:10191000656F000E646F000E836F000E826F80EFA4
:101920000DF07AC192F07BC193F07CC194F07DC13F
:1019300095F08CC196F08DC197F08EC198F08FC153
:1019400099F014EC17F092C0ABF093C0ACF094C0D7
:10195000ADF095C0AEF054EC1AF0ABC07EF1ACC067
:101960007FF1ADC080F1AEC081F17EC180F07FC15A
:1019700081F080C182F081C183F0A1EC22F080C0AF
:1019800070F181C071F131B8C8EF0CF0CAEF0CF002
:10199000E8EF0CF0010170517111D8A4D2EF0CF0F6
:1019A000D4EF0CF0E8EF0CF0670E7919D8A4DBEF58
:1019B0000CF0DDEF0CF0E8EF0CF069BFE4EF0CF099
:1019C000E2EF0CF0E8EF0CF0644B652B33EF0DF019
:1019D000010166516711D8A4F0EF0CF0F2EF0CF0A2
:1019E0001CEF0DF069BFF9EF0CF0F7EF0CF01CEFF6
:1019F0000DF0000E8A25D96E020E8B21DA6E2E0EA6
:101A0000DF6E8A4B8B2B7607D8A07707000E676FA7
:101A1000010E666F1CEF0DF0000E8A25D96E020EC6
:101A20008B21DA6E300EDF6E8A4B8B2B7607D8A0B7
:101A300077076407D8A0650764516511D8A423EF20
:101A40000DF025EF0DF00CEF0DF0000E8A25D96E8C
:101A5000020E8B21DA6E7051300FDF6E8A4B8B2BAA
:101A60007607D8A077077AC1BBF07BC1BCF07CC1F8
:101A7000BDF07DC1BEF08CC184F08DC185F08EC1FA
:101A800086F08FC187F07EC180F07FC181F080C178
:101A900082F081C183F022EC13F080C0BFF081C0DE
:101AA000C0F082C0C1F083C0C2F0BDEC2FF0BBC05B
:101AB0007AF1BCC07BF1BDC07CF1BEC07DF18CC1B0
:101AC00092F08DC193F08EC194F08FC195F0000E0D
:101AD0000001966F000E976F200E986F410E996F60
:101AE00014EC17F092C08CF193C08DF194C08EF17C
:101AF00095C08FF101016807D8A06907824B832B3D
:101B00006A51825D8351800A0001CA6F01016B51E5
:101B1000800A0001CA59D8B090EF0DF092EF0DF095
:101B2000A1EF0DF001018BBF9FEF0DF08B5109E18B
:101B30004B0E8A5DD8A09FEF0DF0A1EF0DF091EF55
:101B40000CF0010166516711D8A4A9EF0DF0ABEFBD
:101B50000DF0BCEF0DF031A8B0EF0DF0B2EF0DF0CD
:101B6000BCEF0DF0000E8A25D96E020E8B21DA6EC5
:101B70002E0EDF6E8A4B8B2B000E8A25D96E020E3D
:101B80008B21DA6E000EDF6E650E7819D8A4CBEFCC
:101B90000DF0CDEF0DF002EF09F0000E836F4F0E48
:101BA000826F000E8225D96E020E8321DA6E000E3E
:101BB000DF6E000E736F000E726F89BFE4EF0DF0E1
:101BC000E2EF0DF0ECEF0DF0000E736F010E726F8F
:101BD000886D891FD8B0892B000E756F020E746F47
:101BE0001FEF0EF08207D8A08307000E8225D96E62
:101BF000020E8321DA6E88C180F089C181F0000E67
:101C00000001836F0A0E826F3FEC28F000018051C3
:101C1000300FDF6E88C180F089C181F0000E836FC4
:101C20000A0E826F25EC27F080C088F181C089F10F
:101C300001017407D8A075077607D8A077078851E7
:101C40008911D8A426EF0EF028EF0EF0F2EF0DF078
:101C500075BF35EF0EF0755106E17405D8B033EF5E
:101C60000EF035EF0EF0F2EF0DF08207D8A08307EB
:101C700072517311D8A43FEF0EF041EF0EF047EF11
:101C80000EF0000E5F6F2B0E5E6F4BEF0EF0000E2E
:101C90005F6F2D0E5E6F000E8225D96E020E8321BE
:101CA000DA6E5EC1DFFF7607D8A077078207D8A07B
:101CB0008307BF0E0001CA6FFF0ECB6FC951CC6FF7
:101CC000CD6BCA51CC27CB51CD23CD510AE11A0E91
:101CD000CC5DD8A06EEF0EF071EF0EF0010E72EF3A
:101CE0000EF0000E0101626F636B62516311D8A4A4
:101CF0007CEF0EF07EEF0EF084EF0EF0000E616FC1
:101D0000650E606F88EF0EF0000E616F450E606F1C
:101D1000000E8225D96E020E8321DA6E60C1DFFFCC
:101D20007607D8A07707000E8A250001806F020E83
:101D300001018B210001816F000E0101822500014C
:101D4000826F020E010183210001836F45EC2EF0AA
:101D500002EF09F012000001AE51800BB76FAE51D7
:101D6000AE25B96FADAFB7EF0EF0B9EF0EF0BAEF29
:101D70000EF0B981B951D8B4C0EF0EF0C2EF0EF039
:101D8000D7EF0EF0B929D8A4C8EF0EF0CAEF0EF0C5
:101D9000D2EF0EF0000EAB6F000EAC6F000EAD6F09
:101DA000000EAE6FAD8F000EAE6FDFEF0EF0000EC7
:101DB000AB6F000EAC6F000EAD6F000EAE6FB25188
:101DC000800BB86FB751B819D8B4E9EF0EF0EBEF4C
:101DD0000EF0ECEF0EF0B78DB251B225B86FB1AF87
:101DE000F4EF0EF0F6EF0EF0F7EF0EF0B881B85109
:101DF000D8B4FDEF0EF0FFEF0EF014EF0FF0B8299E
:101E0000D8A405EF0FF007EF0FF00FEF0FF0000E63
:101E1000AF6F000EB06F000EB16F000EB26FB18FDA
:101E2000000EB26F1CEF0FF0000EAF6F000EB06F20
:101E3000000EB16F000EB26FB951B85DD8B023EF8C
:101E40000FF025EF0FF04CEF0FF0B7AD2AEF0FF0CA
:101E50002CEF0FF02EEF0FF0800EB71BB9C0BAF0C9
:101E6000B8C0B9F0BAC0B8F0ABC0BAF0AFC0ABF010
:101E7000BAC0AFF0ACC0BAF0B0C0ACF0BAC0B0F00D
:101E8000ADC0BAF0B1C0ADF0BAC0B1F0AEC0BAF0FA
:101E9000B2C0AEF0BAC0B2F0000EBA6FB951B8C05D
:101EA000B3F0B46BB35F000EB45BB4BF61EF0FF07F
:101EB000B45109E11A0EB35DD8A061EF0FF063EFE2
:101EC0000FF09AEF0FF0AB51AC11AD11AE11D8A4D9
:101ED0006CEF0FF06FEF0FF0010E70EF0FF0000ED0
:101EE000BA6F000EAB6F000EAC6F000EAD6F000E40
:101EF000AE6FB8C0B9F0A3EF0FF0BAA182EF0FF048
:101F000084EF0FF08AEF0FF0D890BA310109BA6F61
:101F10008CEF0FF0D890BA33ABA191EF0FF093EFA5
:101F20000FF094EF0FF0BA8FAE35AE33AD33AC3364
:101F3000AB33B92BB851B95DD8A0A1EF0FF0A3EF27
:101F40000FF07DEF0FF0B7BDA8EF0FF0AAEF0FF085
:101F5000EAEF0FF0B951D8A4B0EF0FF0B2EF0FF0E5
:101F6000BCEF0FF0000EAB6F000EAC6F000EAD6F4C
:101F7000000EAE6F0BEF11F0AF51AB27B051AC2399
:101F8000B151AD23B251AE23AEA1C9EF0FF0CBEFEB
:101F90000FF077EF10F0BAA1D0EF0FF0D2EF0FF003
:101FA000D8EF0FF0D890BA310109BA6FDAEF0FF01D
:101FB000D890BA33ABA1DFEF0FF0E1EF0FF0E2EF13
:101FC0000FF0BA8FAE35AE33AD33AC33AB33B92B84
:101FD00077EF10F0AF51AB5DB051AC59B151AD5985
:101FE000AE51800AB36FB251800AB359D8B0FBEF3B
:101FF0000FF0FDEF0FF028EF10F0AB51AF5DB36FB6
:10200000AC51B059B46FAD51B159B56FAE51B25971
:10201000B66FFF0EB325AB6FFF0EB421AC6FFF0E92
:10202000B521AD6FFF0EB621AE6F800EB71BBA6D36
:10203000BA51D8A41EEF10F020EF10F030EF10F0DE
:10204000010EAB27000EAC23AD23AE2330EF10F012
:10205000AF51AB5FB051AC5BB151AD5BB251AE5B58
:10206000AB51AC11AD11AE11D8A439EF10F03BEF6C
:1020700010F070EF10F0BA51D8A441EF10F043EF18
:1020800010F070EF10F0000EAB6F000EAC6F000E92
:10209000AD6F000EAE6F0BEF11F0D890AB37AC37D1
:1020A000AD37AE37BAAF57EF10F059EF10F05AEF27
:1020B00010F0AB81BAA15FEF10F061EF10F065EFA7
:1020C00010F0D880BA3767EF10F0D890BA37B9510E
:1020D000D8B46DEF10F06FEF10F070EF10F0B9079B
:1020E000ADAF75EF10F077EF10F04DEF10F0000E80
:1020F000B86FBAAF7EEF10F080EF10F098EF10F0ED
:10210000BAC0B3F07F0EB317D8B489EF10F08BEFDD
:1021100010F08FEF10F0010EB86F98EF10F0ABA138
:1021200094EF10F096EF10F098EF10F08BEF10F0A6
:10213000B851D8B49EEF10F0A0EF10F0CBEF10F034
:10214000010EAB27000EAC23AD23AE23AEA1ABEF47
:1021500010F0ADEF10F0CBEF10F0ABC0B3F0ACC0AF
:10216000B4F0ADC0B5F0AEC0B6F0B635B633B533E9
:10217000B433B333B3C0ABF0B4C0ACF0B5C0ADF062
:10218000B6C0AEF0B929D8B4C8EF10F0CAEF10F05D
:10219000CBEF10F0B92BB929D8B4D1EF10F0D3EFB1
:1021A00010F0DBEF10F0B951D8A4D9EF10F0DBEF4D
:1021B00010F0EDEF10F0000EAB6F000EAC6F000EE4
:1021C000AD6F000EAE6FB951D8A4E9EF10F0EBEF90
:1021D00010F0EDEF10F0000EB76FB9A1F2EF10F0B4
:1021E000F4EF10F0F7EF10F0AD8FF8EF10F0AD9FB7
:1021F000D890B931AE6FB7AF00EF11F002EF11F028
:1022000003EF11F0AE8FABC0ABF0ACC0ACF0ADC023
:10221000ADF0AEC0AEF01200D1C0D9FFD2C0DAFF2F
:10222000DECFF6FFDDCFF7FFF86A0800F550250A8C
:10223000D8A41DEF11F01FEF11F004EF13F0D1C07F
:10224000D9FFD2C0DAFFDE2A000EDD22000E2E6E8C
:10225000000E2D6E2DC031F02EC032F02F68306888
:10226000D1C0D9FFD2C0DAFFDECFF6FFDDCFF7FF56
:10227000F86A0800F5500001846F856BB2EC2DF010
:1022800000018451E76FE751D8B449EF11F04BEFEB
:1022900011F087EF11F0D1C0D9FFD2C0DAFFDECF45
:1022A000D5F0DDCFD6F0010ED527000ED623D5C050
:1022B000F6FFD6C0F7FFF86A0800F550846F856B0B
:1022C000B2EC2DF000018451E86FE851D8B46BEF07
:1022D00011F06DEF11F087EF11F0D1C0D9FFD2C02E
:1022E000DAFFDECFD5F0DDCFD6F0020ED527000E17
:1022F000D623D5C0F6FFD6C0F7FFF86A0800F55020
:10230000846F856BB2EC2DF000018451E96FD1C070
:10231000D9FFD2C0DAFFDECFF6FFDDCFF7FFF86AD4
:102320000800F550640AD8B498EF11F09AEF11F054
:10233000ADEF11F0D1C0D9FFD2C0DAFFDECFF6FF8A
:10234000DDCFF7FFF86A0800F550690AD8A4ABEFB3
:1023500011F0ADEF11F0EDEF11F0D1C0D9FFD2C007
:10236000DAFFDE2A000EDD22D3C0D9FFD4C0DAFFA7
:10237000DFCFD5F0020EDE26DFCFD6F0000EDD2255
:10238000D5C0D9FFD6C0DAFFDECFD9F0DDCFDAF085
:10239000000EDABFFF0EDB6FDC6FDD6FDE6FDF6F0D
:1023A000E06FCFC09AF0D0C09BF0D9C09CF0DAC0EB
:1023B0009DF0DBC09EF0DCC09FF0DDC0A0F0DEC071
:1023C000A1F0DFC0A2F0E0C0A3F0E2EC18F09AC0E8
:1023D000CFF09BC0D0F021EF13F0660EE719D8A420
:1023E000F4EF11F0F6EF11F037EF12F0D1C0D9FF92
:1023F000D2C0DAFFDECFF6FFDDCFF7FFF86A0800C4
:10240000F5CFEAF0D1C0D9FFD2C0DAFFDE2A000E44
:10241000DD22D3C0D9FFD4C0DAFFDFCFD5F0040E60
:10242000DE26DFCFD6F0000EDD22D5C0D9FFD6C024
:10243000DAFFDECFE3F0DECFE4F0DECFE5F0DECF93
:10244000E6F0CFC0C3F0D0C0C4F0E3C0C5F0E4C034
:10245000C6F0E5C0C7F0E6C0C8F0EAC0C9F048EC75
:1024600008F0C3C0CFF0C4C0D0F021EF13F0E70EE6
:10247000806F000E816F860E826F100E836F000ECC
:10248000856F020E846F7EEC25F000018051811172
:10249000D8A44DEF12F04FEF12F0CCEF12F0D1C0F4
:1024A000D9FFD2C0DAFFDECFD5F0DDCFD6F0010EF6
:1024B000D527000ED623D5C0F6FFD6C0F7FFF86AA1
:1024C0000800F5CFEAF0BF0ED56FFF0ED66FD1C072
:1024D000D9FFD2C0DAFFDECFF6FFDDCFF7FFF86A13
:1024E0000800F550D76FD86BD551D727D651D823D0
:1024F000D8510AE11A0ED75DD8A081EF12F084EF0F
:1025000012F0010E85EF12F0000EE16FE26BE15167
:10251000E211D8B48EEF12F090EF12F0AAEF12F0A1
:10252000D3C0D9FFD4C0DAFFDFCFD5F0040EDE264A
:10253000DFCFD6F0000EDD22D5C0D9FFD6C0DAFF3E
:10254000DECFE3F0DECFE4F0DECFE5F0DECFE6F085
:10255000C2EF12F0D3C0D9FFD4C0DAFFDFCFD5F07D
:10256000040EDE26DFCFD6F0000EDD22D5C0D9FF67
:10257000D6C0DAFFDECFE3F0DECFE4F0DECFE5F069
:10258000DECFE6F0020ED1C0D9FFD2C0DAFFDE26E0
:10259000000EDD2221EF12F0D1C0D9FFD2C0DAFF48
:1025A000DECFF6FFDDCFF7FFF86A0800F550250A09
:1025B000D8A4DDEF12F0DFEF12F0F7EF12F0D1C088
:1025C000D9FFD2C0DAFFDE2A000EDD22000E816FB5
:1025D000250E806FCFC082F0D0C083F05BEC26F078
:1025E000000E0001D06F010ECF6F21EF13F0D1C0AC
:1025F000D9FFD2C0DAFFDE2A000EDD22000ED06F36
:10260000000ECF6F21EF13F0D1C0D9FFD2C0DAFF97
:10261000DECFF6FFDDCFF7FFF86A0800F5500001C6
:10262000806F816BCFC082F0D0C083F05BEC26F06E
:10263000D1C0D9FFD2C0DAFFDE2A000EDD22F0EFD2
:1026400012F0120000018351800B8C6F835183259F
:10265000926F82AF2EEF13F030EF13F031EF13F0E3
:1026600092819251D8B437EF13F039EF13F04CEF59
:1026700013F09229D8A43FEF13F041EF13F049EF84
:1026800013F0000E806F000E816F000E826F000E3F
:10269000836F828F54EF13F0000E806F000E816FF6
:1026A000000E826F000E836F8751800B8C1B875149
:1026B00087258D6F86AF5FEF13F061EF13F062EF48
:1026C00013F08D818D51D8B468EF13F06AEF13F0D9
:1026D0007DEF13F08D29D8A470EF13F072EF13F093
:1026E0007AEF13F0000E846F000E856F000E866F78
:1026F000000E876F868F85EF13F0000E846F000E3B
:10270000856F000E866F000E876F8D51D8B48BEFEA
:1027100013F08DEF13F095EF13F09251D8A493EFCF
:1027200013F095EF13F09FEF13F0000E806F000E83
:10273000816F000E826F000E836F37EF15F08651A8
:102740008003F3CF97F0F4CF98F097518E6F8F6B93
:10275000906B916B9851936F946B956B966B8551C1
:102760008103F3CF97F0F4CF98F097518E27000EA6
:102770008F239023912398519327000E9423952320
:10278000962384518203F3CF97F0F4CF98F09751BA
:102790008E27000E8F239023912398519327000EAC
:1027A00094239523962390C091F08FC090F08EC013
:1027B0008FF08E6B84518103F3CF97F0F4CF98F0B4
:1027C00097518E2798518F23000E9023000E91234E
:1027D00085518003F3CF97F0F4CF98F097518E276F
:1027E00098518F23000E9023000E912390C091F0FA
:1027F0008FC090F08EC08FF08E6B84518003F3CF2A
:1028000097F0F4CF98F097518E2798518F23000EB0
:102810009023000E912386518103F3CF97F0F4CFDC
:1028200098F09751932798519423000E9523000E0A
:10283000962385518203F3CF97F0F4CF98F0975108
:10284000932798519423000E9523000E96238651CA
:102850008203F3CF97F0F4CF98F09751886F985197
:10286000896F8A6B8B6B8AC08BF089C08AF088C0B5
:1028700089F0886B88519327895194238A51952335
:102880008B5196238EC088F08FC089F090C08AF05B
:1028900091C08BF0190E52EF14F0D8908B338A331D
:1028A00089338833E82E4DEF14F0885193278951EE
:1028B00094238A5195238B51962390C091F08FC019
:1028C00090F08EC08FF08E6B8D5192C088F0896B26
:1028D0008827000E8923820E8825976FFF0E892195
:1028E000986F88EF14F0D8909337943795379637D0
:1028F00091AF7DEF14F07FEF14F080EF14F093812F
:10290000D8908E378F37903791379707D8A0980790
:1029100095AF8DEF14F08FEF14F073EF14F0000EFD
:102920008D6F91AF96EF14F098EF14F0BCEF14F0A8
:10293000FF0E8E15886FFF0E8F15896FFF0E901595
:102940008A6F7F0E91158B6F885189118A118B11B7
:10295000D8B4ADEF14F0AFEF14F0B3EF14F0010EF4
:102960008D6FBCEF14F093A1B8EF14F0BAEF14F030
:10297000BCEF14F0AFEF14F08D51D8B4C2EF14F0E7
:10298000C4EF14F0E8EF14F0010E9327000E942327
:102990009523962396A1CFEF14F0D1EF14F0E8EF32
:1029A00014F093C088F094C089F095C08AF096C066
:1029B0008BF08B358B338A338933883388C093F01F
:1029C00089C094F08AC095F08BC096F0974B982BF5
:1029D00098BFF3EF14F0985108E19729D8A0F3EFCE
:1029E00014F0F5EF14F0FFEF14F0000E936F000EEB
:1029F000946F800E956F7F0E966F2DEF15F098BF38
:102A00000CEF15F0985106E19705D8B00AEF15F0D4
:102A10000CEF15F018EF15F0000E936F000E946F89
:102A2000000E956F000E966F000E8C6F2DEF15F057
:102A300097C092F0FF0E9317FF0E94177F0E951715
:102A4000000E961792A127EF15F029EF15F02AEF47
:102A500015F0958FD8909231966F8C51961393C044
:102A600080F094C081F095C082F096C083F012008F
:102A7000010E0001BF6FBB51BC11D8A442EF15F08D
:102A800044EF15F048EF15F0000EBF6F12EF17F08E
:102A9000000EC06F000EC16F000EC26F000EC36F3C
:102AA000CEEF16F0AC94B896BBC0D9FFBCC0DAFF2D
:102AB000DECFBDF0DDCFBEF0BDC084F0BEC085F07E
:102AC000866B876B000E64EC1CF084C096F085C0AA
:102AD00097F086C098F087C099F0000E0001926FC1
:102AE0001B0E936FB70E946F4B0E956F14EC17F08F
:102AF00092C0C4F093C0C5F094C0C6F095C0C7F0B2
:102B0000000E0001966F000E976F800E986F420EB8
:102B1000996FC4C092F0C5C093F0C6C094F0C7C00E
:102B200095F014EC17F092C0ABF093C0ACF094C0E9
:102B3000ADF095C0AEF0000E0001AF6F000EB06FAB
:102B4000800EB16FBF0EB26FABEC0EF0ABC0C0F039
:102B5000ACC0C1F0ADC0C2F0AEC0C3F0F1EF16F032
:102B6000AC84B896BBC0D9FFBCC0DAFFDECFBDF0E5
:102B7000DDCFBEF0BDC084F0BEC085F0866B876B34
:102B8000000E64EC1CF084C096F085C097F086C0FF
:102B900098F087C099F0000E0001926F1B0E936FA2
:102BA000B70E946F4B0E956F14EC17F092C0C4F0F3
:102BB00093C0C5F094C0C6F095C0C7F0000E0001E8
:102BC000966F000E976F800E986F410E996FC4C07C
:102BD00092F0C5C093F0C6C094F0C7C095F014EC55
:102BE00017F092C0ABF093C0ACF094C0ADF095C0BC
:102BF000AEF0000E0001AF6F000EB06F800EB16F2F
:102C0000BF0EB26FABEC0EF0ABC0C0F0ACC0C1F009
:102C1000ADC0C2F0AEC0C3F0F1EF16F0AC94B88610
:102C2000BBC0D9FFBCC0DAFFDECFBDF0DDCFBEF048
:102C3000BDC084F0BEC085F0866B876B000E64EC6F
:102C40001CF084C096F085C097F086C098F087C0CD
:102C500099F0000E0001926F1B0E936FB70E946FE8
:102C60004B0E956F14EC17F092C0C4F093C0C5F0F2
:102C700094C0C6F095C0C7F0000E0001966F000E1C
:102C8000976F800E986F410E996FC4C092F0C5C0C7
:102C900093F0C6C094F0C7C095F014EC17F092C042
:102CA000ABF093C0ACF094C0ADF095C0AEF0000EA8
:102CB0000001AF6F000EB06F800EB16FBF0EB26F2C
:102CC000ABEC0EF0ABC0C0F0ACC0C1F0ADC0C2F018
:102CD000AEC0C3F0F1EF16F0AC84B886BBC0D9FF2C
:102CE000BCC0DAFFDECFBDF0DDCFBEF0BDC084F0EA
:102CF000BEC085F0866B876B000E64EC1CF084C050
:102D000096F085C097F086C098F087C099F0000EC5
:102D10000001926F1B0E936FB70E946F4B0E956F61
:102D200014EC17F092C0C4F093C0C5F094C0C6F084
:102D300095C0C7F0000E0001966F000E976F800ED1
:102D4000986F400E996FC4C092F0C5C093F0C6C092
:102D500094F0C7C095F014EC17F092C0ABF093C09C
:102D6000ACF094C0ADF095C0AEF0000E0001AF6FB6
:102D7000000EB06F800EB16FBF0EB26FABEC0EF0F5
:102D8000ABC0C0F0ACC0C1F0ADC0C2F0AEC0C3F0CB
:102D9000F1EF16F0000EBF6FF1EF16F020EE0BF022
:102DA000BB51D926BC51DA22DF50BD6FBE6BBE517C
:102DB000000AD8B4DEEF16F0CAEF16F0BD51000AD3
:102DC000D8B452EF15F0010AD8B4B0EF15F0030AE9
:102DD000D8B40EEF16F0010AD8B46CEF16F0CAEFB3
:102DE00016F0C0C080F0C1C081F0C2C082F0C3C084
:102DF00083F0A1EC22F000018051AF6EC0C080F0E2
:102E0000C1C081F0C2C082F0C3C083F0A1EC22F047
:102E1000000181C080F082C081F083C082F0836BAA
:102E20008051B06EBF51120000019551800BA26F0E
:102E300095519525A96F94AF20EF17F022EF17F069
:102E400023EF17F0A981A951D8B429EF17F02BEF80
:102E500017F040EF17F0A929D8A431EF17F033EF9E
:102E600017F03BEF17F0000E926F000E936F000EFD
:102E7000946F000E956F948F000E956F48EF17F0CA
:102E8000000E926F000E936F000E946F000E956F00
:102E90009951800BA21B99519925AA6F98AF53EFB6
:102EA00017F055EF17F056EF17F0AA81AA51D8B4D2
:102EB0005CEF17F05EEF17F073EF17F0AA29D8A4B4
:102EC00064EF17F066EF17F06EEF17F0000E966FD5
:102ED000000E976F000E986F000E996F988F000E7E
:102EE000996F7BEF17F0000E966F000E976F000E34
:102EF000986F000E996F9651971198119911D8A457
:102F000084EF17F086EF17F09EEF17F0000E926F28
:102F1000000E936F000E946F000E956F800E941349
:102F20007F0E9513A251951392C092F093C093F027
:102F300094C094F095C095F0E1EF18F0A951D8A491
:102F4000A4EF17F0A6EF17F0B0EF17F0000E926F96
:102F5000000E936F000E946F000E956FE1EF18F066
:102F6000AA51A9C09AF09B6B9A5F000E9B5B7F0EE3
:102F70009A25A36F000E9B21A46F92C09EF093C070
:102F80009FF094C0A0F095C0A1F0000E926F000ECB
:102F9000936F000E946F000E956F000EA56F000EDC
:102FA000A66F000EA76F000EA86F000EAA6F11EF9C
:102FB00018F0AA51D8B4DFEF17F0E1EF17F0F8EFEF
:102FC00017F0D8909E379F37A037A137D890923707
:102FD000933794379537A8AFF0EF17F0F2EF17F06B
:102FE000F3EF17F09281D890A537A637A737A83707
:102FF00096519E5D97519F599851A0599951A15949
:10300000D8A005EF18F007EF18F010EF18F0A88D12
:1030100096519E5F97519F5B9851A05B9951A15B20
:10302000AA2B190EAA6517EF18F019EF18F0D9EFAF
:1030300017F09E519F11A011A111D8B422EF18F0E2
:1030400024EF18F03CEF18F0A5813CEF18F0D89071
:103050009237933794379537A8AF31EF18F033EFA5
:1030600018F034EF18F09281D890A537A637A7371B
:10307000A837A307D8A0A40794AF41EF18F043EFF7
:1030800018F027EF18F0000EAA6FA8AF4AEF18F05B
:103090004CEF18F070EF18F0FF0EA5159A6FFF0EA9
:1030A000A6159B6FFF0EA7159C6F7F0EA8159D6F31
:1030B0009A519B119C119D11D8B461EF18F063EFE8
:1030C00018F067EF18F0010EAA6F70EF18F092A1D8
:1030D0006CEF18F06EEF18F070EF18F063EF18F067
:1030E000AA51D8B476EF18F078EF18F09CEF18F0EA
:1030F000010E9227000E93239423952395A183EF2D
:1031000018F085EF18F09CEF18F092C09AF093C079
:103110009BF094C09CF095C09DF09D359D339C33F1
:103120009B339A339AC092F09BC093F09CC094F06A
:103130009DC095F0A34BA42BA4BFA7EF18F0A451FA
:1031400008E1A329D8A0A7EF18F0A9EF18F0B4EF71
:1031500018F0000EA46FA369000E926F000E936F1B
:10316000000E946F000E956FA4BFC1EF18F0A4512C
:1031700006E1A305D8B0BFEF18F0C1EF18F0CFEF0C
:1031800018F0000EA46F000EA36F000E926F000ED9
:10319000936F000E946F000E956F000EA26FA3C088
:1031A000A9F0A9A1D6EF18F0D8EF18F0DBEF18F0CE
:1031B000948FDCEF18F0949FD890A931956F92EF1F
:1031C00017F012009CC0B4F09DC0B5F09EC0B6F0E0
:1031D0009FC0B7F0A0C0B8F0A1C0B9F0A2C0BAF0CB
:1031E000A3C0BBF00001BBBFF8EF18F0FBEF18F075
:1031F000010EFCEF18F0000EB26FB36BB251B311B9
:10320000D8B405EF19F007EF19F017EF19F0BB1F4D
:10321000BA1FB91FB81FB71FB61FB51FB46D000E78
:10322000B523B623B723B823B923BA23BB2330BEB3
:103230001CEF19F01EEF19F01FEF19F0319230BE9C
:103240002CEF19F0305006E12F04D8B02AEF19F016
:103250002CEF19F032EF19F0000EAF6F010EAE6FC8
:1032600036EF19F02FC0AEF030C0AFF02DC0B0F087
:103270002EC0B1F0B251B311D8A441EF19F043EF11
:1032800019F04AEF19F031A448EF19F04AEF19F09C
:103290004DEF19F0B007D8A0B107000EBD6F4F0E6B
:1032A000BC6F000E02014F6FD3EF19F0BC07D8A01E
:1032B000BD07000EBC25D96E020EBD21DA6EB4C06A
:1032C00080F0B5C081F0B6C082F0B7C083F0B8C05E
:1032D00084F0B9C085F0BAC086F0BBC087F00A0E92
:1032E000886F000E896F000E8A6F000E8B6F000EC4
:1032F0008C6F000E8D6F000E8E6F000E8F6F84EC42
:103300001FF080C0A4F081C0A5F082C0A6F083C0E9
:10331000A7F084C0A8F085C0A9F086C0AAF087C035
:10332000ABF0A4C090F0A6C091F04AEC30F00001E0
:103330009051300FDF6EAE07D8A0AF07B007D8A00E
:10334000B107B4C080F0B5C081F0B6C082F0B7C09C
:1033500083F0B8C084F0B9C085F0BAC086F0BBC0B5
:1033600087F00A0E886F000E896F000E8A6F000EBC
:103370008B6F000E8C6F000E8D6F000E8E6F000E27
:103380008F6F40EC1DF080C0B4F081C0B5F082C0FA
:10339000B6F083C0B7F084C0B8F085C0B9F086C07D
:1033A000BAF087C0BBF00001BDBFDFEF19F0BD511F
:1033B00008E1BC05D8A0DFEF19F0E1EF19F011EF3B
:1033C0001AF0B451B511B611B711B811B911BA113B
:1033D000BB11D8A4EEEF19F0F0EF19F056EF19F089
:1033E000AFBFFDEF19F0AF5106E1AE05D8B0FBEF6E
:1033F00019F0FDEF19F056EF19F0B1BF08EF1AF010
:10340000B15108E1B005D8A008EF1AF00AEF1AF0A0
:1034100011EF1AF031B20FEF1AF011EF1AF056EF68
:1034200019F0B251B311D8A418EF1AF01AEF1AF02C
:1034300021EF1AF031A41FEF1AF021EF1AF03FEF3D
:103440001AF0BC07D8A0BD07B251B311D8A42BEF16
:103450001AF02DEF1AF033EF1AF0000EAD6F2B0EAD
:10346000AC6F37EF1AF0000EAD6F2D0EAC6F000E83
:10347000BC25D96E020EBD21DA6EACC0DFFF9AC04A
:103480008DF09BC08EF0000EBC258F6F020EBD210B
:10349000906FB0C091F0B1C092F0C1EC26F08DC039
:1034A0009AF08EC09BF012000FC1BBF010C1BCF0AF
:1034B00011C1BDF012C1BEF0ABC0BBF0ACC0BCF0DE
:1034C000ADC0BDF0AEC0BEF0810E0001AF6FFF0E0B
:1034D000B06FBBC0B1F0BCC0B2F0BDC0B3F0BEC0F5
:1034E000B4F0180E79EF1AF0D890B433B333B23386
:1034F000B133E82E74EF1AF0B151AF25B96F000E59
:10350000B021BA6FBABF8EEF1AF0BA5109E1170EA7
:10351000B95DD8A08EEF1AF090EF1AF09AEF1AF07A
:10352000ABC0ABF0ACC0ACF0ADC0ADF0AEC0AEF077
:103530005EEF1BF0BABF9FEF1AF0A1EF1AF012EF87
:103540001BF0B9C0AFF0FF0EB06FFF0EB16F7F0E72
:10355000B26F000EB36FAF67B0EF1AF0B8EF1AF0AA
:10356000B335B333B233B133B033AF2FABEF1AF05F
:10357000B0C0B5F0B1C0B6F0B2C0B7F0B3C0B8F0EB
:103580000001B551BB15AF6FB651BC15B06FB75147
:10359000BD15B16FB851BE15B26FAF51B011B111B9
:1035A000B211D8A4D6EF1AF0D8EF1AF0DAEF1AF069
:1035B00090EF1AF0BBC0AFF0BCC0B0F0BDC0B1F02E
:1035C000BEC0B2F0200EEAEF1AF0D890B233B13399
:1035D000B033AF33E82EE5EF1AF0AF51B011B111AF
:1035E000B211D8B4F6EF1AF0F8EF1AF000EF1BF0B2
:1035F000B551BB27B651BC23B751BD23B851BE232B
:10360000B51DAF6FB61DB06FB71DB16FB81DB26FEE
:10361000AF51BB17B051BC17B151BD17B251BE1756
:1036200056EF1BF0BBC0AFF0BCC0B0F0BDC0B1F0F6
:10363000BEC0B2F0200E22EF1BF0D890B233B133EF
:10364000B033AF33E82E1DEF1BF0AF51B011B11105
:10365000B211D8A42EEF1BF030EF1BF03AEF1BF0A5
:10366000000EBB6F000EBC6F000EBD6F000EBE6F74
:1036700056EF1BF0D890BB35AF6FBC35B06FBD3582
:10368000B16FBE35B26FAF51B011B111B211D8B434
:103690004CEF1BF04EEF1BF056EF1BF0000EBB6F14
:1036A000000EBC6F800EBD6FBF0EBE6FBBC0ABF017
:1036B000BCC0ACF0BDC0ADF0BEC0AEF01200000E9C
:1036C000146E000E136E06500710D8B46AEF1BF08C
:1036D0006CEF1BF075EF1BF008500910D8A473EFC6
:1036E0001BF075EF1BF077EF1BF053EF1CF09EAA59
:1036F0007CEF1BF07EEF1BF075EF1BF020EE09F066
:103700000650D9260750DA22DFB889EF1BF08BEF7D
:103710001BF098EF1BF0AE500A6E0B6A08C0D9FF81
:1037200009C0DAFF0AC0DEFF0BC0DDFF53EF1CF05B
:1037300020EE09F00650D9260750DA22DFA8A3EFC1
:103740001BF0A5EF1BF053EF1CF020EE09F0065024
:10375000D9260750DA22DF30030B0009D8A4B3EFD3
:103760001BF0B5EF1BF0D7EF1BF0AECF13F0146AD0
:10377000ABB0BDEF1BF0BFEF1BF0C5EF1BF0000EB1
:103780000E6E000E0D6EC9EF1BF0010E0E6E000ED8
:103790000D6E0D5013260E50142208C0D9FF09C01B
:1037A000DAFF13C0DEFF14C0DDFF53EF1CF020EE84
:1037B00009F00650D9260750DA22DF30030BE8065D
:1037C000D8A4E5EF1BF0E7EF1BF01CEF1CF0AECF29
:1037D00013F0146AABB0EFEF1BF0F1EF1BF0F7EF53
:1037E0001BF0000E106E000E0F6EFBEF1BF0010EB3
:1037F000106E000E0F6E0F5013261050142213502F
:10380000E7EC2CF00A6E14500A18D8A40AEF1CF04A
:103810000CEF1CF053EF1CF0FF0E13140A6E000E99
:1038200014140B6E08C0D9FF09C0DAFF0AC0DEFF0E
:103830000BC0DDFF53EF1CF020EE09F00650D92637
:103840000750DA22DF30030B020AD8A42AEF1CF05B
:103850002CEF1CF053EF1CF0AECF13F0146AABB09A
:1038600034EF1CF036EF1CF03CEF1CF0000E126E33
:10387000000E116E40EF1CF0010E126E000E116E64
:1038800011501326125014221350B3EC2CF00A6E70
:1038900014500A18D8A44FEF1CF051EF1CF053EF4E
:1038A0001CF00CEF1CF0ABB258EF1CF05AEF1CF000
:1038B00061EF1CF0ABA45FEF1CF061EF1CF063EF55
:1038C0001CF0AB98AB88120000018C6F00018C518A
:1038D000D8B46DEF1CF06FEF1CF091EF1CF087BFB8
:1038E00076EF1CF074EF1CF091EF1CF084C088F0B0
:1038F00085C089F086C08AF087C08BF0881F891F39
:103900008A1F8B1F882B000E89238A238B2388C054
:103910008EF089C08FF08AC090F08BC091F099EF43
:103920001CF084C08EF085C08FF086C090F087C0F8
:1039300091F08451851186118711D8A4A2EF1CF053
:10394000A4EF1CF0AEEF1CF0000E846F000E856F2C
:10395000000E866F000E876F3FEF1DF0960E8D6F85
:10396000B8EF1CF08D2BD890913390338F338E337A
:10397000000E8E15886F000E8F15896F000E901542
:103980008A6FFE0E91158B6F885189118A118B11E8
:10399000D8A4CDEF1CF0CFEF1CF0B2EF1CF0DDEFA0
:1039A0001CF08D2B010E8E27000E8F239023912368
:1039B000D890913390338F338E33000E8E15886FED
:1039C000000E8F15896F000E90158A6FFF0E9115EE
:1039D0008B6F885189118A118B11D8A4F2EF1CF0DA
:1039E000F4EF1CF0D1EF1CF0FCEF1CF08D07D89029
:1039F0008E378F379037913790BF01EF1DF003EF6F
:103A00001DF00BEF1DF0020E8D6109EF1DF00BEFA5
:103A10001DF0F6EF1CF08DB110EF1DF012EF1DF050
:103A200013EF1DF0909FD8908D338DC088F0896B77
:103A30008A6B8B6B88C08BF08A6B896B886B885123
:103A40008E1389518F138A5190138B5191138C517E
:103A5000D8B42DEF1DF02FEF1DF037EF1DF087BF0D
:103A600036EF1DF034EF1DF037EF1DF0918F8EC053
:103A700084F08FC085F090C086F091C087F012006E
:103A8000000E0001916F8FBF4AEF1DF048EF1DF04F
:103A90005CEF1DF08F1F8E1F8D1F8C1F8B1F8A1FC9
:103AA000891F886D000E89238A238B238C238D2305
:103AB0008E238F23010E916F87BF63EF1DF061EF9F
:103AC0001DF075EF1DF0871F861F851F841F831F44
:103AD000821F811F806D000E812382238323842314
:103AE000852386238723010E911B20EE92F0070E7B
:103AF000DE6AE806FDE2885189118A118B118C116A
:103B00008D118E118F11D8B488EF1DF08AEF1DF042
:103B1000DCEF1DF0010E906F98EF1DF0D890883704
:103B200089378A378B378C378D378E378F37902B85
:103B30008FAF9DEF1DF09FEF1DF08EEF1DF0D89021
:103B40009237933794379537963797379837993711
:103B50008851805D895181598A5182598B5183598D
:103B60008C5184598D5185598E5186598F51875961
:103B7000D8A0BDEF1DF0BFEF1DF0D0EF1DF08851B4
:103B8000805F8951815B8A51825B8B51835B8C5151
:103B9000845B8D51855B8E51865B8F51875B9281F3
:103BA000D8908F338E338D338C338B338A33893374
:103BB0008833902F9FEF1DF09151D8B4E2EF1DF0A4
:103BC000E4EF1DF0F4EF1DF0991F981F971F961F4B
:103BD000951F941F931F926D000E9323942395239A
:103BE000962397239823992392C080F093C081F065
:103BF00094C082F095C083F096C084F097C085F0A1
:103C000098C086F099C087F01200F30E0001896F0A
:103C1000010E8A6F000E8B6F440E8C6F000E8D6F3D
:103C2000DBEC2AF044C080F045C081F0000E0001BA
:103C3000836F0D0E826F47EC31F0000180C084F07D
:103C400081C085F0866B876B000E64EC1CF084C02D
:103C500092F085C093F086C094F087C095F0000E76
:103C60000001966F000E976F800E986F440E996F4B
:103C700014EC17F092C017F193C018F194C019F129
:103C800095C01AF117C198F118C199F119C19AF1AB
:103C90001AC19BF14F0E01019C6F010E9D6F0DEC3F
:103CA00025F0E70E0001966F010E976F010E986FD9
:103CB000090E996F1D0E9A6F100E9B6F49EC29F03B
:103CC000E70E0001966F010E976F010E986F0A0EB6
:103CD000996F4F0E9A6F010E9B6F49EC29F017C137
:103CE00099F018C19AF019C19BF01AC19CF09A0E74
:103CF00000019D6F990E9E6F310E9F6F410EA06F58
:103D000025EC23F00001D8B088EF1EF08AEF1EF0FA
:103D1000B1EF1EF0E70E966F010E976F020E986FCF
:103D2000000E996F140E9A6F100E9B6F49EC29F0DC
:103D3000E70E0001966F010E976F020E986F030E4B
:103D4000996F540E9A6F100E9B6F49EC29F0530E29
:103D50002A6E000E2B6E010E2C6E76EC21F0C7EF52
:103D60001EF0E70E966F010E976F020E986F000E11
:103D7000996F140E9A6F100E9B6F49EC29F0530E39
:103D80002A6E000E2B6E000E2C6E76EC21F01200C7
:103D900080C088F081C089F0000184518511D8A4C9
:103DA000D4EF1EF0D6EF1EF0D8EF1EF083EF1FF019
:103DB00088C0D9FF89C0DAFF82C0DFFF845188251F
:103DC0002A6E855189212B6EFF0E2A24D96EFF0E93
:103DD0002B20DA6E82C0DFFF855107E1030E845D80
:103DE000D8B0F5EF1EF0F7EF1EF0F9EF1EF083EFFD
:103DF0001FF020EE01F08851D9268951DA2282C0C5
:103E0000DFFF20EE02F08851D9268951DA2282C0E4
:103E1000DFFF845188252A6E855189212B6EFE0E85
:103E20002A24D96EFF0E2B20DA6E82C0DFFF845168
:103E300088252A6E855189212B6EFD0E2A24D96E84
:103E4000FF0E2B20DA6E82C0DFFF855107E1070EDF
:103E5000845DD8B02EEF1FF030EF1FF032EF1FF06F
:103E600083EF1FF020EE03F08851D9268951DA2222
:103E700082C0DFFF845188252A6E855189212B6EEF
:103E8000FC0E2A24D96EFF0E2B20DA6E82C0DFFFD3
:103E9000855107E1090E845DD8B051EF1FF053EF53
:103EA0001FF055EF1FF083EF1FF088C02AF089C084
:103EB0002BF02A1E2B1E2A4A2B2A030E2A14866F49
:103EC000876B86518827875189238651845F875164
:103ED000855BFC0E8417FF0E85177AEF1FF088C0F4
:103EE000D9FF89C0DAFF82C0DFFF8407D8A0850729
:103EF000884B892B84518511D8A481EF1FF083EF63
:103F00001FF06FEF1FF01200000E2B6E000187BF35
:103F10008EEF1FF08CEF1FF0A0EF1FF0871F861FA2
:103F2000851F841F831F821F811F806D000E8123C8
:103F3000822383238423852386238723010E2B6EEC
:103F40008FBFA7EF1FF0A5EF1FF0B7EF1FF08F1F78
:103F50008E1F8D1F8C1F8B1F8A1F891F886D000E5F
:103F600089238A238B238C238D238E238F238851AF
:103F700089118A118B118C118D118E118F11D8B46A
:103F8000C4EF1FF0C6EF1FF00EEF20F0010E2A6EF7
:103F9000D4EF1FF0D890883789378A378B378C3722
:103FA0008D378E378F372A2A8FAFD9EF1FF0DBEF8F
:103FB0001FF0CAEF1FF08851805D895181598A51E5
:103FC00082598B5183598C5184598D5185598E5109
:103FD00086598F518759D8A0F0EF1FF0F2EF1FF0EC
:103FE00002EF20F08851805F8951815B8A51825BAA
:103FF0008B51835B8C51845B8D51855B8E51865BCD
:104000008F51875BD8908F338E338D338C338B33C6
:104010008A33893388332A2EDBEF1FF02B50D8B434
:1040200014EF20F016EF20F026EF20F0871F861FF8
:10403000851F841F831F821F811F806D000E8123B7
:1040400082238323842385238623872380C080F0D3
:1040500081C081F082C082F083C083F084C084F08C
:1040600085C085F086C086F087C087F01200010EFB
:104070002C6E2A502B10D8B440EF20F042EF20F0E5
:1040800052EF20F02AC0D9FF2BC0DAFFDF50070B18
:104090000001806F070E806550EF20F052EF20F096
:1040A000B7EF20F0000E2C6ED8EF20F02AC0D9FF19
:1040B0002BC0DAFFDF50070B806F010E816F802B62
:1040C00064EF20F0D8908137802F62EF20F000015C
:1040D0008151FF0A826F2AC0D9FF2BC0DAFFDF307F
:1040E000E832E832070B836F8351020DBD0EF324D3
:1040F000D96E010EF420DA6EDECF84F0DDCF85F0CC
:1041000084C0D9FF85C0DAFF8251DF16D8EF20F0D6
:104110002AC0D9FF2BC0DAFFDF50070B806F010EDA
:10412000816F802B96EF20F0D8908137802F94EF0D
:1041300020F02AC0D9FF2BC0DAFFDF30E832E832A6
:10414000070B0001826F8251020DBD0EF324D96E60
:10415000010EF420DA6EDECF83F0DDCF84F083C071
:10416000D9FF84C0DAFF8151DF12D8EF20F02AC0D6
:10417000D9FF2BC0DAFFDFBCC0EF20F0C3EF20F087
:10418000010EC4EF20F0000E806F816B8151000A98
:10419000D8B4CDEF20F052EF20F08051000AD8B40F
:1041A00056EF20F0010AD8B488EF20F052EF20F04B
:1041B0002C50120000018F519011D8A4E2EF20F092
:1041C000E4EF20F0E6EF20F075EF21F08FC087F0EC
:1041D00090C088F0FEEC2EF0010E00018F25876F55
:1041E000000E9021886FFEEC2EF0000E0001936F00
:1041F00093518F25916F000E9021926F020E9125A1
:10420000876F000E9221886FFEEC2EF00001932B39
:10421000030E93650EEF21F010EF21F0F8EF20F080
:104220009C0E0001916FD70EE82EFED7912FFCD780
:104230008FC08BF090C08CF0380E00018D6FD6ECE3
:104240002BF0270E0001916FF50EE82EFED7912F6F
:10425000FCD78FC08BF090C08CF0380E00018D6FB2
:10426000D6EC2BF0B40E00D0E82EFDD78FC08BF02B
:1042700090C08CF0380E00018D6FD6EC2BF08FC003
:104280008BF090C08CF0010E00018D6FD6EC2BF0FE
:104290008FC08BF090C08CF0020E00018D6FD6ECB9
:1042A0002BF08FC08BF090C08CF0060E00018D6F4C
:1042B000D6EC2BF08FC08BF090C08CF00D0E00016F
:1042C0008D6FD6EC2BF08FC08BF090C08CF0280E49
:1042D00000018D6FD6EC2BF08FC08BF090C08CF06E
:1042E000800E00018D6FD6EC2BF01200010E000144
:1042F000866F2A502B10D8B480EF21F082EF21F086
:1043000091EF21F02AC0D9FF2BC0DAFFDF50070B55
:10431000806F070E80658FEF21F091EF21F0F6EFAF
:1043200021F0000E866F0BEF22F02AC0D9FF2BC0C0
:10433000DAFFDF50070B806F010E816F802BA3EF38
:1043400021F0D8908137802FA1EF21F00001815119
:10435000FF0A826F2AC0D9FF2BC0DAFFDF30E832B4
:10436000E832070B836F8351020DB30EF324D96E2D
:10437000010EF420DA6EDECF84F0DDCF85F084C04C
:10438000D9FF85C0DAFF8251DF160BEF22F02AC079
:10439000D9FF2BC0DAFFDF50070B806F010E816F52
:1043A000802BD5EF21F0D8908137802FD3EF21F0EB
:1043B0002AC0D9FF2BC0DAFFDF30E832E832070B22
:1043C0000001826F8251020DB30EF324D96E010EEB
:1043D000F420DA6EDECF83F0DDCF84F083C0D9FF26
:1043E00084C0DAFF8151DF120BEF22F02C50806F76
:1043F000816B8151000AD8B400EF22F091EF21F0D7
:104400008051000AD8B495EF21F0010AD8B4C7EF63
:1044100021F091EF21F086511200010E0A6E015039
:104420000210D8B416EF22F018EF22F027EF22F096
:1044300001C0D9FF02C0DAFFDF50070B046E070E80
:10444000046425EF22F027EF22F08AEF22F0000E1D
:104450000A6E9FEF22F001C0D9FF02C0DAFFDF50E1
:10446000070B046E010E056E042A39EF22F0D89076
:104470000536042E37EF22F00550FF0A066E01C004
:10448000D9FF02C0DAFFDF30E832E832070B076EEF
:104490000750020DB30EF324D96E010EF420DA6E2C
:1044A000DECF08F0DDCF09F008C0D9FF09C0DAFF80
:1044B0000650DF169FEF22F001C0D9FF02C0DAFFDD
:1044C000DF50070B046E010E056E042A6AEF22F01E
:1044D000D8900536042E68EF22F001C0D9FF02C043
:1044E000DAFFDF30E832E832070B066E0650020DC5
:1044F000B30EF324D96E010EF420DA6EDECF07F08E
:10450000DDCF08F007C0D9FF08C0DAFF0550DF1281
:104510009FEF22F00350046E056A0550000AD8B4DC
:1045200094EF22F027EF22F00450000AD8B42BEFCA
:1045300022F0010AD8B45CEF22F027EF22F00A50F3
:1045400012000001823583352B6E2B50D8A4ABEFBF
:1045500022F0ADEF22F0B7EF22F0000E806F000ED8
:10456000816F000E826F000E836F24EF23F080C0F6
:1045700084F081C085F082C086F083C087F0200E71
:10458000C7EF22F0D8908733863385338433E82E03
:10459000C2EF22F084512A6E828FFF0E8017FF0E29
:1045A0008117FF0E8217000E8317960E2B5E2BBE0F
:1045B000DEEF22F0DCEF22F0F4EF22F02B50800A45
:1045C000970FD8B0E6EF22F0E8EF22F0EAEF22F002
:1045D000ADEF22F0D89083338233813380332B3E8A
:1045E000EAEF22F00CEF23F01F0E2B64FAEF22F01B
:1045F000FCEF22F004EF23F0ADEF22F0D8908037EB
:104600008137823783372B062B50D8A40AEF23F04B
:104610000CEF23F0FEEF22F02A50D8B412EF23F073
:1046200014EF23F01CEF23F0831F821F811F806D86
:10463000000E81238223832380C080F081C081F01B
:1046400082C082F083C083F01200000E0001991531
:10465000A16F000E9A15A26F800E9B15A36F7F0E9F
:104660009C15A46FA151A211A311A411D8A43BEFD2
:1046700023F03DEF23F045EF23F0000E996F000E7D
:104680009A6F000E9B6F000E9C6F000E9D15A16F20
:10469000000E9E15A26F800E9F15A36F7F0EA015B2
:1046A000A46FA151A211A311A411D8A45AEF23F011
:1046B0005CEF23F064EF23F0000E9D6F000E9E6F01
:1046C000000E9F6F000EA06F9CAF69EF23F06BEFA1
:1046D00023F074EF23F0996D9A1FD8B09A2B9B1F8B
:1046E000D8B09B2B800E9C57A0AF79EF23F07BEFC7
:1046F00023F084EF23F09D6D9E1FD8B09E2B9F1F4B
:10470000D8B09F2B800EA057000E991B000E9A1B4D
:10471000000E9B1B800E9C1B000E9D1B000E9E1B03
:10472000000E9F1B800EA01B9D51995D9E519A59B2
:104730009F519B59A0519C59D8B0A1EF23F0A3EFF2
:1047400023F0A6EF23F0D890A7EF23F0D880120033
:1047500013C18AF014C18BF015C18CF016C18DF015
:1047600080C08AF081C08BF082C08CF083C08DF055
:104770008AC084F08BC085F08CC086F08DC087F035
:10478000180EC9EF23F00001D890873386338533A4
:104790008433E82EC3EF23F08451886F896B8851EE
:1047A0008911D8A4D6EF23F0D8EF23F0F8EF23F047
:1047B000D8908A35846F8B35856F8C35866F8D35B3
:1047C000876F8451851186118711D8A4EAEF23F0F1
:1047D000ECEF23F0F2EF23F0000E816F020E806FFA
:1047E00027EF24F0000E816F030E806F27EF24F077
:1047F00088298911D8A4FFEF23F001EF24F023EFDB
:1048000024F08AC084F08BC085F08CC086F08DC007
:1048100087F0090ED8908437853786378737E82E9A
:104820000AEF24F08451851186118711D8B41BEF4B
:1048300024F01EEF24F0010E1FEF24F0000E806F15
:10484000816B27EF24F0000E816F040E806F120041
:104850000600FACF20F0FBCF21F0D9CF22F0DACF3B
:1048600023F0F3CF24F0F4CF25F0F2AA3AEF24F0AE
:104870003CEF24F045EF24F0F2A441EF24F043EFA5
:1048800024F045EF24F073EC2FF09DA24AEF24F0C2
:104890004CEF24F04DEF24F09E50A0A252EF24F0F4
:1048A00054EF24F055EF24F0A150A0A05AEF24F0CB
:1048B0005CEF24F05DEF24F0A1509DAA62EF24F09C
:1048C00064EF24F06DEF24F09EAA69EF24F06BEF03
:1048D00024F06DEF24F01CEC31F09DA872EF24F071
:1048E00074EF24F07DEF24F09EA879EF24F07BEFA5
:1048F00024F07DEF24F0BFEC31F0A0A682EF24F08D
:1049000084EF24F085EF24F0A1509DA68AEF24F0D7
:104910008CEF24F08DEF24F09E5025C0F4FF24C0CE
:10492000F3FF23C0DAFF22C0D9FF21C0FBFF20C064
:10493000FAFF5692110006500710D8A4A2EF24F0F7
:10494000A4EF24F0A6EF24F00CEF25F020EE02F007
:104950000650D9260750DA22DFA6B1EF24F0B3EFD4
:1049600024F00AEF25F020EE02F00650D926075079
:10497000DA22DF50030B0009D8A4C1EF24F0C3EF03
:1049800024F0D2EF24F008C00AF009C00BF00BC0ED
:104990000AF00B6A0A30D8A002D0AC8001D0AC90EB
:1049A0000AEF25F020EE02F00650D9260750DA2251
:1049B000DF50030BE806D8A4E0EF24F0E2EF24F088
:1049C000EEEF24F00850E7EC2CF00A6E0A30D8A085
:1049D00002D0AC8001D0AC900AEF25F020EE02F0BE
:1049E0000650D9260750DA22DF50030B020AD8A45A
:1049F000FCEF24F0FEEF24F00AEF25F00850B3ECB2
:104A00002CF00A6E0A30D8A002D0AC8001D0AC9055
:104A10000AEF25F008C0ADFF120021EE9EF0080E4F
:104A2000DE6AE806FDE2000E0101A86F9C519D11AF
:104A3000D8A41DEF25F01FEF25F021EF25F07DEF25
:104A400025F09CC180F09DC181F0000E0001836FB4
:104A5000200E826F000E856F080E846FC8EC1EF06A
:104A6000010120EE08F09C51D9269D51DA22000E5A
:104A7000DF6E9E0E906F010E916F890E926F100E79
:104A8000936F98C194F199C195F19AC196F19BC128
:104A900097F1D2EC2EF05CEF25F09E0EA825D96E92
:104AA000DA6A010EDA22A8519C25E16E000E9D21E2
:104AB000E26EDFCFE7FFA82B9E0E0101A825D96E7D
:104AC000DA6A010EDA22DF50D8A469EF25F06BEF25
:104AD00025F04DEF25F09CC190F19DC191F1890E1B
:104AE000926F100E936F98C194F199C195F19AC18C
:104AF00096F19BC197F1D2EC2EF0120080C086F0A7
:104B000081C087F082C088F083C089F000018407EB
:104B1000D8A08507842906E18529D8A492EF25F03D
:104B200094EF25F0A1EF25F0000E816F000E806F4D
:104B3000ECEF25F0864B872B884B892B8407D8A078
:104B4000850786C0D9FF87C0DAFFDF50D8B4ABEF46
:104B500025F0ADEF25F0DAEF25F088C0F6FF89C02B
:104B6000F7FFF86A0800F5500009D8B4BAEF25F04D
:104B7000BCEF25F0DAEF25F084518511D8B4C3EFEE
:104B800025F0C5EF25F0DAEF25F086C0D9FF87C004
:104B9000DAFFDF502A6E88C0F6FF89C0F7FFF86A97
:104BA0000800F5502A18D8B4D8EF25F0DAEF25F030
:104BB0009AEF25F086C0D9FF87C0DAFFDF502A6E52
:104BC00088C0F6FF89C0F7FFF86A0800F5502A5C34
:104BD000806F816BD8A0810712000001816F18EFF0
:104BE00026F092805AEF26F092825AEF26F09284B5
:104BF0005AEF26F092865AEF26F0928A5AEF26F064
:104C000096805AEF26F096825AEF26F096845AEF55
:104C100026F093845AEF26F093865AEF26F093827B
:104C20005AEF26F093885AEF26F093805AEF26F039
:104C3000000181512A6E2B6A2B50000AD8B423EF51
:104C400026F05AEF26F02A50000AD8B4F1EF25F0EA
:104C5000010AD8B4F4EF25F0030AD8B4F7EF25F031
:104C6000010AD8B4FAEF25F0070AD8B4FDEF25F011
:104C7000010AD8B400EF26F0030AD8B403EF26F0F7
:104C8000010AD8B406EF26F00F0AD8B409EF26F0CF
:104C9000010AD8B40CEF26F0030AD8B40FEF26F0BF
:104CA000010AD8B412EF26F0070AD8B415EF26F09F
:104CB0005AEF26F01200000182518311D8B463EF3D
:104CC00026F065EF26F06EEF26F082518311D8A40E
:104CD0006CEF26F06EEF26F073EF26F08051BDECFE
:104CE00031F0C0EF26F020EE04F08251D926835136
:104CF000DA22DE50DE10D8B480EF26F082EF26F004
:104D00009DEF26F020EE04F08251D9268351DA225D
:104D100010EE02F08251E1268351E222DE50E65C81
:104D2000E650800A886FDE50800A8859D8B09BEF21
:104D300026F09DEF26F0C0EF26F020EE02F0825123
:104D4000D9268351DA22DECF84F0DDCF85F082C010
:104D5000D9FF83C0DAFFDECF86F0DDCF87F0845144
:104D60008625D96E85518721DA6E80C0DFFF20EE5F
:104D700002F08251D9268351DA22DE2A000EDD228A
:104D8000120031A0C6EF26F0C8EF26F0D2EF26F0D1
:104D90008FC089F090C08AF08DC08BF08EC08CF0EF
:104DA00004EC30F0000192BFD8EF26F0DAEF26F0E5
:104DB000E0EF26F091C096F092C097F0E4EF26F075
:104DC000000E976F000E966F000E956F000E946F99
:104DD000F7EF26F0000E816F200E806F8DC082F0FD
:104DE0008EC083F05BEC26F00001944B952B96511E
:104DF000945D9551800A936F9751800A9359D8A07A
:104E000004EF27F006EF27F0EAEF26F031B00BEFC2
:104E100027F00DEF27F017EF27F08FC089F090C033
:104E20008AF08DC08BF08EC08CF004EC30F08FC017
:104E30002AF090C02BF000EC31F0000196512A24AA
:104E40008D6F97512B208E6F1200000E0001856F21
:104E500083BF2FEF27F02DEF27F035EF27F0826D7E
:104E6000831FD8B0832B010E856F81BF3CEF27F0E5
:104E70003AEF27F042EF27F0806D811FD8B0812BE9
:104E8000010E851B000E876F000E866F8251831105
:104E9000D8B44DEF27F04FEF27F077EF27F0010E52
:104EA000846F57EF27F0D89082378337842B83AFF6
:104EB0005CEF27F05EEF27F053EF27F0D8908637AE
:104EC00087378251805D83518159D8A06AEF27F0DE
:104ED0006CEF27F071EF27F08251805F8351815B87
:104EE0008681D89083338233842F5EEF27F08551FB
:104EF000D8B47DEF27F07FEF27F083EF27F0866DA2
:104F0000871FD8B0872B86C080F087C081F0120041
:104F1000010E2A6E000180518111D8B492EF27F062
:104F200094EF27F09DEF27F082518311D8A49BEFD7
:104F300027F09DEF27F0A1EF27F0000E2A6EE4EF97
:104F400027F020EE03F08051D9268151DA22DF507C
:104F5000D8A4ADEF27F0AFEF27F0D2EF27F0C35082
:104F6000846F856B060ED89084378537E82EB3EFB3
:104F700027F0C450876F866B84518627855187231D
:104F8000060E886F873587338633882FC2EF27F068
:104F900082C0D9FF83C0DAFF86C0DEFF87C0DDFF95
:104FA000E4EF27F0C350C4CF84F0856B84C085F054
:104FB000846B8427000E852382C0D9FF83C0DAFF6B
:104FC00084C0DEFF85C0DDFF2A50120000018F5132
:104FD0009011D8A4EEEF27F0F0EF27F0F2EF27F0D2
:104FE0003EEF28F0920721EF28F08FC08BF090C0A1
:104FF0008CF09251800F8D6FD6EC2BF03EEF28F0A5
:105000008FC08BF090C08CF09251C00F8D6FD6EC9A
:105010002BF03EEF28F08FC08BF090C08CF09251B7
:10502000940F8D6FD6EC2BF03EEF28F08FC08BF0F5
:1050300090C08CF09251D40F8D6FD6EC2BF03EEFD8
:1050400028F09151936F946B9451000AD8B42BEFD0
:1050500028F03EEF28F09351010AD8B4F5EF27F07D
:10506000030AD8B400EF28F0010AD8B40BEF28F0F7
:10507000070AD8B416EF28F03EEF28F01200000E11
:105080002B6E000181BF49EF28F047EF28F04FEF6A
:1050900028F0806D811FD8B0812B010E2B6E83BF4D
:1050A00056EF28F054EF28F05AEF28F0826D831F56
:1050B000D8B0832B82518311D8B461EF28F063EF0D
:1050C00028F087EF28F0010E2A6E6BEF28F0D890B9
:1050D000823783372A2A83AF70EF28F072EF28F0E7
:1050E00067EF28F08251805D83518159D8A07BEF12
:1050F00028F07DEF28F081EF28F08251805F835106
:10510000815BD890833382332A2E72EF28F02B50A4
:10511000D8B48DEF28F08FEF28F093EF28F0806D52
:10512000811FD8B0812B80C080F081C081F0120037
:10513000010E0001826F80518111D8A4A2EF28F0E6
:10514000A4EF28F0A8EF28F0000E826FEFEF28F010
:1051500020EE06F08051D9268151DA22DFA6B3EF86
:1051600028F0B5EF28F0DFEF28F0AB9880C02AF0E8
:1051700081C02BF0F6EC29F00001826F20EE06F0E2
:105180008051D9268151DA22DFA8C9EF28F0CBEF70
:1051900028F0CEEF28F0AB8CDCEF28F020EE06F004
:1051A0008051D9268151DA22DFB8D9EF28F0DBEF20
:1051B00028F0DCEF28F0AB9CAB88EFEF28F020EE76
:1051C00006F08051D9268151DA22DFB6EAEF28F0C5
:1051D000ECEF28F0EFEF28F0AB98EFEF28F08251DA
:1051E000120013501410D8A4F8EF28F0FAEF28F0AA
:1051F000FCEF28F048EF29F016062BEF29F013C03A
:105200000FF014C010F01650800F116EE3EC2DF06B
:1052100048EF29F013C00FF014C010F01650C00F63
:10522000116EE3EC2DF048EF29F013C00FF014C01D
:1052300010F01650940F116EE3EC2DF048EF29F0AA
:1052400013C00FF014C010F01650D40F116EE3EC21
:105250002DF048EF29F01550176E186A1850000A03
:10526000D8B435EF29F048EF29F01750010AD8B427
:10527000FFEF28F0030AD8B40AEF29F0010AD8B4E6
:1052800015EF29F0070AD8B420EF29F048EF29F0EC
:105290001200000196519711D8B451EF29F053EF45
:1052A00029F05CEF29F09A519B11D8A45AEF29F00C
:1052B0005CEF29F05EEF29F09FEF29F096C08FF0A8
:1052C00097C090F098C091F099C092F0E6EC27F06A
:1052D00086EF29F096C08BF097C08CF09AC0F6FF4D
:1052E0009BC0F7FF000EF86E0F0EF76403D00800A6
:1052F000F55005D0F6CFE9FFF7CFEAFFEF500001F8
:105300008D6F1BEC2DF000019A4B9B2B9AC0F6FF82
:105310009BC0F7FF000EF86E0F0EF76403D0080075
:10532000F55005D0F6CFE9FFF7CFEAFFEF500009BF
:10533000D8A49DEF29F09FEF29F06AEF29F0120021
:10534000000E00018015886F000E8115896F800E98
:1053500082158A6F7F0E83158B6F885189118A1190
:105360008B11D8A4B6EF29F0B8EF29F0C0EF29F0DF
:10537000000E806F000E816F000E826F000E836F33
:10538000000E8415886F000E8515896F800E8615B6
:105390008A6F7F0E87158B6F885189118A118B1147
:1053A000D8A4D5EF29F0D7EF29F0DFEF29F0000ED0
:1053B000846F000E856F000E866F000E876F84511C
:1053C00080190FE1855181190CE18651821909E19B
:1053D00087518319D8B4EFEF29F0F1EF29F0F4EFFA
:1053E00029F0D890F5EF29F0D8801200010E2C6E2C
:1053F0002A502B10D8A4FFEF29F001EF2AF005EF77
:105400002AF0000E2C6E45EF2AF09D9A2AC0D9FF93
:105410002BC0DAFFDECF3FF0DDCF40F020EE04F00E
:105420002A50D9262B50DA22DECF31F1DDCF32F1EE
:1054300020EE02F02A50D9262B50DA22DECF33F1AB
:10544000DDCF34F1D08E20EE06F02A50D9262B5035
:10545000DA22DFA02EEF2AF030EF2AF034EF2AF024
:105460009F8AF28E44EF2AF020EE06F02A50D926C9
:105470002B50DA22DFB03FEF2AF041EF2AF044EF61
:105480002AF09F9AF28EF28C9D8A2C501200000115
:1054900082518311D8A44FEF2AF051EF2AF053EF35
:1054A0002AF092EF2AF0C29020EE01F08251D92624
:1054B0008351DA22DF50846F844784478447C05089
:1054C0008419C70B8419C06E20EE02F08251D926D0
:1054D0008351DA22DF50846FC0508419F80B84198D
:1054E000C06E82C0D9FF83C0DAFFDF50846F84476B
:1054F0008447C2508419C30B8419C26E82C0D9FF7D
:1055000083C0DAFFDF50EDEC25F082C02AF083C0C3
:105510002BF075EC2EF082C02AF083C02BF080ECCB
:105520002DF0C2801200010E2C6E2A502B10D8A430
:105530009CEF2AF09EEF2AF0A2EF2AF0000E2C6ECC
:10554000D9EF2AF02AC0D9FF2BC0DAFFDFA4ABEFD6
:105550002AF0ADEF2AF0CBEF2AF0AC9A2AC0D9FF9F
:105560002BC0DAFFDFA6B7EF2AF0B9EF2AF0BCEFC5
:105570002AF0AC8CC8EF2AF02AC0D9FF2BC0DAFF82
:10558000DFB6C5EF2AF0C7EF2AF0C8EF2AF0AC9CCF
:10559000AC8AD9EF2AF02AC0D9FF2BC0DAFFDFB4DA
:1055A000D4EF2AF0D6EF2AF0D9EF2AF0AC9AD9EF4F
:1055B0002AF02C501200000189518A11D8B4E3EF6F
:1055C0002AF0E5EF2AF0EEEF2AF08C518D11D8A4E5
:1055D000ECEF2AF0EEEF2AF0F0EF2AF01DEF2BF0BF
:1055E00089C082F08AC083F08BC084F06BEC30F00D
:1055F00000018F6F89C02AF08AC02BF06EEC31F069
:1056000000018F6F0EEF2BF089C080F08AC081F00F
:105610008CC082F08DC083F088EC27F0C2B213EF0B
:105620002BF015EF2BF004EF2BF09C0E00018E6F8A
:10563000D70EE82EFED78E2FFCD71200000187511F
:105640008811D8A426EF2BF028EF2BF02AEF2BF0AF
:105650005EEF2BF0020E87252A6E000E88212B6E3E
:105660008951010B2C6E76EC21F0030E0001872589
:105670002A6E000E88212B6ED8908931010B2C6E7A
:1056800076EC21F0040E000187252A6E000E882199
:105690002B6E8941E8423F0B010B2C6E76EC21F01A
:1056A000050E000187252A6E000E88212B6E893990
:1056B000E8461F0B010B2C6E76EC21F012000B500C
:1056C0000C10D8A466EF2BF068EF2BF06AEF2BF0EC
:1056D0009BEF2BF0020E0B24016E000E0C20026ECD
:1056E0000D50010B036E0DEC22F0030E0B24016E26
:1056F000000E0C20026ED8900D30010B036E0DECE5
:1057000022F0040E0B24016E000E0C20026E0D40E0
:10571000E8423F0B010B036E0DEC22F0050E0B244B
:10572000016E000E0C20026E0D38E8461F0B010BB7
:10573000036E0DEC22F012002A502B10D8A4A3EF18
:105740002BF0A5EF2BF0A7EF2BF0D5EF2BF02AC015
:10575000D9FF2BC0DAFFDF50070B0001806F010E6D
:10576000816F802BB6EF2BF0D8908137802FB4EF6C
:105770002BF02AC0D9FF2BC0DAFFDF30E832E83245
:10578000070B0001826F8251020DB30EF324D96E14
:10579000010EF420DA6EDECF83F0DDCF84F083C01B
:1057A000D9FF84C0DAFF8151DF1A120000018B514A
:1057B0008C11D8A4DEEF2BF0E0EF2BF0E4EF2BF010
:1057C000000E8E6F0BEF2CF08BC02AF08CC02BF0EC
:1057D000000E2C6E76EC21F000018E6F8BC087F0EE
:1057E0008CC088F08D390F0B896F1EEC2BF08BC0AD
:1057F00087F08CC088F04EEC2FF08BC087F08CC007
:1058000088F08DC089F01EEC2BF08BC087F08CC027
:1058100088F04EEC2FF000018E5112000150021062
:10582000D8A415EF2CF017EF2CF019EF2CF045EF62
:105830002CF001C0D9FF02C0DAFFDF50070B036E66
:10584000010E046E032A27EF2CF0D8900436032EA5
:1058500025EF2CF001C0D9FF02C0DAFFDF30E832BB
:10586000E832070B056E0550020DB30EF324D96E16
:10587000010EF420DA6EDECF06F0DDCF07F006C0B1
:10588000D9FF07C0DAFF0450DF1A12004C0EF66E83
:105890005E0EF76E000EF86E01EEA9F010EE4FF0FE
:1058A0000900F5CFEEFFE550E150FAE1680EF66E23
:1058B000630EF76E000EF86E00EE48F010EE0EF07C
:1058C0000900F5CFEEFFE550E150FAE102EE00F0FD
:1058D000500EEE6AE806FDE101EE00F0580EEE6AA9
:1058E000E806FDE100EE2DF01B0EEE6AE806FDE194
:1058F000569056920001E1EF2FF0EDC0F1F0EEC0AE
:10590000F2F0000E01011C6F000E1B6F9FEF2CF0D8
:10591000EBC0CFF0ECC0D0F0F10E0001D16F000E63
:10592000D26FEFC0D3F0F0C0D4F00CEC11F0000156
:10593000CF5101011B270001D05101011C23F1C0EF
:10594000F6FFF2C0F7FFF86A0800F5500009D8A486
:10595000ACEF2CF0AEEF2CF088EF2CF01BC1EBF08D
:105960001CC1ECF01200036E000E046E000E056EFA
:10597000000E056E05C001F0010E026E012AC3EF94
:105980002CF0D8900236012EC1EF2CF002500314F7
:105990000009D8B4CEEF2CF0D0EF2CF0D1EF2CF0E2
:1059A000042A052A070E0564D8EF2CF0DAEF2CF054
:1059B000BAEF2CF0042A04B0E0EF2CF0E2EF2CF068
:1059C000E5EF2CF0010EE6EF2CF0000E1200036E56
:1059D000000E046E000E056E000E056E05C001F08F
:1059E000010E026E012AF7EF2CF0D8900236012E3C
:1059F000F5EF2CF0025003140009D8B402EF2DF09B
:105A000004EF2DF005EF2DF0042A052A070E05649A
:105A10000CEF2DF00EEF2DF0EEEF2CF0042A04A089
:105A200014EF2DF016EF2DF019EF2DF0010E1AEFF7
:105A30002DF0000E120000018B518C11D8A423EF21
:105A40002DF025EF2DF027EF2DF04DEF2DF08BC031
:105A50002AF08CC02BF0010E2C6E76EC21F08BC05E
:105A600087F08CC088F000018D390F0B896F1EEC18
:105A70002BF08BC087F08CC088F04EEC2FF08BC0E1
:105A800087F08CC088F08DC089F01EEC2BF08BC0A5
:105A900087F08CC088F04EEC2FF01200530E0001FE
:105AA000876F000E886FFEEC2EF0540E0001876F9A
:105AB000000E886FFEEC2EF0550E0001876F000E71
:105AC000886FFEEC2EF0520E0001876F000E886F7B
:105AD000FEEC2EF0C70E0001C86F010EC96FA4ECDA
:105AE0002EF0E70E00018F6F010E906FDAEC20F0C0
:105AF000F30E0001826F010E836F47EC2AF0120053
:105B00002A502B10D8A487EF2DF089EF2DF08BEFC2
:105B10002DF0B1EF2DF020EE04F02A50D9262B50B5
:105B2000DA22DF50D8A497EF2DF099EF2DF09DEFFA
:105B30002DF0C19AC198B1EF2DF020EE04F02A505B
:105B4000D9262B50DA22DE04D8A4A9EF2DF0ABEF32
:105B50002DF0AFEF2DF0C18AC188B1EF2DF0C19AC1
:105B6000C1981200BF0E0001866FFF0E876F84C0C0
:105B700088F085C089F0865188278751892389510B
:105B80000AE11A0E885DD8A0C8EF2DF0CBEF2DF0FA
:105B9000010ECCEF2DF0000E8A6F8B6B8A518B11AA
:105BA000D8B4D5EF2DF0D7EF2DF0DEEF2DF0200E8D
:105BB0008411846F8551856FE2EF2DF084C084F0ED
:105BC00085C085F012000F501010D8A4EAEF2DF018
:105BD000ECEF2DF0EEEF2DF013EF2EF00FC001F0F3
:105BE00010C002F0000E036E0DEC22F00FC00BF09F
:105BF00010C00CF011380F0B0D6E5FEC2BF00FC0C6
:105C00000BF010C00CF027EC30F00FC00BF010C000
:105C10000CF011C00DF05FEC2BF00FC00BF010C0BA
:105C20000CF027EC30F012000F501010D8A41BEF2E
:105C30002EF01DEF2EF01FEF2EF044EF2EF00FC0D0
:105C400001F010C002F0010E036E0DEC22F00FC047
:105C50000BF010C00CF011380F0B0D6E5FEC2BF039
:105C60000FC00BF010C00CF027EC30F00FC00BF0A1
:105C700010C00CF011C00DF05FEC2BF00FC00BF05A
:105C800010C00CF027EC30F0120082C084F083C00A
:105C900085F080C086F081C087F0000184512A6EB3
:105CA00085512B6E844B852B2AC0F6FF2BC0F7FF46
:105CB000000EF86E86C0D9FF87C0DAFF864B872BAF
:105CC0000F0EF76403D00800F55005D0F6CFE9FFBA
:105CD000F7CFEAFFEF50DF6EDF50D8A472EF2EF05F
:105CE00074EF2EF04DEF2EF012002A502B10D8A496
:105CF0007CEF2EF07EEF2EF080EF2EF0A3EF2EF053
:105D000020EE03F02A50D9262B50DA22DF50D8A4F7
:105D10008CEF2EF08EEF2EF091EF2EF0C09EA3EFC1
:105D20002EF020EE03F02A50D9262B50DA22DE0482
:105D3000D8A49DEF2EF09FEF2EF0A2EF2EF0C08E94
:105D4000A3EF2EF0C08E12000001C851C911D8A4D3
:105D5000ACEF2EF0AEEF2EF0B0EF2EF0D1EF2EF034
:105D6000AB9EC8C0BBF0C9C0BCF038EC15F0000158
:105D7000CA6FAC98948C020EC8252A6E000EC921F9
:105D80002B6E93EC2AF00001CA17948E030EC825DF
:105D9000806F000EC921816F98EC28F00001CA17AE
:105DA000AB8E1200940E0001F56F010EF66F90C1DC
:105DB000F7F091C1F8F0000EFA6F000EF96F000EC7
:105DC000FC6F000EFB6FF70EEB6F000EEC6F92C1D5
:105DD000EDF093C1EEF0F50EEF6F000EF06F7DEC7D
:105DE0002CF00001F95101019025D96E0001FA5102
:105DF00001019121DA6E000EDF6E12000001875161
:105E00008811D8A406EF2FF008EF2FF00CEF2FF039
:105E1000000E896F24EF2FF087C02AF088C02BF086
:105E200037EC20F00001896F87C02AF088C02BF082
:105E300087C0D9FF88C0DAFF000EDFBE010E2C6ECE
:105E400076EC21F00001896F89511200800F810FDB
:105E5000820F830F840F890F8A0F8B0F8C0F8D0F8A
:105E6000920F930F940F950F960F802504305F00CB
:105E700000000009000001020011001027000011BD
:105E80000002001200102700001010111213141548
:0B5E900007EE85B6620100050201006C
:105E9C00000187518811D8A456EF2FF058EF2FF03E
:105EAC005AEF2FF072EF2FF0010E87252A6E000E9D
:105EBC0088212B6E010E2C6E76EC21F00A0EE82E4A
:105ECC00FED7010E000187252A6E000E88212B6E4D
:105EDC00000E2C6E76EC21F01200F294020E33249C
:105EEC000E6E000E34200F6E0FC00EF00F6A0E50A7
:105EFC00D76E3350020FD66E35503610D8B489EFAA
:105F0C002FF08BEF2FF097EF2FF002D897EF2FF0A9
:105F1C000500FA6E3550FD6E3650FE6EFF6AFA5073
:105F2C0012001200C70E066E010E076E470E086EA9
:105F3C00000E096E5FEC1BF0C70E0D6E010E0E6E9F
:105F4C004AC00FF032EC31F0E70E1A6E010E1B6EE8
:105F5C00020E1C6E040E1D6E47C01EF0A8EC30F035
:105F6C00550E016E000E026E0EEC2CF01200000E9F
:105F7C000001BF1B000EC01B000EC11B800EC21BFC
:105F8C00BBC0ABF0BCC0ACF0BDC0ADF0BEC0AEF0A1
:105F9C00BFC0AFF0C0C0B0F0C1C0B1F0C2C0B2F071
:105FAC00ABEC0EF0ABC0BBF0ACC0BCF0ADC0BDF008
:105FBC00AEC0BEF012004EEC2DF0550E2A6E000E47
:105FCC002B6E9CEC2BF0E70E0001966F010E976F79
:105FDC00010E986F010E996F6C0E9A6F100E9B6FDD
:105FEC0049EC29F0540E2A6E000E2B6E9CEC2BF013
:105FFC0005EC1EF0F8EF2FF043EF01F0000E2C6EC5
:10600C00000E2B6E15EF30F02AC080F0816B8BC028
:10601C0082F08CC083F05BEC26F02B4A2C2A2B50A0
:10602C0000018925D96E2C508A21DA6EDF502A6E38
:10603C002A50D8A424EF30F026EF30F00AEF30F0DD
:10604C0012000B500C10D8A42EEF30F030EF30F0C3
:10605C0032EF30F049EF30F0010E0B24016E000EE0
:10606C000C20026E010E036E0DEC22F00A0EE82ECF
:10607C00FED7010E0B24016E000E0C20026E000EDA
:10608C00036E0DEC22F01200000191BF58EF30F0BE
:10609C00915106E19005D8B056EF30F058EF30F042
:1060AC0066EF30F090C092F091C093F0921F931F66
:1060BC00924B932B92C090F093C091F06AEF30F01A
:1060CC0090C090F091C091F01200010E0001856F0C
:1060DC0082518311D8A475EF30F077EF30F07BEF5D
:1060EC0030F0000E856F87EF30F084C02CF02C461A
:1060FC002C46C2502C18C30B2C18C26E8451EDECDC
:10610C0025F00001855112000B500C10D8A491EF12
:10611C0030F093EF30F095EF30F0A7EF30F0010E48
:10612C000B24016E000E0C20026E000E036E0DECA3
:10613C0022F00BC001F00CC002F0000E036E0DEC4F
:10614C0022F012001A501B10D8A4AFEF30F0B1EFB0
:10615C0030F0B3EF30F0C5EF30F01AC013F01BC0C5
:10616C0014F01CC015F01DC016F0F1EC28F01AC08C
:10617C000FF01BC010F01EC011F014EC2EF012002A
:10618C00BF0E0001806FFF0E816F2AC082F02BC002
:10619C0083F0805182278151832383510AE11A0EA7
:1061AC00825DD8A0DCEF30F0DFEF30F0010EE0EFD5
:1061BC0030F0000E2A6E2B6A120000018051811102
:1061CC0082118311D8B4EDEF30F0EFEF30F0F7EF30
:1061DC0030F0000E801B000E811B000E821B800E07
:1061EC00831B80C080F081C081F082C082F083C0AC
:1061FC0083F012002AC080F02BC081F008EF31F040
:10620C002A4A2B2A2AC0D9FF2BC0DAFFDF50D8A488
:10621C0012EF31F014EF31F006EF31F00001805144
:10622C002A5C2A6E81512B582B6E12003F50401065
:10623C00D8B423EF31F025EF31F031EF31F002D843
:10624C0031EF31F00500FA6E3F50FD6E4050FE6E9E
:10625C00FF6AFA50120012000D500E10D8A439EF3C
:10626C0031F03BEF31F03DEF31F046EF31F00DC046
:10627C0006F00EC007F00FC008F0096A9BEC24F082
:10628C001200000180518203F3CF2AF0F4CF2BF0DF
:10629C0080518303F3502B2681518203F3502B261C
:1062AC002AC080F02BC081F01200500E0B6E000E35
:1062BC000C6E8AEC30F04E0E0B6E000E0C6E8AECEF
:1062CC0030F04C0E0B6E000E0C6E8AEC30F012009F
:1062DC00010E2C6E2A502B10D8A477EF31F079EFE9
:1062EC0031F07DEF31F0000E2C6E7EEF31F0C2827A
:1062FC002C501200266EF2902650D8B488EF31F054
:10630C008AEF31F08CEF31F08CEF31F01200266E09
:10631C00F2902650D8B495EF31F097EF31F099EF19
:10632C0031F099EF31F01200266EF2902650D8B46D
:10633C00A2EF31F0A4EF31F0A6EF31F0A6EF31F07F
:10634C001200266EF2902650D8B4AFEF31F0B1EFB8
:10635C0031F0B3EF31F0B3EF31F012000101770FF0
:10636C001C1D1A1B18190898991AF090120012008B
:04637C0012001200F9
:020000040020DA
:08000000FFFFFFFFFFFFFFFF00
:020000040030CA
:0E000000FF020912FF8181FF0FC00FE00F40C9
:00000001FF
