:020000040000FA
:0400000043EF01F0D9
:06000800428208EF1CF02B
:100018004280D8CF1BF0E8CF1CF0E0CF1DF0F0A64F
:1000280018EF00F01AEF00F023EF00F0F0A01FEF38
:1000380000F021EF00F023EF00F0DCEC27F0F2A64F
:1000480028EF00F02AEF00F043EF00F0F2A02FEFC6
:1000580000F031EF00F043EF00F081A836EF00F038
:1000680038EF00F043EF00F03DA03DEF00F03FEF28
:1000780000F043EF00F03D90010EC8EC27F0F2A627
:1000880048EF00F04AEF00F063EF00F0F2A04FEF06
:1000980000F051EF00F063EF00F081B856EF00F088
:1000A80058EF00F063EF00F03DB05DEF00F05FEF58
:1000B80000F063EF00F03D80000EC8EC27F0F2A6D8
:1000C80068EF00F06AEF00F083EF00F0F2A06FEF46
:1000D80000F071EF00F083EF00F081AA76EF00F0F6
:1000E80078EF00F083EF00F03DA27DEF00F07FEFA6
:1000F80000F083EF00F03D92010EBBEC27F0F2A672
:1001080088EF00F08AEF00F0A3EF00F0F2A08FEF85
:1001180000F091EF00F0A3EF00F081BA96EF00F045
:1001280098EF00F0A3EF00F03DB29DEF00F09FEFD5
:1001380000F0A3EF00F03D82000EBBEC27F0F2A622
:10014800A8EF00F0AAEF00F0C3EF00F0F2A0AFEFC5
:1001580000F0B1EF00F0C3EF00F081ACB6EF00F0B3
:10016800B8EF00F0C3EF00F03DA4BDEF00F0BFEF23
:1001780000F0C3EF00F03D94010EAEEC27F0F2A6BC
:10018800C8EF00F0CAEF00F0E3EF00F0F2A0CFEF05
:1001980000F0D1EF00F0E3EF00F081BCD6EF00F003
:1001A800D8EF00F0E3EF00F03DB4DDEF00F0DFEF53
:1001B80000F0E3EF00F03D84000EAEEC27F0F2A66D
:1001C800E8EF00F0EAEF00F003EF01F0F2A0EFEF44
:1001D80000F0F1EF00F003EF01F081AEF6EF00F070
:1001E800F8EF00F003EF01F03DA6FDEF00F0FFEFA0
:1001F80000F003EF01F03D96010EA1EC27F0F2A606
:1002080008EF01F00AEF01F023EF01F0F2A00FEF81
:1002180001F011EF01F023EF01F081BE16EF01F0BC
:1002280018EF01F023EF01F03DB61DEF01F01FEFCD
:1002380001F023EF01F03D86000EA1EC27F09DAC04
:1002480028EF01F02AEF01F033EF01F09EAC2FEF19
:1002580001F031EF01F033EF01F0E1EC27F09DA060
:1002680038EF01F03AEF01F03BEF01F09E501DC06E
:10027800E0FF1CC0E8FF1BC0D8FF42901000BCEF95
:0202880021F063
:101000000041542B554152543A393630302C302C53
:10101000300D0A0041542B524E414D453A526F62F9
:101020006F740D0A0041542B505357443A313233F8
:10103000340D0A0041542B524F4C453A300D0A00F2
:071040002566002569000090
:1010480000019F51800B01014D6F00019F519F25A9
:1010580001014F6F00019EAF34EF08F036EF08F042
:1010680038EF08F001014F8101014F51D8B43FEF2B
:1010780008F041EF08F058EF08F04F29D8A447EFDF
:1010880008F049EF08F052EF08F0000E00019C6FDD
:10109800000E9D6F000E9E6F000E9F6F00019E8FC9
:1010A800000E9F6F61EF08F0000E00019C6F000EAC
:1010B8009D6F000E9E6F000E9F6FA351800B010164
:1010C8004E6F4D514E19D8B46CEF08F06EEF08F022
:1010D8006FEF08F04D8D0001A351A32501014E6F5C
:1010E8000001A2AF7AEF08F07CEF08F07EEF08F07D
:1010F80001014E8101014E51D8B485EF08F087EF08
:1011080008F09EEF08F04E29D8A48DEF08F08FEF75
:1011180008F098EF08F0000E0001A06F000EA16F14
:10112800000EA26F000EA36F0001A28F000EA36F26
:10113800A7EF08F0000E0001A06F000EA16F000ECF
:10114800A26F000EA36F01014F514E5DD8B0AFEFF3
:1011580008F0B1EF08F0D8EF08F04DADB6EF08F0A1
:10116800B8EF08F0BAEF08F0800E4D1B4FC150F1F0
:101178004EC14FF150C14EF19CC050F1A0C09CF03F
:1011880050C1A0F09DC050F1A1C09DF050C1A1F088
:101198009EC050F1A2C09EF050C1A2F09FC050F175
:1011A800A3C09FF050C1A3F0000E506F4F514EC125
:1011B800A4F00001A56BA45F000EA55BA5BFEEEF30
:1011C80008F0A55109E11A0EA45DD8A0EEEF08F0C9
:1011D800F0EF08F02DEF09F09C519D119E119F1121
:1011E800D8A4F9EF08F0FCEF08F0010EFDEF08F0C5
:1011F800000E0101506F000E00019C6F000E9D6FE4
:10120800000E9E6F000E9F6F4EC14FF137EF09F031
:1012180050A111EF09F013EF09F019EF09F0D89078
:1012280050310109506F1BEF09F0D890503300017D
:101238009CA121EF09F023EF09F025EF09F0010146
:10124800508F00019F359F339E339D339C3301019E
:101258004F2B01014E514F5DD8A035EF09F037EF04
:1012680009F00CEF09F001014DBD3DEF09F03FEF2A
:1012780009F086EF09F04F51D8A445EF09F047EF80
:1012880009F052EF09F0000E00019C6F000E9D6FEF
:10129800000E9E6F000E9F6FC0EF0AF00001A05174
:1012A8009C27A1519D23A2519E23A3519F239FA117
:1012B80060EF09F062EF09F01DEF0AF0010150A19B
:1012C80068EF09F06AEF09F070EF09F0D890503133
:1012D8000109506F72EF09F0D890503300019CA1BA
:1012E80078EF09F07AEF09F07CEF09F00101508FEF
:1012F80000019F359F339E339D339C3301014F2B53
:101308001DEF0AF00001A0519C5DA1519D59A25109
:101318009E599F51800AA46FA351800AA459D8B03E
:1013280098EF09F09AEF09F0C7EF09F09C51A05D1A
:10133800A46F9D51A159A56F9E51A259A66F9F51A7
:10134800A359A76FFF0EA4259C6FFF0EA5219D6FC3
:10135800FF0EA6219E6FFF0EA7219F6F800E010131
:101368004D1B506D5051D8A4BCEF09F0BEEF09F0E9
:10137800CFEF09F0010E00019C27000E9D239E234C
:101388009F23CFEF09F0A0519C5FA1519D5BA25113
:101398009E5BA3519F5B00019C519D119E119F1163
:1013A800D8A4D9EF09F0DBEF09F015EF0AF0010135
:1013B8005051D8A4E2EF09F0E4EF09F015EF0AF074
:1013C800000E00019C6F000E9D6F000E9E6F000EB8
:1013D8009F6FC0EF0AF0D8909C379D379E379F3794
:1013E800010150AFFAEF09F0FCEF09F0FEEF09F048
:1013F80000019C81010150A104EF0AF006EF0AF0F8
:101408000AEF0AF0D88050370CEF0AF0D89050371E
:101418004F51D8B412EF0AF014EF0AF015EF0AF0A2
:101428004F0700019EAF1BEF0AF01DEF0AF0EFEF28
:1014380009F0000E01014E6F50AF25EF0AF027EFBB
:101448000AF041EF0AF050C1A4F07F0E0001A41782
:10145800D8B431EF0AF033EF0AF038EF0AF0010E92
:1014680001014E6F41EF0AF09CA13DEF0AF03FEFFA
:101478000AF041EF0AF033EF0AF001014E51D8B4F7
:1014880048EF0AF04AEF0AF077EF0AF0010E000180
:101498009C27000E9D239E239F239FA156EF0AF0B1
:1014A80058EF0AF077EF0AF09CC0A4F09DC0A5F0B1
:1014B8009EC0A6F09FC0A7F0A735A733A633A533D3
:1014C800A433A4C09CF0A5C09DF0A6C09EF0A7C000
:1014D8009FF001014F29D8B474EF0AF076EF0AF0B3
:1014E80077EF0AF04F2B01014F29D8B47EEF0AF0AD
:1014F80080EF0AF088EF0AF04F51D8A486EF0AF07F
:1015080088EF0AF09CEF0AF0000E00019C6F000EB5
:101518009D6F000E9E6F000E9F6F01014F51D8A462
:1015280098EF0AF09AEF0AF09CEF0AF0000E4D6F60
:101538004FA1A1EF0AF0A3EF0AF0A7EF0AF000010C
:101548009E8FA9EF0AF000019E9F0101D8904F31AC
:1015580000019F6F01014DAFB4EF0AF0B6EF0AF03A
:10156800B8EF0AF000019F8F9CC09CF09DC09DF0D1
:101578009EC09EF09FC09FF0120000018651800B14
:101588008F6F86518625956F85AFCDEF0AF0CFEF27
:101598000AF0D0EF0AF095819551D8B4D6EF0AF049
:1015A800D8EF0AF0EBEF0AF09529D8A4DEEF0AF09D
:1015B800E0EF0AF0E8EF0AF0000E836F000E846F88
:1015C800000E856F000E866F858FF3EF0AF0000E10
:1015D800836F000E846F000E856F000E866F8A5130
:1015E800800B8F1B8A518A25906F89AFFEEF0AF016
:1015F80000EF0BF001EF0BF090819051D8B407EF9A
:101608000BF009EF0BF01CEF0BF09029D8A40FEFAB
:101618000BF011EF0BF019EF0BF0000E876F000EB7
:10162800886F000E896F000E8A6F898F24EF0BF088
:10163800000E876F000E886F000E896F000E8A6F8C
:101648009051D8B42AEF0BF02CEF0BF034EF0BF0DD
:101658009551D8A432EF0BF034EF0BF03EEF0BF0BE
:10166800000E836F000E846F000E856F000E866F6C
:10167800D6EF0CF089518303F3CF9AF0F4CF9BF0A7
:101688009A51916F926B936B946B9B51966F976B7A
:10169800986B996B88518403F3CF9AF0F4CF9BF041
:1016A8009A519127000E9223932394239B519627B6
:1016B800000E97239823992387518503F3CF9AF037
:1016C800F4CF9BF09A519127000E922393239423F1
:1016D8009B519627000E97239823992393C094F043
:1016E80092C093F091C092F0916B87518403F3CF2D
:1016F8009AF0F4CF9BF09A5191279B519223000EB8
:101708009323000E942388518303F3CF9AF0F4CFE8
:101718009BF09A5191279B519223000E9323000E20
:10172800942393C094F092C093F091C092F0916B7F
:1017380087518303F3CF9AF0F4CF9BF09A51912706
:101748009B519223000E9323000E94238951840306
:10175800F3CF9AF0F4CF9BF09A5196279B51972399
:10176800000E9823000E992388518503F3CF9AF031
:10177800F4CF9BF09A5196279B519723000E9823FC
:10178800000E992389518503F3CF9AF0F4CF9BF08B
:101798009A518B6F9B518C6F8D6B8E6B8DC08EF0B9
:1017A8008CC08DF08BC08CF08B6B8B5196278C5135
:1017B80097238D5198238E51992391C08BF092C015
:1017C8008CF093C08DF094C08EF0190EF1EF0BF0F1
:1017D800D8908E338D338C338B33E82EECEF0BF0AF
:1017E8008B5196278C5197238D5198238E5199238D
:1017F80093C094F092C093F091C092F0916B905185
:1018080095C08BF08C6B8B27000E8C23820E8B255A
:101818009A6FFF0E8C219B6F27EF0CF0D8909637AC
:1018280097379837993794AF1CEF0CF01EEF0CF0F0
:101838001FEF0CF09681D8909137923793379437F1
:101848009A07D8A09B0798AF2CEF0CF02EEF0CF05E
:1018580012EF0CF0000E906F94AF35EF0CF037EFED
:101868000CF05BEF0CF0FF0E91158B6FFF0E9215CD
:101878008C6FFF0E93158D6F7F0E94158E6F8B51A5
:101888008C118D118E11D8B44CEF0CF04EEF0CF07A
:1018980052EF0CF0010E906F5BEF0CF096A157EF32
:1018A8000CF059EF0CF05BEF0CF04EEF0CF0905190
:1018B800D8B461EF0CF063EF0CF087EF0CF0010E79
:1018C8009627000E97239823992399A16EEF0CF081
:1018D80070EF0CF087EF0CF096C08BF097C08CF08F
:1018E80098C08DF099C08EF08E358E338D338C3341
:1018F8008B338BC096F08CC097F08DC098F08EC05B
:1019080099F09A4B9B2B9BBF92EF0CF09B5108E1EF
:101918009A29D8A092EF0CF094EF0CF09EEF0CF0FF
:10192800000E966F000E976F800E986F7F0E996F5E
:10193800CCEF0CF09BBFABEF0CF09B5106E19A0586
:10194800D8B0A9EF0CF0ABEF0CF0B7EF0CF0000E2D
:10195800966F000E976F000E986F000E996F000E2D
:101968008F6FCCEF0CF09AC095F0FF0E9617FF0E14
:1019780097177F0E9817000E991795A1C6EF0CF0D0
:10198800C8EF0CF0C9EF0CF0988FD8909531996F8B
:101998008F51991396C083F097C084F098C085F052
:1019A80099C086F01200010E01015D6F59515A115C
:1019B800D8A4E1EF0CF0E3EF0CF0E7EF0CF0000E29
:1019C8005D6FB1EF0EF0000E5E6F000E5F6F000EE0
:1019D800606F000E616F6DEF0EF0AC94B89659C150
:1019E800D9FF5AC1DAFFDECF5BF1DDCF5CF15BC115
:1019F8001EF05CC11FF0206A216A000E04EC14F08E
:101A08001EC06EF01FC06FF020C070F021C071F0D2
:101A1800000E00016A6F240E6B6FF40E6C6F4A0E95
:101A28006D6FB3EC0EF06AC062F16BC063F16CC00D
:101A380064F16DC065F1000E00016E6F000E6F6FEE
:101A4800800E706F420E716F62C16AF063C16BF0F5
:101A580064C16CF065C16DF0B3EC0EF06AC09CF027
:101A68006BC09DF06CC09EF06DC09FF0000E000131
:101A7800A06F000EA16F800EA26FBF0EA36F24ECA3
:101A880008F09CC05EF19DC05FF19EC060F19FC0F0
:101A980061F190EF0EF0AC84B89659C1D9FF5AC1E4
:101AA800DAFFDECF5BF1DDCF5CF15BC11EF05CC11C
:101AB8001FF0206A216A000E04EC14F01EC06EF0BC
:101AC8001FC06FF020C070F021C071F0000E00013F
:101AD8006A6F240E6B6FF40E6C6F4A0E6D6FB3EC69
:101AE8000EF06AC062F16BC063F16CC064F16DC046
:101AF80065F1000E00016E6F000E6F6F800E706F43
:101B0800410E716F62C16AF063C16BF064C16CF021
:101B180065C16DF0B3EC0EF06AC09CF06BC09DF02F
:101B28006CC09EF06DC09FF0000E0001A06F000E0B
:101B3800A16F800EA26FBF0EA36F24EC08F09CC0AB
:101B48005EF19DC05FF19EC060F19FC061F190EFB2
:101B58000EF0AC94B88659C1D9FF5AC1DAFFDECF6E
:101B68005BF1DDCF5CF15BC11EF05CC11FF0206A48
:101B7800216A000E04EC14F01EC06EF01FC06FF056
:101B880020C070F021C071F0000E00016A6F240EB1
:101B98006B6FF40E6C6F4A0E6D6FB3EC0EF06AC08B
:101BA80062F16BC063F16CC064F16DC065F1000E49
:101BB80000016E6F000E6F6F800E706F410E716FB7
:101BC80062C16AF063C16BF064C16CF065C16DF00D
:101BD800B3EC0EF06AC09CF06BC09DF06CC09EF038
:101BE8006DC09FF0000E0001A06F000EA16F800E67
:101BF800A26FBF0EA36F24EC08F09CC05EF19DC0DD
:101C08005FF19EC060F19FC061F190EF0EF0AC846F
:101C1800B88659C1D9FF5AC1DAFFDECF5BF1DDCFF3
:101C28005CF15BC11EF05CC11FF0206A216A000EE6
:101C380004EC14F01EC06EF01FC06FF020C070F0EE
:101C480021C071F0000E00016A6F240E6B6FF40E54
:101C58006C6F4A0E6D6FB3EC0EF06AC062F16BC028
:101C680063F16CC064F16DC065F1000E00016E6F28
:101C7800000E6F6F800E706F400E716F62C16AF058
:101C880063C16BF064C16CF065C16DF0B3EC0EF02C
:101C98006AC09CF06BC09DF06CC09EF06DC09FF058
:101CA800000E0001A06F000EA16F800EA26FBF0E84
:101CB800A36F24EC08F09CC05EF19DC05FF19EC04C
:101CC80060F19FC061F190EF0EF0000E5D6F90EF34
:101CD8000EF020EE0BF05951D9265A51DA22DF5076
:101CE8005B6F5C6B5C51000AD8B47DEF0EF069EF56
:101CF8000EF05B51000AD8B4F1EF0CF0010AD8B429
:101D08004FEF0DF0030AD8B4ADEF0DF0010AD8B4C7
:101D18000BEF0EF069EF0EF05EC151F15FC152F1A9
:101D280060C153F161C154F112EC1AF00101515133
:101D3800AF6E5EC151F15FC152F160C153F161C133
:101D480054F112EC1AF0010152C151F153C152F190
:101D580054C153F1546B5151B06E5D5112000001E2
:101D68006D51800B7A6F6D516D25816F6CAFBFEF30
:101D78000EF0C1EF0EF0C2EF0EF081818151D8B4A0
:101D8800C8EF0EF0CAEF0EF0DFEF0EF08129D8A4ED
:101D9800D0EF0EF0D2EF0EF0DAEF0EF0000E6A6F11
:101DA800000E6B6F000E6C6F000E6D6F6C8F000E67
:101DB8006D6FE7EF0EF0000E6A6F000E6B6F000E8E
:101DC8006C6F000E6D6F7151800B7A1B715171250C
:101DD800826F70AFF2EF0EF0F4EF0EF0F5EF0EF049
:101DE80082818251D8B4FBEF0EF0FDEF0EF012EFB6
:101DF8000FF08229D8A403EF0FF005EF0FF00DEFD5
:101E08000FF0000E6E6F000E6F6F000E706F000EF9
:101E1800716F708F000E716F1AEF0FF0000E6E6FFA
:101E2800000E6F6F000E706F000E716F6E516F11A4
:101E380070117111D8A423EF0FF025EF0FF03DEFCB
:101E48000FF0000E6A6F000E6B6F000E6C6F000EC5
:101E58006D6F800E6C137F0E6D137A516D136AC00F
:101E68006AF06BC06BF06CC06CF06DC06DF080EF09
:101E780010F08151D8A443EF0FF045EF0FF04FEF6A
:101E88000FF0000E6A6F000E6B6F000E6C6F000E85
:101E98006D6F80EF10F0825181C072F0736B725FCA
:101EA800000E735B7F0E72257B6F000E73217C6FB3
:101EB8006AC076F06BC077F06CC078F06DC079F0CE
:101EC800000E6A6F000E6B6F000E6C6F000E6D6F68
:101ED800000E7D6F000E7E6F000E7F6F000E806F0C
:101EE800000E826FB0EF0FF08251D8B47EEF0FF082
:101EF80080EF0FF097EF0FF0D89076377737783775
:101F08007937D8906A376B376C376D3780AF8FEF7A
:101F18000FF091EF0FF092EF0FF06A81D8907D37B4
:101F28007E377F3780376E51765D6F5177597051A4
:101F3800785971517959D8A0A4EF0FF0A6EF0FF096
:101F4800AFEF0FF0808D6E51765F6F51775B7051F8
:101F5800785B7151795B822B190E8265B6EF0FF0B1
:101F6800B8EF0FF078EF0FF07651771178117911FB
:101F7800D8B4C1EF0FF0C3EF0FF0DBEF0FF07D81A6
:101F8800DBEF0FF0D8906A376B376C376D3780AF5F
:101F9800D0EF0FF0D2EF0FF0D3EF0FF06A81D890A7
:101FA8007D377E377F3780377B07D8A07C076CAFBB
:101FB800E0EF0FF0E2EF0FF0C6EF0FF0000E826FC8
:101FC80080AFE9EF0FF0EBEF0FF00FEF10F0FF0E1F
:101FD8007D15726FFF0E7E15736FFF0E7F15746F80
:101FE8007F0E8015756F7251731174117511D8B405
:101FF80000EF10F002EF10F006EF10F0010E826F04
:102008000FEF10F06AA10BEF10F00DEF10F00FEFCB
:1020180010F002EF10F08251D8B415EF10F017EF5E
:1020280010F03BEF10F0010E6A27000E6B236C23B3
:102038006D236DA122EF10F024EF10F03BEF10F0AC
:102048006AC072F06BC073F06CC074F06DC075F04C
:102058007535753374337333723372C06AF073C075
:102068006BF074C06CF075C06DF07B4B7C2B7CBF43
:1020780046EF10F07C5108E17B29D8A046EF10F01C
:1020880048EF10F053EF10F0000E7C6F7B69000EE4
:102098006A6F000E6B6F000E6C6F000E6D6F7CBF69
:1020A80060EF10F07C5106E17B05D8B05EEF10F0D0
:1020B80060EF10F06EEF10F0000E7C6F000E7B6F7B
:1020C800000E6A6F000E6B6F000E6C6F000E6D6F66
:1020D800000E7A6F7BC081F081A175EF10F077EF69
:1020E80010F07AEF10F06C8F7BEF10F06C9FD890A7
:1020F80081316D6F31EF0FF01200F8EC25F0410ED1
:102108001E6E000E1F6EF7EC22F087EF11F06DECDB
:1021180027F087EF11F0B3EC1DF087EF11F013EC07
:102128001EF087EF11F053EC1DF087EF11F0E0EC93
:1021380027F087EF11F073EC1EF087EF11F0DFEC5A
:1021480027F087EF11F03E0E0001686F000E696FEF
:10215800D9EC24F087EF11F03E0E0001686F000EF5
:10216800696F0CEC25F087EF11F032063250D8A4D5
:10217800C0EF10F0C2EF10F0C4EF10F0010E326E95
:10218800C60E596F000E5A6FCD0E5B6F000E5C6F56
:10219800080E5D6F32C05EF194EC1BF087EF11F012
:1021A800322AB40E3264DBEF10F0DDEF10F0C4EF2A
:1021B80010F0B40E326EC4EF10F031063150D8A4CE
:1021C800E8EF10F0EAEF10F0ECEF10F0010E316ECE
:1021D800C60E596F000E5A6FCD0E5B6F000E5C6F06
:1021E800090E5D6F31C05EF194EC1BF087EF11F0C2
:1021F800312AB40E316403EF11F005EF11F0ECEF62
:1022080010F0B40E316EECEF10F030063050D8A458
:1022180010EF11F012EF11F014EF11F0010E306E03
:10222800C60E596F000E5A6FCD0E5B6F000E5C6FB5
:102238000A0E5D6F30C05EF194EC1BF087EF11F071
:10224800302AB40E30642BEF11F02DEF11F014EF9B
:1022580011F0B40E306E14EF11F02F062F50D8A4E1
:1022680038EF11F03AEF11F03CEF11F0010E2F6E3C
:10227800C60E596F000E5A6FCD0E5B6F000E5C6F65
:102288000B0E5D6F2FC05EF194EC1BF087EF11F021
:102298002F2AB40E2F6453EF11F055EF11F03CEFD5
:1022A80011F0B40E2F6E3CEF11F0370E0001606F85
:1022B800000E616F360E626F000E636F350E646F2D
:1022C800000E656F340E666F000E676F330E686F11
:1022D800000E696F37EC20F087EF11F0D10E000186
:1022E800836F000E846FF80E856F000E866FFC0EEC
:1022F800876F000E886F8BEC19F087EF11F05AEC9E
:1023080016F087EF11F038500101686F696B695159
:10231800000AD8B492EF11F087EF11F06851000A63
:10232800D8B48BEF10F0010AD8B48FEF10F0030A7D
:10233800D8B493EF10F0010AD8B497EF10F0070A59
:10234800D8B487EF11F0010AD8B487EF11F0030A67
:10235800D8B49BEF10F0010AD8B49FEF10F00F0A21
:10236800D8B4A3EF10F0010AD8B487EF11F0030A2C
:10237800D8B487EF11F01A0AD8B4A7EF10F0010A01
:10238800D8B4B0EF10F0030AD8B4B9EF10F0010ACE
:10239800D8B4D4EF10F0070AD8B4E1EF10F0010A6E
:1023A800D8B4FCEF10F0030AD8B409EF11F0010A11
:1023B800D8B424EF11F00F0AD8B431EF11F0010AA4
:1023C800D8B44CEF11F0540AD8B459EF11F0030AFD
:1023D800D8B472EF11F0010AD8B483EF11F087EF87
:1023E80011F043EF01F0000E00016B6F000E6A6FF1
:1023F80060516111D8B403EF12F005EF12F00EEF3F
:1024080012F062516311D8A40CEF12F00EEF12F023
:1024180010EF12F0EEEF12F09EAA15EF12F017EF80
:1024280012F00EEF12F020EE09F06051D92661513A
:10243800DA22DFB822EF12F024EF12F031EF12F0B7
:10244800AE50236E246A62C0D9FF63C0DAFF23C08E
:10245800DEFF24C0DDFFEEEF12F020EE09F0605140
:10246800D9266151DA22DFA83CEF12F03EEF12F0D4
:10247800EEEF12F020EE09F06051D9266151DA2210
:10248800DF30030B0009D8A44CEF12F04EEF12F026
:1024980070EF12F0AECF6AF06B6BABB056EF12F084
:1024A80058EF12F05EEF12F0000E656F000E646FC9
:1024B80062EF12F0010E656F000E646F64516A27B7
:1024C80065516B2362C0D9FF63C0DAFF6AC0DEFFC3
:1024D8006BC0DDFFEEEF12F020EE09F06051D92657
:1024E8006151DA22DF30030BE806D8A47EEF12F040
:1024F80080EF12F0B6EF12F0AECF6AF06B6BABB0B4
:1025080088EF12F08AEF12F090EF12F0000E676F6A
:10251800000E666F94EF12F0010E676F000E666F83
:1025280066516A2767516B236A513DEC24F0236E8C
:1025380000016B512318D8A4A4EF12F0A6EF12F0F3
:10254800EEEF12F0FF0E6A15236E000E6B15246E67
:1025580062C0D9FF63C0DAFF23C0DEFF24C0DDFFFD
:10256800EEEF12F020EE09F06051D9266151DA221F
:10257800DF30030B020AD8A4C4EF12F0C6EF12F042
:10258800EEEF12F0AECF6AF06B6BABB0CEEF12F09D
:10259800D0EF12F0D6EF12F0000E696F000E686FE0
:1025A800DAEF12F0010E696F000E686F68516A2742
:1025B80069516B236A5109EC24F0236E00016B51B9
:1025C8002318D8A4EAEF12F0ECEF12F0EEEF12F0B5
:1025D800A6EF12F0ABB2F3EF12F0F5EF12F0FCEF4A
:1025E80012F0ABA4FAEF12F0FCEF12F0FEEF12F0CB
:1025F800AB98AB881200000E136E000E126E0650D8
:102608000710D8B40AEF13F00CEF13F015EF13F01E
:1026180008500910D8A413EF13F015EF13F017EFB3
:1026280013F0F3EF13F09EAA1CEF13F01EEF13F054
:1026380015EF13F020EE09F00650D9260750DA22DC
:10264800DFB829EF13F02BEF13F038EF13F0AE508B
:102658000A6E0B6A08C0D9FF09C0DAFF0AC0DEFF9C
:102668000BC0DDFFF3EF13F020EE09F00650D9267A
:102678000750DA22DFA843EF13F045EF13F0F3EF2A
:1026880013F020EE09F00650D9260750DA22DF3081
:10269800030B0009D8A453EF13F055EF13F077EFAD
:1026A80013F0AECF12F0136AABB05DEF13F05FEF2B
:1026B80013F065EF13F0000E0D6E000E0C6E69EF4F
:1026C80013F0010E0D6E000E0C6E0C5012260D50FC
:1026D800132208C0D9FF09C0DAFF12C0DEFF13C0F9
:1026E800DDFFF3EF13F020EE09F00650D92607506E
:1026F800DA22DF30030BE806D8A485EF13F087EF62
:1027080013F0BCEF13F0AECF12F0136AABB08FEF3B
:1027180013F091EF13F097EF13F0000E0F6E000E09
:102728000E6E9BEF13F0010E0F6E000E0E6E0E5024
:1027380012260F5013221250A5EC24F00A6E1350E3
:102748000A18D8A4AAEF13F0ACEF13F0F3EF13F0C4
:10275800FF0E12140A6E000E13140B6E08C0D9FF78
:1027680009C0DAFF0AC0DEFF0BC0DDFFF3EF13F08C
:1027780020EE09F00650D9260750DA22DF30030B85
:10278800020AD8A4CAEF13F0CCEF13F0F3EF13F05A
:10279800AECF12F0136AABB0D4EF13F0D6EF13F04C
:1027A800DCEF13F0000E116E000E106EE0EF13F068
:1027B800010E116E000E106E1050122611501322C9
:1027C800125071EC24F00A6E13500A18D8A4EFEFD7
:1027D80013F0F1EF13F0F3EF13F0ACEF13F0ABB22B
:1027E800F8EF13F0FAEF13F001EF14F0ABA4FFEFDA
:1027F80013F001EF14F003EF14F0AB98AB8812005C
:102808000001646F00016451D8B40DEF14F00FEFAC
:1028180014F031EF14F021BE16EF14F014EF14F099
:1028280031EF14F01EC060F01FC061F020C062F0EC
:1028380021C063F0601F611F621F631F602B000EC1
:1028480061236223632360C066F061C067F062C0E1
:1028580068F063C069F039EF14F01EC066F01FC05D
:1028680067F020C068F021C069F01E501F102010CA
:102878002110D8A442EF14F044EF14F04EEF14F0F6
:10288800000E1E6E000E1F6E000E206E000E216ED2
:10289800DFEF14F0960E656F58EF14F0652BD890A3
:1028A8006933683367336633000E6615606F000E50
:1028B8006715616F000E6815626FFE0E6915636F0C
:1028C8006051611162116311D8A46DEF14F06FEFBC
:1028D80014F052EF14F07DEF14F0652B010E66270B
:1028E800000E672368236923D890693368336733F8
:1028F8006633000E6615606F000E6715616F000E77
:102908006815626FFF0E6915636F6051611162117E
:102918006311D8A492EF14F094EF14F071EF14F04F
:102928009CEF14F06507D8906637673768376937C2
:1029380068BFA1EF14F0A3EF14F0ABEF14F0020E90
:102948006561A9EF14F0ABEF14F096EF14F065B1E0
:10295800B0EF14F0B2EF14F0B3EF14F0689FD89012
:10296800653365C060F0616B626B636B60C063F078
:10297800626B616B606B60516613615167136251E2
:102988006813635169136451D8B4CDEF14F0CFEFD5
:1029980014F0D7EF14F021BED6EF14F0D4EF14F0F2
:1029A800D7EF14F0698F66C01EF067C01FF068C0CB
:1029B80020F069C021F01200000E0101636F000EC3
:1029C800626F59515A11D8A4ECEF14F0EEEF14F0DD
:1029D800F0EF14F0A3EF15F0000E00016E6F000E7B
:1029E8006F6FC80E706F420E716F01015B511E6EE2
:1029F8001F6A206A216A010E04EC14F01EC06AF0F6
:102A08001FC06BF020C06CF021C06DF0B3EC0EF06D
:102A18006AC087F06BC088F06CC089F06DC08AF01E
:102A2800CB5001015C6F5D6B010E5C27000E5D23CE
:102A38005CC11EF05DC11FF0000E1FBEFF0E206EB0
:102A4800216E010E04EC14F01EC083F01FC084F048
:102A580020C085F021C086F0C1EC0AF083C05EF189
:102A680084C05FF185C060F186C061F1000E00018D
:102A7800876F000E886F800E896F400E8A6F5EC167
:102A880083F05FC184F060C185F061C186F0C1EC5C
:102A98000AF083C051F184C052F185C053F186C059
:102AA80054F112EC1AF051C162F152C163F159C1EB
:102AB800D9FF5AC1DAFFDF50D8A465EF15F067EFE8
:102AC80015F080EF15F062C15CF1030E01015C178F
:102AD8005C3BBD505C19CF0B5C19BD6E62C15CF1EB
:102AE80063C15DF1D8905D335C33D8905D335C335E
:102AF8005C51BE6EA3EF15F059C1D9FF5AC1DAFF78
:102B0800DE04D8A48AEF15F08CEF15F0A3EF15F0CA
:102B180062C15CF1030E01015C175C3BBA505C19A1
:102B2800CF0B5C19BA6E62C15CF163C15DF1D890DC
:102B38005D335C33D8905D335C335C51BB6E1200FF
:102B4800010E0001606F21C0D9FF22C0DAFFDF50FB
:102B5800D8A4B1EF15F0B3EF15F0FEEF15F0D7EFED
:102B680015F0BD50F00B0809BD6E51EF16F0BD50C1
:102B7800F00B0909BD6E51EF16F0BD50F00B0209BC
:102B8800BD6E51EF16F0BD50F00B0A09BD6E51EF46
:102B980016F0BD50F00B0B09BD6E51EF16F0000E8C
:102BA800606F51EF16F020EE02F02150D926225026
:102BB800DA22DF50236E246A2450000AD8B4E7EFE3
:102BC80015F0D3EF15F02350020AD8B4C1EF15F071
:102BD8000A0AD8B4B5EF15F0010AD8B4BBEF15F05E
:102BE800030AD8B4C7EF15F0010AD8B4CDEF15F031
:102BF800D3EF15F021C0D9FF22C0DAFFDE04D8A434
:102C080008EF16F00AEF16F051EF16F02AEF16F05B
:102C1800BA50F00B0809BA6E51EF16F0BA50F00B23
:102C28000909BA6E51EF16F0BA50F00B0209BA6EE4
:102C380051EF16F0BA50F00B0A09BA6E51EF16F0C0
:102C4800BA50F00B0B09BA6E51EF16F020EE02F0F5
:102C58002150D9262250DA22DF50236E246A2450CC
:102C6800000AD8B43AEF16F0D3EF15F02350020A51
:102C7800D8B418EF16F00A0AD8B40CEF16F0010A07
:102C8800D8B412EF16F0030AD8B41EEF16F0010AF2
:102C9800D8B424EF16F0D3EF15F021C01EF022C0EF
:102CA8001FF0BFEC22F0000160511200010E00017C
:102CB800726F9D9A400E1E6E000E1F6E010E206EE2
:102CC800F4EC18F0F0EF16F0290E6C6F010E6D6F32
:102CD800390E6E6F000E6F6F9EEC23F0240E3918BC
:102CE800D8A479EF16F07BEF16F0F0EF16F0E7EFC7
:102CF80016F0290E6C6F010E6D6F390E6E6F000E97
:102D08006F6F9EEC23F02C0E3918D8A48EEF16F0B6
:102D180090EF16F0E7EF16F02D2A030E2D18D8A421
:102D280098EF16F09AEF16F0BCEF16F0000E2C6E26
:102D3800290E00016C6F010E6D6F1C0E2C246E6F36
:102D48006F6B010E6F239EEC23F02C2A1B0E2C2494
:102D5800D96EDA6A010EDA222C0EDE18D8A4B7EF83
:102D680016F0B9EF16F09CEF16F02D2AE7EF16F0E3
:102D7800050E2D18D8A4C3EF16F0C5EF16F0E7EF2F
:102D880016F0000E2C6E290E00016C6F010E6D6F8F
:102D98000F0E2C246E6F6F6B010E6F239EEC23F0C9
:102DA8002C2A0E0E2C24D96EDA6A010EDA222C0E89
:102DB800DE18D8A4E2EF16F0E4EF16F0C7EF16F02D
:102DC800000E0001726F00017251D8A4EEEF16F0E8
:102DD800F0EF16F07DEF16F000017251D8A4F7EF6E
:102DE80016F0F9EF16F068EF16F0150E0001716F86
:102DF8004B0E706FBE0EE82EFED7702FFCD7712FCA
:102E0800FAD700F0400E1E6E000E1F6E000E206EE8
:102E1800F4EC18F09D8A1200010E206E1E501F104F
:102E2800D8B419EF17F01BEF17F02BEF17F01EC0EF
:102E3800D9FF1FC0DAFFDF50070B0001606F070ED4
:102E4800606529EF17F02BEF17F090EF17F0000EE1
:102E5800206EB1EF17F01EC0D9FF1FC0DAFFDF5098
:102E6800070B606F010E616F602B3DEF17F0D89074
:102E78006137602F3BEF17F000016151FF0A626F65
:102E88001EC0D9FF1FC0DAFFDF30E832E832070B77
:102E9800636F6351020DBC0EF324D96E000EF4204B
:102EA800DA6EDECF64F0DDCF65F064C0D9FF65C0AF
:102EB800DAFF6251DF16B1EF17F01EC0D9FF1FC04D
:102EC800DAFFDF50070B606F010E616F602B6FEF49
:102ED80017F0D8906137602F6DEF17F01EC0D9FF3B
:102EE8001FC0DAFFDF30E832E832070B0001626FFB
:102EF8006251020DBC0EF324D96E000EF420DA6E76
:102F0800DECF63F0DDCF64F063C0D9FF64C0DAFFC1
:102F18006151DF12B1EF17F01EC0D9FF1FC0DAFFF1
:102F2800DFBC99EF17F09CEF17F0010E9DEF17F03B
:102F3800000E606F616B6151000AD8B4A6EF17F0FC
:102F48002BEF17F06051000AD8B42FEF17F0010AE1
:102F5800D8B461EF17F02BEF17F020501200010ED4
:102F68000001606F21C0D9FF22C0DAFFDF50D8A46A
:102F7800C0EF17F0C2EF17F003EF18F0E0EF17F00B
:102F8800BD50F00B0409BD6E4CEF18F0BD50F00BAE
:102F98000509BD6E4CEF18F0BD50F00B0609BD6E6B
:102FA8004CEF18F0BD50F00B0709BD6E4CEF18F050
:102FB800000E606F4CEF18F020EE02F02150D92679
:102FC8002250DA22DF50236E246A2450000AD8B433
:102FD800F0EF17F0DCEF17F02350040AD8B4C4EF71
:102FE80017F0010AD8B4CAEF17F0030AD8B4D0EF23
:102FF80017F0010AD8B4D6EF17F0DCEF17F021C0AC
:10300800D9FF22C0DAFFDE04D8A40DEF18F00FEFC5
:1030180018F04CEF18F029EF18F0BA50F00B04092B
:10302800BA6E4CEF18F0BA50F00B0509BA6E4CEFB7
:1030380018F0BA50F00B0609BA6E4CEF18F0BA50F7
:10304800F00B0709BA6E4CEF18F020EE02F0215091
:10305800D9262250DA22DF50236E246A2450000A2F
:10306800D8B439EF18F0DCEF17F02350040AD8B4BD
:1030780011EF18F0010AD8B417EF18F0030AD8B402
:103088001DEF18F0010AD8B423EF18F0DCEF17F0A1
:1030980021C01EF022C01FF0BFEC22F000016051D9
:1030A800120001015B515C11D8A45DEF18F05FEFCD
:1030B80018F061EF18F0F3EF18F0C69A20EE06F05A
:1030C8005B51D9265C51DA22DFA06DEF18F06FEF63
:1030D80018F077EF18F05BC159F15CC15AF1D3ECE5
:1030E8001EF0B3EF18F020EE06F05B51D9265C51C4
:1030F800DA22DFB082EF18F084EF18F0B3EF18F09F
:1031080020EE06F05B51D9265C51DA22DFA68FEF5C
:1031180018F091EF18F094EF18F0C58EA2EF18F0A0
:1031280020EE06F05B51D9265C51DA22DFB69FEF1C
:1031380018F0A1EF18F0A2EF18F0C59EC69EC69C25
:10314800C68820EE05F05B51D9265C51DA22DF50A3
:10315800C86E5BC11EF05CC11FF07DEC26F0D9EC97
:1031680027F0010120EE06F05B51D9265C51DA22E6
:10317800DFA2C1EF18F0C3EF18F0C6EF18F0C78E42
:10318800D4EF18F020EE06F05B51D9265C51DA2214
:10319800DFB2D1EF18F0D3EF18F0D4EF18F0C79ED4
:1031A80020EE06F05B51D9265C51DA22DFA4DFEF6E
:1031B80018F0E1EF18F0E4EF18F0C78CF2EF18F010
:1031C80020EE06F05B51D9265C51DA22DFB4EFEF2E
:1031D80018F0F1EF18F0F2EF18F0C79CC68A120049
:1031E800010E216E1E501F10D8B4FDEF18F0FFEF2E
:1031F80018F00FEF19F01EC0D9FF1FC0DAFFDF501B
:10320800070B0001606F070E60650DEF19F00FEFF7
:1032180019F074EF19F0000E216E89EF19F01EC035
:10322800D9FF1FC0DAFFDF50070B606F010E616F17
:10323800602B21EF19F0D8906137602F1FEF19F03C
:1032480000016151FF0A626F1EC0D9FF1FC0DAFF7B
:10325800DF30E832E832070B636F6351020DB20EBC
:10326800F324D96E000EF420DA6EDECF64F0DDCFE1
:1032780065F064C0D9FF65C0DAFF6251DF1689EFD7
:1032880019F01EC0D9FF1FC0DAFFDF50070B606FAF
:10329800010E616F602B53EF19F0D8906137602FE2
:1032A80051EF19F01EC0D9FF1FC0DAFFDF30E83236
:1032B800E832070B0001626F6251020DB20EF3246F
:1032C800D96E000EF420DA6EDECF63F0DDCF64F045
:1032D80063C0D9FF64C0DAFF6151DF1289EF19F0CA
:1032E8002050606F616B6151000AD8B47EEF19F00D
:1032F8000FEF19F06051000AD8B413EF19F0010A62
:10330800D8B445EF19F00FEF19F021501200000E54
:1033180000018B6F000E8A6F000E896F875188112C
:10332800D8A499EF19F09BEF19F09DEF19F011EF60
:103338001AF0D59E85C01EF086C01FF0000E216EC3
:10334800000E206E08EC27F083C022F084C023F022
:10335800DCEC26F0BCEF19F0010E83251E6E000E82
:1033680084211F6E8B0E206E000E216EE0EC1FF084
:1033780000018B51D8B4C3EF19F0C5EF19F0B0EFC5
:1033880019F0D58ED4EF19F0010E83251E6E000EAC
:1033980084211F6E8B0E206E000E216EE0EC1FF054
:1033A80000018B51D8A4DBEF19F0DDEF19F0C8EF5D
:1033B80019F0D59E85C01EF086C01FF0890E206EBC
:1033C800000E216E2FEC1FF089C01EF08AC01FF07E
:1033D800206A216A000E04EC14F01EC06AF01FC0B7
:1033E8006BF020C06CF021C06DF0330E00016E6FE1
:1033F800330E6F6F6B0E706F420E716FB3EC0EF081
:1034080087C0D9FF88C0DAFF00016AC0DEFF6BC041
:10341800DEFF6CC0DEFF6DC0DEFF12000101533518
:103428005435236E2350D8A41CEF1AF01EEF1AF05F
:1034380028EF1AF0000E516F000E526F000E536FF6
:10344800000E546F95EF1AF051C155F152C156F163
:1034580053C157F154C158F1200E38EF1AF0D890E3
:103468005833573356335533E82E33EF1AF0555146
:10347800226E538FFF0E5117FF0E5217FF0E531770
:10348800000E5417960E235E23BE4FEF1AF04DEF31
:103498001AF065EF1AF02350800A970FD8B057EF4B
:1034A8001AF059EF1AF05BEF1AF01EEF1AF0D890E5
:1034B8005433533352335133233E5BEF1AF07DEFCD
:1034C8001AF01F0E23646BEF1AF06DEF1AF075EF08
:1034D8001AF01EEF1AF0D890513752375337543735
:1034E80023062350D8A47BEF1AF07DEF1AF06FEF74
:1034F8001AF02250D8B483EF1AF085EF1AF08DEF46
:103508001AF0541F531F521F516D000E522353239C
:10351800542351C151F152C152F153C153F154C115
:1035280054F1120023502410D8A49DEF1AF09FEFF5
:103538001AF0A1EF1AF016EF1BF0D59E20EE03F05B
:103548002350D9262450DA22DFA202D0D58C01D00C
:10355800D59C20EE03F02350D9262450DA22DFB47C
:10356800B8EF1AF0BAEF1AF0C9EF1AF023C0D9FF72
:1035780024C0DAFFDF500001606FD5506019F80BE6
:103588006019D56ED596D7EF1AF020EE03F02350C8
:10359800D9262450DA22DFA4D4EF1AF0D6EF1AF095
:1035A800D7EF1AF0D58620EE03F02350D926245001
:1035B800DA22DFA0E2EF1AF0E4EF1AF0F0EF1AF0E7
:1035C80020EE03F02350D9262450DA22DFA602D0B9
:1035D800D58801D0D598928820EE03F02350D926BB
:1035E8002450DA22DFA002D0D58A01D0D59A23C090
:1035F8001EF024C01FF020EE01F02350D9262450DD
:10360800DA22DECF20F0DDCF21F008EC27F020EE23
:1036180001F02350D9262450DA22DECFD7F0DDCFAF
:10362800D8F0D58E1200000166516711D8A41FEF9B
:103638001BF021EF1BF023EF1BF093EF1BF066C08C
:10364800D9FF67C0DAFFDF50D8A42DEF1BF02FEFAA
:103658001BF033EF1BF0F00EBD1641EF1BF066C0F8
:10366800D9FF67C0DAFFDE04D8A43DEF1BF03FEFB7
:103678001BF041EF1BF0F00EBA1620EE01F0665178
:10368800D9266751DA22DF50D8A44DEF1BF04FEF4F
:103698001BF057EF1BF066C021F067C022F0B3ECB7
:1036A80017F084EF1BF020EE01F06651D926675120
:1036B800DA22DE04D8A463EF1BF065EF1BF06DEF90
:1036C8001BF066C021F067C022F0A4EC15F084EF6F
:1036D8001BF020EE01F06651D9266751DA22020E5E
:1036E800DE18D8A47AEF1BF07CEF1BF084EF1BF0F8
:1036F80066C021F067C022F08AEC20F084EF1BF04E
:10370800030E00016625226E000E6721236E20EC51
:1037180026F066C01EF067C01FF0DEEC27F012002E
:10372800010159515A11D8A49CEF1BF09EEF1BF0D0
:10373800A0EF1BF007EF1CF05D51040DF350080FCC
:10374800616F000E0001A06F000EA16F4C0EA26FFA
:10375800430EA36FFC0E876FA90E886F910E896FB9
:103768003F0E8A6F01015E511E6E1F6A206A216A30
:10377800010E04EC14F01EC083F01FC084F020C0BA
:1037880085F021C086F0C1EC0AF083C09CF084C0AB
:103798009DF085C09EF086C09FF024EC08F09CC088
:1037A80051F19DC052F19EC053F19FC054F112ECEB
:1037B8001AF051C15FF152C160F159C160F05AC1AC
:1037C80061F05BC1D9FF5CC1DAFFDF500001626FB5
:1037D80061C163F05FC164F03FEC25F00101612B2A
:1037E80059C160F05AC161F05BC1D9FF5CC1DAFF11
:1037F800DF500001626F61C163F001016051000197
:10380800646F3FEC25F01200FACF14F0FBCF15F0EF
:10381800D9CF16F0DACF17F0F3CF18F0F4CF19F0AC
:10382800F2AA19EF1CF01BEF1CF024EF1CF0F2A415
:1038380020EF1CF022EF1CF024EF1CF0E2EC27F044
:103848009DA229EF1CF02BEF1CF02CEF1CF09E50D2
:10385800A0A231EF1CF033EF1CF034EF1CF0A150A4
:10386800A0A039EF1CF03BEF1CF03CEF1CF0A1507E
:103878009DAA41EF1CF043EF1CF04CEF1CF09EAAF0
:1038880048EF1CF04AEF1CF04CEF1CF0F2EC26F06D
:103898009DA851EF1CF053EF1CF05CEF1CF09EA8A4
:1038A80058EF1CF05AEF1CF05CEF1CF0E3EC27F02B
:1038B800A0A661EF1CF063EF1CF064EF1CF0A150B0
:1038C8009DA669EF1CF06BEF1CF06CEF1CF09E508E
:1038D80019C0F4FF18C0F3FF17C0DAFF16C0D9FFEC
:1038E80015C0FBFF14C0FAFF4292110006500710E2
:1038F800D8A481EF1CF083EF1CF085EF1CF0EBEFF0
:103908001CF020EE02F00650D9260750DA22DFA676
:1039180090EF1CF092EF1CF0E9EF1CF020EE02F0A3
:103928000650D9260750DA22DF50030B0009D8A425
:10393800A0EF1CF0A2EF1CF0B1EF1CF008C00AF0D9
:1039480009C00BF00BC00AF00B6A0A30D8A002D0ED
:10395800AC8001D0AC90E9EF1CF020EE02F00650EC
:10396800D9260750DA22DF50030BE806D8A4BFEFA8
:103978001CF0C1EF1CF0CDEF1CF00850A5EC24F0B2
:103988000A6E0A30D8A002D0AC8001D0AC90E9EF22
:103998001CF020EE02F00650D9260750DA22DF503C
:1039A800030B020AD8A4DBEF1CF0DDEF1CF0E9EFF3
:1039B8001CF0085071EC24F00A6E0A30D8A002D02E
:1039C800AC8001D0AC90E9EF1CF008C0ADFF12004C
:1039D80001015D515E11D8B4F4EF1CF0F6EF1CF054
:1039E800FFEF1CF05F516011D8A4FDEF1CF0FFEF52
:1039F8001CF001EF1DF052EF1DF05DC15BF15EC1DF
:103A08005CF155EC18F05DC160F05EC161F05FC11A
:103A1800D9FF60C1DAFFDF500001626FFE0E636FED
:103A2800010120EE01F05F51D9266051DA22DF5002
:103A38000001646F3FEC25F05DC160F05EC161F08C
:103A48005FC1D9FF60C1DAFFDF500001626F000E6D
:103A5800636F010120EE02F05F51D9266051DA222E
:103A6800DF500001646F3FEC25F05DC160F05EC17E
:103A780061F05FC1D9FF60C1DAFFDF500001626FFA
:103A8800010E636F010120EE03F05F51D9266051EA
:103A9800DA22DF500001646F3FEC25F01200020EBD
:103AA8000001F76F6DEC27F0C60E0101596F000E8B
:103AB8005A6FCD0E5B6F000E5C6F000E5D6F2D0EA2
:103AC8005E6F94EC1BF0C60E0101596F000E5A6F21
:103AD800CD0E5B6F000E5C6F010E5D6F190E5E6F91
:103AE80094EC1BF0C60E0101596F000E5A6FCD0EF3
:103AF8005B6F000E5C6F020E5D6F870E5E6F94EC5D
:103B08001BF0C60E0101596F000E5A6FCD0E5B6F88
:103B1800000E5C6F030E5D6F730E5E6F94EC1BF00E
:103B2800D40E226E000E236E32EC27F0D30E226ED6
:103B3800000E236E32EC27F0410E0101596F010E81
:103B48005A6F5F0E5B6FE0EC14F0350E0101596F90
:103B5800010E5A6F550E5B6FE0EC14F01200030E65
:103B68000001F76F6DEC27F0C60E0101596F000ECA
:103B78005A6FCD0E5B6F000E5C6F000E5D6F730E9B
:103B88005E6F94EC1BF0C60E0101596F000E5A6F60
:103B9800CD0E5B6F000E5C6F010E5D6F870E5E6F62
:103BA80094EC1BF0C60E0101596F000E5A6FCD0E32
:103BB8005B6F000E5C6F020E5D6F190E5E6F94EC0A
:103BC8001BF0C60E0101596F000E5A6FCD0E5B6FC8
:103BD800000E5C6F030E5D6F2D0E5E6F94EC1BF094
:103BE800D40E226E000E236E32EC27F0D30E226E16
:103BF800000E236E32EC27F0410E0101596F010EC1
:103C08005A6F550E5B6FE0EC14F0350E0101596FD9
:103C1800010E5A6F5F0E5B6FE0EC14F01200010E9C
:103C28000001F76F6DEC27F0C60E0101596F000E09
:103C38005A6FCD0E5B6F000E5C6F000E5D6F5A0EF3
:103C48005E6F94EC1BF0C60E0101596F000E5A6F9F
:103C5800CD0E5B6F000E5C6F010E5D6F5A0E5E6FCE
:103C680094EC1BF0C60E0101596F000E5A6FCD0E71
:103C78005B6F000E5C6F020E5D6F5A0E5E6F94EC08
:103C88001BF0C60E0101596F000E5A6FCD0E5B6F07
:103C9800000E5C6F030E5D6F5A0E5E6F94EC1BF0A6
:103CA800D40E226E000E236E32EC27F0D30E226E55
:103CB800000E236E32EC27F0410E0101596F010E00
:103CC8005A6F5F0E5B6FE0EC14F0350E0101596F0F
:103CD800010E5A6F5F0E5B6FE0EC14F01200040ED9
:103CE8000001F76F6DEC27F0C60E0101596F000E49
:103CF8005A6FCD0E5B6F000E5C6F000E5D6F5A0E33
:103D08005E6F94EC1BF0C60E0101596F000E5A6FDE
:103D1800CD0E5B6F000E5C6F010E5D6F5A0E5E6F0D
:103D280094EC1BF0C60E0101596F000E5A6FCD0EB0
:103D38005B6F000E5C6F020E5D6F5A0E5E6F94EC47
:103D48001BF0C60E0101596F000E5A6FCD0E5B6F46
:103D5800000E5C6F030E5D6F5A0E5E6F94EC1BF0E5
:103D6800D40E226E000E236E46EC27F0D30E226E80
:103D7800000E236E46EC27F0410E0101596F010E2B
:103D88005A6F5F0E5B6FE0EC14F0350E0101596F4E
:103D9800010E5A6F5F0E5B6FE0EC14F01200010128
:103DA80059515A11D8A4DBEF1EF0DDEF1EF0DFEFFA
:103DB8001EF02EEF1FF020EE04F05951D9265A516B
:103DC800DA22DF50246EC6502418F00B2418C66E71
:103DD800000E0001A06F000EA16F800EA26FBF0E33
:103DE800A36F59C1D9FF5AC1DAFFDECF1EF0DECF6B
:103DF8001FF0DECF20F0DECF21F0000E04EC14F02F
:103E08001EC06EF01FC06FF020C070F021C071F0AE
:103E1800000E00016A6F240E6B6FF40E6C6F490E72
:103E28006D6FB3EC0EF06AC09CF06BC09DF06CC077
:103E38009EF06DC09FF024EC08F09CC051F19DC02D
:103E480052F19EC053F19FC054F112EC1AF00101D7
:103E58005151C86E1200000E236E000E226E1E50C5
:103E68001F10D8B43AEF1FF03CEF1FF045EF1FF0DA
:103E780020502110D8A443EF1FF045EF1FF047EF63
:103E88001FF088EF1FF020EE03F01E50D9261F50B8
:103E9800DA22DFB252EF1FF054EF1FF06DEF1FF080
:103EA800D6CF23F0D7CF22F022500001616F606B8C
:103EB8002350626F636B605162276151632320C096
:103EC800D9FF21C0DAFF62C0DEFF63C0DDFF88EFE3
:103ED8001FF020EE03F01E50D9261F50DA22DFA271
:103EE80078EF1FF07AEF1FF045EF1FF0D6CF23F0E1
:103EF80023500001606F616B20C0D9FF21C0DAFF39
:103F080060C0DEFF61C0DDFF1200010E236E21508C
:103F18002210D8A492EF1FF094EF1FF098EF1FF033
:103F2800000E236EDEEF1FF020EE06F02150D9269A
:103F38002250DA22DFA6A3EF1FF0A5EF1FF0CEEF85
:103F48001FF0AB9821C01EF022C01FF0DBEC20F060
:103F5800236E20EE06F02150D9262250DA22DFA85F
:103F6800B8EF1FF0BAEF1FF0BDEF1FF0AB8CCBEF2F
:103F78001FF020EE06F02150D9262250DA22DFB8B1
:103F8800C8EF1FF0CAEF1FF0CBEF1FF0AB9CAB8858
:103F9800DEEF1FF020EE06F02150D9262250DA225B
:103FA800DFB6D9EF1FF0DBEF1FF0DEEF1FF0AB98A5
:103FB800DEEF1FF0235012001E501F10D8B4E7EF99
:103FC8001FF0E9EF1FF002EF20F020502110D8B4C5
:103FD800F0EF1FF0F2EF1FF002EF20F01EC0D9FF44
:103FE8001FC0DAFFDF50070B0001606F070E606526
:103FF80000EF20F002EF20F004EF20F036EF20F081
:104008001EC0D9FF1FC0DAFFDF50070B606F1EC04C
:10401800D9FF1FC0DAFFDF30E832E832070B616FE3
:104028006151020DA80EF324D96E000EF420DA6E49
:10403800DECF62F0DDCF63F062C0D9FF63C0DAFF84
:10404800DF50646F602B2BEF20F0D8906433602F23
:1040580029EF20F000016451010B20C0D9FF21C0D5
:10406800DAFFDF6E1200000160516111D8B43FEF32
:1040780020F041EF20F065EF20F062516311D8B4D1
:1040880048EF20F04AEF20F065EF20F06451651109
:10409800D8B451EF20F053EF20F065EF20F06651CF
:1040A8006711D8B45AEF20F05CEF20F065EF20F0EC
:1040B80068516911D8A463EF20F065EF20F067EF2D
:1040C80020F089EF20F092EC27F0C6EC26F060C0D3
:1040D8001EF061C01FF074EC21F062C01EF063C0D6
:1040E8001FF074EC21F064C01EF065C01FF074EC82
:1040F80021F066C01EF067C01FF074EC21F068C0A4
:104108001EF069C01FF074EC21F0120020EE09F0D7
:104118002150D9262250DA22DF50CB6E090E2124F5
:104128001E6E000E22201F6E67EC23F021C0D9FFFF
:1041380022C0DAFFDF50D8A4A4EF20F0A6EF20F0C9
:10414800BBEF20F020EE02F02150D9262250DA22CF
:104158000C0EDE18D8A4B3EF20F0B5EF20F0DAEF9C
:1041680020F0BD50F00B0C09BD6EDAEF20F021C035
:10417800D9FF22C0DAFFDE04D8A4C5EF20F0C7EFCC
:1041880020F0DAEF20F020EE02F02150D92622505C
:10419800DA220C0EDE18D8A4D4EF20F0D6EF20F0E7
:1041A800DAEF20F0BA50F00B0C09BA6E1200010ECB
:1041B800206E1E501F10D8A4E4EF20F0E6EF20F088
:1041C800EAEF20F0000E206E2AEF21F09D9A1EC023
:1041D800D9FF1FC0DAFFDECF29F0DDCF2AF020EEAD
:1041E80004F01E50D9261F50DA22DECFF3F0DDCFBF
:1041F800F4F020EE02F01E50D9261F50DA22DECF4E
:10420800F5F0DDCFF6F0D08E20EE06F01E50D92660
:104218001F50DA22DFA013EF21F015EF21F019EF7C
:1042280021F09F8AF28E29EF21F020EE06F01E5031
:10423800D9261F50DA22DFB024EF21F026EF21F033
:1042480029EF21F09F9AF28EF28C9D8A205012005D
:10425800010E206E1E501F10D8A435EF21F037EF45
:1042680021F03BEF21F0000E206E72EF21F01EC00E
:10427800D9FF1FC0DAFFDFA444EF21F046EF21F099
:1042880064EF21F0AC9A1EC0D9FF1FC0DAFFDFA689
:1042980050EF21F052EF21F055EF21F0AC8C61EF97
:1042A80021F01EC0D9FF1FC0DAFFDFB65EEF21F094
:1042B80060EF21F061EF21F0AC9CAC8A72EF21F045
:1042C8001EC0D9FF1FC0DAFFDFB46DEF21F06FEF1A
:1042D80021F072EF21F0AC9A72EF21F02050120019
:1042E8001EC0D9FF1FC0DAFF000EDF6E000E216E60
:1042F80083AE81EF21F083EF21F07CEF21F01A0EDD
:10430800E82EFED700F000F083AE8DEF21F08FEF9E
:1043180021F09EEF21F01EC0D9FF1FC0DAFFDF5049
:10432800206ED88020341EC0D9FF1FC0DAFFDF6E90
:10433800ABEF21F01EC0D9FF1FC0DAFFDF50206E9F
:10434800D89020341EC0D9FF1FC0DAFFDF6E83BEAD
:10435800B0EF21F0B2EF21F0ABEF21F0212A070EE8
:104368002164B9EF21F0BBEF21F07CEF21F01200BE
:10437800000EF66E4F0EF76E000EF86E01EE29F085
:1043880010EE24F00900F5CFEEFFE550E150FAE118
:104398005E0EF66E4D0EF76E000EF86E00EEA8F08B
:1043A80010EE2DF00900F5CFEEFFE550E150FAE1EF
:1043B800AA0EF66E4F0EF76E000EF86E00EE3AF08B
:1043C80010EE08F00900F5CFEEFFE550E150FAE1F4
:1043D80001EE00F0290EEE6AE806FDE100EED5F0E8
:1043E8002B0EEE6AE806FDE100EE25F0150EEE6AEA
:1043F800E806FDE142904292000181EF10F0D40EF0
:104408000001666F000E676F5AEC27F0D30E0001AB
:10441800666F000E676F5AEC27F0410E0001666F59
:10442800010E676F17EC1BF0350E0001666F010E69
:10443800676F17EC1BF0410E0101596F010E5A6F9F
:104448005F0E5B6FE0EC14F0350E0101596F010E41
:104458005A6F5F0E5B6FE0EC14F0410E1E6E010E9A
:104468001F6E72EC25F0350E1E6E010E1F6E72EC7B
:1044780025F0C60E01015D6F000E5E6FCD0E5F6FF9
:10448800000E606FECEC1CF0120000016651671121
:10449800D8A451EF22F053EF22F055EF22F086EF27
:1044A80022F066C022F067C023F020EC26F0010E4F
:1044B80000016625226E000E6721236E20EC26F08F
:1044C800010E000166251E6E000E67211F6E10EC9E
:1044D80017F066C01EF067C01FF010EC17F066C03A
:1044E8001EF067C01FF0000E206EF4EC18F0010EED
:1044F800000166251E6E000E67211F6E000E206EDD
:10450800F4EC18F0120022502310D8A48EEF22F0F9
:1045180090EF22F092EF22F0BEEF22F022C01EF0C0
:1045280023C01FF0010E206EF4EC18F0060E0001F7
:10453800676F130E666FAD0EE82EFED7662FFCD799
:10454800672FFAD700F000F022C01EF023C01FF03A
:10455800000E206EF4EC18F0060E0001676F130EC3
:10456800666FAD0EE82EFED7662FFCD7672FFAD7F9
:1045780000F000F0120020EE04F01E50D9261F5063
:10458800DA22DF50D8A4CBEF22F0CDEF22F0D1EF22
:1045980022F0B196B18CF6EF22F020EE04F01E5016
:1045A800D9261F50DA22DE04D8A4DDEF22F0DFEF8F
:1045B80022F0E3EF22F0B186B19CF6EF22F020EE74
:1045C80004F01E50D9261F50DA22020EDE18D8A495
:1045D800F0EF22F0F2EF22F0F6EF22F0B196B19C64
:1045E800F6EF22F012001E501F10D8A4FEEF22F0A2
:1045F80000EF23F002EF23F02EEF23F01EC0D9FFC7
:104608001FC0DAFFDF50070B206E010E216E202A33
:1046180010EF23F0D8902136202E0EEF23F01EC085
:10462800D9FF1FC0DAFFDF30E832E832070B226E0D
:104638002250020DB20EF324D96E000EF420DA6E69
:10464800DECF23F0DDCF24F023C0D9FF24C0DAFF6A
:104658002150DF1A120001500210D8A436EF23F0BF
:1046680038EF23F03AEF23F066EF23F001C0D9FFCB
:1046780002C0DAFFDF50070B036E010E046E032A37
:1046880048EF23F0D8900436032E46EF23F001C0FC
:10469800D9FF02C0DAFFDF30E832E832070B056ED7
:1046A8000550020DB20EF324D96E000EF420DA6E16
:1046B800DECF06F0DDCF07F006C0D9FF07C0DAFF6E
:1046C8000450DF1A12001E501F10D8A46EEF23F0FA
:1046D80070EF23F072EF23F09DEF23F0CA9420EEE1
:1046E80001F01E50D9261F50DA22DF50206ECA5022
:1046F8002018FC0B2018CA6E20EE02F01E50D92696
:104708001F50DA22DF50206E204620462046CA502D
:104718002018870B2018CA6E1EC0D9FF1FC0DAFFE9
:10472800DF50CC6E1EC0D9FF1FC0DAFFDF502B6EE2
:10473800CA84120000016C516D11D8B4A6EF23F0A1
:10474800A8EF23F0B1EF23F06E516F11D8A4AFEFAB
:1047580023F0B1EF23F0B3EF23F0C4EF23F09EAAC8
:10476800B8EF23F0BAEF23F0B3EF23F06CC060F09A
:104778006DC061F06EC062F06FC063F0F7EC11F0CD
:10478800ABB2C9EF23F0CBEF23F0D2EF23F0ABA409
:10479800D0EF23F0D2EF23F0D4EF23F0AB98AB881F
:1047A80012001E501F10D8B4DCEF23F0DEEF23F008
:1047B800E7EF23F021502210D8A4E5EF23F0E7EF2C
:1047C80023F0E9EF23F008EF24F020C0C9FFC7B0B9
:1047D800F0EF23F0F2EF23F0EBEF23F09E96C5BC49
:1047E800F8EF23F0FAEF23F002EF24F021C0D9FF0D
:1047F80022C0DAFF000EDF6E08EF24F021C0D9FFD7
:1048080022C0DAFF010EDF6E1200206E000E216E4C
:10481800000E226E000E226E22C01EF0010E1F6EC8
:104828001E2A19EF24F0D8901F361E2E17EF24F0F9
:104838001F5020140009D8B424EF24F026EF24F0E8
:1048480027EF24F0212A222A070E22642EEF24F0D3
:1048580030EF24F010EF24F0212A21B036EF24F0B5
:1048680038EF24F03BEF24F0010E3CEF24F0000E6B
:104878001200206E000E216E000E226E000E226EB7
:1048880022C01EF0010E1F6E1E2A4DEF24F0D89094
:104898001F361E2E4BEF24F01F5020140009D8B4E9
:1048A80058EF24F05AEF24F05BEF24F0212A222A53
:1048B800070E226462EF24F064EF24F044EF24F042
:1048C800212A21A06AEF24F06CEF24F06FEF24F086
:1048D800010E70EF24F0000E1200036E000E046E3D
:1048E800000E056E000E056E05C001F0010E026E89
:1048F800012A81EF24F0D8900236012E7FEF24F0B0
:10490800025003140009D8B48CEF24F08EEF24F081
:104918008FEF24F0042A052A070E056496EF24F089
:1049280098EF24F078EF24F0042A04B09EEF24F0E6
:10493800A0EF24F0A3EF24F0010EA4EF24F0000E62
:104948001200036E000E046E000E056E000E056E5A
:1049580005C001F0010E026E012AB5EF24F0D890CF
:104968000236012EB3EF24F0025003140009D8B424
:10497800C0EF24F0C2EF24F0C3EF24F0042A052A84
:10498800070E0564CAEF24F0CCEF24F0ACEF24F056
:10499800042A04A0D2EF24F0D4EF24F0D7EF24F0B7
:1049A800010ED8EF24F0000E1200000168516911C1
:1049B800D8A4E1EF24F0E3EF24F0E5EF24F00BEFC7
:1049C80025F0010E68251E6E000E69211F6E010E6E
:1049D800206EF4EC18F0000E00016B6F000E6A6F89
:1049E80068C022F069C023F087EC22F000016A4B0E
:1049F8006B2B6BBF09EF25F06B5109E10A0E6A5D5D
:104A0800D8A009EF25F00BEF25F0F4EF24F0120001
:104A1800000168516911D8A414EF25F016EF25F0AC
:104A280018EF25F03EEF25F0010E68251E6E000EEA
:104A380069211F6E000E206EF4EC18F0000E0001C4
:104A48006B6F000E6A6F68C022F069C023F087ECB4
:104A580022F000016A4B6B2B6BBF3CEF25F06B51CA
:104A680009E10A0E6A5DD8A03CEF25F03EEF25F07B
:104A780027EF25F01200060E236E60C01EF061C0FD
:104A88001FF061EC26F060C01EF061C01FF062C02C
:104A980020F0230E216E000E226ED5EC23F060C0AC
:104AA8001EF061C01FF063C020F0230E216E000EBF
:104AB800226ED5EC23F060C01EF061C01FF064C008
:104AC80020F0230E216E000E226ED5EC23F060C07C
:104AD8001EF061C01FF045EC26F012001E501F109A
:104AE800D8A479EF25F07BEF25F07DEF25F09FEF37
:104AF80025F01EC0D9FF1FC0DAFFDF50D8A487EF0A
:104B080025F089EF25F08FEF25F0BD50F00B0C094B
:104B1800BD6E9FEF25F01EC0D9FF1FC0DAFFDE046F
:104B2800D8A499EF25F09BEF25F09FEF25F0BA5018
:104B3800F00B0C09BA6E1200010166516711D8A476
:104B4800A8EF25F0AAEF25F0ACEF25F0CCEF25F083
:104B5800AB9E66C159F167C15AF1D7EC0CF0246ECF
:104B6800AC98948C020E010166251E6E000E67211A
:104B78001F6E2CEC21F02416948E030E010166257D
:104B8800216E000E6721226E89EC1FF02416AB8E71
:104B98001200000166516711D8B4D5EF25F0D7EFA0
:104BA80025F0E0EF25F068516911D8A4DEEF25F073
:104BB800E0EF25F0E2EF25F0F7EF25F066C022F0F0
:104BC80067C023F020EC26F0010E00016625226E56
:104BD800000E6721236E20EC26F068C023F069C020
:104BE80024F096EC1AF01200410E226E000E236E8D
:104BF80020EC26F0400E226E000E236E20EC26F0EC
:104C080003EC22F03E0E0001666F000E676F49EC60
:104C180022F0D10E0001666F000E676FF80E686F04
:104C2800000E696FCDEC25F0290E0101666F010EAB
:104C3800676FA0EC25F0120022502310D8A427EFAC
:104C480026F029EF26F02DEF26F0000E246E43EF14
:104C580026F022C01EF023C01FF010EC17F0246EBF
:104C680022C01EF023C01FF022C0D9FF23C0DAFFE4
:104C7800000EDFBE010E206EF4EC18F0246E2450F6
:104C880012001E501F10D8A44CEF26F04EEF26F04D
:104C980050EF26F060EF26F0C584C5B456EF26F035
:104CA80058EF26F051EF26F09E96C7A85EEF26F043
:104CB80060EF26F04EEF26F012001E501F10D8A409
:104CC80068EF26F06AEF26F06CEF26F07CEF26F00E
:104CD800C580C5B072EF26F074EF26F06DEF26F0B0
:104CE8009E96C7A67AEF26F07CEF26F06AEF26F0AC
:104CF80012001E501F10D8A484EF26F086EF26F06D
:104D080088EF26F095EF26F020EE04F01E50D92605
:104D18001F50DA22DF50206EC6502018F00B2018E2
:104D2800C66E1200290E066E010E076E380E086E4A
:104D3800000E096EFFEC12F0290E0C6E010E0D6EBE
:104D48003AC00EF01DEC27F0410E016E000E026E07
:104D58002FEC23F01200800F810F820F830F840F36
:104D6800890F8A0F8B0F8C0F8D0F920F930F940F53
:104D7800950F960FA0860100080003807921040B87
:034D88004A1918AD
:104D8C0083BECBEF26F0CDEF26F0C6EF26F083AE38
:104D9C00D2EF26F0D4EF26F0CDEF26F083BED9EF7C
:104DAC0026F0DBEF26F0D4EF26F0120022C01EF026
:104DBC0023C01FF0010E206EF4EC18F0060EE82E46
:104DCC00FED700F000F022C01EF023C01FF0000E32
:104DDC00206EF4EC18F0120029502A10D8B4F9EF18
:104DEC0026F0FBEF26F007EF27F002D807EF27F0AD
:104DFC000500FA6E2950FD6E2A50FE6EFF6AFA50BD
:104E0C0012001200010E226E1E501F10D8A411EFBA
:104E1C0027F013EF27F017EF27F0000E226E1BEF91
:104E2C0027F02150D76E20C0D6FF225012000C5014
:104E3C000D10D8A424EF27F026EF27F028EF27F049
:104E4C0031EF27F00CC006F00DC007F00EC008F0D3
:104E5C00096A7AEC1CF0120022502310D8A439EF06
:104E6C0027F03BEF27F03DEF27F045EF27F022C06E
:104E7C001EF023C01FF0000E206EF4EC18F0120090
:104E8C0022502310D8A44DEF27F04FEF27F051EF0D
:104E9C0027F059EF27F022C01EF023C01FF0010E9F
:104EAC00206EF4EC18F01200000166516711D8A4C2
:104EBC0062EF27F064EF27F066EF27F06CEF27F036
:104ECC0066C022F067C023F020EC26F01200410EE1
:104EDC000101596F010E5A6F000E5B6FE0EC14F07C
:104EEC00350E0101596F010E5A6F000E5B6FE0EC2D
:104EFC0014F012008025042C4D0000000009000065
:104F0C000102001100F4010000F9000F0002001270
:104F1C0000F4010000F9000F959E8C9E2F0E1E6E62
:104F2C00C00EE82EFED71E2EFCD78C8E140EE82E4B
:104F3C00FED7958E12001A6EF2901A50D8B4A9EFC3
:104F4C0027F0ABEF27F0ADEF27F0ADEF27F0120015
:104F5C001A6EF2901A50D8B4B6EF27F0B8EF27F0CB
:104F6C00BAEF27F0BAEF27F012001A6EF2901A502F
:104F7C00D8B4C3EF27F0C5EF27F0C7EF27F0C7EF82
:104F8C0027F012001A6EF2901A50D8B4D0EF27F016
:104F9C00D2EF27F0D4EF27F0D4EF27F012007701EF
:104FAC00010F1B1A1C10948694881200F0901200AA
:0C4FBC001200120012001200120012007D
:020000040020DA
:08000000FFFFFFFFFFFFFFFF00
:020000040030CA
:0E000000FF02191EFF8181FF0FC00FE00F40AD
:00000001FF
