:020000040000FA
:0400000043EF01F0D9
:060008007A822EED24F0C7
:100018007A80D8CF02F0E8CF03F0E0CF04F0F0A662
:1000280018EF00F01AEF00F023EF00F0F0A01FEF38
:1000380000F021EF00F023EF00F0C5EC2AF0F2A663
:1000480028EF00F02AEF00F043EF00F0F2A02FEFC6
:1000580000F031EF00F043EF00F081A836EF00F038
:1000680038EF00F043EF00F078A03DEF00F03FEFED
:1000780000F043EF00F07890010EB1EC2AF0F2A600
:1000880048EF00F04AEF00F063EF00F0F2A04FEF06
:1000980000F051EF00F063EF00F081B856EF00F088
:1000A80058EF00F063EF00F078B05DEF00F05FEF1D
:1000B80000F063EF00F07880000EB1EC2AF0F2A6B1
:1000C80068EF00F06AEF00F083EF00F0F2A06FEF46
:1000D80000F071EF00F083EF00F081AA76EF00F0F6
:1000E80078EF00F083EF00F078A27DEF00F07FEF6B
:1000F80000F083EF00F07892010EA4EC2AF0F2A64B
:1001080088EF00F08AEF00F0A3EF00F0F2A08FEF85
:1001180000F091EF00F0A3EF00F081BA96EF00F045
:1001280098EF00F0A3EF00F078B29DEF00F09FEF9A
:1001380000F0A3EF00F07882000EA4EC2AF0F2A6FB
:10014800A8EF00F0AAEF00F0C3EF00F0F2A0AFEFC5
:1001580000F0B1EF00F0C3EF00F081ACB6EF00F0B3
:10016800B8EF00F0C3EF00F078A4BDEF00F0BFEFE8
:1001780000F0C3EF00F07894010E97EC2AF0F2A695
:10018800C8EF00F0CAEF00F0E3EF00F0F2A0CFEF05
:1001980000F0D1EF00F0E3EF00F081BCD6EF00F003
:1001A800D8EF00F0E3EF00F078B4DDEF00F0DFEF18
:1001B80000F0E3EF00F07884000E97EC2AF0F2A646
:1001C800E8EF00F0EAEF00F003EF01F0F2A0EFEF44
:1001D80000F0F1EF00F003EF01F081AEF6EF00F070
:1001E800F8EF00F003EF01F078A6FDEF00F0FFEF65
:1001F80000F003EF01F07896010E8AEC2AF0F2A6DF
:1002080008EF01F00AEF01F023EF01F0F2A00FEF81
:1002180001F011EF01F023EF01F081BE16EF01F0BC
:1002280018EF01F023EF01F078B61DEF01F01FEF92
:1002380001F023EF01F07886000E8AEC2AF09DACDD
:1002480028EF01F02AEF01F033EF01F09EAC2FEF19
:1002580001F031EF01F033EF01F0C9EC2AF09DA075
:1002680038EF01F03AEF01F03BEF01F09E5004C087
:10027800E0FF03C0E8FF02C0D8FF7A90100028EF23
:0202880027F05D
:101000000041542B554152543A393630302C302C53
:10101000300D0A0041542B524E414D453A526F62F9
:101020006F740D0A00202020202020202020202066
:101030002020200041542B505357443A313233344E
:101040000D0A0041542B524F4C453A300D0A0068AE
:10105000756D653A0074656D703A00494E46004EF4
:10106000414E00696E66006E616E002D3E20006C80
:0F10700066002566002569002E00300031000063
:10108000000E0001956F000E946F42C0A6F043C0A1
:10109000A7F044C0A8F045C0A9F0A9BF54EF08F0DC
:1010A00052EF08F06AEF08F0000E956F010E946F92
:1010B000A6C005F0A7C006F0A8C007F0A9C008F0B8
:1010C000E9EC29F005C0A6F006C0A7F007C0A8F01B
:1010D00008C0A9F0000E0001AD6F000EAC6FD1C0CA
:1010E00098F0D2C099F094519511D8A47AEF08F0F5
:1010F0007CEF08F083EF08F074A481EF08F083EF31
:1011000008F09DEF08F094519511D8A48AEF08F0EB
:101110008CEF08F092EF08F0000E816F2B0E806FBD
:1011200096EF08F0000E816F2D0E806F80C027F1C2
:10113000AC4BAD2B9807D8A09907A6C005F0A7C067
:1011400006F0A8C007F0A9C008F028EC21F00504BB
:101150000610D8A4AEEF08F0B0EF08F0FBEF08F0EF
:10116000BF0E476EFF0E486E4650496E4A6A4750A2
:10117000492648504A224A5007E11A0E495CD8B025
:10118000C4EF08F0C6EF08F0D5EF08F0270E000115
:10119000AC25056E010EAD21066E5B0E076E100EBE
:1011A000086E40EC28F0E2EF08F0270E0001AC25B5
:1011B000056E010EAD21066E630E076E100E086EF1
:1011C00040EC28F00001FD0E9827FF0E992340C047
:1011D00015F041C016F0270E176E010E186E98C05C
:1011E00019F099C01AF0CDEC23F015C040F016C0EC
:1011F00041F047EF0EF0A6C005F0A7C006F0A8C06A
:1012000007F0A9C008F028EC21F005500610D8A47A
:101210000CEF09F00EEF09F042EF09F0BF0E476E38
:10122000FF0E486E4650496E4A6A4750492648505C
:101230004A224A5007E11A0E495CD8B022EF09F061
:1012400024EF09F033EF09F0270E0001AC25056EFD
:10125000010EAD21066E5F0E076E100E086E40EC9B
:1012600028F0E2EF08F0270E0001AC25056E010E14
:10127000AD21066E670E076E100E086E40EC28F06A
:10128000E2EF08F0000E0001AE6F000EAF6F800EAF
:10129000B06F3F0EB16F000EAB6F000EAA6FA6C00D
:1012A00005F0A7C006F0A8C007F0A9C008F0000E1E
:1012B000096E000E0A6E000E0B6E000E0C6E91ECA5
:1012C00025F0D8B066EF09F068EF09F0EBEF09F010
:1012D00087EF09F0AEC005F0AFC006F0B0C007F070
:1012E000B1C008F0000E096E000E0A6E200E0B6EE3
:1012F000410E0C6EA8EC10F005C0AEF006C0AFF0C9
:1013000007C0B0F008C0B1F00001AA4BAB2BA6C0DB
:101310001EF0A7C01FF0A8C020F0A9C021F0000E49
:10132000096E000E0A6E200E0B6E410E0C6EAEC0E2
:1013300005F0AFC006F0B0C007F0B1C008F0A8ECEF
:1013400010F005C022F006C023F007C024F008C04A
:1013500025F024EC20F0D8B0B0EF09F0B2EF09F09E
:101360006AEF09F0D2EF09F0AEC013F0AFC014F08D
:10137000B0C015F0B1C016F0000E176E000E186E5A
:10138000200E196E410E1A6E91EC16F013C0AEF0DD
:1013900014C0AFF015C0B0F016C0B1F00001AA073C
:1013A000D8A0AB07A6C01EF0A7C01FF0A8C020F0B1
:1013B000A9C021F0AEC022F0AFC023F0B0C024F02D
:1013C000B1C025F024EC20F0D8A0E9EF09F0EBEF54
:1013D00009F0B4EF09F046C00BF00C6A0AEC29F0F2
:1013E0000B5000019B6F9BC09AF0670E9B19D8A40D
:1013F000FCEF09F0FEEF09F024EF0AF072507310D1
:10140000D8A405EF0AF007EF0AF00BEF0AF0000E80
:10141000736E010E726E73BE18EF0AF0735006E120
:101420007204D8B016EF0AF018EF0AF01EEF0AF0B7
:10143000000E976F060E966F2DEF0AF072C096F0B1
:1014400073C097F02DEF0AF073BE29EF0AF02BEF6F
:101450000AF018EF0AF01EEF0AF0670E9B19D8A4E5
:1014600034EF0AF036EF0AF065EF0AF0ABAF44EF65
:101470000AF0FC0EAA5DFF0EAB59D8A042EF0AF0AD
:1014800044EF0AF063EF0AF0FF0E476EFF0E486E5E
:1014900096C049F097C04AF04750492648504A2222
:1014A000AA51495C4A50800A4B6EAB51800A4B5896
:1014B000D8A05DEF0AF05FEF0AF063EF0AF0660E66
:1014C0009A6F65EF0AF0650E9A6F96C08CF097C020
:1014D0008DF0670E9B19D8A470EF0AF072EF0AF036
:1014E00082EF0AF0660E9A19D8A479EF0AF07BEF22
:1014F0000AF084EF0AF0ABBF82EF0AF080EF0AF047
:1015000084EF0AF08C4B8D2B660E9A19D8A48BEFC2
:101510000AF08DEF0AF0ADEF0AF0ABBF94EF0AF0DE
:1015200092EF0AF0A0EF0AF0000EAE6F000EAF6F60
:10153000800EB06F3F0EB16F000EAB6F000EAA6F42
:10154000670E9B19D8B4A7EF0AF0A9EF0AF0ADEF28
:101550000AF0AA518C27AB518D23000EA56F000E07
:10156000A46FA6C09CF0A7C09DF0A8C09EF0A9C023
:101570009FF0AEC08EF0AFC08FF0B0C090F0B1C0A1
:1015800091F03EEF0BF09CC013F09DC014F09EC094
:1015900015F09FC016F0AEC017F0AFC018F0B0C085
:1015A00019F0B1C01AF091EC16F013C02CF014C071
:1015B0002DF015C02EF016C02FF0CDEC19F02CC078
:1015C000A0F02DC0A1F02EC0A2F02FC0A3F0A0C0AB
:1015D00005F0A1C006F0A2C007F0A3C008F0A1EC7E
:1015E0001FF005C092F006C093F09CC01EF09DC095
:1015F0001FF09EC020F09FC021F0AEC009F0AFC028
:101600000AF0B0C00BF0B1C00CF0A0C005F0A1C052
:1016100006F0A2C007F0A3C008F0A8EC10F005C0C7
:1016200022F006C023F007C024F008C025F02DECFE
:1016300029F01EC09CF01FC09DF020C09EF021C06C
:101640009FF0AEC013F0AFC014F0B0C015F0B1C041
:1016500016F0000E176E000E186E200E196E410E59
:101660001A6E91EC16F013C0AEF014C0AFF015C0B6
:10167000B0F016C0B1F00001A44BA52B8C51A45DB5
:10168000A551800A476E8D51800A4758D8A04BEF6C
:101690000BF04DEF0BF0C3EF0AF0AEC005F0AFC09A
:1016A00006F0B0C007F0B1C008F0000E096E000EE1
:1016B0000A6EA00E0B6E400E0C6EA8EC10F005C06A
:1016C000A0F006C0A1F007C0A2F008C0A3F09CC023
:1016D0001EF09DC01FF09EC020F09FC021F0A0C052
:1016E00022F0A1C023F0A2C024F0A3C025F024EC76
:1016F00020F0D8B07EEF0BF080EF0BF08BEF0BF00B
:10170000000E0001A06F000EA16F000EA26F000E70
:10171000A36FB4EF0BF09CC005F09DC006F09EC017
:1017200007F09FC008F0A0C009F0A1C00AF0A2C055
:101730000BF0A3C00CF091EC25F0D8A0A2EF0BF0B9
:10174000A4EF0BF0B4EF0BF0000192B1AAEF0BF095
:10175000ACEF0BF0B4EF0BF0000EA06F000EA16F1A
:10176000000EA26F000EA36FA6C005F0A7C006F082
:10177000A8C007F0A9C008F0A0C009F0A1C00AF0F5
:10178000A2C00BF0A3C00CF048EC0EF005C09CF01A
:1017900006C09DF007C09EF008C09FF09CC01EF0E0
:1017A0009DC01FF09EC020F09FC021F0000E096E6A
:1017B000000E0A6E200E0B6E410E0C6E8EC005F0F0
:1017C0008FC006F090C007F091C008F0A8EC10F0B0
:1017D00005C022F006C023F007C024F008C025F0A1
:1017E00024EC20F0D8A0F7EF0BF0F9EF0BF022EF8C
:1017F0000CF00001AA4BAB2B8EC005F08FC006F099
:1018000090C007F091C008F0000E096E000E0A6E3D
:10181000200E0B6E410E0C6EA8EC10F005C08EF081
:1018200006C08FF007C090F008C091F0660E00016E
:101830009A19D8A41EEF0CF020EF0CF022EF0CF058
:101840008C4B8D2B8EC0AEF08FC0AFF090C0B0F03F
:1018500091C0B1F0650E00019A19D8B432EF0CF0C6
:1018600034EF0CF03AEF0CF0AAC08AF0ABC08BF06A
:101870003EEF0CF0000E8B6F000E8A6F000E896F2A
:10188000000E886F000E876F000E866F000EA56F2A
:10189000000EA46F3AEF0DF09CC013F09DC014F041
:1018A0009EC015F09FC016F0AEC017F0AFC018F084
:1018B000B0C019F0B1C01AF091EC16F013C02CF0C2
:1018C00014C02DF015C02EF016C02FF0CDEC19F07D
:1018D0002CC0A0F02DC0A1F02EC0A2F02FC0A3F00C
:1018E000A0C005F0A1C006F0A2C007F0A3C008F098
:1018F000A1EC1FF005C092F006C093F074B883EF1E
:101900000CF085EF0CF0A3EF0CF000019251931155
:10191000D8A48DEF0CF08FEF0CF0A3EF0CF0670E56
:101920009B19D8A496EF0CF098EF0CF0A3EF0CF0F5
:101930008BBF9FEF0CF09DEF0CF0A3EF0CF0864BEC
:10194000872BEEEF0CF0000188518911D8A4ABEF82
:101950000CF0ADEF0CF0D7EF0CF08BBFB4EF0CF048
:10196000B2EF0CF0D7EF0CF0270EAC25D96E010EBC
:10197000AD21DA6E2E0EDF6EAC4BAD2B9807D8A0E2
:101980009907000E896F010E886FD7EF0CF0270EB4
:10199000AC25D96E010EAD21DA6E300EDF6EAC4B88
:1019A000AD2B9807D8A099078607D8A0870786513E
:1019B0008711D8A4DEEF0CF0E0EF0CF0C7EF0CF0CD
:1019C000270EAC25D96E010EAD21DA6E9251300F83
:1019D000DF6EAC4BAD2B9807D8A099079CC01EF0CA
:1019E0009DC01FF09EC020F09FC021F0AEC009F046
:1019F000AFC00AF0B0C00BF0B1C00CF0A0C005F051
:101A0000A1C006F0A2C007F0A3C008F0A8EC10F037
:101A100005C022F006C023F007C024F008C025F05E
:101A20002DEC29F01EC09CF01FC09DF020C09EF040
:101A300021C09FF0AEC013F0AFC014F0B0C015F0DD
:101A4000B1C016F0000E176E000E186E200E196E43
:101A5000410E1A6E91EC16F013C0AEF014C0AFF048
:101A600015C0B0F016C0B1F000018A07D8A08B07EE
:101A7000A44BA52B8C51A45DA551800A476E8D51B6
:101A8000800A4758D8B047EF0DF049EF0DF057EFF7
:101A90000DF0ADBF55EF0DF0AD5109E14B0EAC5D52
:101AA000D8A055EF0DF057EF0DF04CEF0CF088512A
:101AB0008911D8A45EEF0DF060EF0DF071EF0DF01D
:101AC00074A865EF0DF067EF0DF071EF0DF0270EC4
:101AD000AC25D96E010EAD21DA6E2E0EDF6EAC4B49
:101AE000AD2B270EAC25D96E010EAD21DA6E000E9E
:101AF000DF6E650E9A19D8A480EF0DF082EF0DF01D
:101B0000E7EF08F0000EA56F4F0EA46F270EA42577
:101B1000D96E010EA521DA6E000EDF6E000E956FF4
:101B2000000E946FABBF99EF0DF097EF0DF0A1EFA2
:101B30000DF0000E956F010E946FAA6DAB1FD8B01B
:101B4000AB2B000E976F020E966FD2EF0DF0A4072D
:101B5000D8A0A507270EA425D96E010EA521DA6EFF
:101B6000AAC005F0ABC006F0000E086E0A0E076EA4
:101B7000E1EC24F00550300FDF6EAAC005F0ABC0D9
:101B800006F0000E086E0A0E076E6BEC23F005C01F
:101B9000AAF006C0ABF000019607D8A097079807F7
:101BA000D8A09907AA51AB11D8A4D9EF0DF0DBEF5B
:101BB0000DF0A7EF0DF097BFE8EF0DF0975106E19C
:101BC0009605D8B0E6EF0DF0E8EF0DF0A7EF0DF0B9
:101BD000A407D8A0A50794519511D8A4F2EF0DF051
:101BE000F4EF0DF0FAEF0DF0000E836F2B0E826F05
:101BF000FEEF0DF0000E836F2D0E826F270EA425D1
:101C0000D96E010EA521DA6E82C0DFFF9807D8A039
:101C10009907A407D8A0A507BF0E476EFF0E486E10
:101C20004650496E4A6A4750492648504A224A500F
:101C300009E11A0E495CD8A020EF0EF022EF0EF059
:101C400028EF0EF0000E856F650E846F2CEF0EF0FE
:101C5000000E856F450E846F270EA425D96E010EE8
:101C6000A521DA6E84C0DFFF9807D8A09907270E58
:101C7000AC25056E010EAD21066E270EA425076E5C
:101C8000010EA521086E40EC28F0E7EF08F01200E5
:101C90000850800B116E08500824136E07AE53EFE6
:101CA0000EF055EF0EF056EF0EF013801350D8B42F
:101CB0005CEF0EF05EEF0EF073EF0EF01328D8A479
:101CC00064EF0EF066EF0EF06EEF0EF0000E056E94
:101CD000000E066E000E076E000E086E078E000ED8
:101CE000086E7BEF0EF0000E056E000E066E000E05
:101CF000076E000E086E0C50800B126E11501218F9
:101D0000D8B485EF0EF087EF0EF088EF0EF0118C4F
:101D10000C500C24126E0BAE90EF0EF092EF0EF002
:101D200093EF0EF012801250D8B499EF0EF09BEFA3
:101D30000EF0B0EF0EF01228D8A4A1EF0EF0A3EF32
:101D40000EF0ABEF0EF0000E096E000E0A6E000EE4
:101D50000B6E000E0C6E0B8E000E0C6EB8EF0EF0BC
:101D6000000E096E000E0A6E000E0B6E000E0C6E59
:101D70001350125CD8B0BFEF0EF0C1EF0EF0E8EFD9
:101D80000EF011ACC6EF0EF0C8EF0EF0CAEF0EF079
:101D9000800E111A13C014F012C013F014C012F008
:101DA00005C014F009C005F014C009F006C014F015
:101DB0000AC006F014C00AF007C014F00BC007F008
:101DC00014C00BF008C014F00CC008F014C00CF0E4
:101DD000000E146E135012C00DF00E6A0D5E000E50
:101DE0000E5A0EBEFDEF0EF00E5009E11A0E0D5CFC
:101DF000D8A0FDEF0EF0FFEF0EF036EF0FF005501C
:101E0000061007100810D8A408EF0FF00BEF0FF022
:101E1000010E0CEF0FF0000E146E000E056E000E9A
:101E2000066E000E076E000E086E12C013F03FEF34
:101E30000FF014A01EEF0FF020EF0FF026EF0FF0C1
:101E4000D89014300109146E28EF0FF0D890143296
:101E500005A02DEF0FF02FEF0FF030EF0FF0148EE5
:101E600008340832073206320532132A1250135C46
:101E7000D8A03DEF0FF03FEF0FF019EF0FF011BCBE
:101E800044EF0FF046EF0FF086EF0FF01350D8A499
:101E90004CEF0FF04EEF0FF058EF0FF0000E056E05
:101EA000000E066E000E076E000E086EA7EF10F013
:101EB000095005260A5006220B5007220C50082212
:101EC00008A065EF0FF067EF0FF013EF10F014A00C
:101ED0006CEF0FF06EEF0FF074EF0FF0D89014303E
:101EE0000109146E76EF0FF0D890143205A07BEF45
:101EF0000FF07DEF0FF07EEF0FF0148E08340832F4
:101F0000073206320532132A13EF10F00950055C30
:101F10000A5006580B5007580850800A0D6E0C5096
:101F2000800A0D58D8B097EF0FF099EF0FF0C4EF7B
:101F30000FF00550095C0D6E06500A580E6E0750E2
:101F40000B580F6E08500C58106EFF0E0D24056EC6
:101F5000FF0E0E20066EFF0E0F20076EFF0E1020E4
:101F6000086E800E111A146C1450D8A4BAEF0FF03A
:101F7000BCEF0FF0CCEF0FF0010E0526000E06228D
:101F800007220822CCEF0FF00950055E0A50065ACE
:101F90000B50075A0C50085A05500610071008102D
:101FA000D8A4D5EF0FF0D7EF0FF00CEF10F01450CE
:101FB000D8A4DDEF0FF0DFEF0FF00CEF10F0000E04
:101FC000056E000E066E000E076E000E086EA7EF7F
:101FD00010F0D890053606360736083614AEF3EF03
:101FE0000FF0F5EF0FF0F6EF0FF0058014A0FBEF08
:101FF0000FF0FDEF0FF001EF10F0D880143603EF73
:1020000010F0D89014361350D8B409EF10F00BEF3D
:1020100010F00CEF10F0130607AE11EF10F013EFF5
:1020200010F0E9EF0FF0000E126E14AE1AEF10F080
:102030001CEF10F034EF10F014C00DF07F0E0D16F1
:10204000D8B425EF10F027EF10F02BEF10F0010EB1
:10205000126E34EF10F005A030EF10F032EF10F0F8
:1020600034EF10F027EF10F01250D8B43AEF10F020
:102070003CEF10F067EF10F0010E0526000E06226F
:102080000722082208A047EF10F049EF10F067EF91
:1020900010F005C00DF006C00EF007C00FF008C02C
:1020A00010F0103410320F320E320D320DC005F028
:1020B0000EC006F00FC007F010C008F01328D8B407
:1020C00064EF10F066EF10F067EF10F0132A13289A
:1020D000D8B46DEF10F06FEF10F077EF10F01350F1
:1020E000D8A475EF10F077EF10F089EF10F0000E24
:1020F000056E000E066E000E076E000E086E135081
:10210000D8A485EF10F087EF10F089EF10F0000EE3
:10211000116E13A08EEF10F090EF10F093EF10F00F
:10212000078E94EF10F0079ED8901330086E11AE12
:102130009CEF10F09EEF10F09FEF10F0088E05C09E
:1021400005F006C006F007C007F008C008F012004E
:102150000850800B116E08500824176E07AEB3EFBD
:1021600010F0B5EF10F0B6EF10F017801750D8B49C
:10217000BCEF10F0BEEF10F0D1EF10F01728D8A48C
:10218000C4EF10F0C6EF10F0CEEF10F0000E056EA9
:10219000000E066E000E076E000E086E078ED9EF59
:1021A00010F0000E056E000E066E000E076E000E9B
:1021B000086E0C50800B111A0C500C24126E0BAED2
:1021C000E4EF10F0E6EF10F0E7EF10F0128012509D
:1021D000D8B4EDEF10F0EFEF10F002EF11F012288D
:1021E000D8A4F5EF10F0F7EF10F0FFEF10F0000EAD
:1021F000096E000E0A6E000E0B6E000E0C6E0B8E3A
:102200000AEF11F0000E096E000E0A6E000E0B6E42
:10221000000E0C6E1250D8B410EF11F012EF11F046
:102220001AEF11F01750D8A418EF11F01AEF11F0AF
:1022300024EF11F0000E056E000E066E000E076E04
:10224000000E086EBCEF12F00B500502F3CF1CF02D
:10225000F4CF1DF01C50136E146A156A166A1D50D7
:10226000186E196A1A6A1B6A0A500602F3CF1CF02C
:10227000F4CF1DF01C501326000E14221522162236
:102280001D501826000E19221A221B22095007027F
:10229000F3CF1CF0F4CF1DF01C501326000E1422B7
:1022A000152216221D501826000E19221A221B2252
:1022B00015C016F014C015F013C014F0136A0950BD
:1022C0000602F3CF1CF0F4CF1DF01C5013261D5056
:1022D0001422000E1522000E16220A500502F3CF1A
:1022E0001CF0F4CF1DF01C5013261D501422000EBC
:1022F0001522000E162215C016F014C015F013C0DA
:1023000014F0136A09500502F3CF1CF0F4CF1DF04E
:102310001C5013261D501422000E1522000E1622EA
:102320000B500602F3CF1CF0F4CF1DF01C50182602
:102330001D501922000E1A22000E1B220A500702FD
:10234000F3CF1CF0F4CF1DF01C5018261D5019229D
:10235000000E1A22000E1B220B500702F3CF1CF0B6
:10236000F4CF1DF01C500D6E1D500E6E0F6A106ADA
:102370000FC010F00EC00FF00DC00EF00D6A0D5022
:1023800018260E5019220F501A2210501B2213C06B
:102390000DF014C00EF015C00FF016C010F0190E9D
:1023A000D7EF11F0D89010320F320E320D32E82EE6
:1023B000D2EF11F00D5018260E5019220F501A228C
:1023C00010501B2215C016F014C015F013C014F0E5
:1023D000136A125017C00DF00E6A0D26000E0E2261
:1023E000820E0D241C6EFF0E0E201D6E0DEF12F0DE
:1023F000D890183619361A361B3616AE02EF12F080
:1024000004EF12F005EF12F01880D890133614364E
:10241000153616361C06D8A01D061AAE12EF12F09D
:1024200014EF12F0F8EF11F0000E126E16AE1BEF63
:1024300012F01DEF12F041EF12F0FF0E13140D6EAB
:10244000FF0E14140E6EFF0E15140F6E7F0E161471
:10245000106E0D500E100F101010D8B432EF12F095
:1024600034EF12F038EF12F0010E126E41EF12F05D
:1024700018A03DEF12F03FEF12F041EF12F034EFF1
:1024800012F01250D8B447EF12F049EF12F06DEF8E
:1024900012F0010E1826000E19221A221B221BA070
:1024A00054EF12F056EF12F06DEF12F018C00DF06D
:1024B00019C00EF01AC00FF01BC010F0103410320B
:1024C0000F320E320D320DC018F00EC019F00FC0D1
:1024D0001AF010C01BF01C4A1D2A1DBE78EF12F026
:1024E0001D5008E11C28D8A078EF12F07AEF12F006
:1024F00084EF12F0000E186E000E196E800E1A6E28
:102500007F0E1B6EB2EF12F01DBE91EF12F01D5048
:1025100006E11C04D8B08FEF12F091EF12F09DEF9E
:1025200012F0000E186E000E196E000E1A6E000EDC
:102530001B6E000E116EB2EF12F01CC017F0FF0EF2
:102540001816FF0E19167F0E1A16000E1B1617A06E
:10255000ACEF12F0AEEF12F0AFEF12F01A8ED8908F
:1025600017301B6E11501B1218C005F019C006F071
:102570001AC007F01BC008F012004EC0D9FF4FC0B0
:10258000DAFFDECFF6FFDDCFF7FFF86A0800F5507F
:10259000250AD8A4CEEF12F0D0EF12F0A3EF14F07A
:1025A0004EC0D9FF4FC0DAFFDE2A000EDD22000E3A
:1025B0000001D26F000ED16FD1C074F0D2C075F09F
:1025C000726873684EC0D9FF4FC0DAFFDECFF6FFE6
:1025D000DDCFF7FFF86A0800F5500B6E0C6A0AECC5
:1025E00029F00B50626E6250D8B4F9EF12F0FBEF95
:1025F00012F035EF13F04EC0D9FF4FC0DAFFDECF37
:1026000052F0DDCF53F0010E5226000E532252C07D
:10261000F6FF53C0F7FFF86A0800F5500B6E0C6A1E
:102620000AEC29F00B50636E6350D8B41AEF13F024
:102630001CEF13F035EF13F04EC0D9FF4FC0DAFF97
:10264000DECF52F0DDCF53F0020E5226000E5322A1
:1026500052C0F6FF53C0F7FFF86A0800F5500B6E42
:102660000C6A0AEC29F00B50646E4EC0D9FF4FC0C3
:10267000DAFFDECFF6FFDDCFF7FFF86A0800F5508E
:10268000640AD8B446EF13F048EF13F05BEF13F091
:102690004EC0D9FF4FC0DAFFDECFF6FFDDCFF7FF28
:1026A000F86A0800F550690AD8A459EF13F05BEFF7
:1026B00013F09BEF13F04EC0D9FF4FC0DAFFDE2AB4
:1026C000000EDD2250C0D9FF51C0DAFFDFCF52F03B
:1026D000020EDE26DFCF53F0000EDD2252C0D9FFFE
:1026E00053C0DAFFDECF56F0DDCF57F0000E57BEF5
:1026F000FF0E586E596E5A6E5B6E5C6E5D6E4CC00E
:1027000020F04DC021F056C022F057C023F058C031
:1027100024F059C025F05AC026F05BC027F05CC0F9
:1027200028F05DC029F05EEC18F020C04CF021C00C
:102730004DF0BFEF14F0660E6218D8A4A2EF13F0AC
:10274000A4EF13F0E5EF13F04EC0D9FF4FC0DAFF4E
:10275000DECFF6FFDDCFF7FFF86A0800F5CF65F0B2
:102760004EC0D9FF4FC0DAFFDE2A000EDD2250C076
:10277000D9FF51C0DAFFDFCF52F0040EDE26DFCFE3
:1027800053F0000EDD2252C0D9FF53C0DAFFDECF76
:102790005EF0DECF5FF0DECF60F0DECF61F04CC0E8
:1027A00040F04DC041F05EC042F05FC043F060C0F9
:1027B00044F061C045F065C046F040EC08F040C010
:1027C0004CF041C04DF0BFEF14F0620E056E000EEC
:1027D000066E6F0E076E100E086E000E0A6E020E69
:1027E000096E98EC22F005500610D8A4FAEF13F009
:1027F000FCEF13F06CEF14F04EC0D9FF4FC0DAFFBE
:10280000DECF52F0DDCF53F0010E5226000E5322E0
:1028100052C0F6FF53C0F7FFF86A0800F5CF65F025
:10282000BF0E526EFF0E536E4EC0D9FF4FC0DAFF7F
:10283000DECFF6FFDDCFF7FFF86A0800F550546EE3
:10284000556A5250542653505522555007E11A0EDE
:10285000545CD8B02EEF14F030EF14F04AEF14F0BF
:1028600050C0D9FF51C0DAFFDFCF52F0040EDE2690
:10287000DFCF53F0000EDD2252C0D9FF53C0DAFF84
:10288000DECF5EF0DECF5FF0DECF60F0DECF61F056
:1028900062EF14F050C0D9FF51C0DAFFDFCF52F021
:1028A000040EDE26DFCF53F0000EDD2252C0D9FF2A
:1028B00053C0DAFFDECF5EF0DECF5FF0DECF60F038
:1028C000DECF61F0020E4EC0D9FF4FC0DAFFDE2628
:1028D000000EDD22CFEF13F04EC0D9FF4FC0DAFF5C
:1028E000DECFF6FFDDCFF7FFF86A0800F550250AC6
:1028F000D8A47DEF14F07FEF14F096EF14F04EC0E3
:10290000D9FF4FC0DAFFDE2A000EDD22000E066E70
:10291000250E056E4CC007F04DC008F006EC23F004
:10292000000E4D6E010E4C6EBFEF14F04EC0D9FF7D
:102930004FC0DAFFDE2A000EDD22000E4D6E000EC3
:102940004C6EBFEF14F04EC0D9FF4FC0DAFFDECFA0
:10295000F6FFDDCFF7FFF86A0800F550056E066A4E
:102960004CC007F04DC008F006EC23F04EC0D9FF74
:102970004FC0DAFFDE2A000EDD2290EF14F01200C5
:10298000B0EC29F0F20E1C6E000E1D6E010E1E6ED4
:10299000010E1F6E250E206E100E216E3BEC26F0F0
:1029A000F20E1C6E000E1D6E020E1E6E010E1F6ECC
:1029B000250E206E100E216E3BEC26F0F20E1C6EE2
:1029C000000E1D6E020E1E6E010E1F6E6B0E206E2F
:1029D000100E216E3BEC26F0790E056E000E066E91
:1029E000010E076E81EC1EF00B0E0001CE6F260E5D
:1029F000CD6F5D0EE82EFED7CD2FFCD7CE2FFAD7A8
:102A000000D0790E056E000E066E010E076E81EC89
:102A10001EF0060E0001CE6F130ECD6FAD0EE82E28
:102A2000FED7CD2FFCD7CE2FFAD700D0060E00014F
:102A3000CE6F130ECD6FAD0EE82EFED7CD2FFCD787
:102A4000CE2FFAD700D0770E096E000E0A6EF10E67
:102A50000B6E000E0C6E760E0D6E000E0E6EF00EEE
:102A60000F6E000E106EEF0E116E000E126E8FECD8
:102A700026F0F20E1C6E000E1D6E010E1E6E010E73
:102A80001F6E4F0E206E100E216E3BEC26F0F20EE4
:102A90001C6E000E1D6E010E1E6E060E1F6E77C0A0
:102AA00005F0066A000E086E0A0E076E6BEC23F046
:102AB0000550300F206E92EC29F0F20E1C6E000EC5
:102AC0001D6E010E1E6E070E1F6E77C005F0066AA2
:102AD000000E086E0A0E076EE1EC24F00550300F70
:102AE000206E92EC29F0F20E1C6E000E1D6E010E8F
:102AF0001E6E080E1F6E780E206E100E216E3BECBF
:102B000026F0F20E1C6E000E1D6E010E1E6E090EDA
:102B10001F6EF1C005F0066A000E086E0A0E076E01
:102B20006BEC23F00550300F206E92EC29F0F20E82
:102B30001C6E000E1D6E020E1E6E010E1F6E550ED7
:102B4000206E100E216E3BEC26F0F20E1C6E000E75
:102B50001D6E020E1E6E060E1F6E76C005F0066A12
:102B6000000E086E0A0E076E6BEC23F00550300F56
:102B7000206E92EC29F0F20E1C6E000E1D6E020EFD
:102B80001E6E070E1F6E76C005F0066A000E086EF8
:102B90000A0E076EE1EC24F00550300F206E92EC27
:102BA00029F0F20E1C6E000E1D6E020E1E6E080E37
:102BB0001F6E780E206E100E216E3BEC26F0F20E8A
:102BC0001C6E000E1D6E020E1E6E090E1F6EF0C0F2
:102BD00005F0066A000E086E0A0E076E6BEC23F015
:102BE0000550300F206E92EC29F00001F15177C0B2
:102BF000CDF0CE6BCD27000ECE237650CD27000E24
:102C0000CE23F051CD27000ECE23CD51EF19D8A4FD
:102C10000CEF16F00EEF16F01EEF16F0F20E1C6E13
:102C2000000E1D6E020E1E6E0D0E1F6E7C0E206EAF
:102C3000100E216E3BEC26F02CEF16F0F20E1C6EFF
:102C4000000E1D6E020E1E6E0D0E1F6E7A0E206E91
:102C5000100E216E3BEC26F00B0E0001CE6F260EFF
:102C6000CD6F5D0EE82EFED7CD2FFCD7CE2FFAD735
:102C700000D0F80E2C6E000E2D6E800E2E6E010E02
:102C80002F6EEB0E306E000E316EA6EC20F0EBC016
:102C9000BAF1ECC0BBF1EDC0BCF1EEC0BDF1770EF6
:102CA0000101BE6F010EBF6F26EC22F0F20E1C6E0A
:102CB000000E1D6E020E1E6E010E1F6E260E206E81
:102CC000100E216E3BEC26F0F20E1C6E000E1D6EF7
:102CD000020E1E6E010E1F6E770E206E010E216E0B
:102CE0003BEC26F0150E0001CE6F4B0ECD6FBE0EE5
:102CF000E82EFED7CD2FFCD7CE2FFAD700F0F20E5C
:102D00001C6E000E1D6E020E1E6E010E1F6E250E35
:102D1000206E100E216E3BEC26F016EF15F043EFFF
:102D200001F01650800B236E165016242A6E15AE35
:102D30009CEF16F09EEF16F09FEF16F02A802A50B7
:102D4000D8B4A5EF16F0A7EF16F0BCEF16F02A28BE
:102D5000D8A4ADEF16F0AFEF16F0B7EF16F0000EF7
:102D6000136E000E146E000E156E000E166E158E8C
:102D7000000E166EC4EF16F0000E136E000E146EE9
:102D8000000E156E000E166E1A50800B231A1A5084
:102D90001A242B6E19AECFEF16F0D1EF16F0D2EF4A
:102DA00016F02B802B50D8B4D8EF16F0DAEF16F0CF
:102DB000EFEF16F02B28D8A4E0EF16F0E2EF16F0B4
:102DC000EAEF16F0000E176E000E186E000E196E68
:102DD000000E1A6E198E000E1A6EF7EF16F0000E26
:102DE000176E000E186E000E196E000E1A6E175038
:102DF000181019101A10D8A400EF17F002EF17F0EE
:102E00001AEF17F0000E136E000E146E000E156E02
:102E1000000E166E800E15127F0E1612235016121B
:102E200013C013F014C014F015C015F016C016F03E
:102E30005DEF18F02A50D8A420EF17F022EF17F01A
:102E40002CEF17F0000E136E000E146E000E156EB0
:102E5000000E166E5DEF18F02B502AC01BF01C6A96
:102E60001B5E000E1C5A7F0E1B24246E000E1C20BD
:102E7000256E13C01FF014C020F015C021F016C03D
:102E800022F0000E136E000E146E000E156E000E72
:102E9000166E000E266E000E276E000E286E000EB7
:102EA000296E000E2B6E8DEF17F02B50D8B45BEF10
:102EB00017F05DEF17F074EF17F0D8901F3620363B
:102EC00021362236D890133614361536163629AEEA
:102ED0006CEF17F06EEF17F06FEF17F01380D890CC
:102EE000263627362836293617501F5C18502058AA
:102EF000195021581A502258D8A081EF17F083EFAB
:102F000017F08CEF17F0298C17501F5E1850205ABD
:102F10001950215A1A50225A2B2A190E2B6493EF5A
:102F200017F095EF17F055EF17F01F5020102110F4
:102F30002210D8B49EEF17F0A0EF17F0B8EF17F0FB
:102F40002680B8EF17F0D89013361436153616369B
:102F500029AEADEF17F0AFEF17F0B0EF17F0138019
:102F6000D89026362736283629362406D8A02506B6
:102F700015AEBDEF17F0BFEF17F0A3EF17F0000E7F
:102F80002B6E29AEC6EF17F0C8EF17F0ECEF17F075
:102F9000FF0E26141B6EFF0E27141C6EFF0E281446
:102FA0001D6E7F0E29141E6E1B501C101D101E104E
:102FB000D8B4DDEF17F0DFEF17F0E3EF17F0010EF5
:102FC0002B6EECEF17F013A0E8EF17F0EAEF17F015
:102FD000ECEF17F0DFEF17F02B50D8B4F2EF17F04B
:102FE000F4EF17F018EF18F0010E1326000E14225C
:102FF0001522162216A0FFEF17F001EF18F018EFB8
:1030000018F013C01BF014C01CF015C01DF016C042
:103010001EF01E341E321D321C321B321BC013F038
:103020001CC014F01DC015F01EC016F0244A252A3D
:1030300025BE23EF18F0255008E12428D8A023EF5F
:1030400018F025EF18F030EF18F0000E256E246808
:10305000000E136E000E146E000E156E000E166E2E
:1030600025BE3DEF18F0255006E12404D8B03BEF13
:1030700018F03DEF18F04BEF18F0000E256E000E23
:10308000246E000E136E000E146E000E156E000EF0
:10309000166E000E236E24C02AF02AA052EF18F0FC
:1030A00054EF18F057EF18F0158E58EF18F0159EE2
:1030B000D8902A30166E0EEF17F0120022C03AF0A8
:1030C00023C03BF024C03CF025C03DF026C03EF0BC
:1030D00027C03FF028C040F029C041F041BE73EF47
:1030E00018F076EF18F0010E77EF18F0000E386E3A
:1030F000396A38503910D8B480EF18F082EF18F0E0
:1031000092EF18F0411E401E3F1E3E1E3D1E3C1E0B
:103110003B1E3A6C000E3B223C223D223E223F22C7
:103120004022412273BE97EF18F099EF18F09AEF02
:1031300018F0749273BEA7EF18F0735006E1720492
:10314000D8B0A5EF18F0A7EF18F0ADEF18F0000E0B
:10315000356E010E346EB1EF18F072C034F073C0EA
:1031600035F0D1C036F0D2C037F038503910D8A47D
:10317000BCEF18F0BEEF18F0C5EF18F074A4C3EF61
:1031800018F0C5EF18F0C8EF18F03606D8A03706CB
:10319000000E436E4F0E426E000E0101766F4DEF32
:1031A00019F04206D8A04306270E4224D96E010E1C
:1031B0004320DA6E3AC005F03BC006F03CC007F091
:1031C0003DC008F03EC009F03FC00AF040C00BF01F
:1031D00041C00CF00A0E0D6E000E0E6E000E0F6E4A
:1031E000000E106E000E116E000E126E000E136EA9
:1031F000000E146E2FEC1DF005C02AF006C02BF057
:1032000007C02CF008C02DF009C02EF00AC02FF026
:103210000BC030F00CC031F02AC017F02CC018F0F1
:1032200072EC29F01750300FDF6E3406D8A0350647
:103230003606D8A037063AC005F03BC006F03CC0C1
:1032400007F03DC008F03EC009F03FC00AF040C0A2
:103250000BF041C00CF00A0E0D6E000E0E6E000E4B
:103260000F6E000E106E000E116E000E126E000E2C
:10327000136E000E146EB0EC1BF005C03AF006C0E1
:103280003BF007C03CF008C03DF009C03EF00AC06A
:103290003FF00BC040F00CC041F043BE58EF19F0B6
:1032A000435008E14204D8A058EF19F05AEF19F042
:1032B0008AEF19F03A503B103C103D103E103F1081
:1032C00040104110D8A467EF19F069EF19F0D1EF61
:1032D00018F035BE76EF19F0355006E13404D8B059
:1032E00074EF19F076EF19F0D1EF18F037BE81EFD7
:1032F00019F0375008E13604D8A081EF19F083EFB8
:1033000019F08AEF19F074B288EF19F08AEF19F00A
:10331000D1EF18F038503910D8A491EF19F093EF8D
:1033200019F09AEF19F074A498EF19F09AEF19F0C8
:10333000B8EF19F04206D8A0430638503910D8A487
:10334000A4EF19F0A6EF19F0ACEF19F0000E336EF0
:103350002B0E326EB0EF19F0000E336E2D0E326E62
:10336000270E4224D96E010E4320DA6E32C0DFFFF1
:1033700020C015F021C016F0270E4224176E010E52
:103380004320186E36C019F037C01AF0CDEC23F088
:1033900015C020F016C021F012000FC13CF010C182
:1033A0003DF011C13EF012C13FF02CC03CF02DC0E9
:1033B0003DF02EC03EF02FC03FF0810E306EFF0E6C
:1033C000316E3CC032F03DC033F03EC034F03FC0FF
:1033D00035F0180EF1EF19F0D8903532343233321F
:1033E0003232E82EECEF19F0325030243A6E000EF3
:1033F00031203B6E3BBE06EF1AF03B5009E1170E41
:103400003A5CD8A006EF1AF008EF1AF012EF1AF0A3
:103410002CC02CF02DC02DF02EC02EF02FC02FF080
:10342000D5EF1AF03BBE17EF1AF019EF1AF089EF3B
:103430001AF03AC030F0FF0E316EFF0E326E7F0E82
:10344000336E000E346E306628EF1AF030EF1AF04B
:1034500034343432333232323132302E23EF1AF0F8
:1034600031C036F032C037F033C038F034C039F0F4
:1034700036503C14306E37503D14316E38503E1487
:10348000326E39503F14336E3050311032103310D9
:10349000D8A44DEF1AF04FEF1AF051EF1AF008EFE1
:1034A0001AF03CC030F03DC031F03EC032F03FC0B9
:1034B00033F0200E61EF1AF0D890333232323132CD
:1034C0003032E82E5CEF1AF03050311032103310E9
:1034D000D8B46DEF1AF06FEF1AF077EF1AF036509C
:1034E0003C2637503D2238503E2239503F22361C70
:1034F000306E371C316E381C326E391C336E3050D2
:103500003C1631503D1632503E1633503F16CDEF2B
:103510001AF03CC030F03DC031F03EC032F03FC048
:1035200033F0200E99EF1AF0D89033323232313224
:103530003032E82E94EF1AF0305031103210331040
:10354000D8A4A5EF1AF0A7EF1AF0B1EF1AF0000E09
:103550003C6E000E3D6E000E3E6E000E3F6ECDEFD7
:103560001AF0D8903C34306E3D34316E3E34326EB9
:103570003F34336E3050311032103310D8B4C3EFB3
:103580001AF0C5EF1AF0CDEF1AF0000E3C6E000EE7
:103590003D6E800E3E6EBF0E3F6E3CC02CF03DC0B7
:1035A0002DF03EC02EF03FC02FF012000D6E0D50DA
:1035B000D8B4DDEF1AF0DFEF1AF001EF1BF008BE10
:1035C000E6EF1AF0E4EF1AF001EF1BF005C009F086
:1035D00006C00AF007C00BF008C00CF0091E0A1E56
:1035E0000B1E0C1E092A000E0A220B220C2209C0F7
:1035F0000FF00AC010F00BC011F00CC012F009EF70
:103600001BF005C00FF006C010F007C011F008C095
:1036100012F00550061007100810D8A412EF1BF086
:1036200014EF1BF01EEF1BF0000E056E000E066E71
:10363000000E076E000E086EAFEF1BF0960E0E6EBA
:1036400028EF1BF00E2AD8901232113210320F32AE
:10365000000E0F14096E000E10140A6E000E1114E5
:103660000B6EFE0E12140C6E09500A100B100C108B
:10367000D8A43DEF1BF03FEF1BF022EF1BF04DEF06
:103680001BF00E2A010E0F26000E1022112212220C
:10369000D8901232113210320F32000E0F14096E10
:1036A000000E10140A6E000E11140B6EFF0E121491
:1036B0000C6E09500A100B100C10D8A462EF1BF00E
:1036C00064EF1BF041EF1BF06CEF1BF00E06D8907F
:1036D0000F3610361136123611BE71EF1BF073EF34
:1036E0001BF07BEF1BF0020E0E6079EF1BF07BEFFF
:1036F0001BF066EF1BF00EB080EF1BF082EF1BF0AB
:1037000083EF1BF0119ED8900E320EC009F00A6AAA
:103710000B6A0C6A09C00CF00B6A0A6A096A095044
:103720000F120A5010120B5011120C5012120D50A1
:10373000D8B49DEF1BF09FEF1BF0A7EF1BF008BE66
:10374000A6EF1BF0A4EF1BF0A7EF1BF0128E0FC02B
:1037500005F010C006F011C007F012C008F012000A
:10376000000E166E14BEB9EF1BF0B7EF1BF0CBEFD7
:103770001BF0141E131E121E111E101E0F1E0E1EF5
:103780000D6C000E0E220F22102211221222132283
:103790001422010E166E0CBED2EF1BF0D0EF1BF000
:1037A000E4EF1BF00C1E0B1E0A1E091E081E071E4E
:1037B000061E056C000E06220722082209220A2294
:1037C0000B220C22010E161A20EE17F0070EDE6AED
:1037D000E806FDE20D500E100F101010111012101F
:1037E00013101410D8B4F7EF1BF0F9EF1BF04BEFE8
:1037F0001CF0010E156E07EF1CF0D8900D360E363A
:103800000F3610361136123613361436152A14AE0A
:103810000CEF1CF00EEF1CF0FDEF1BF0D8901736EC
:10382000183619361A361B361C361D361E360D5004
:10383000055C0E5006580F5007581050085811508C
:10384000095812500A5813500B5814500C58D8A04D
:103850002CEF1CF02EEF1CF03FEF1CF00D50055E1E
:103860000E50065A0F50075A1050085A1150095A54
:1038700012500A5A13500B5A14500C5A1780D890F1
:10388000143213321232113210320F320E320D3224
:10389000152E0EEF1CF01650D8B451EF1CF053EF5C
:1038A0001CF063EF1CF01E1E1D1E1C1E1B1E1A1E8C
:1038B000191E181E176C000E182219221A221B221C
:1038C0001C221D221E2217C005F018C006F019C0C8
:1038D00007F01AC008F01BC009F01CC00AF01DC098
:1038E0000BF01EC00CF0120005C00FF006C010F067
:1038F00009500A10D8A47FEF1CF081EF1CF083EF71
:103900001CF02EEF1DF00FC0D9FF10C0DAFF07C06A
:10391000DFFF09500F240B6E0A5010200C6EFF0EB3
:103920000B24D96EFF0E0C20DA6E07C0DFFF0A50A1
:1039300007E1030E095CD8B0A0EF1CF0A2EF1CF069
:10394000A4EF1CF02EEF1DF020EE01F00F50D92651
:103950001050DA2207C0DFFF20EE02F00F50D92608
:103960001050DA2207C0DFFF09500F240B6E0A50F7
:1039700010200C6EFE0E0B24D96EFF0E0C20DA6E9A
:1039800007C0DFFF09500F240B6E0A5010200C6E89
:10399000FD0E0B24D96EFF0E0C20DA6E07C0DFFF80
:1039A0000A5007E1070E095CD8B0D9EF1CF0DBEF35
:1039B0001CF0DDEF1CF02EEF1DF020EE03F00F5099
:1039C000D9261050DA2207C0DFFF09500F240B6EF2
:1039D0000A5010200C6EFC0E0B24D96EFF0E0C202A
:1039E000DA6E07C0DFFF0A5007E1090E095CD8B0A4
:1039F000FCEF1CF0FEEF1CF000EF1DF02EEF1DF0B1
:103A00000FC00BF010C00CF00B1E0C1E0B4A0C2A42
:103A1000030E0B140D6E0E6A0D500F260E50102261
:103A20000D50095E0E500A5AFC0E0916FF0E0A16BA
:103A300025EF1DF00FC0D9FF10C0DAFF07C0DFFF70
:103A40000906D8A00A060F4A102A09500A10D8A45D
:103A50002CEF1DF02EEF1DF01AEF1DF01200000EDE
:103A6000166E0CBE38EF1DF036EF1DF04AEF1DF05C
:103A70000C1E0B1E0A1E091E081E071E061E056CC4
:103A8000000E06220722082209220A220B220C22FB
:103A9000010E166E14BE51EF1DF04FEF1DF061EFD9
:103AA0001DF0141E131E121E111E101E0F1E0E1EC0
:103AB0000D6C000E0E220F22102211221222132250
:103AC00014220D500E100F101010111012101310A0
:103AD0001410D8B46EEF1DF070EF1DF0B8EF1DF0AC
:103AE000010E156E7EEF1DF0D8900D360E360F3696
:103AF00010361136123613361436152A14AE83EFEB
:103B00001DF085EF1DF074EF1DF00D50055C0E509B
:103B100006580F50075810500858115009581250A5
:103B20000A5813500B5814500C58D8A09AEF1DF097
:103B30009CEF1DF0ACEF1DF00D50055E0E50065AC7
:103B40000F50075A1050085A1150095A12500A5A69
:103B500013500B5A14500C5AD8901432133212329C
:103B6000113210320F320E320D32152E85EF1DF04C
:103B70001650D8B4BEEF1DF0C0EF1DF0D0EF1DF011
:103B80000C1E0B1E0A1E091E081E071E061E056CB3
:103B9000000E06220722082209220A220B220C22EA
:103BA00005C005F006C006F007C007F008C008F021
:103BB00009C009F00AC00AF00BC00BF00CC00CF0F1
:103BC0001200010E0D6E05500610D8B4EAEF1DF07C
:103BD000ECEF1DF0FBEF1DF005C0D9FF06C0DAFFCA
:103BE000DF50070B076E070E0764F9EF1DF0FBEFC0
:103BF0001DF05EEF1EF0000E0D6E7FEF1EF005C093
:103C0000D9FF06C0DAFFDF50070B076E010E086E02
:103C1000072A0DEF1EF0D8900836072E0BEF1EF086
:103C20000850FF0A096E05C0D9FF06C0DAFFDF3071
:103C3000E832E832070B0A6E0A50020D980EF324A0
:103C4000D96E010EF420DA6EDECF0BF0DDCF0CF072
:103C50000BC0D9FF0CC0DAFF0950DF167FEF1EF052
:103C600005C0D9FF06C0DAFFDF50070B076E010E53
:103C7000086E072A3EEF1EF0D8900836072E3CEF5C
:103C80001EF005C0D9FF06C0DAFFDF30E832E832A7
:103C9000070B096E0950020D980EF324D96E010E20
:103CA000F420DA6EDECF0AF0DDCF0BF00AC0D9FFC8
:103CB0000BC0DAFF0850DF127FEF1EF005C0D9FFFE
:103CC00006C0DAFFDFBC67EF1EF06AEF1EF0010EE0
:103CD0006BEF1EF0000E076E086A0850000AD8B499
:103CE00074EF1EF0FBEF1DF00750000AD8B4FFEF91
:103CF0001DF0010AD8B430EF1EF0FBEF1DF00D509F
:103D00001200010E0E6E05500610D8B48AEF1EF098
:103D10008CEF1EF09BEF1EF005C0D9FF06C0DAFF46
:103D2000DF50070B086E070E086499EF1EF09BEF3B
:103D30001EF0FEEF1EF0000E0E6E13EF1FF005C01A
:103D4000D9FF06C0DAFFDF50070B086E010E096EBF
:103D5000082AADEF1EF0D8900936082EABEF1EF002
:103D60000950FF0A0A6E05C0D9FF06C0DAFFDF302E
:103D7000E832E832070B0B6E0B50020D8E0EF32467
:103D8000D96E010EF420DA6EDECF0CF0DDCF0DF02F
:103D90000CC0D9FF0DC0DAFF0A50DF1613EF1FF079
:103DA00005C0D9FF06C0DAFFDF50070B086E010E11
:103DB000096E082ADEEF1EF0D8900936082EDCEFD7
:103DC0001EF005C0D9FF06C0DAFFDF30E832E83266
:103DD000070B0A6E0A50020D8E0EF324D96E010EE7
:103DE000F420DA6EDECF0BF0DDCF0CF00BC0D9FF84
:103DF0000CC0DAFF0950DF1213EF1FF00750086EF6
:103E0000096A0950000AD8B408EF1FF09BEF1EF0B2
:103E10000850000AD8B49FEF1EF0010AD8B4D0EFC2
:103E20001EF09BEF1EF00E50120016501710D8A473
:103E30001CEF1FF01EEF1FF020EF1FF0A0EF1FF090
:103E400016C00FF017C010F0C1EC28F0010E1624B8
:103E50000F6E000E1720106EC1EC28F0000E1A6EC7
:103E60001A501624186E000E1720196E020E182410
:103E70000F6E000E1920106EC1EC28F01A2A030EE6
:103E80001A6445EF1FF047EF1FF030EF1FF0340EBC
:103E9000186EF20EE82EFED7182EFCD716C012F0C0
:103EA00017C013F0380E146EA8EC27F00D0E186E24
:103EB000FC0EE82EFED7182EFCD716C012F017C045
:103EC00013F0380E146EA8EC27F0640EE82EFED71F
:103ED00016C012F017C013F0380E146EA8EC27F0BD
:103EE00016C012F017C013F0010E146EA8EC27F0E4
:103EF00016C012F017C013F0020E146EA8EC27F0D3
:103F000016C012F017C013F0060E146EA8EC27F0BE
:103F100016C012F017C013F00D0E146EA8EC27F0A7
:103F200016C012F017C013F0280E146EA8EC27F07C
:103F300016C012F017C013F0800E146EA8EC27F014
:103F40001200073408340E6E0E50D8A4AAEF1FF0EA
:103F5000ACEF1FF0B6EF1FF0000E056E000E066E00
:103F6000000E076E000E086E23EF20F005C009F06A
:103F700006C00AF007C00BF008C00CF0200EC6EF18
:103F80001FF0D8900C320B320A320932E82EC1EF02
:103F90001FF009500D6E078EFF0E0516FF0E061658
:103FA000FF0E0716000E0816960E0E5E0EBEDDEF13
:103FB0001FF0DBEF1FF0F3EF1FF00E50800A970F9A
:103FC000D8B0E5EF1FF0E7EF1FF0E9EF1FF0ACEF1F
:103FD0001FF0D89008320732063205320E3EE9EF64
:103FE0001FF00BEF20F01F0E0E64F9EF1FF0FBEF38
:103FF0001FF003EF20F0ACEF1FF0D8900536063627
:10400000073608360E060E50D8A409EF20F00BEF45
:1040100020F0FDEF1FF00D50D8B411EF20F013EF9A
:1040200020F01BEF20F0081E071E061E056C000E78
:1040300006220722082205C005F006C006F007C0C8
:1040400007F008C008F01200000E1E14266E000EC5
:104050001F14276E800E2014286E7F0E2114296EE7
:104060002650271028102910D8A439EF20F03BEF54
:1040700020F043EF20F0000E1E6E000E1F6E000EAB
:10408000206E000E216E000E2214266E000E2314E8
:10409000276E800E2414286E7F0E2514296E26505C
:1040A000271028102910D8A458EF20F05AEF20F03C
:1040B00062EF20F0000E226E000E236E000E246EC2
:1040C000000E256E21AE67EF20F069EF20F072EF51
:1040D00020F01E6C1F1ED8B01F2A201ED8B0202A28
:1040E000800E215625AE77EF20F079EF20F082EF99
:1040F00020F0226C231ED8B0232A241ED8B0242AF4
:10410000800E2556000E1E1A000E1F1A000E201AD1
:10411000800E211A000E221A000E231A000E241AF5
:10412000800E251A22501E5C23501F582450205800
:1041300025502158D8B09FEF20F0A1EF20F0A4EF38
:1041400020F0D890A5EF20F0D8801200000E346E39
:10415000000E336E000E326E30503110D8A4B3EF23
:1041600020F0B5EF20F0B7EF20F027EF21F0D59E3B
:104170002EC005F02FC006F0000E086E000E076E70
:1041800066EC2AF02CC00FF02DC010F051EC2AF094
:10419000D6EF20F0010E2C24056E000E2D20066EA9
:1041A000340E076E000E086EE6EC25F03450D8B4DD
:1041B000DCEF20F0DEEF20F0CAEF20F0D58EEDEF3F
:1041C00020F0010E2C24056E000E2D20066E340EFC
:1041D000076E000E086EE6EC25F03450D8A4F3EF1D
:1041E00020F0F5EF20F0E1EF20F0D59E2EC005F095
:1041F0002FC006F0320E076E000E086E39EC25F067
:1042000032C005F033C006F0076A086A000ED6EC2B
:104210001AF005C013F006C014F007C015F008C06E
:1042200016F0330E176E330E186E6B0E196E420EAB
:104230001A6E91EC16F030C0D9FF31C0DAFF13C00E
:10424000DEFF14C0DEFF15C0DEFF16C0DEFF120069
:1042500013C10FF014C110F015C111F016C112F006
:1042600005C00FF006C010F007C011F008C012F032
:104270000FC009F010C00AF011C00BF012C00CF012
:10428000180E48EF21F0D8900C320B320A32093266
:10429000E82E43EF21F009500D6E0E6A0D500E10FE
:1042A000D8A455EF21F057EF21F077EF21F0D89007
:1042B0000F34096E10340A6E11340B6E12340C6E0A
:1042C00009500A100B100C10D8A469EF21F06BEF05
:1042D00021F071EF21F0000E066E020E056EA6EFC2
:1042E00021F0000E066E030E056EA6EF21F00D28DC
:1042F0000E10D8A47EEF21F080EF21F0A2EF21F084
:104300000FC009F010C00AF011C00BF012C00CF081
:10431000090ED89009360A360B360C36E82E89EF8E
:1043200021F009500A100B100C10D8B49AEF21F0AC
:104330009DEF21F0010E9EEF21F0000E056E066A42
:10434000A6EF21F0000E066E040E056E12000A5054
:104350000B10D8A4AEEF21F0B0EF21F0B2EF21F0B6
:1043600025EF22F0D59E20EE03F00A50D9260B50FF
:10437000DA22DFA202D0D58C01D0D59C20EE03F04A
:104380000A50D9260B50DA22DFB4C9EF21F0CBEF67
:1043900021F0D9EF21F00AC0D9FF0BC0DAFFDF50BE
:1043A0000C6ED5500C18F80B0C18D56ED596E7EF9F
:1043B00021F020EE03F00A50D9260B50DA22DFA4B8
:1043C000E4EF21F0E6EF21F0E7EF21F0D58620EED3
:1043D00003F00A50D9260B50DA22DFA0F2EF21F0C9
:1043E000F4EF21F000EF22F020EE03F00A50D9267E
:1043F0000B50DA22DFA602D0D58801D0D59892885A
:1044000020EE03F00A50D9260B50DA22DFA002D0AA
:10441000D58A01D0D59A0AC005F00BC006F020EE6F
:1044200001F00A50D9260B50DA22DECF07F0DDCF9B
:1044300008F066EC2AF020EE01F00A50D9260B5065
:10444000DA22DECF19F1DDCF1AF1120020EE68F08A
:10445000080EDE6AE806FDE2000E716E0101BE5133
:10446000BF11D8A436EF22F038EF22F03AEF22F055
:1044700097EF22F0BEC105F0BFC106F0000E086E36
:10448000200E076E000E0A6E080E096E74EC1CF00A
:10449000010120EE08F0BE51D926BF51DA22000EEC
:1044A000DF6E680E0001B86F000EB96F720EBA6F42
:1044B000100EBB6FBAC1BCF0BBC1BDF0BCC1BEF039
:1044C000BDC1BFF06FEC28F076EF22F0680E7124CA
:1044D000D96EDA6A000EDA2271500101BE25E16E52
:1044E000000EBF21E26EDFCFE7FF712A680E712454
:1044F000D96EDA6A000EDA22DF50D8A482EF22F0F9
:1045000084EF22F066EF22F0BEC1B8F0BFC1B9F06F
:10451000720E0001BA6F100EBB6FBAC1BCF0BBC106
:10452000BDF0BCC1BEF0BDC1BFF06FEC28F0120001
:1045300005C00CF006C00DF007C00EF008C00FF06B
:104540000906D8A00A06092806E10A28D8A4ABEF74
:1045500022F0ADEF22F0BAEF22F0000E066E000E50
:10456000056E05EF23F00C4A0D2A0E4A0F2A0906A4
:10457000D8A00A060CC0D9FF0DC0DAFFDF50D8B4AE
:10458000C4EF22F0C6EF22F0F3EF22F00EC0F6FFE8
:104590000FC0F7FFF86A0800F5500009D8B4D3EF50
:1045A00022F0D5EF22F0F3EF22F009500A10D8B430
:1045B000DCEF22F0DEEF22F0F3EF22F00CC0D9FFA7
:1045C0000DC0DAFFDF500B6E0EC0F6FF0FC0F7FF15
:1045D000F86A0800F5500B18D8B4F1EF22F0F3EFA9
:1045E00022F0B3EF22F00CC0D9FF0DC0DAFFDF508C
:1045F0000B6E0EC0F6FF0FC0F7FFF86A0800F5500B
:104600000B5C056E066AD8A006061200075008105B
:10461000D8B40DEF23F00FEF23F018EF23F007507D
:104620000810D8A416EF23F018EF23F01DEF23F0A5
:104630000550C8EC2AF06AEF23F020EE09F007508D
:10464000D9260850DA22DE50DE10D8B42AEF23F043
:104650002CEF23F047EF23F020EE09F00750D92686
:104660000850DA2210EE03F00750E1260850E2224B
:10467000DE50E65CE650800A0D6EDE50800A0D5872
:10468000D8B045EF23F047EF23F06AEF23F020EE98
:1046900003F00750D9260850DA22DECF09F0DDCF2B
:1046A0000AF007C0D9FF08C0DAFFDECF0BF0DDCF7C
:1046B0000CF009500B24D96E0A500C20DA6E05C09C
:1046C000DFFF20EE03F00750D9260850DA22DE2A59
:1046D000000EDD221200000E0A6E08BE74EF23F0F9
:1046E00072EF23F07AEF23F0076C081ED8B0082A87
:1046F000010E0A6E06BE81EF23F07FEF23F087EFF5
:1047000023F0056C061ED8B0062A010E0A1A000E08
:104710000C6E000E0B6E07500810D8B492EF23F009
:1047200094EF23F0BCEF23F0010E096E9CEF23F011
:10473000D89007360836092A08AEA1EF23F0A3EF78
:1047400023F098EF23F0D8900B360C360750055C19
:1047500008500658D8A0AFEF23F0B1EF23F0B6EF22
:1047600023F00750055E0850065A0B80D890083297
:104770000732092EA3EF23F00A50D8B4C2EF23F07A
:10478000C4EF23F0C8EF23F00B6C0C1ED8B00C2A3A
:104790000BC005F00CC006F0120074A0D2EF23F09D
:1047A000D4EF23F0DEEF23F017C00EF018C00FF0A7
:1047B00015C010F016C011F050EC29F01ABEE3EF4E
:1047C00023F0E5EF23F0EBEF23F019C01EF01AC041
:1047D0001FF0EFEF23F0000E1F6E000E1E6E000E96
:1047E0001D6E000E1C6E01EF24F0000E066E200EF2
:1047F000056E15C007F016C008F006EC23F01C4A41
:104800001D2A1E501C5C1D50800A1B6E1F50800A02
:104810001B58D8A00EEF24F010EF24F0F5EF23F092
:1048200074B015EF24F017EF24F021EF24F017C037
:104830000EF018C00FF015C010F016C011F050ECBB
:1048400029F017C005F018C006F020EC2AF01E5021
:104850000524156E1F500620166E12000600F2AADF
:1048600034EF24F036EF24F03FEF24F0F2A43BEFD6
:1048700024F03DEF24F03FEF24F0CAEC2AF09DA293
:1048800044EF24F046EF24F047EF24F09E50A0A21E
:104890004CEF24F04EEF24F04FEF24F0A150A0A0F5
:1048A00054EF24F056EF24F057EF24F0A1509DAAC6
:1048B0005CEF24F05EEF24F067EF24F09EAA63EF34
:1048C00024F065EF24F067EF24F0CCEC2AF09DA8EB
:1048D0006CEF24F06EEF24F077EF24F09EA873EFD6
:1048E00024F075EF24F077EF24F0CBEC2AF0A0A6AB
:1048F0007CEF24F07EEF24F07FEF24F0A1509DA602
:1049000084EF24F086EF24F087EF24F09E507A9213
:10491000110016501710D8A490EF24F092EF24F055
:1049200094EF24F0E0EF24F01906C3EF24F016C052
:1049300012F017C013F01950800F146EA8EC27F076
:10494000E0EF24F016C012F017C013F01950C00F9A
:10495000146EA8EC27F0E0EF24F016C012F017C098
:1049600013F01950940F146EA8EC27F0E0EF24F028
:1049700016C012F017C013F01950D40F146EA8EC23
:1049800027F0E0EF24F018501A6E1B6A1B50000A43
:10499000D8B4CDEF24F0E0EF24F01A50010AD8B4D7
:1049A00097EF24F0030AD8B4A2EF24F0010AD8B498
:1049B000ADEF24F0070AD8B4B8EF24F0E0EF24F00C
:1049C0001200000E0A6E06BEEAEF24F0E8EF24F0B3
:1049D000F0EF24F0056C061ED8B0062A010E0A6E10
:1049E00008BEF7EF24F0F5EF24F0FBEF24F0076C9E
:1049F000081ED8B0082A07500810D8B402EF25F0D6
:104A000004EF25F028EF25F0010E096E0CEF25F0DC
:104A1000D89007360836092A08AE11EF25F013EFB3
:104A200025F008EF25F00750055C08500658D8A07F
:104A30001CEF25F01EEF25F022EF25F00750055E54
:104A40000850065AD89008320732092E13EF25F085
:104A50000A50D8B42EEF25F030EF25F034EF25F0D2
:104A6000056C061ED8B0062A05C005F006C006F083
:104A70001200000E0E6E000E0D6E05500610D8B41A
:104A800044EF25F046EF25F04FEF25F007500810D2
:104A9000D8A44DEF25F04FEF25F051EF25F090EF22
:104AA00025F020EE03F00550D9260650DA22DFB2B9
:104AB0005CEF25F05EEF25F076EF25F0D6CF0EF017
:104AC000D7CF0DF00D500A6E096A0E500B6E0C6AAE
:104AD00009500B260A500C2207C0D9FF08C0DAFF84
:104AE0000BC0DEFF0CC0DDFF90EF25F020EE03F0E1
:104AF0000550D9260650DA22DFA281EF25F083EF98
:104B000025F04FEF25F0D6CF0EF00E50096E0A6A51
:104B100007C0D9FF08C0DAFF09C0DEFF0AC0DDFF09
:104B20001200000E05140D6E000E06140E6E800E9F
:104B300007140F6E7F0E0814106E0D500E100F101C
:104B40001010D8A4A6EF25F0A8EF25F0B0EF25F0BF
:104B5000000E056E000E066E000E076E000E086E4B
:104B6000000E09140D6E000E0A140E6E800E0B144A
:104B70000F6E7F0E0C14106E0D500E100F101010D3
:104B8000D8A4C5EF25F0C7EF25F0CFEF25F0000E34
:104B9000096E000E0A6E000E0B6E000E0C6E0950B0
:104BA00005180FE10A5006180CE10B50071809E12F
:104BB0000C500818D8B4DFEF25F0E1EF25F0E4EF52
:104BC00025F0D890E5EF25F0D880120005500610AA
:104BD000D8B4EDEF25F0EFEF25F007EF26F0075002
:104BE0000810D8B4F6EF25F0F8EF25F007EF26F01F
:104BF00005C0D9FF06C0DAFFDF50070B096E070EAC
:104C0000096405EF26F007EF26F009EF26F03AEFEA
:104C100026F005C0D9FF06C0DAFFDF50070B096E8A
:104C200005C0D9FF06C0DAFFDF30E832E832070BF3
:104C30000A6E0A50020D840EF324D96E010EF42080
:104C4000DA6EDECF0BF0DDCF0CF00BC0D9FF0CC05D
:104C5000DAFFDF500D6E092A30EF26F0D8900D32C2
:104C6000092E2EEF26F00D50010B07C0D9FF08C00A
:104C7000DAFFDF6E12001C501D10D8B442EF26F090
:104C800044EF26F04DEF26F020502110D8A44BEF32
:104C900026F04DEF26F04FEF26F08EEF26F01CC0E9
:104CA00016F01DC017F01EC018F01FC019F089ECD7
:104CB00024F075EF26F01CC012F01DC013F020C0C8
:104CC000F6FF21C0F7FF000EF86E0F0EF76403D059
:104CD0000800F55005D0F6CFE9FFF7CFEAFFEF5017
:104CE000146E0FEC28F0204A212A20C0F6FF21C0C4
:104CF000F7FF000EF86E0F0EF76403D00800F550B2
:104D000005D0F6CFE9FFF7CFEAFFEF500009D8A4AE
:104D10008CEF26F08EEF26F05BEF26F012000950A4
:104D20000A10D8B496EF26F098EF26F0BCEF26F0E4
:104D30000B500C10D8B49FEF26F0A1EF26F0BCEF7B
:104D400026F00D500E10D8B4A8EF26F0AAEF26F0EA
:104D5000BCEF26F00F501010D8B4B1EF26F0B3EF2F
:104D600026F0BCEF26F011501210D8A4BAEF26F0AE
:104D7000BCEF26F0BEEF26F0E0EF26F07BEC2AF049
:104D80003BEC2AF009C005F00AC006F0E1EC26F081
:104D90000BC005F00CC006F0E1EC26F00DC005F0EC
:104DA0000EC006F0E1EC26F00FC005F010C006F0D2
:104DB000E1EC26F011C005F012C006F0E1EC26F09F
:104DC000120005C0D9FF06C0DAFF000EDF6E000E2C
:104DD000086E83AEEEEF26F0F0EF26F0E9EF26F056
:104DE0001A0EE82EFED700D083AEF9EF26F0FBEFC7
:104DF00026F00AEF27F005C0D9FF06C0DAFFDF5022
:104E0000076ED880073405C0D9FF06C0DAFFDF6E11
:104E100017EF27F005C0D9FF06C0DAFFDF50076E95
:104E2000D890073405C0D9FF06C0DAFFDF6E83BE15
:104E30001CEF27F01EEF27F017EF27F0082A070EC8
:104E4000086425EF27F027EF27F0E9EF26F012009E
:104E50000A0EF66E540EF76E000EF86E01EE84F038
:104E600010EE36F00900F5CFEEFFE550E150FAE123
:104E70007C0EF66E550EF76E000EF86E00EEF2F038
:104E800010EE0DF00900F5CFEEFFE550E150FAE12C
:104E90008E0EF66E550EF76E000EF86E0900F5CF09
:104EA00078F00900F5CF79F001EE00F0840EEE6A9B
:104EB000E806FDE100EECFF0230EEE6AE806FDE124
:104EC000776A766A756A746A736A726A7A907A9295
:104ED0000001C0EF14F00F501010D8A472EF27F0AB
:104EE00074EF27F076EF27F0A7EF27F0020E0F24DC
:104EF000056E000E1020066E1150010B076E81EC3E
:104F00001EF0030E0F24056E000E1020066ED890C2
:104F10001130010B076E81EC1EF0040E0F24056E9C
:104F2000000E1020066E1140E8423F0B010B076E89
:104F300081EC1EF0050E0F24056E000E1020066E8B
:104F40001138E8461F0B010B076E81EC1EF01200B2
:104F500012501310D8A4AFEF27F0B1EF27F0B5EF40
:104F600027F0000E156EDBEF27F012C005F013C01E
:104F700006F0000E076E81EC1EF0156E12C00FF0E9
:104F800013C010F014380F0B116E6BEC27F012C029
:104F90000FF013C010F0E6EC28F012C00FF013C0B1
:104FA00010F014C011F06BEC27F012C00FF013C01A
:104FB00010F0E6EC28F015501200B4C066F0B5C051
:104FC00067F0000E0001D06F000ECF6FFBEF27F0EF
:104FD000B2C04CF0B3C04DF0660E4E6E000E4F6E78
:104FE000B6C050F0B7C051F0BDEC12F04C5000010B
:104FF000CF274D50D02366C0F6FF67C0F7FFF86A91
:105000000800F5500009D8A408EF28F00AEF28F0AE
:10501000E8EF27F0CFC0B2F0D0C0B3F012001250CA
:105020001310D8A416EF28F018EF28F01AEF28F084
:105030003FEF28F012C005F013C006F0010E076E16
:1050400081EC1EF012C00FF013C010F014380F0BDB
:10505000116E6BEC27F012C00FF013C010F0E6ECED
:1050600028F012C00FF013C010F014C011F06BEC58
:1050700027F012C00FF013C010F0E6EC28F0120079
:1050800007C00BF008C00CF005C00DF006C00EF014
:105090000B50096E0C500A6E0B4A0C2A09C0F6FF21
:1050A0000AC0F7FF000EF86E0DC0D9FF0EC0DAFF80
:1050B0000D4A0E2A0F0EF76403D00800F55005D0F4
:1050C000F6CFE9FFF7CFEAFFEF50DF6EDF50D8A44D
:1050D0006CEF28F06EEF28F048EF28F01200BC0EBD
:1050E0000001C06F000EC16FB8C0C2F0B9C0C3F0FC
:1050F000000EC66F000EC56F000ECC6F000ECB6F9A
:10510000C20EB26F000EB36FBAC0B4F0BBC0B5F040
:10511000C00EB66F000EB76FDDEC27F00001C55171
:10512000B825D96EC651B921DA6E000EDF6E1200B5
:1051300012501310D8B49FEF28F0A1EF28F0AAEF77
:1051400028F014501510D8A4A8EF28F0AAEF28F0E2
:10515000ACEF28F0C0EF28F012C00FF013C010F031
:10516000C1EC28F0010E12240F6E000E1320106EF9
:10517000C1EC28F014C00AF015C00BF0A7EC21F028
:1051800012000F501010D8A4C8EF28F0CAEF28F072
:10519000CEEF28F0000E116EE4EF28F00FC005F0FE
:1051A00010C006F0E1EC1DF0116E0FC005F010C04C
:1051B00006F00FC0D9FF10C0DAFF000EDFBE010EEF
:1051C000076E81EC1EF0116E115012000F5010107E
:1051D000D8A4EDEF28F0EFEF28F0F1EF28F009EF79
:1051E00029F0010E0F24056E000E1020066E010E30
:1051F000076E81EC1EF0030EE82EFED700F0010EC4
:105200000F24056E000E1020066E000E076E81EC56
:105210001EF01200BF0E0D6EFF0E0E6E0BC00FF0D3
:105220000CC010F00D500F260E501022105007E148
:105230001A0E0F5CD8B01FEF29F021EF29F028EFEC
:1052400029F0200E0B100B6E0C500C6E2CEF29F079
:105250000BC00BF00CC00CF01200000E221A000E56
:10526000231A000E241A800E251A1EC005F01FC036
:1052700006F020C007F021C008F022C009F023C0CA
:105280000AF024C00BF025C00CF048EC0EF005C06D
:105290001EF006C01FF007C020F008C021F0120069
:1052A000000E146E000E136E61EF29F012C005F0AF
:1052B000066A10C007F011C008F006EC23F0134A8C
:1052C000142A13500E24D96E14500F20DA6EDF50BA
:1052D000126E1250D8A46FEF29F071EF29F056EF3B
:1052E00029F0120018BE7FEF29F0185006E11704CC
:1052F000D8B07DEF29F07FEF29F08DEF29F017C0AE
:1053000019F018C01AF0191E1A1E194A1A2A19C0C3
:1053100017F01AC018F091EF29F017C017F018C055
:1053200018F012001C501D10D8A499EF29F09BEF23
:1053300029F09DEF29F0AFEF29F01CC016F01DC039
:1053400017F01EC018F01FC019F089EC24F01CC023
:1053500012F01DC013F020C014F00FEC28F0120062
:10536000790E0F6E000E106EC1EC28F0FE0E0F6E5F
:10537000000E106EC1EC28F0F20E166E000E176EC5
:1053800015EC1FF0F80E126E000E136E800E146EE8
:10539000010E156E98EC28F01200BF0E076EFF0E7E
:1053A000086E05C009F006C00AF00750092608502B
:1053B0000A220A500AE11A0E095CD8A0E2EF29F08D
:1053C000E5EF29F0010EE6EF29F0000E056E066A02
:1053D00012000550061007100810D8B4F2EF29F09B
:1053E000F4EF29F0FCEF29F0000E051A000E061A62
:1053F000000E071A800E081A05C005F006C006F058
:1054000007C007F008C008F01200800F810F820F5C
:10541000830F840F890F8A0F8B0F8C0F8D0F920FC4
:10542000930F940F950F960F0102001100F40100E5
:1054300000F9000F0002001200F4010000F9000F53
:1054400005C007F006C008F028EF2AF0054A062A32
:1054500005C0D9FF06C0DAFFDF50D8A432EF2AF02A
:1054600034EF2AF026EF2AF00750055C056E08504D
:105470000658066E120083BE40EF2AF042EF2AF073
:105480003BEF2AF083AE47EF2AF049EF2AF042EFD4
:105490002AF083BE4EEF2AF050EF2AF049EF2AF0AF
:1054A00012000FC005F010C006F0010E076E81EC6F
:1054B0001EF0060EE82EFED700D00FC005F010C07B
:1054C00006F0000E076E81EC1EF01200010E096E50
:1054D00005500610D8A46FEF2AF071EF2AF075EF8F
:1054E0002AF0000E096E79EF2AF00850D76E07C037
:1054F000D6FF09501200959E8C9E2F0E056EC00E91
:10550000E82EFED7052EFCD78C8E140EE82EFED783
:10551000958E1200016EF2900150D8B492EF2AF0ED
:1055200094EF2AF096EF2AF096EF2AF01200016E1F
:10553000F2900150D8B49FEF2AF0A1EF2AF0A3EF28
:105540002AF0A3EF2AF01200016EF2900150D8B4B5
:10555000ACEF2AF0AEEF2AF0B0EF2AF0B0EF2AF06D
:105560001200016EF2900150D8B4B9EF2AF0BBEFEF
:105570002AF0BDEF2AF0BDEF2AF0120018191A1B0D
:095580001C1D09481A1B181991A1
:10558A00F09012000F901200120012001200120086
:020000040020DA
:08000000FFFFFFFFFFFFFFFF00
:020000040030CA
:0E000000FF02091EFF8181FF0FC00FE00F40BD
:00000001FF
