:020000040000FA
:040000003BEF01F0E1
:060008005682C4ED16F063
:100018005680D8CF27F0E8CF28F0E0CF29F0F0A617
:1000280018EF00F01AEF00F023EF00F0F0A01FEF38
:1000380000F021EF00F023EF00F0C1EC1EF0F2A673
:1000480028EF00F02AEF00F043EF00F0F2A02FEFC6
:1000580000F031EF00F043EF00F081A836EF00F038
:1000680038EF00F043EF00F04CA03DEF00F03FEF19
:1000780000F043EF00F04C90010EADEC1EF0F2A63C
:1000880048EF00F04AEF00F063EF00F0F2A04FEF06
:1000980000F051EF00F063EF00F081B856EF00F088
:1000A80058EF00F063EF00F04CB05DEF00F05FEF49
:1000B80000F063EF00F04C80000EADEC1EF0F2A6ED
:1000C80068EF00F06AEF00F083EF00F0F2A06FEF46
:1000D80000F071EF00F083EF00F081AA76EF00F0F6
:1000E80078EF00F083EF00F04CA27DEF00F07FEF97
:1000F80000F083EF00F04C92010EA0EC1EF0F2A687
:1001080088EF00F08AEF00F0A3EF00F0F2A08FEF85
:1001180000F091EF00F0A3EF00F081BA96EF00F045
:1001280098EF00F0A3EF00F04CB29DEF00F09FEFC6
:1001380000F0A3EF00F04C82000EA0EC1EF0F2A637
:10014800A8EF00F0AAEF00F0C3EF00F0F2A0AFEFC5
:1001580000F0B1EF00F0C3EF00F081ACB6EF00F0B3
:10016800B8EF00F0C3EF00F04CA4BDEF00F0BFEF14
:1001780000F0C3EF00F04C94010E93EC1EF0F2A6D1
:10018800C8EF00F0CAEF00F0E3EF00F0F2A0CFEF05
:1001980000F0D1EF00F0E3EF00F081BCD6EF00F003
:1001A800D8EF00F0E3EF00F04CB4DDEF00F0DFEF44
:1001B80000F0E3EF00F04C84000E93EC1EF0F2A682
:1001C800E8EF00F0EAEF00F003EF01F0F2A0EFEF44
:1001D80000F0F1EF00F003EF01F081AEF6EF00F070
:1001E800F8EF00F003EF01F04CA6FDEF00F0FFEF91
:1001F80000F003EF01F04C96010E86EC1EF0F2A61B
:1002080008EF01F00AEF01F023EF01F0F2A00FEF81
:1002180001F011EF01F023EF01F081BE16EF01F0BC
:1002280018EF01F023EF01F04CB61DEF01F01FEFBE
:1002380001F023EF01F04C86000E86EC1EF09DAC19
:1002480028EF01F02AEF01F02BEF01F09E509DA05E
:1002580030EF01F032EF01F033EF01F09E5029C08A
:10026800E0FF28C0E8FF27C0D8FF56901000DAEF5B
:020278001CF078
:101000000041542B554152543A393630302C302C53
:10101000300D0A0041542B524E414D453A526F62F9
:101020006F740D0A007269676874206261636B7780
:101030006172643A002020202020202020202020DF
:10104000202020002D2020202020202020202020B3
:101050002020006C656674206261636B7761726446
:101060003A00726967687420666F72776172643AD9
:101070000041542B505357443A313233340D0A0057
:101080006C65667420666F72776172643A00726F85
:1010900074617465206C6566743A00646566617598
:1010A0006C742063617365007475726E2072696779
:1010B00068743A0041542B524F4C453A300D0A00A7
:1010C0007475726E206C6566743A006E6F20746879
:1010D000696E67002D3E200067707300256900006F
:1010E00001010351800B086F035103250A6F02AF02
:1010F0007CEF08F07EEF08F07FEF08F00A810A51DC
:10110000D8B485EF08F087EF08F09CEF08F00A29C3
:10111000D8A48DEF08F08FEF08F097EF08F0000EDD
:10112000006F000E016F000E026F000E036F028F42
:10113000000E036FA4EF08F0000E006F000E016FA9
:10114000000E026F000E036F0751800B096F0851EC
:101150000919D8B4AEEF08F0B0EF08F0B1EF08F01D
:10116000088D07510725096F06AFB9EF08F0BBEFEF
:1011700008F0BCEF08F009810951D8B4C2EF08F0BB
:10118000C4EF08F0D9EF08F00929D8A4CAEF08F095
:10119000CCEF08F0D4EF08F0000E046F000E056FDE
:1011A000000E066F000E076F068F000E076FE1EF4F
:1011B00008F0000E046F000E056F000E066F000EA3
:1011C000076F0A51095DD8B0E8EF08F0EAEF08F0C0
:1011D00011EF09F008ADEFEF08F0F1EF08F0F3EFD1
:1011E00008F0800E081B0AC10BF109C10AF10BC1FE
:1011F00009F100C10BF104C100F10BC104F101C1FF
:101200000BF105C101F10BC105F102C10BF106C1E2
:1012100002F10BC106F103C10BF107C103F10BC1D0
:1012200007F1000E0B6F0A5109C1A7F00001A86B6E
:10123000A75F000EA85BA8BF27EF09F0A85109E13E
:101240001A0EA75DD8A027EF09F029EF09F061EF8A
:1012500009F001010051011102110311D8A433EF6B
:1012600009F036EF09F0010E37EF09F0000E0B6FB1
:10127000000E006F000E016F000E026F000E036F74
:1012800009C10AF16BEF09F00BA149EF09F04BEF2F
:1012900009F051EF09F0D8900B3101090B6F53EFB2
:1012A00009F0D8900B3300A158EF09F05AEF09F07C
:1012B0005BEF09F00B8F0335033302330133003347
:1012C0000A2B010109510A5DD8A069EF09F06BEF03
:1012D00009F044EF09F008BD70EF09F072EF09F072
:1012E000B2EF09F00A51D8A478EF09F07AEF09F0CB
:1012F00084EF09F0000E006F000E016F000E026F08
:10130000000E036FEBEF0AF0045100270551012393
:10131000065102230751032303A191EF09F093EF34
:1013200009F052EF0AF00BA198EF09F09AEF09F0DB
:10133000A0EF09F0D8900B3101090B6FA2EF09F073
:10134000D8900B3300A1A7EF09F0A9EF09F0AAEF9D
:1013500009F00B8F033503330233013300330A2BBB
:1013600052EF0AF00451005D05510159065102592E
:101370000351800A0001A76F01010751800A000193
:10138000A759D8B0C6EF09F0C8EF09F002EF0AF08C
:1013900001010051045D0001A76F010101510559D0
:1013A0000001A86F0101025106590001A96F010156
:1013B000035107590001AA6FFF0EA7250101006F15
:1013C000FF0E0001A8210101016FFF0E0001A921FC
:1013D0000101026FFF0E0001AA210101036F800EBF
:1013E000081B0B6D0B51D8A4F8EF09F0FAEF09F0C8
:1013F0000BEF0AF0010E0027000E01230223032346
:101400000BEF0AF001010451005F0551015B065129
:10141000025B0751035B0051011102110311D8A4B3
:1014200014EF0AF016EF0AF04BEF0AF00B51D8A4B4
:101430001CEF0AF01EEF0AF04BEF0AF0000E006FEF
:10144000000E016F000E026F000E036FEBEF0AF04B
:10145000D89000370137023703370BAF32EF0AF06D
:1014600034EF0AF035EF0AF000810BA13AEF0AF0F1
:101470003CEF0AF040EF0AF0D8800B3742EF0AF059
:10148000D8900B370A51D8B448EF0AF04AEF0AF067
:101490004BEF0AF00A0702AF50EF0AF052EF0AF0E2
:1014A00028EF0AF0000E096F0BAF59EF0AF05BEF5F
:1014B0000AF076EF0AF00BC1A7F07F0E0001A71724
:1014C000D8B465EF0AF067EF0AF06CEF0AF0010E8E
:1014D0000101096F76EF0AF0010100A172EF0AF035
:1014E00074EF0AF076EF0AF067EF0AF00951D8B40A
:1014F0007CEF0AF07EEF0AF0ABEF0AF0010E002756
:10150000000E01230223032303A189EF0AF08BEFCE
:101510000AF0ABEF0AF000C1A7F001C1A8F002C1C8
:10152000A9F003C1AAF00001AA35AA33A933A83350
:10153000A733A7C000F1A8C001F1A9C002F1AAC059
:1015400003F101010A29D8B4A8EF0AF0AAEF0AF0C2
:10155000ABEF0AF00A2B0A29D8B4B1EF0AF0B3EFC7
:101560000AF0BBEF0AF00A51D8A4B9EF0AF0BBEFBA
:101570000AF0CDEF0AF0000E006F000E016F000EB2
:10158000026F000E036F0A51D8A4C9EF0AF0CBEF27
:101590000AF0CDEF0AF0000E086F0AA1D2EF0AF0B0
:1015A000D4EF0AF0D7EF0AF0028FD8EF0AF0029FCB
:1015B000D8900A31036F08AFE0EF0AF0E2EF0AF0CB
:1015C000E3EF0AF0038F00C100F101C101F102C194
:1015D00002F103C103F11200E0EC1DF04D0E000119
:1015E000966F000E976F020E986F010E996FD40ED2
:1015F0009A6F100E9B6F4FEC19F0540E2A6E000E6E
:101600002B6EBDEC1AF00B0E01011C6F260E1B6F2A
:101610005D0EE82EFED71B2FFCD71C2FFAD700D06B
:1016200094EF0CF04D0E0001966F000E976F010EB7
:10163000986F010E996F350E9A6F100E9B6F4FECDD
:1016400019F04D0E0001966F000E976F010E986F06
:10165000010E996FCB0E9A6F100E9B6F4FEC19F025
:10166000FDEF0AF04D0E0001966F000E976F010E10
:10167000986F010E996F350E9A6F100E9B6F4FEC9D
:1016800019F04D0E0001966F000E976F010E986FC6
:10169000010E996F800E9A6F100E9B6F4FEC19F030
:1016A000FDEF0AF04D0E0001966F000E976F010ED0
:1016B000986F010E996F350E9A6F100E9B6F4FEC5D
:1016C00019F04D0E0001966F000E976F010E986F86
:1016D000010E996F840E9A6F100E9B6F4FEC19F0EC
:1016E000FDEF0AF04D0E0001966F000E976F010E90
:1016F000986F010E996F350E9A6F100E9B6F4FEC1D
:1017000019F04D0E0001966F000E976F010E986F45
:10171000010E996F620E9A6F100E9B6F4FEC19F0CD
:10172000FDEF0AF04D0E0001966F000E976F010E4F
:10173000986F010E996F350E9A6F100E9B6F4FECDC
:1017400019F04D0E0001966F000E976F010E986F05
:10175000010E996FC00E9A6F100E9B6F4FEC19F02F
:10176000FDEF0AF04D0E0001966F000E976F010E0F
:10177000986F010E996F350E9A6F100E9B6F4FEC9C
:1017800019F04D0E0001966F000E976F010E986FC5
:10179000010E996FA80E9A6F100E9B6F4FEC19F007
:1017A000FDEF0AF04D0E0001966F000E976F010ECF
:1017B000986F010E996F350E9A6F100E9B6F4FEC5C
:1017C00019F04D0E0001966F000E976F010E986F85
:1017D000010E996F530E9A6F100E9B6F4FEC19F01C
:1017E000FDEF0AF04D0E0001966F000E976F010E8F
:1017F000986F010E996F350E9A6F100E9B6F4FEC1C
:1018000019F04D0E0001966F000E976F010E986F44
:10181000010E996F580E9A6F100E9B6F4FEC19F0D6
:10182000FDEF0AF04D0E0001966F000E976F010E4E
:10183000986F010E996F350E9A6F100E9B6F4FECDB
:1018400019F04D0E0001966F000E976F010E986F04
:10185000010E996F250E9A6F100E9B6F4FEC19F0C9
:10186000FDEF0AF04D0E0001966F000E976F010E0E
:10187000986F010E996F350E9A6F100E9B6F4FEC9B
:1018800019F04D0E0001966F000E976F010E986FC4
:10189000010E996F8E0E9A6F100E9B6F4FEC19F020
:1018A000FDEF0AF04D0E0001966F000E976F010ECE
:1018B000986F010E996F350E9A6F100E9B6F4FEC5B
:1018C00019F04D0E0001966F000E976F010E986F84
:1018D000010E996FD80E9A6F100E9B6F4FEC19F096
:1018E0008CEC12F0FDEF0AF04D0E0001966F000E29
:1018F000976F010E986F010E996F350E9A6F100E4B
:101900009B6F4FEC19F04D0E0001966F000E976F14
:10191000010E986F010E996F9B0E9A6F100E9B6FC0
:101920004FEC19F0FDEF0AF0485001011B6F1C6BE2
:101930001C51000AD8B49FEF0CF074EF0CF01B514F
:10194000000AD8B412EF0BF0010AD8B432EF0BF052
:10195000030AD8B452EF0BF0010AD8B472EF0BF0BF
:10196000070AD8B492EF0BF0010AD8B4B2EF0BF02B
:10197000030AD8B4D2EF0BF0010AD8B4F2EF0BF09F
:101980000F0AD8B412EF0CF0010AD8B432EF0CF001
:10199000030AD8B452EF0CF074EF0CF03BEF01F0F7
:1019A000010E0101106F0C510D11D8A4DAEF0CF0EB
:1019B000DCEF0CF0E0EF0CF0000E106FAEEF0EF06D
:1019C000000E116F000E126F000E136F000E146FD9
:1019D0006AEF0EF0AC94B8960CC1D9FF0DC1DAFFD6
:1019E000DECF0EF1DDCF0FF10EC180F00FC181F01F
:1019F0000001826B836B000E7DEC13F080C092F0CF
:101A000081C093F082C094F083C095F0000E000175
:101A10008E6F240E8F6FF40E906F4A0E916FB1ECA3
:101A20000EF08EC015F18FC016F190C017F191C065
:101A300018F1000E0001926F000E936F800E946FEC
:101A4000420E956F15C18EF016C18FF017C190F040
:101A500018C191F0B1EC0EF08EC000F18FC001F111
:101A600090C002F191C003F1000E0101046F000E5D
:101A7000056F800E066FBF0E076F70EC08F000C197
:101A800011F101C112F102C113F103C114F18DEF83
:101A90000EF0AC84B8960CC1D9FF0DC1DAFFDECFD1
:101AA0000EF1DDCF0FF10EC180F00FC181F000010A
:101AB000826B836B000E7DEC13F080C092F081C0CE
:101AC00093F082C094F083C095F0000E00018E6FF9
:101AD000240E8F6FF40E906F4A0E916FB1EC0EF0E2
:101AE0008EC015F18FC016F190C017F191C018F19A
:101AF000000E0001926F000E936F800E946F410EE6
:101B0000956F15C18EF016C18FF017C190F018C1F6
:101B100091F0B1EC0EF08EC000F18FC001F190C0D9
:101B200002F191C003F1000E0101046F000E056F78
:101B3000800E066FBF0E076F70EC08F000C111F148
:101B400001C112F102C113F103C114F18DEF0EF0C6
:101B5000AC94B8860CC1D9FF0DC1DAFFDECF0EF10F
:101B6000DDCF0FF10EC180F00FC181F00001826B5B
:101B7000836B000E7DEC13F080C092F081C093F077
:101B800082C094F083C095F0000E00018E6F240E89
:101B90008F6FF40E906F4A0E916FB1EC0EF08EC005
:101BA00015F18FC016F190C017F191C018F1000E19
:101BB0000001926F000E936F800E946F410E956F2F
:101BC00015C18EF016C18FF017C190F018C191F0B9
:101BD000B1EC0EF08EC000F18FC001F190C002F1A7
:101BE00091C003F1000E0101046F000E056F800E1D
:101BF000066FBF0E076F70EC08F000C111F101C154
:101C000012F102C113F103C114F18DEF0EF0AC8497
:101C1000B8860CC1D9FF0DC1DAFFDECF0EF1DDCFE2
:101C20000FF10EC180F00FC181F00001826B836B58
:101C3000000E7DEC13F080C092F081C093F082C062
:101C400094F083C095F0000E00018E6F240E8F6F0C
:101C5000F40E906F4A0E916FB1EC0EF08EC015F13C
:101C60008FC016F190C017F191C018F1000E00015D
:101C7000926F000E936F800E946F400E956F15C19A
:101C80008EF016C18FF017C190F018C191F0B1EC31
:101C90000EF08EC000F18FC001F190C002F191C032
:101CA00003F1000E0101046F000E056F800E066F38
:101CB000BF0E076F70EC08F000C111F101C112F105
:101CC00002C113F103C114F18DEF0EF0000E106F7D
:101CD0008DEF0EF020EE0BF00C51D9260D51DA22CB
:101CE000DF500E6F0F6B0F51000AD8B47AEF0EF071
:101CF00066EF0EF00E51000AD8B4EAEF0CF0010ABC
:101D0000D8B449EF0DF0030AD8B4A8EF0DF0010ADA
:101D1000D8B407EF0EF066EF0EF011C180F012C1DB
:101D200081F013C182F014C183F04FEC17F0000171
:101D30008051AF6E11C180F012C181F013C182F0E9
:101D400014C183F04FEC17F0000181C080F082C015
:101D500081F083C082F0836B8051B06E010110511D
:101D6000120000019151800B9E6F91519125A56F3A
:101D700090AFBDEF0EF0BFEF0EF0C0EF0EF0A581FB
:101D8000A551D8B4C6EF0EF0C8EF0EF0DDEF0EF09F
:101D9000A529D8A4CEEF0EF0D0EF0EF0D8EF0EF0BC
:101DA000000E8E6F000E8F6F000E906F000E916F01
:101DB000908F000E916FE5EF0EF0000E8E6F000E0B
:101DC0008F6F000E906F000E916F9551800B9E1BD0
:101DD00095519525A66F94AFF0EF0EF0F2EF0EF04F
:101DE000F3EF0EF0A681A651D8B4F9EF0EF0FBEF99
:101DF0000EF010EF0FF0A629D8A401EF0FF003EFBB
:101E00000FF00BEF0FF0000E926F000E936F000EAD
:101E1000946F000E956F948F000E956F18EF0FF072
:101E2000000E926F000E936F000E946F000E956F70
:101E30009251931194119511D8A421EF0FF023EF33
:101E40000FF03BEF0FF0000E8E6F000E8F6F000E45
:101E5000906F000E916F800E90137F0E91139E5124
:101E600091138EC08EF08FC08FF090C090F091C013
:101E700091F07EEF10F0A551D8A441EF0FF043EFA1
:101E80000FF04DEF0FF0000E8E6F000E8F6F000EF3
:101E9000906F000E916F7EEF10F0A651A5C096F0E6
:101EA000976B965F000E975B7F0E96259F6F000ED7
:101EB0009721A06F8EC09AF08FC09BF090C09CF0CD
:101EC00091C09DF0000E8E6F000E8F6F000E906F10
:101ED000000E916F000EA16F000EA26F000EA36F97
:101EE000000EA46F000EA66FAEEF0FF0A651D8B48F
:101EF0007CEF0FF07EEF0FF095EF0FF0D8909A3750
:101F00009B379C379D37D8908E378F3790379137D6
:101F1000A4AF8DEF0FF08FEF0FF090EF0FF08E81E9
:101F2000D890A137A237A337A43792519A5D935125
:101F30009B5994519C5995519D59D8A0A2EF0FF0EF
:101F4000A4EF0FF0ADEF0FF0A48D92519A5F935173
:101F50009B5B94519C5B95519D5BA62B190EA665CE
:101F6000B4EF0FF0B6EF0FF076EF0FF09A519B1130
:101F70009C119D11D8B4BFEF0FF0C1EF0FF0D9EF56
:101F80000FF0A181D9EF0FF0D8908E378F379037AF
:101F90009137A4AFCEEF0FF0D0EF0FF0D1EF0FF0ED
:101FA0008E81D890A137A237A337A4379F07D8A036
:101FB000A00790AFDEEF0FF0E0EF0FF0C4EF0FF0EF
:101FC000000EA66FA4AFE7EF0FF0E9EF0FF00DEFF3
:101FD00010F0FF0EA115966FFF0EA215976FFF0E62
:101FE000A315986F7F0EA415996F965197119811AC
:101FF0009911D8B4FEEF0FF000EF10F004EF10F0DD
:10200000010EA66F0DEF10F08EA109EF10F00BEF8F
:1020100010F00DEF10F000EF10F0A651D8B413EF50
:1020200010F015EF10F039EF10F0010E8E27000EB2
:102030008F239023912391A120EF10F022EF10F035
:1020400039EF10F08EC096F08FC097F090C098F0E6
:1020500091C099F09935993398339733963396C058
:102060008EF097C08FF098C090F099C091F09F4B80
:10207000A02BA0BF44EF10F0A05108E19F29D8A0E9
:1020800044EF10F046EF10F051EF10F0000EA06F8B
:102090009F69000E8E6F000E8F6F000E906F000E06
:1020A000916FA0BF5EEF10F0A05106E19F05D8B080
:1020B0005CEF10F05EEF10F06CEF10F0000EA06F10
:1020C000000E9F6F000E8E6F000E8F6F000E906FD0
:1020D000000E916F000E9E6F9FC0A5F0A5A173EF3B
:1020E00010F075EF10F078EF10F0908F79EF10F09E
:1020F000909FD890A531916F2FEF0FF01200000E36
:102100000001916F000E906F83518411D8B48BEF52
:1021100010F08DEF10F096EF10F085518611D8A4D5
:1021200094EF10F096EF10F098EF10F076EF11F0BA
:102130009EAA9DEF10F09FEF10F096EF10F020EEAA
:1021400009F08351D9268451DA22DFB8AAEF10F0C2
:10215000ACEF10F0B9EF10F0AE50876F886B85C010
:10216000D9FF86C0DAFF87C0DEFF88C0DDFF76EFCB
:1021700011F020EE09F08351D9268451DA22DFA82C
:10218000C4EF10F0C6EF10F076EF11F020EE09F07A
:102190008351D9268451DA22DF30030B0009D8A4F9
:1021A000D4EF10F0D6EF10F0F8EF10F0AECF90F0C3
:1021B000916BABB0DEEF10F0E0EF10F0E6EF10F057
:1021C000000E8B6F000E8A6FEAEF10F0010E8B6F1E
:1021D000000E8A6F8A5190278B51912385C0D9FFB9
:1021E00086C0DAFF90C0DEFF91C0DDFF76EF11F010
:1021F00020EE09F08351D9268451DA22DF30030B17
:10220000E806D8A406EF11F008EF11F03EEF11F048
:10221000AECF90F0916BABB010EF11F012EF11F068
:1022200018EF11F0000E8D6F000E8C6F1CEF11F087
:10223000010E8D6F000E8C6F8C5190278D51912364
:102240009051D5EC1BF00001876F91518719D8A4EC
:102250002CEF11F02EEF11F076EF11F0FF0E90152C
:10226000876F000E9115886F85C0D9FF86C0DAFF91
:1022700087C0DEFF88C0DDFF76EF11F020EE09F0A9
:102280008351D9268451DA22DF30030B020AD8A405
:102290004CEF11F04EEF11F076EF11F0AECF90F061
:1022A000916BABB056EF11F058EF11F05EEF11F0FB
:1022B000000E8F6F000E8E6F62EF11F0010E8F6FA8
:1022C000000E8E6F8E5190278F51912390519EEC6E
:1022D0001BF00001876F91518719D8A472EF11F09C
:1022E00074EF11F076EF11F02EEF11F0ABB27BEF3F
:1022F00011F07DEF11F084EF11F0ABA482EF11F03B
:1023000084EF11F086EF11F0AB98AB881200000E4D
:10231000146E000E136E06500710D8B492EF11F031
:1023200094EF11F09DEF11F008500910D8A49BEF25
:1023300011F09DEF11F09FEF11F07BEF12F09EAACC
:10234000A4EF11F0A6EF11F09DEF11F020EE09F0CF
:102350000650D9260750DA22DFB8B1EF11F0B3EFFB
:1023600011F0C0EF11F0AE500A6E0B6A08C0D9FF31
:1023700009C0DAFF0AC0DEFF0BC0DDFF7BEF12F001
:1023800020EE09F00650D9260750DA22DFA8CBEF5D
:1023900011F0CDEF11F07BEF12F020EE09F00650B6
:1023A000D9260750DA22DF30030B0009D8A4DBEF6F
:1023B00011F0DDEF11F0FFEF11F0AECF13F0146A62
:1023C000ABB0E5EF11F0E7EF11F0EDEF11F0000E1B
:1023D0000E6E000E0D6EF1EF11F0010E0E6E000E7E
:1023E0000D6E0D5013260E50142208C0D9FF09C0DF
:1023F000DAFF13C0DEFF14C0DDFF7BEF12F020EE2A
:1024000009F00650D9260750DA22DF30030BE80620
:10241000D8A40DEF12F00FEF12F044EF12F0AECF90
:1024200013F0146AABB017EF12F019EF12F01FEFB0
:1024300012F0000E106E000E0F6E23EF12F0010E60
:10244000106E000E0F6E0F501326105014221350F2
:1024500040EC1CF00A6E14500A18D8A432EF12F0A7
:1024600034EF12F07BEF12F0FF0E13140A6E000E21
:1024700014140B6E08C0D9FF09C0DAFF0AC0DEFFD2
:102480000BC0DDFF7BEF12F020EE09F00650D926DD
:102490000750DA22DF30030B020AD8A452EF12F001
:1024A00054EF12F07BEF12F0AECF13F0146AABB022
:1024B0005CEF12F05EEF12F064EF12F0000E126E9D
:1024C000000E116E68EF12F0010E126E000E116E0A
:1024D000115013261250142213500CEC1CF00A6EEB
:1024E00014500A18D8A477EF12F079EF12F07BEFAE
:1024F00012F034EF12F0ABB280EF12F082EF12F074
:1025000089EF12F0ABA487EF12F089EF12F08BEF96
:1025100012F0AB98AB881200010E00019F6F9D9ADC
:10252000530E2A6E000E2B6E010E2C6E99EC15F0D8
:1025300022EF13F0F40E926F000E936F470E946F1C
:10254000000E956F67EC1BF0240E4718D8A4ABEF74
:1025500012F0ADEF12F022EF13F019EF13F0F40EBA
:10256000926F000E936F470E946F000E956F67EC9D
:102570001BF02C0E4718D8A4C0EF12F0C2EF12F0D7
:1025800019EF13F0452A030E4518D8A4CAEF12F02C
:10259000CCEF12F0EEEF12F0000E466EF40E0001DA
:1025A000926F000E936FC90E4624946F956B000EC8
:1025B000952367EC1BF0462AC80E4624D96EDA6ACA
:1025C000000EDA222C0EDE18D8A4E9EF12F0EBEFA1
:1025D00012F0CEEF12F0452A19EF13F0050E451850
:1025E000D8A4F5EF12F0F7EF12F019EF13F0000E88
:1025F000466EF40E0001926F000E936FBC0E4624DF
:10260000946F956B000E952367EC1BF0462ABB0E6A
:102610004624D96EDA6A000EDA222C0EDE18D8A40F
:1026200014EF13F016EF13F0F9EF12F0000E0001A3
:102630009F6F00019F51D8A420EF13F022EF13F0F9
:10264000AFEF12F000019F51D8A429EF13F02BEF48
:1026500013F09AEF12F04D0E966F000E976F010E69
:10266000986F010E996F440E9A6F100E9B6F4FEC8E
:1026700019F04D0E0001966F000E976F020E986FC5
:10268000010E996F440E9A6F100E9B6F4FEC19F06C
:102690004D0E0001966F000E976F010E986F010EA0
:1026A000996FC90E9A6F000E9B6F4FEC19F04D0E8B
:1026B0000001966F000E976F020E986F010E996FD2
:1026C000BC0E9A6F000E9B6F4FEC19F0530E2A6EE2
:1026D000000E2B6E000E2C6E99EC15F0150E0001FD
:1026E0009E6F4B0E9D6FBE0EE82EFED79D2FFCD722
:1026F0009E2FFAD700F09D8A12000001886F00011A
:102700008851D8B486EF13F088EF13F0AAEF13F0D6
:1027100083BF8FEF13F08DEF13F0AAEF13F080C09B
:1027200084F081C085F082C086F083C087F0841F6A
:10273000851F861F871F842B000E852386238723F2
:1027400084C08AF085C08BF086C08CF087C08DF085
:10275000B2EF13F080C08AF081C08BF082C08CF0A1
:1027600083C08DF08051811182118311D8A4BBEFF9
:1027700013F0BDEF13F0C7EF13F0000E806F000EE3
:10278000816F000E826F000E836F58EF14F0960E6B
:10279000896FD1EF13F0892BD8908D338C338B3325
:1027A0008A33000E8A15846F000E8B15856F000E1C
:1027B0008C15866FFE0E8D15876F845185118611DD
:1027C0008711D8A4E6EF13F0E8EF13F0CBEF13F086
:1027D000F6EF13F0892B010E8A27000E8B238C2332
:1027E0008D23D8908D338C338B338A33000E8A152A
:1027F000846F000E8B15856F000E8C15866FFF0E93
:102800008D15876F8451851186118711D8A40BEF20
:1028100014F00DEF14F0EAEF13F015EF14F0890740
:10282000D8908A378B378C378D378CBF1AEF14F0DE
:102830001CEF14F024EF14F0020E896122EF14F063
:1028400024EF14F00FEF14F089B129EF14F02BEFFF
:1028500014F02CEF14F08C9FD890893389C084F049
:10286000856B866B876B84C087F0866B856B846B0A
:1028700084518A1385518B1386518C1387518D1384
:102880008851D8B446EF14F048EF14F050EF14F02C
:1028900083BF4FEF14F04DEF14F050EF14F08D8F15
:1028A0008AC080F08BC081F08CC082F08DC083F034
:1028B0001200010E2C6E2A502B10D8B462EF14F0C7
:1028C00064EF14F074EF14F02AC0D9FF2BC0DAFFC4
:1028D000DF50070B0001806F070E806572EF14F068
:1028E00074EF14F0D9EF14F0000E2C6EFAEF14F020
:1028F0002AC0D9FF2BC0DAFFDF50070B806F010E13
:10290000816F802B86EF14F0D8908137802F84EF71
:1029100014F000018151FF0A826F2AC0D9FF2BC039
:10292000DAFFDF30E832E832070B836F8351020DA4
:10293000EA0EF324D96E000EF420DA6EDECF84F0B6
:10294000DDCF85F084C0D9FF85C0DAFF8251DF1664
:10295000FAEF14F02AC0D9FF2BC0DAFFDF50070BC3
:10296000806F010E816F802BB8EF14F0D890813703
:10297000802FB6EF14F02AC0D9FF2BC0DAFFDF306A
:10298000E832E832070B0001826F8251020DEA0E35
:10299000F324D96E000EF420DA6EDECF83F0DDCFA3
:1029A00084F083C0D9FF84C0DAFF8151DF12FAEFCF
:1029B00014F02AC0D9FF2BC0DAFFDFBCE2EF14F01D
:1029C000E5EF14F0010EE6EF14F0000E806F816B5E
:1029D0008151000AD8B4EFEF14F074EF14F0805175
:1029E000000AD8B478EF14F0010AD8B4AAEF14F0B2
:1029F00074EF14F02C50120000018F519011D8A4E4
:102A000004EF15F006EF15F008EF15F098EF15F04C
:102A10008FC087F090C088F06DEC1DF0010E0001B2
:102A20008F25876F000E9021886F6DEC1DF0000ED2
:102A30000001936F93518F25916F000E9021926F3B
:102A4000020E9125876F000E9221886F6DEC1DF0AC
:102A50000001932B030E936530EF15F032EF15F064
:102A60001AEF15F0340E0001916FF10EE82EFED72B
:102A7000912FFCD700D08FC08BF090C08CF0380E17
:102A800000018D6FF7EC1AF00D0E0001916FFB0E37
:102A9000E82EFED7912FFCD700D08FC08BF090C0CE
:102AA0008CF0380E00018D6FF7EC1AF0640EE82EF2
:102AB000FED78FC08BF090C08CF0380E00018D6F68
:102AC000F7EC1AF08FC08BF090C08CF0010E000173
:102AD0008D6FF7EC1AF08FC08BF090C08CF0020E67
:102AE00000018D6FF7EC1AF08FC08BF090C08CF066
:102AF000060E00018D6FF7EC1AF08FC08BF090C0BE
:102B00008CF00D0E00018D6FF7EC1AF08FC08BF07A
:102B100090C08CF0280E00018D6FF7EC1AF08FC07A
:102B20008BF090C08CF0800E00018D6FF7EC1AF0E6
:102B30001200010E0001866F2A502B10D8B4A3EFAB
:102B400015F0A5EF15F0B4EF15F02AC0D9FF2BC092
:102B5000DAFFDF50070B806F070E8065B2EF15F0CC
:102B6000B4EF15F019EF16F0000E866F2EEF16F089
:102B70002AC0D9FF2BC0DAFFDF50070B806F010E90
:102B8000816F802BC6EF15F0D8908137802FC4EF6E
:102B900015F000018151FF0A826F2AC0D9FF2BC0B6
:102BA000DAFFDF30E832E832070B836F8351020D22
:102BB000E00EF324D96E000EF420DA6EDECF84F03E
:102BC000DDCF85F084C0D9FF85C0DAFF8251DF16E2
:102BD0002EEF16F02AC0D9FF2BC0DAFFDF50070B0B
:102BE000806F010E816F802BF8EF15F0D890813740
:102BF000802FF6EF15F02AC0D9FF2BC0DAFFDF30A7
:102C0000E832E832070B0001826F8251020DE00EBC
:102C1000F324D96E000EF420DA6EDECF83F0DDCF20
:102C200084F083C0D9FF84C0DAFF8151DF122EEF18
:102C300016F02C50806F816B8151000AD8B423EFBD
:102C400016F0B4EF15F08051000AD8B4B8EF15F0C3
:102C5000010AD8B4EAEF15F0B4EF15F0865112006E
:102C6000010E0A6E01500210D8B439EF16F03BEF96
:102C700016F04AEF16F001C0D9FF02C0DAFFDF50AC
:102C8000070B046E070E046448EF16F04AEF16F0C7
:102C9000ADEF16F0000E0A6EC2EF16F001C0D9FFBC
:102CA00002C0DAFFDF50070B046E010E056E042A26
:102CB0005CEF16F0D8900536042E5AEF16F005504A
:102CC000FF0A066E01C0D9FF02C0DAFFDF30E8322A
:102CD000E832070B076E0750020DE00EF324D96EA1
:102CE000000EF420DA6EDECF08F0DDCF09F008C068
:102CF000D9FF09C0DAFF0650DF16C2EF16F001C097
:102D0000D9FF02C0DAFFDF50070B046E010E056E1B
:102D1000042A8DEF16F0D8900536042E8BEF16F0AE
:102D200001C0D9FF02C0DAFFDF30E832E832070B1A
:102D3000066E0650020DE00EF324D96E000EF4204C
:102D4000DA6EDECF07F0DDCF08F007C0D9FF08C08C
:102D5000DAFF0550DF12C2EF16F00350046E056A69
:102D60000550000AD8B4B7EF16F04AEF16F0045039
:102D7000000AD8B44EEF16F0010AD8B47FEF16F06F
:102D80004AEF16F00A5012000600FACF20F0FBCFEF
:102D900021F0D9CF22F0DACF23F0F3CF24F0F4CF13
:102DA00025F0F2A8D6EF16F0D8EF16F0E1EF16F006
:102DB000F2A2DDEF16F0DFEF16F0E1EF16F0C5EC52
:102DC0001EF0F0A8E6EF16F0E8EF16F0F1EF16F0BF
:102DD000F0A2EDEF16F0EFEF16F0F1EF16F0C3EC06
:102DE0001EF0F2AAF6EF16F0F8EF16F0F9EF16F073
:102DF000F2509DA2FEEF16F000EF17F001EF17F072
:102E00009E50A0A206EF17F008EF17F009EF17F099
:102E1000A150A0A00EEF17F010EF17F011EF17F070
:102E2000A1509DAA16EF17F018EF17F021EF17F039
:102E30009EAA1DEF17F01FEF17F021EF17F046ECD9
:102E40001EF09DA826EF17F028EF17F031EF17F0CE
:102E50009EA82DEF17F02FEF17F031EF17F0C7EC0A
:102E60001EF0A0A636EF17F038EF17F039EF17F085
:102E7000A1509DA63EEF17F040EF17F041EF17F07D
:102E80009E5025C0F4FF24C0F3FF23C0DAFF22C008
:102E9000D9FF21C0FBFF20C0FAFF569211000001AC
:102EA000823583352B6E2B50D8A459EF17F05BEF8A
:102EB00017F065EF17F0000E806F000E816F000EA7
:102EC000826F000E836FD2EF17F080C084F081C054
:102ED00085F082C086F083C087F0200E75EF17F072
:102EE000D8908733863385338433E82E70EF17F01C
:102EF00084512A6E828FFF0E8017FF0E8117FF0EFE
:102F00008217000E8317960E2B5E2BBE8CEF17F0E8
:102F10008AEF17F0A2EF17F02B50800A970FD8B066
:102F200094EF17F096EF17F098EF17F05BEF17F0AC
:102F3000D89083338233813380332B3E98EF17F060
:102F4000BAEF17F01F0E2B64A8EF17F0AAEF17F0D7
:102F5000B2EF17F05BEF17F0D890803781378237E8
:102F600083372B062B50D8A4B8EF17F0BAEF17F021
:102F7000ACEF17F02A50D8B4C0EF17F0C2EF17F03B
:102F8000CAEF17F0831F821F811F806D000E8123FF
:102F90008223832380C080F081C081F082C082F0D0
:102FA00083C083F0120006500710D8A4DAEF17F0A0
:102FB000DCEF17F0DEEF17F044EF18F020EE02F030
:102FC0000650D9260750DA22DFA6E9EF17F0EBEF1B
:102FD00017F042EF18F020EE02F00650D926075005
:102FE000DA22DF50030B0009D8A4F9EF17F0FBEF4A
:102FF00017F00AEF18F008C00AF009C00BF00BC078
:103000000AF00B6A0A30D8A002D0AC8001D0AC9094
:1030100042EF18F020EE02F00650D9260750DA22CF
:10302000DF50030BE806D8A418EF18F01AEF18F0D9
:1030300026EF18F0085040EC1CF00A6E0A30D8A0B9
:1030400002D0AC8001D0AC9042EF18F020EE02F03C
:103050000650D9260750DA22DF50030B020AD8A403
:1030600034EF18F036EF18F042EF18F008500CEC7F
:103070001CF00A6E0A30D8A002D0AC8001D0AC900F
:1030800042EF18F008C0ADFF1200010E0001826F80
:1030900080518111D8A44FEF18F051EF18F055EF7F
:1030A00018F0000E826F9CEF18F020EE06F08051B1
:1030B000D9268151DA22DFA660EF18F062EF18F00E
:1030C0008CEF18F0AB9880C02AF081C02BF0A6ECF2
:1030D00019F00001826F20EE06F08051D92681514F
:1030E000DA22DFA876EF18F078EF18F07BEF18F00F
:1030F000AB8C89EF18F020EE06F08051D926815173
:10310000DA22DFB886EF18F088EF18F089EF18F0B0
:10311000AB9CAB889CEF18F020EE06F08051D926CE
:103120008151DA22DFB697EF18F099EF18F09CEF93
:1031300018F0AB989CEF18F08251120000018F51EB
:103140009011D8A4A6EF18F0A8EF18F0AAEF18F085
:10315000F6EF18F09207D9EF18F08FC08BF090C0FF
:103160008CF09251800F8D6FF7EC1AF0F6EF18F09B
:103170008FC08BF090C08CF09251C00F8D6FF7EC28
:103180001AF0F6EF18F08FC08BF090C08CF09251CF
:10319000940F8D6FF7EC1AF0F6EF18F08FC08BF0EC
:1031A00090C08CF09251D40F8D6FF7EC1AF0F6EFBF
:1031B00018F09151936F946B9451000AD8B4E3EFD7
:1031C00018F0F6EF18F09351010AD8B4ADEF18F0EB
:1031D000030AD8B4B8EF18F0010AD8B4C3EF18F056
:1031E000070AD8B4CEEF18F0F6EF18F0120013501B
:1031F0001410D8A4FEEF18F000EF19F002EF19F048
:103200004EEF19F0160631EF19F013C00FF014C08D
:1032100010F01650800F116E0BEC1DF04EEF19F0F0
:1032200013C00FF014C010F01650C00F116E0BEC4D
:103230001DF04EEF19F013C00FF014C010F016502F
:10324000940F116E0BEC1DF04EEF19F013C00FF040
:1032500014C010F01650D40F116E0BEC1DF04EEF91
:1032600019F01550176E186A1850000AD8B43BEFC1
:1032700019F04EEF19F01750010AD8B405EF19F004
:10328000030AD8B410EF19F0010AD8B41BEF19F0F3
:10329000070AD8B426EF19F04EEF19F0120000011A
:1032A00096519711D8B457EF19F059EF19F062EF12
:1032B00019F09A519B11D8A460EF19F062EF19F040
:1032C00064EF19F0A5EF19F096C08FF097C090F059
:1032D00098C091F099C092F09EEC18F08CEF19F024
:1032E00096C08BF097C08CF09AC0F6FF9BC0F7FF9A
:1032F000000EF86E0F0EF76403D00800F55005D0ED
:10330000F6CFE9FFF7CFEAFFEF5000018D6FA7EC92
:103310001CF000019A4B9B2B9AC0F6FF9BC0F7FF55
:10332000000EF86E0F0EF76403D00800F55005D0BC
:10333000F6CFE9FFF7CFEAFFEF500009D8A4A3EFDB
:1033400019F0A5EF19F070EF19F01200010E2C6EB4
:103350002A502B10D8A4AFEF19F0B1EF19F0B5EF48
:1033600019F0000E2C6EF5EF19F09D9A2AC0D9FFC6
:103370002BC0DAFFDECF43F0DDCF44F020EE04F0C7
:103380002A50D9262B50DA22DECFB8F0DDCFB9F0A3
:1033900020EE02F02A50D9262B50DA22DECFBAF0E6
:1033A000DDCFBBF0D08E20EE06F02A50D9262B5070
:1033B000DA22DFA0DEEF19F0E0EF19F0E4EF19F008
:1033C0009F8AF28EF4EF19F020EE06F02A50D926EB
:1033D0002B50DA22DFB0EFEF19F0F1EF19F0F4EF34
:1033E00019F09F9AF28EF28C9D8A2C501200010ED9
:1033F0002C6E2A502B10D8A400EF1AF002EF1AF00E
:1034000006EF1AF0000E2C6E3DEF1AF02AC0D9FF1D
:103410002BC0DAFFDFA40FEF1AF011EF1AF02FEF35
:103420001AF0AC9A2AC0D9FF2BC0DAFFDFA61BEF37
:103430001AF01DEF1AF020EF1AF0AC8C2CEF1AF0F6
:103440002AC0D9FF2BC0DAFFDFB629EF1AF02BEF25
:103450001AF02CEF1AF0AC9CAC8A3DEF1AF02AC09F
:10346000D9FF2BC0DAFFDFB438EF1AF03AEF1AF0C9
:103470003DEF1AF0AC9A3DEF1AF02C50120000010B
:1034800087518811D8A447EF1AF049EF1AF04BEF93
:103490001AF07FEF1AF0020E87252A6E000E88219F
:1034A0002B6E8951010B2C6E99EC15F0030E000167
:1034B00087252A6E000E88212B6ED8908931010B4A
:1034C0002C6E99EC15F0040E000187252A6E000E73
:1034D00088212B6E8941E8423F0B010B2C6E99EC41
:1034E00015F0050E000187252A6E000E88212B6E2F
:1034F0008939E8461F0B010B2C6E99EC15F0120070
:103500000B500C10D8A487EF1AF089EF1AF08BEF4C
:103510001AF0BCEF1AF0020E0B24016E000E0C2004
:10352000026E0D50010B036E30EC16F0030E0B24EF
:10353000016E000E0C20026ED8900D30010B036E50
:1035400030EC16F0040E0B24016E000E0C20026EFF
:103550000D40E8423F0B010B036E30EC16F0050EF8
:103560000B24016E000E0C20026E0D38E8461F0B76
:10357000010B036E30EC16F012002A502B10D8A469
:10358000C4EF1AF0C6EF1AF0C8EF1AF0F6EF1AF00F
:103590002AC0D9FF2BC0DAFFDF50070B0001806F74
:1035A000010E816F802BD7EF1AF0D8908137802FD2
:1035B000D5EF1AF02AC0D9FF2BC0DAFFDF30E8328E
:1035C000E832070B0001826F8251020DE00EF324F6
:1035D000D96E000EF420DA6EDECF83F0DDCF84F0FA
:1035E00083C0D9FF84C0DAFF8151DF1A12000001C5
:1035F0008B518C11D8A4FFEF1AF001EF1BF005EFEF
:103600001BF0000E8E6F2CEF1BF08BC02AF08CC0CD
:103610002BF0000E2C6E99EC15F000018E6F8BC014
:1036200087F08CC088F08D390F0B896F3FEC1AF052
:103630008BC087F08CC088F095EC1DF08BC087F0B4
:103640008CC088F08DC089F03FEC1AF08BC087F0F9
:103650008CC088F095EC1DF000018E5112000150D5
:103660000210D8A436EF1BF038EF1BF03AEF1BF036
:1036700066EF1BF001C0D9FF02C0DAFFDF50070B75
:10368000036E010E046E032A48EF1BF0D890043637
:10369000032E46EF1BF001C0D9FF02C0DAFFDF3076
:1036A000E832E832070B056E0550020DE00EF324F8
:1036B000D96E000EF420DA6EDECF06F0DDCF07F013
:1036C00006C0D9FF07C0DAFF0450DF1A120000015C
:1036D00092519311D8B46FEF1BF071EF1BF07AEF9A
:1036E0001BF094519511D8A478EF1BF07AEF1BF0E2
:1036F0007CEF1BF08DEF1BF09EAA81EF1BF083EF98
:103700001BF07CEF1BF092C083F093C084F094C058
:1037100085F095C086F07FEC10F0ABB292EF1BF015
:1037200094EF1BF09BEF1BF0ABA499EF1BF09BEF0A
:103730001BF09DEF1BF0AB98AB8812000001806F6F
:10374000000E0001816F000E826F000E826F82C03A
:103750002AF0010E2B6E2A2AB0EF1BF0D8902B36E0
:103760002A2EAEEF1BF02B50000180150009D8B4B3
:10377000BCEF1BF0BEEF1BF0BFEF1BF0812B822BC9
:10378000070E8265C6EF1BF0C8EF1BF0A7EF1BF01A
:10379000812B81B1CEEF1BF0D0EF1BF0D3EF1BF0EC
:1037A000010ED4EF1BF0000E12000001806F000E1E
:1037B0000001816F000E826F000E826F82C02AF0BE
:1037C000010E2B6E2A2AE7EF1BF0D8902B362A2EFB
:1037D000E5EF1BF02B50000180150009D8B4F3EF82
:1037E0001BF0F5EF1BF0F6EF1BF0812B822B070E81
:1037F0008265FDEF1BF0FFEF1BF0DEEF1BF0812B6E
:1038000081A105EF1CF007EF1CF00AEF1CF0010E80
:103810000BEF1CF0000E1200036E000E046E000E83
:10382000056E000E056E05C001F0010E026E012A44
:103830001CEF1CF0D8900236012E1AEF1CF002503B
:1038400003140009D8B427EF1CF029EF1CF02AEF6D
:103850001CF0042A052A070E056431EF1CF033EF33
:103860001CF013EF1CF0042A04B039EF1CF03BEFFE
:103870001CF03EEF1CF0010E3FEF1CF0000E12009A
:10388000036E000E046E000E056E000E056E05C080
:1038900001F0010E026E012A50EF1CF0D8900236A2
:1038A000012E4EEF1CF0025003140009D8B45BEF58
:1038B0001CF05DEF1CF05EEF1CF0042A052A070ED9
:1038C000056465EF1CF067EF1CF047EF1CF0042A5D
:1038D00004A06DEF1CF06FEF1CF072EF1CF0010EF6
:1038E00073EF1CF0000E1200010119511A11D8A437
:1038F0007CEF1CF07EEF1CF080EF1CF0A6EF1CF0BC
:10390000AB9E19C10CF11AC10DF1D0EC0CF0000105
:10391000AB6FAC98948C020E010119252A6E000E33
:103920001A212B6EF7EC19F00001AB17948E030EE1
:10393000010119250001806F000E01011A2100010B
:10394000816F45EC18F00001AB17AB8E120000013F
:103950008B518C11D8A4AFEF1CF0B1EF1CF0B3EF7A
:103960001CF0D9EF1CF08BC02AF08CC02BF0010E9C
:103970002C6E99EC15F08BC087F08CC088F000019C
:103980008D390F0B896F3FEC1AF08BC087F08CC01C
:1039900088F095EC1DF08BC087F08CC088F08DC04E
:1039A00089F03FEC1AF08BC087F08CC088F095EC62
:1039B0001DF01200B80EF66E3C0EF76E000EF86E9B
:1039C00000EED6F010EE2AF00900F5CFEEFFE5503C
:1039D000E150FAE1740EF66E3D0EF76E000EF86ED1
:1039E00000EE49F010EE0DF00900F5CFEEFFE550C6
:1039F000E150FAE100EEACF02A0EEE6AE806FDE1D5
:103A000000EE2DF01C0EEE6AE806FDE1569056928F
:103A10000001ECEF0AF00F501010D8A412EF1DF0C7
:103A200014EF1DF016EF1DF03BEF1DF00FC001F07D
:103A300010C002F0000E036E30EC16F00FC00BF059
:103A400010C00CF011380F0B0D6E80EC1AF00FC087
:103A50000BF010C00CF004EC1EF00FC00BF010C007
:103A60000CF011C00DF080EC1AF00FC00BF010C07C
:103A70000CF004EC1EF012000F501010D8A443EF0D
:103A80001DF045EF1DF047EF1DF06CEF1DF00FC06E
:103A900001F010C002F0010E036E30EC16F00FC002
:103AA0000BF010C00CF011380F0B0D6E80EC1AF0FB
:103AB0000FC00BF010C00CF004EC1EF00FC00BF0A8
:103AC00010C00CF011C00DF080EC1AF00FC00BF01C
:103AD00010C00CF004EC1EF0120000018751881198
:103AE000D8A475EF1DF077EF1DF07BEF1DF0000EF1
:103AF000896F93EF1DF087C02AF088C02BF059EC36
:103B000014F00001896F87C02AF088C02BF087C0AD
:103B1000D9FF88C0DAFF000EDFBE010E2C6E99ECD3
:103B200015F00001896F8951120000018751881139
:103B3000D8A49DEF1DF09FEF1DF0A1EF1DF0BAEF8F
:103B40001DF0010E87252A6E000E88212B6E010EB6
:103B50002C6E99EC15F0030EE82EFED700F0010E46
:103B6000000187252A6E000E88212B6E000E2C6E18
:103B700099EC15F01200F40E066E000E076E480E5A
:103B8000086E000E096E87EC11F0F40E0D6E000E3B
:103B90000E6E4BC00FF071EC1EF04D0E1A6E000E43
:103BA0001B6E020E1C6E040E1D6E48C01EF028EC2B
:103BB0001EF0550E016E000E026E2FEC1BF012006F
:103BC000540E0001876F000E886F6DEC1DF0550ECE
:103BD0000001876F000E886F6DEC1DF0530E000121
:103BE000876F000E886F6DEC1DF0F40E0101196FE8
:103BF000000E1A6F74EC1CF04D0E00018F6F000E5A
:103C0000906FFCEC14F012000B500C10D8A40BEFCA
:103C10001EF00DEF1EF00FEF1EF027EF1EF0010E4D
:103C20000B24016E000E0C20026E010E036E30ECB0
:103C300016F0030EE82EFED700F0010E0B24016EE5
:103C4000000E0C20026E000E036E30EC16F0120017
:103C50001A501B10D8A42FEF1EF031EF1EF033EFD7
:103C60001EF045EF1EF01AC013F01BC014F01CC06C
:103C700015F01DC016F0F7EC18F01AC00FF01BC0BD
:103C800010F01EC011F03CEC1DF012004350441027
:103C9000D8B44DEF1EF04FEF1EF05BEF1EF002D8D0
:103CA0005BEF1EF00500FA6E4350FD6E4450FE6E51
:103CB000FF6AFA5012001200800F810F820F830FEB
:103CC000840F890F8A0F8B0F8C0F8D0F920F930F1C
:103CD000940F950F960F802504763B000000000995
:103CE00000000D500E10D8A478EF1EF07AEF1EF0F1
:103CF0007CEF1EF085EF1EF00DC006F00EC007F041
:103D00000FC008F0096AD3EC17F01200266EF2908B
:103D10002650D8B48EEF1EF090EF1EF092EF1EF0FA
:103D200092EF1EF01200266EF2902650D8B49BEF50
:103D30001EF09DEF1EF09FEF1EF09FEF1EF0120091
:103D4000266EF2902650D8B4A8EF1EF0AAEF1EF00F
:103D5000ACEF1EF0ACEF1EF01200266EF290265073
:103D6000D8B4B5EF1EF0B7EF1EF0B9EF1EF0B9EF03
:103D70001EF012000101770F10111213141508998B
:013D80001A28
:0E3D8200F0901200F0921200F2921200120065
:020000040020DA
:08000000FFFFFFFFFFFFFFFF00
:020000040030CA
:0E000000FF02091EFF8181FF0FC00FE00F40BD
:00000001FF
