:020000040000FA
:0400000043EF01F0D9
:06000800428272EF1CF0C1
:100018004280D8CF1BF0E8CF1CF0E0CF1DF0F0A64F
:1000280018EF00F01AEF00F023EF00F0F0A01FEF38
:1000380000F021EF00F023EF00F0D5EC28F0F2A655
:1000480028EF00F02AEF00F043EF00F0F2A02FEFC6
:1000580000F031EF00F043EF00F081A836EF00F038
:1000680038EF00F043EF00F03DA03DEF00F03FEF28
:1000780000F043EF00F03D90010EC1EC28F0F2A62D
:1000880048EF00F04AEF00F063EF00F0F2A04FEF06
:1000980000F051EF00F063EF00F081B856EF00F088
:1000A80058EF00F063EF00F03DB05DEF00F05FEF58
:1000B80000F063EF00F03D80000EC1EC28F0F2A6DE
:1000C80068EF00F06AEF00F083EF00F0F2A06FEF46
:1000D80000F071EF00F083EF00F081AA76EF00F0F6
:1000E80078EF00F083EF00F03DA27DEF00F07FEFA6
:1000F80000F083EF00F03D92010EB4EC28F0F2A678
:1001080088EF00F08AEF00F0A3EF00F0F2A08FEF85
:1001180000F091EF00F0A3EF00F081BA96EF00F045
:1001280098EF00F0A3EF00F03DB29DEF00F09FEFD5
:1001380000F0A3EF00F03D82000EB4EC28F0F2A628
:10014800A8EF00F0AAEF00F0C3EF00F0F2A0AFEFC5
:1001580000F0B1EF00F0C3EF00F081ACB6EF00F0B3
:10016800B8EF00F0C3EF00F03DA4BDEF00F0BFEF23
:1001780000F0C3EF00F03D94010EA7EC28F0F2A6C2
:10018800C8EF00F0CAEF00F0E3EF00F0F2A0CFEF05
:1001980000F0D1EF00F0E3EF00F081BCD6EF00F003
:1001A800D8EF00F0E3EF00F03DB4DDEF00F0DFEF53
:1001B80000F0E3EF00F03D84000EA7EC28F0F2A673
:1001C800E8EF00F0EAEF00F003EF01F0F2A0EFEF44
:1001D80000F0F1EF00F003EF01F081AEF6EF00F070
:1001E800F8EF00F003EF01F03DA6FDEF00F0FFEFA0
:1001F80000F003EF01F03D96010E9AEC28F0F2A60C
:1002080008EF01F00AEF01F023EF01F0F2A00FEF81
:1002180001F011EF01F023EF01F081BE16EF01F0BC
:1002280018EF01F023EF01F03DB61DEF01F01FEFCD
:1002380001F023EF01F03D86000E9AEC28F09DAC0A
:1002480028EF01F02AEF01F033EF01F09EAC2FEF19
:1002580001F031EF01F033EF01F0D8EC28F09DA068
:1002680038EF01F03AEF01F03BEF01F09E501DC06E
:10027800E0FF1CC0E8FF1BC0D8FF42901000DFEF72
:0202880022F062
:101000000041542B554152543A393630302C302C53
:10101000300D0A0041542B524E414D453A526F62F9
:101020006F740D0A0041542B505357443A313233F8
:10103000340D0A0041542B524F4C453A300D0A00F2
:071040002566002569000090
:1010480000019B51800BA46F9B519B25A66F9AAF03
:1010580030EF08F032EF08F033EF08F0A681A65120
:10106800D8B439EF08F03BEF08F050EF08F0A629A4
:10107800D8A441EF08F043EF08F04BEF08F0000E5A
:10108800986F000E996F000E9A6F000E9B6F9A8FE3
:10109800000E9B6F58EF08F0000E986F000E996FC6
:1010A800000E9A6F000E9B6F9F51800BA56FA45185
:1010B800A519D8B462EF08F064EF08F065EF08F0FE
:1010C800A48D9F519F25A56F9EAF6DEF08F06FEF20
:1010D80008F070EF08F0A581A551D8B476EF08F0B4
:1010E80078EF08F08DEF08F0A529D8A47EEF08F076
:1010F80080EF08F088EF08F0000E9C6F000E9D6FDF
:10110800000E9E6F000E9F6F9E8F000E9F6F95EFD3
:1011180008F0000E9C6F000E9D6F000E9E6F000E73
:101128009F6FA651A55DD8B09CEF08F09EEF08F020
:10113800C5EF08F0A4ADA3EF08F0A5EF08F0A7EFFE
:1011480008F0800EA41BA6C0A7F0A5C0A6F0A7C0F3
:10115800A5F098C0A7F09CC098F0A7C09CF099C0D3
:10116800A7F09DC099F0A7C09DF09AC0A7F09EC0B7
:101178009AF0A7C09EF09BC0A7F09FC09BF0A7C0A5
:101188009FF0000EA76FA651A5C0A0F0A16BA05FAD
:10119800000EA15BA1BFDAEF08F0A15109E11A0E18
:1011A800A05DD8A0DAEF08F0DCEF08F013EF09F043
:1011B800985199119A119B11D8A4E5EF08F0E8EF1E
:1011C80008F0010EE9EF08F0000EA76F000E986F07
:1011D800000E996F000E9A6F000E9B6FA5C0A6F0C7
:1011E8001CEF09F0A7A1FBEF08F0FDEF08F003EFF3
:1011F80009F0D890A7310109A76F05EF09F0D89039
:10120800A73398A10AEF09F00CEF09F00DEF09F0E8
:10121800A78F9B359B339A3399339833A62BA551C7
:10122800A65DD8A01AEF09F01CEF09F0F6EF08F058
:10123800A4BD21EF09F023EF09F063EF09F0A651EF
:10124800D8A429EF09F02BEF09F035EF09F0000ECB
:10125800986F000E996F000E9A6F000E9B6F84EFC7
:101268000AF09C5198279D5199239E519A239F518A
:101278009B239BA142EF09F044EF09F0F0EF09F03E
:10128800A7A149EF09F04BEF09F051EF09F0D89009
:10129800A7310109A76F53EF09F0D890A73398A198
:1012A80058EF09F05AEF09F05BEF09F0A78F9B356B
:1012B8009B339A3399339833A62BF0EF09F09C515E
:1012C800985D9D5199599E519A599B51800AA06FDA
:1012D8009F51800AA059D8B074EF09F076EF09F051
:1012E800A1EF09F098519C5DA06F99519D59A16F8C
:1012F8009A519E59A26F9B519F59A36FFF0EA0252B
:10130800986FFF0EA121996FFF0EA2219A6FFF0E11
:10131800A3219B6F800EA41BA76DA751D8A497EF9C
:1013280009F099EF09F0A9EF09F0010E9827000ECE
:1013380099239A239B23A9EF09F09C51985F9D510B
:10134800995B9E519A5B9F519B5B985199119A1199
:101358009B11D8A4B2EF09F0B4EF09F0E9EF09F056
:10136800A751D8A4BAEF09F0BCEF09F0E9EF09F0EA
:10137800000E986F000E996F000E9A6F000E9B6F0B
:1013880084EF0AF0D890983799379A379B37A7AFE8
:10139800D0EF09F0D2EF09F0D3EF09F09881A7A1B7
:1013A800D8EF09F0DAEF09F0DEEF09F0D880A737B7
:1013B800E0EF09F0D890A737A651D8B4E6EF09F0C6
:1013C800E8EF09F0E9EF09F0A6079AAFEEEF09F0A8
:1013D800F0EF09F0C6EF09F0000EA56FA7AFF7EF21
:1013E80009F0F9EF09F011EF0AF0A7C0A0F07F0E9D
:1013F800A017D8B402EF0AF004EF0AF008EF0AF0D9
:10140800010EA56F11EF0AF098A10DEF0AF00FEF8A
:101418000AF011EF0AF004EF0AF0A551D8B417EF5B
:101428000AF019EF0AF044EF0AF0010E9827000EAF
:1014380099239A239B239BA124EF0AF026EF0AF015
:1014480044EF0AF098C0A0F099C0A1F09AC0A2F0A9
:101458009BC0A3F0A335A333A233A133A033A0C00C
:1014680098F0A1C099F0A2C09AF0A3C09BF0A62959
:10147800D8B441EF0AF043EF0AF044EF0AF0A62B84
:10148800A629D8B44AEF0AF04CEF0AF054EF0AF054
:10149800A651D8A452EF0AF054EF0AF066EF0AF00A
:1014A800000E986F000E996F000E9A6F000E9B6FDA
:1014B800A651D8A462EF0AF064EF0AF066EF0AF0CA
:1014C800000EA46FA6A16BEF0AF06DEF0AF070EFA3
:1014D8000AF09A8F71EF0AF09A9FD890A6319B6F05
:1014E800A4AF79EF0AF07BEF0AF07CEF0AF09B8F4C
:1014F80098C098F099C099F09AC09AF09BC09BF058
:10150800120000018251800B8B6F82518225916FEE
:1015180081AF91EF0AF093EF0AF094EF0AF091810E
:101528009151D8B49AEF0AF09CEF0AF0AFEF0AF0A5
:101538009129D8A4A2EF0AF0A4EF0AF0ACEF0AF0C0
:10154800000E7F6F000E806F000E816F000E826F9D
:10155800818FB7EF0AF0000E7F6F000E806F000ECC
:10156800816F000E826F8651800B8B1B86518625FA
:101578008C6F85AFC2EF0AF0C4EF0AF0C5EF0AF02E
:101588008C818C51D8B4CBEF0AF0CDEF0AF0E0EFA4
:101598000AF08C29D8A4D3EF0AF0D5EF0AF0DDEFD2
:1015A8000AF0000E836F000E846F000E856F000E28
:1015B800866F858FE8EF0AF0000E836F000E846F48
:1015C800000E856F000E866F8C51D8B4EEEF0AF0CE
:1015D800F0EF0AF0F8EF0AF09151D8A4F6EF0AF00C
:1015E800F8EF0AF002EF0BF0000E7F6F000E806F2D
:1015F800000E816F000E826F9AEF0CF085517F0309
:10160800F3CF96F0F4CF97F096518D6F8E6B8F6B6A
:10161800906B9751926F936B946B956B8451800389
:10162800F3CF96F0F4CF97F096518D27000E8E23C6
:101638008F23902397519227000E93239423952369
:1016480083518103F3CF96F0F4CF97F096518D270D
:10165800000E8E238F23902397519227000E9323F9
:10166800942395238FC090F08EC08FF08DC08EF09C
:101678008D6B83518003F3CF96F0F4CF97F096519A
:101688008D2797518E23000E8F23000E90238451AF
:101698007F03F3CF96F0F4CF97F096518D279751AB
:1016A8008E23000E8F23000E90238FC090F08EC0E3
:1016B8008FF08DC08EF08D6B83517F03F3CF96F042
:1016C800F4CF97F096518D2797518E23000E8F23D4
:1016D800000E902385518003F3CF96F0F4CF97F056
:1016E8009651922797519323000E9423000E952329
:1016F80084518103F3CF96F0F4CF97F09651922757
:1017080097519323000E9423000E9523855181034E
:10171800F3CF96F0F4CF97F09651876F9751886F73
:10172800896B8A6B89C08AF088C089F087C088F085
:10173800876B8751922788519323895194238A5123
:1017480095238DC087F08EC088F08FC089F090C037
:101758008AF0190EB5EF0BF0D8908A3389338833A5
:101768008733E82EB0EF0BF08751922788519323E7
:10177800895194238A5195238FC090F08EC08FF0A1
:101788008DC08EF08D6B8C5191C087F0886B872748
:10179800000E8823820E8725966FFF0E8821976F8B
:1017A800EBEF0BF0D890923793379437953790AF8B
:1017B800E0EF0BF0E2EF0BF0E3EF0BF09281D89043
:1017C8008D378E378F3790379607D8A0970794AF05
:1017D800F0EF0BF0F2EF0BF0D6EF0BF0000E8C6F82
:1017E80090AFF9EF0BF0FBEF0BF01FEF0CF0FF0ED3
:1017F8008D15876FFF0E8E15886FFF0E8F15896FF9
:101808007F0E90158A6F8751881189118A11D8B473
:1018180010EF0CF012EF0CF016EF0CF0010E8C6FBD
:101828001FEF0CF092A11BEF0CF01DEF0CF01FEF57
:101838000CF012EF0CF08C51D8B425EF0CF027EF18
:101848000CF04BEF0CF0010E9227000E932394231B
:10185800952395A132EF0CF034EF0CF04BEF0CF020
:1018680092C087F093C088F094C089F095C08AF040
:101878008A358A3389338833873387C092F088C0A2
:1018880093F089C094F08AC095F0964B972B97BF38
:1018980056EF0CF0975108E19629D8A056EF0CF0B6
:1018A80058EF0CF062EF0CF0000E926F000E936F81
:1018B800800E946F7F0E956F90EF0CF097BF6FEFCF
:1018C8000CF0975106E19605D8B06DEF0CF06FEF6C
:1018D8000CF07BEF0CF0000E926F000E936F000E71
:1018E800946F000E956F000E8B6F90EF0CF096C002
:1018F80091F0FF0E9217FF0E93177F0E9417000EAC
:10190800951791A18AEF0CF08CEF0CF08DEF0CF08D
:10191800948FD8909131956F8B51951392C07FF029
:1019280093C080F094C081F095C082F01200010E3F
:1019380001015D6F59515A11D8A4A5EF0CF0A7EF1A
:101948000CF0ABEF0CF0000E5D6F75EF0EF0000EB3
:101958005E6F000E5F6F000E606F000E616F31EFFB
:101968000EF0AC94B89659C1D9FF5AC1DAFFDECF50
:101978005BF1DDCF5CF15BC11EF05CC11FF0206A3A
:10198800216A000EC9EC13F01EC06AF01FC06BF08C
:1019980020C06CF021C06DF0000E0001666F240EAF
:1019A800676FF40E686F4A0E696F77EC0EF066C0C9
:1019B80062F167C063F168C064F169C065F1000E47
:1019C80000016A6F000E6B6F800E6C6F420E6D6FB8
:1019D80062C166F063C167F064C168F065C169F00F
:1019E80077EC0EF066C098F067C099F068C09AF07E
:1019F80069C09BF0000E00019C6F000E9D6F800E69
:101A08009E6FBF0E9F6F24EC08F098C05EF199C0DE
:101A18005FF19AC060F19BC061F154EF0EF0AC84A5
:101A2800B89659C1D9FF5AC1DAFFDECF5BF1DDCFD5
:101A38005CF15BC11EF05CC11FF0206A216A000ED8
:101A4800C9EC13F01EC06AF01FC06BF020C06CF028
:101A580021C06DF0000E0001666F240E676FF40E52
:101A6800686F4A0E696F77EC0EF066C062F167C066
:101A780063F168C064F169C065F1000E00016A6F26
:101A8800000E6B6F800E6C6F410E6D6F62C166F059
:101A980063C167F064C168F065C169F077EC0EF066
:101AA80066C098F067C099F068C09AF069C09BF06A
:101AB800000E00019C6F000E9D6F800E9E6FBF0E82
:101AC8009F6F24EC08F098C05EF199C05FF19AC04E
:101AD80060F19BC061F154EF0EF0AC94B88659C127
:101AE800D9FF5AC1DAFFDECF5BF1DDCF5CF15BC114
:101AF8001EF05CC11FF0206A216A000EC9EC13F0C9
:101B08001EC06AF01FC06BF020C06CF021C06DF0E1
:101B1800000E0001666F240E676FF40E686F4A0EA0
:101B2800696F77EC0EF066C062F167C063F168C058
:101B380064F169C065F1000E00016A6F000E6B6FF9
:101B4800800E6C6F410E6D6F62C166F063C167F005
:101B580064C168F065C169F077EC0EF066C098F072
:101B680067C099F068C09AF069C09BF0000E000148
:101B78009C6F000E9D6F800E9E6FBF0E9F6F24ECB2
:101B880008F098C05EF199C05FF19AC060F19BC0FF
:101B980061F154EF0EF0AC84B88659C1D9FF5AC12F
:101BA800DAFFDECF5BF1DDCF5CF15BC11EF05CC11B
:101BB8001FF0206A216A000EC9EC13F01EC06AF0FB
:101BC8001FC06BF020C06CF021C06DF0000E00014A
:101BD800666F240E676FF40E686F4A0E696F77ECB4
:101BE8000EF066C062F167C063F168C064F169C055
:101BF80065F1000E00016A6F000E6B6F800E6C6F4E
:101C0800400E6D6F62C166F063C167F064C168F031
:101C180065C169F077EC0EF066C098F067C099F07E
:101C280068C09AF069C09BF0000E00019C6F000E1E
:101C38009D6F800E9E6FBF0E9F6F24EC08F098C0BA
:101C48005EF199C05FF19AC060F19BC061F154EFF9
:101C58000EF0000E5D6F54EF0EF020EE0BF05951B0
:101C6800D9265A51DA22DF505B6F5C6B5C51000A4F
:101C7800D8B441EF0EF02DEF0EF05B51000AD8B446
:101C8800B5EF0CF0010AD8B413EF0DF0030AD8B47D
:101C980071EF0DF0010AD8B4CFEF0DF02DEF0EF073
:101CA8005EC151F15FC152F160C153F161C154F19C
:101CB800EBEC19F001015151AF6E5EC151F15FC1FA
:101CC80052F160C153F161C154F1EBEC19F001011B
:101CD80052C151F153C152F154C153F1546B515196
:101CE800B06E5D51120000016951800B766F695129
:101CF80069257D6F68AF83EF0EF085EF0EF086EFF4
:101D08000EF07D817D51D8B48CEF0EF08EEF0EF081
:101D1800A3EF0EF07D29D8A494EF0EF096EF0EF005
:101D28009EEF0EF0000E666F000E676F000E686F74
:101D3800000E696F688F000E696FABEF0EF0000E32
:101D4800666F000E676F000E686F000E696F6D5149
:101D5800800B761B6D516D257E6F6CAFB6EF0EF064
:101D6800B8EF0EF0B9EF0EF07E817E51D8B4BFEF18
:101D78000EF0C1EF0EF0D6EF0EF07E29D8A4C7EF13
:101D88000EF0C9EF0EF0D1EF0EF0000E6A6F000EE4
:101D98006B6F000E6C6F000E6D6F6C8F000E6D6FA9
:101DA800DEEF0EF0000E6A6F000E6B6F000E6C6FA8
:101DB800000E6D6F6A516B116C116D11D8A4E7EFAD
:101DC8000EF0E9EF0EF001EF0FF0000E666F000E57
:101DD800676F000E686F000E696F800E68137F0EC4
:101DE80069137651691366C066F067C067F068C00A
:101DF80068F069C069F044EF10F07D51D8A407EF8E
:101E08000FF009EF0FF013EF0FF0000E666F000EE2
:101E1800676F000E686F000E696F44EF10F07E5117
:101E28007DC06EF06F6B6E5F000E6F5B7F0E6E2570
:101E3800776F000E6F21786F66C072F067C073F01D
:101E480068C074F069C075F0000E666F000E676FA9
:101E5800000E686F000E696F000E796F000E7A6FC2
:101E6800000E7B6F000E7C6F000E7E6F74EF0FF01C
:101E78007E51D8B442EF0FF044EF0FF05BEF0FF054
:101E8800D8907237733774377537D8906637673795
:101E9800683769377CAF53EF0FF055EF0FF056EF07
:101EA8000FF06681D89079377A377B377C376A515B
:101EB800725D6B5173596C5174596D517559D8A035
:101EC80068EF0FF06AEF0FF073EF0FF07C8D6A5137
:101ED800725F6B51735B6C51745B6D51755B7E2BDC
:101EE800190E7E657AEF0FF07CEF0FF03CEF0FF0E4
:101EF8007251731174117511D8B485EF0FF087EF13
:101F08000FF09FEF0FF079819FEF0FF0D8906637B1
:101F18006737683769377CAF94EF0FF096EF0FF0AB
:101F280097EF0FF06681D89079377A377B377C370F
:101F38007707D8A0780768AFA4EF0FF0A6EF0FF0E7
:101F48008AEF0FF0000E7E6F7CAFADEF0FF0AFEFB2
:101F58000FF0D3EF0FF0FF0E79156E6FFF0E7A15A5
:101F68006F6FFF0E7B15706F7F0E7C15716F6E5152
:101F78006F1170117111D8B4C4EF0FF0C6EF0FF0E4
:101F8800CAEF0FF0010E7E6FD3EF0FF066A1CFEF0F
:101F98000FF0D1EF0FF0D3EF0FF0C6EF0FF07E5137
:101FA800D8B4D9EF0FF0DBEF0FF0FFEF0FF0010E11
:101FB8006627000E67236823692369A1E6EF0FF0FF
:101FC800E8EF0FF0FFEF0FF066C06EF067C06FF03C
:101FD80068C070F069C071F07135713370336F3358
:101FE8006E336EC066F06FC067F070C068F071C085
:101FF80069F0774B782B78BF0AEF10F0785108E139
:102008007729D8A00AEF10F00CEF10F017EF10F0B6
:10201800000E786F7769000E666F000E676F000E0E
:10202800686F000E696F78BF24EF10F0785106E1F1
:102038007705D8B022EF10F024EF10F032EF10F04F
:10204800000E786F000E776F000E666F000E676FD8
:10205800000E686F000E696F000E766F77C07DF016
:102068007DA139EF10F03BEF10F03EEF10F0688FD4
:102078003FEF10F0689FD8907D31696FF5EF0EF053
:102088001200D1EC16F0410E1E6E000E1F6EE2EC2F
:1020980023F04BEF11F066EC28F04BEF11F01DEC3C
:1020A8001EF04BEF11F07DEC1EF04BEF11F0BDEC84
:1020B8001DF04BEF11F09AEC1FF04BEF11F0DDEC37
:1020C8001EF04BEF11F03DEC1FF04BEF11F03E0E00
:1020D8000001666F000E676FC4EC25F04BEF11F03E
:1020E8003E0E0001666F000E676FF7EC25F04BEFB0
:1020F80011F030063050D8A484EF10F086EF10F0BD
:1021080088EF10F0010E306EF10E596F000E5A6F05
:10211800F80E5B6F000E5C6F080E5D6F30C05EF1ED
:10212800FEEC1BF04BEF11F0302AB40E30649FEF39
:1021380010F0A1EF10F088EF10F0B40E306E88EFB9
:1021480010F02F062F50D8A4ACEF10F0AEEF10F01F
:10215800B0EF10F0010E2F6EF10E596F000E5A6F8E
:10216800F80E5B6F000E5C6F090E5D6F2FC05EF19D
:10217800FEEC1BF04BEF11F02F2AB40E2F64C7EFC3
:1021880010F0C9EF10F0B0EF10F0B40E2F6EB0EFF2
:1021980010F02E062E50D8A4D4EF10F0D6EF10F081
:1021A800D8EF10F0010E2E6EF10E596F000E5A6F17
:1021B800F80E5B6F000E5C6F0A0E5D6F2EC05EF14D
:1021C800FEEC1BF04BEF11F02E2AB40E2E64EFEF4D
:1021D80010F0F1EF10F0D8EF10F0B40E2E6ED8EF2B
:1021E80010F02D062D50D8A4FCEF10F0FEEF10F0E3
:1021F80000EF11F0010E2D6EF10E596F000E5A6F9F
:10220800F80E5B6F000E5C6F0B0E5D6F2DC05EF1FC
:10221800FEEC1BF04BEF11F02D2AB40E2D6417EFD6
:1022280011F019EF11F000EF11F0B40E2D6E00EF60
:1022380011F0380E0001606F000E616F370E626F8B
:10224800000E636F360E646F000E656F350E666F95
:10225800000E676F340E686F000E696F5AEC21F03C
:102268004BEF11F0FC0E00017F6F000E806FD50E52
:10227800816F000E826FD90E836F000E846F7AEC27
:102288001AF04BEF11F01DEC16F04BEF11F032C0C5
:1022980069F133C06AF101016A51000AD8B457EFF5
:1022A80011F04BEF11F06951000AD8B44FEF10F05C
:1022B800010AD8B453EF10F0030AD8B457EF10F05E
:1022C800010AD8B45BEF10F0070AD8B44BEF11F04D
:1022D800010AD8B44BEF11F0030AD8B45FEF10F03D
:1022E800010AD8B463EF10F00F0AD8B467EF10F002
:1022F800010AD8B44BEF11F0030AD8B44BEF11F030
:102308001A0AD8B46BEF10F0010AD8B474EF10F0C1
:10231800030AD8B47DEF10F0010AD8B498EF10F092
:10232800070AD8B4A5EF10F0010AD8B4C0EF10F02E
:10233800030AD8B4CDEF10F0010AD8B4E8EF10F0D2
:102348000F0AD8B4F5EF10F0010AD8B410EF11F065
:10235800540AD8B41DEF11F0030AD8B436EF11F0BF
:10236800010AD8B447EF11F04BEF11F043EF01F039
:10237800000E00016B6F000E6A6F60516111D8B4D6
:10238800C8EF11F0CAEF11F0D3EF11F062516311E9
:10239800D8A4D1EF11F0D3EF11F0D5EF11F0B3EFCE
:1023A80012F09EAADAEF11F0DCEF11F0D3EF11F082
:1023B80020EE09F06051D9266151DA22DFB8E7EF43
:1023C80011F0E9EF11F0F6EF11F0AE50236E246A28
:1023D80062C0D9FF63C0DAFF23C0DEFF24C0DDFF7F
:1023E800B3EF12F020EE09F06051D9266151DA22DC
:1023F800DFA801EF12F003EF12F0B3EF12F020EEB6
:1024080009F06051D9266151DA22DF30030B000947
:10241800D8A411EF12F013EF12F035EF12F0AECF8F
:102428006AF06B6BABB01BEF12F01DEF12F023EFED
:1024380012F0000E656F000E646F27EF12F0010EA8
:10244800656F000E646F64516A2765516B2362C023
:10245800D9FF63C0DAFF6AC0DEFF6BC0DDFFB3EFF0
:1024680012F020EE09F06051D9266151DA22DF30EE
:10247800030BE806D8A443EF12F045EF12F07BEF08
:1024880012F0AECF6AF06B6BABB04DEF12F04FEFBE
:1024980012F055EF12F0000E676F000E666F59EFDD
:1024A80012F0010E676F000E666F66516A2767515A
:1024B8006B236A5128EC25F0236E00016B51231819
:1024C800D8A469EF12F06BEF12F0B3EF12F0FF0E21
:1024D8006A15236E000E6B15246E62C0D9FF63C0A7
:1024E800DAFF23C0DEFF24C0DDFFB3EF12F020EED9
:1024F80009F06051D9266151DA22DF30030B020A54
:10250800D8A489EF12F08BEF12F0B3EF12F0AECF30
:102518006AF06B6BABB093EF12F095EF12F09BEF94
:1025280012F0000E696F000E686F9FEF12F0010E37
:10253800696F000E686F68516A2769516B236A5189
:10254800F4EC24F0236E00016B512318D8A4AFEFEC
:1025580012F0B1EF12F0B3EF12F06BEF12F0ABB272
:10256800B8EF12F0BAEF12F0C1EF12F0ABA4BFEF60
:1025780012F0C1EF12F0C3EF12F0AB98AB88120063
:10258800000E136E000E126E06500710D8B4CFEF6F
:1025980012F0D1EF12F0DAEF12F008500910D8A4B7
:1025A800D8EF12F0DAEF12F0DCEF12F0B8EF13F018
:1025B8009EAAE1EF12F0E3EF12F0DAEF12F020EE4C
:1025C80009F00650D9260750DA22DFB8EEEF12F0EC
:1025D800F0EF12F0FDEF12F0AE500A6E0B6A08C071
:1025E800D9FF09C0DAFF0AC0DEFF0BC0DDFFB8EF74
:1025F80013F020EE09F00650D9260750DA22DFA89A
:1026080008EF13F00AEF13F0B8EF13F020EE09F01B
:102618000650D9260750DA22DF30030B0009D8A468
:1026280018EF13F01AEF13F03CEF13F0AECF12F0DF
:10263800136AABB022EF13F024EF13F02AEF13F074
:10264800000E0D6E000E0C6E2EEF13F0010E0D6EC7
:10265800000E0C6E0C5012260D50132208C0D9FF24
:1026680009C0DAFF12C0DEFF13C0DDFFB8EF13F0B8
:1026780020EE09F00650D9260750DA22DF30030B86
:10268800E806D8A44AEF13F04CEF13F081EF13F0EB
:10269800AECF12F0136AABB054EF13F056EF13F04D
:1026A8005CEF13F0000E0F6E000E0E6E60EF13F06D
:1026B800010E0F6E000E0E6E0E5012260F501322D2
:1026C800125090EC25F00A6E13500A18D8A46FEF38
:1026D80013F071EF13F0B8EF13F0FF0E12140A6E37
:1026E800000E13140B6E08C0D9FF09C0DAFF0AC028
:1026F800DEFF0BC0DDFFB8EF13F020EE09F0065047
:10270800D9260750DA22DF30030B020AD8A48FEF4C
:1027180013F091EF13F0B8EF13F0AECF12F0136A85
:10272800ABB099EF13F09BEF13F0A1EF13F0000E8D
:10273800116E000E106EA5EF13F0010E116E000E53
:10274800106E105012261150132212505CEC25F016
:102758000A6E13500A18D8A4B4EF13F0B6EF13F0AA
:10276800B8EF13F071EF13F0ABB2BDEF13F0BFEF9A
:1027780013F0C6EF13F0ABA4C4EF13F0C6EF13F0D9
:10278800C8EF13F0AB98AB8812000001606F00012E
:102798006051D8B4D2EF13F0D4EF13F0F6EF13F082
:1027A80021BEDBEF13F0D9EF13F0F6EF13F01EC0E4
:1027B80022F01FC023F020C024F021C025F0221EE3
:1027C800231E241E251E222A000E2322242225220F
:1027D80022C062F023C063F024C064F025C065F015
:1027E800FEEF13F01EC062F01FC063F020C064F05B
:1027F80021C065F01E501F1020102110D8A407EF2B
:1028080014F009EF14F013EF14F0000E1E6E000E12
:102818001F6E000E206E000E216EA4EF14F0960EAF
:10282800616F1DEF14F0612BD89065336433633307
:102838006233000E6215226E000E6315236E000EC1
:102848006415246EFE0E6515256E22502310241083
:102858002510D8A432EF14F034EF14F017EF14F069
:1028680042EF14F0612B010E6227000E63236423EC
:102878006523D8906533643363336233000E621581
:10288800226E000E6315236E000E6415246EFF0E73
:102898006515256E2250231024102510D8A457EF53
:1028A80014F059EF14F036EF14F061EF14F06107EB
:1028B800D890623763376437653764BF66EF14F0C2
:1028C80068EF14F070EF14F0020E61616EEF14F00F
:1028D80070EF14F05BEF14F061B175EF14F077EF5F
:1028E80014F078EF14F0649FD890613361C022F03F
:1028F800236A246A256A22C025F0246A236A226A88
:102908002250621323506313245064132550651317
:102918006051D8B492EF14F094EF14F09CEF14F0D7
:1029280021BE9BEF14F099EF14F09CEF14F0658F23
:1029380062C01EF063C01FF064C020F065C021F0C3
:102948001200000E0101636F000E626F59515A1197
:10295800D8A4B1EF14F0B3EF14F0B5EF14F068EFAA
:1029680015F0000E00016A6F000E6B6FC80E6C6FD9
:10297800420E6D6F01015B511E6E1F6A206A216A4B
:10298800010EC9EC13F01EC066F01FC067F020C02E
:1029980068F021C069F077EC0EF066C083F067C07C
:1029A80084F068C085F069C086F0CB5001015C6F87
:1029B8005D6B010E5C27000E5D235CC11EF05DC1DE
:1029C8001FF0000E1FBEFF0E206E216E010EC9EC17
:1029D80013F01EC07FF01FC080F020C081F021C01E
:1029E80082F085EC0AF07FC05EF180C05FF181C0A3
:1029F80060F182C061F1000E0001836F000E846FE8
:102A0800800E856F400E866F5EC17FF05FC180F0DB
:102A180060C181F061C182F085EC0AF07FC051F19C
:102A280080C052F181C053F182C054F1EBEC19F02F
:102A380051C162F152C163F159C1D9FF5AC1DAFFDC
:102A4800DF50D8A42AEF15F02CEF15F045EF15F05C
:102A580062C15CF1030E01015C175C3BBD505C195F
:102A6800CF0B5C19BD6E62C15CF163C15DF1D8909A
:102A78005D335C33D8905D335C335C51BE6E68EF78
:102A880015F059C1D9FF5AC1DAFFDE04D8A44FEFB7
:102A980015F051EF15F068EF15F062C15CF1030E07
:102AA80001015C175C3BBA505C19CF0B5C19BA6E1C
:102AB80062C15CF163C15DF1D8905D335C33D8903D
:102AC8005D335C335C51BB6E1200010E256E21C074
:102AD800D9FF22C0DAFFDF50D8A475EF15F077EFE1
:102AE80015F0C2EF15F09BEF15F0BD50F00B08097B
:102AF800BD6E15EF16F0BD50F00B0909BD6E15EF50
:102B080016F0BD50F00B0209BD6E15EF16F0BD5062
:102B1800F00B0A09BD6E15EF16F0BD50F00B0B094E
:102B2800BD6E15EF16F0000E256E15EF16F020EEAF
:102B380002F02150D9262250DA22DF50236E246A6F
:102B48002450000AD8B4ABEF15F097EF15F02350D6
:102B5800020AD8B485EF15F00A0AD8B479EF15F04F
:102B6800010AD8B47FEF15F0030AD8B48BEF15F03B
:102B7800010AD8B491EF15F097EF15F021C0D9FFED
:102B880022C0DAFFDE04D8A4CCEF15F0CEEF15F0A2
:102B980015EF16F0EEEF15F0BA50F00B0809BA6E03
:102BA80015EF16F0BA50F00B0909BA6E15EF16F0CA
:102BB800BA50F00B0209BA6E15EF16F0BA50F00BC6
:102BC8000A09BA6E15EF16F0BA50F00B0B09BA6E77
:102BD80015EF16F020EE02F02150D9262250DA2205
:102BE800DF50236E246A2450000AD8B4FEEF15F093
:102BF80097EF15F02350020AD8B4DCEF15F00A0A53
:102C0800D8B4D0EF15F0010AD8B4D6EF15F0030AFE
:102C1800D8B4E2EF15F0010AD8B4E8EF15F097EF51
:102C280015F021C01EF022C01FF0AAEC23F0255099
:102C38001200010E256E9D9A400E1E6E000E1F6E2C
:102C4800010E206E54EC19F0B2EF16F00A0E0001D6
:102C58006C6F010E6D6F390E6E6F000E6F6F89EC21
:102C680024F0240E3918D8A43CEF16F03EEF16F0E5
:102C7800B2EF16F0AAEF16F00A0E00016C6F010E03
:102C88006D6F390E6E6F000E6F6F89EC24F02C0E8D
:102C98003918D8A452EF16F054EF16F0AAEF16F030
:102CA8002B2A030E2B18D8A45CEF16F05EEF16F053
:102CB80080EF16F0000E2A6E0A0E00016C6F010EEE
:102CC8006D6F440E2A246E6F6F6B010E6F2389ECB3
:102CD80024F02A2A430E2A24D96EDA6A010EDA224F
:102CE8002C0EDE18D8A47BEF16F07DEF16F060EFFF
:102CF80016F02B2AAAEF16F0050E2B18D8A487EF8A
:102D080016F089EF16F0AAEF16F0000E2A6E0A0EDA
:102D180000016C6F010E6D6F370E2A246E6F6F6B9A
:102D2800010E6F2389EC24F02A2A360E2A24D96E44
:102D3800DA6A010EDA222C0EDE18D8A4A6EF16F0F5
:102D4800A8EF16F08BEF16F0000E256E2550D8A4CC
:102D5800B0EF16F0B2EF16F040EF16F02550D8A4F9
:102D6800B8EF16F0BAEF16F02AEF16F0150E0001BC
:102D7800716F4B0E706FBE0EE82EFED7702FFCD70A
:102D8800712FFAD700F0400E1E6E000E1F6E000E57
:102D9800206E54EC19F09D8A1200410E0001666FF6
:102DA800000E676F16EC27F0400E0001666F000EEC
:102DB800676F16EC27F03E0E0001696F000E6A6F10
:102DC8006CEC23F026EC23F0F10E0101596F000E94
:102DD8005A6FF80E5B6F000E5C6F000E5D6F5A0E37
:102DE8005E6FFEEC1BF0F10E0101596F000E5A6F79
:102DF800F80E5B6F000E5C6F010E5D6F5A0E5E6F12
:102E0800FEEC1BF0F10E0101596F000E5A6FF80E1F
:102E18005B6F000E5C6F020E5D6F5A0E5E6FFEEC0C
:102E28001BF0F10E0101596F000E5A6FF80E5B6F1F
:102E3800000E5C6F030E5D6F5A0E5E6FFEEC1BF0AA
:102E4800F10E0101596F000E5A6FF80E5B6F000EFC
:102E58005C6F040E5D6F000E5E6FFEEC1BF0F10EF2
:102E68000101596F000E5A6FF80E5B6F000E5C6F10
:102E7800050E5D6F000E5E6FFEEC1BF0F10E01019A
:102E8800596F000E5A6FF80E5B6F000E5C6F060EDE
:102E98005D6F000E5E6FFEEC1BF0F10E0101596FC5
:102EA800000E5A6FF80E5B6F000E5C6F070E5D6FB9
:102EB800000E5E6FFEEC1BF0FC0E0001696F000E49
:102EC8006A6FD50E6B6F000E6C6FEBEC26F00A0E76
:102ED8000101666F010E676FBDEC26F01200010E4E
:102EE8000001606F1E501F10D8B47DEF17F07FEF00
:102EF80017F08EEF17F01EC0D9FF1FC0DAFFDF50A2
:102F0800070B206E070E20648CEF17F08EEF17F07A
:102F1800F1EF17F0000E606F12EF18F01EC0D9FF26
:102F28001FC0DAFFDF50070B206E010E216E202A2A
:102F3800A0EF17F0D8902136202E9EEF17F02150E1
:102F4800FF0A226E1EC0D9FF1FC0DAFFDF30E83249
:102F5800E832070B236E2350020DE70EF324D96ED7
:102F6800000EF420DA6EDECF24F0DDCF25F024C089
:102F7800D9FF25C0DAFF2250DF1612EF18F01EC065
:102F8800D9FF1FC0DAFFDF50070B206E010E216E3C
:102F9800202AD1EF17F0D8902136202ECFEF17F046
:102FA8001EC0D9FF1FC0DAFFDF30E832E832070B56
:102FB800226E2250020DE70EF324D96E000EF42083
:102FC800DA6EDECF23F0DDCF24F023C0D9FF24C092
:102FD800DAFF2150DF1212EF18F01EC0D9FF1FC010
:102FE800DAFFDFBCFAEF17F0FDEF17F0010EFEEF86
:102FF80017F0000E206E216A2150000AD8B407EF9E
:1030080018F08EEF17F02050000AD8B492EF17F09E
:10301800010AD8B4C3EF17F08EEF17F00001605122
:103028001200010E256E21C0D9FF22C0DAFFDF5041
:10303800D8A421EF18F023EF18F064EF18F041EF4F
:1030480018F0BD50F00B0409BD6EADEF18F0BD507F
:10305800F00B0509BD6EADEF18F0BD50F00B060979
:10306800BD6EADEF18F0BD50F00B0709BD6EADEFAA
:1030780018F0000E256EADEF18F020EE02F021508A
:10308800D9262250DA22DF50236E246A2450000AFF
:10309800D8B451EF18F03DEF18F02350040AD8B413
:1030A80025EF18F0010AD8B42BEF18F0030AD8B4AA
:1030B80031EF18F0010AD8B437EF18F03DEF18F0E7
:1030C80021C0D9FF22C0DAFFDE04D8A46EEF18F0C1
:1030D80070EF18F0ADEF18F08AEF18F0BA50F00B57
:1030E8000409BA6EADEF18F0BA50F00B0509BA6EC4
:1030F800ADEF18F0BA50F00B0609BA6EADEF18F044
:10310800BA50F00B0709BA6EADEF18F020EE02F0D6
:103118002150D9262250DA22DF50236E246A245007
:10312800000AD8B49AEF18F03DEF18F02350040ABB
:10313800D8B472EF18F0010AD8B478EF18F0030A7F
:10314800D8B47EEF18F0010AD8B484EF18F03DEF38
:1031580018F021C01EF022C01FF0AAEC23F0255061
:10316800120001015C515D11D8A4BDEF18F0BFEF4A
:1031780018F0C1EF18F053EF19F0C69A20EE06F0D8
:103188005C51D9265D51DA22DFA0CDEF18F0CFEFE0
:1031980018F0D7EF18F05CC159F15DC15AF1F7EC9E
:1031A8001FF013EF19F020EE06F05C51D9265D519F
:1031B800DA22DFB0E2EF18F0E4EF18F013EF19F0BD
:1031C80020EE06F05C51D9265D51DA22DFA6EFEF3A
:1031D80018F0F1EF18F0F4EF18F0C58E02EF19F0BF
:1031E80020EE06F05C51D9265D51DA22DFB6FFEFFA
:1031F80018F001EF19F002EF19F0C59EC69EC69CA3
:10320800C68820EE05F05C51D9265D51DA22DF50E0
:10321800C86E5CC11EF05DC11FF076EC27F0D2ECE1
:1032280028F0010120EE06F05C51D9265D51DA2222
:10323800DFA221EF19F023EF19F026EF19F0C78E5E
:1032480034EF19F020EE06F05C51D9265D51DA22F0
:10325800DFB231EF19F033EF19F034EF19F0C79EF0
:1032680020EE06F05C51D9265D51DA22DFA43FEF4B
:1032780019F041EF19F044EF19F0C78C52EF19F02B
:1032880020EE06F05C51D9265D51DA22DFB44FEF0B
:1032980019F051EF19F052EF19F0C79CC68A1200C5
:1032A800010E216E1E501F10D8B45DEF19F05FEFAC
:1032B80019F06FEF19F01EC0D9FF1FC0DAFFDF50F9
:1032C800070B0001606F070E60656DEF19F06FEF77
:1032D80019F0D4EF19F0000E216EE9EF19F01EC0B5
:1032E800D9FF1FC0DAFFDF50070B606F010E616F57
:1032F800602B81EF19F0D8906137602F7FEF19F0BC
:1033080000016151FF0A626F1EC0D9FF1FC0DAFFBA
:10331800DF30E832E832070B636F6351020DDD0ED0
:10332800F324D96E000EF420DA6EDECF64F0DDCF20
:1033380065F064C0D9FF65C0DAFF6251DF16E9EFB6
:1033480019F01EC0D9FF1FC0DAFFDF50070B606FEE
:10335800010E616F602BB3EF19F0D8906137602FC1
:10336800B1EF19F01EC0D9FF1FC0DAFFDF30E83215
:10337800E832070B0001626F6251020DDD0EF32483
:10338800D96E000EF420DA6EDECF63F0DDCF64F084
:1033980063C0D9FF64C0DAFF6151DF12E9EF19F0A9
:1033A8002050606F616B6151000AD8B4DEEF19F0EC
:1033B8006FEF19F06051000AD8B473EF19F0010AE1
:1033C800D8B4A5EF19F06FEF19F0215012000101E0
:1033D800533554350001A96FA951D8A4F6EF19F057
:1033E800F8EF19F003EF1AF0000E0101516F000E0B
:1033F800526F000E536F000E546F79EF1AF051C1DF
:1034080055F152C156F153C157F154C158F1200E2C
:1034180014EF1AF00101D890583357335633553307
:10342800E82E0EEF1AF055510001A86F0101538FD5
:10343800FF0E5117FF0E5217FF0E5317000E5417A9
:10344800960E0001A95FA9BF2EEF1AF02CEF1AF013
:1034580046EF1AF0A951800A970FD8B036EF1AF044
:1034680038EF1AF03AEF1AF0F8EF19F00101D89096
:1034780054335333523351330001A93F3AEF1AF012
:1034880060EF1AF01F0EA9654CEF1AF04EEF1AF014
:1034980058EF1AF0F8EF19F00101D8905137523768
:1034A800533754370001A907A951D8A45EEF1AF081
:1034B80060EF1AF050EF1AF0A851D8B466EF1AF07E
:1034C80068EF1AF071EF1AF00101541F531F521FD1
:1034D800516D000E52235323542351C151F152C14F
:1034E80052F153C153F154C154F11200000E0001BE
:1034F800876F000E866F000E856F83518411D8A4E4
:1035080088EF1AF08AEF1AF08CEF1AF000EF1BF030
:10351800D59E81C01EF082C01FF0000E216E000EE5
:10352800206E01EC28F07FC022F080C023F0D5EC9B
:1035380027F0ABEF1AF0010E7F251E6E000E8021DA
:103548001F6E870E206E000E216E03EC21F0000125
:103558008751D8B4B2EF1AF0B4EF1AF09FEF1AF00F
:10356800D58EC3EF1AF0010E7F251E6E000E802146
:103578001F6E870E206E000E216E03EC21F00001F5
:103588008751D8A4CAEF1AF0CCEF1AF0B7EF1AF0A7
:10359800D59E81C01EF082C01FF0850E206E000EE1
:1035A800216E53EC20F085C01EF086C01FF0206A03
:1035B800216A000EC9EC13F01EC066F01FC067F048
:1035C80020C068F021C069F0330E00016A6F330E25
:1035D8006B6F6B0E6C6F420E6D6F77EC0EF083C0E5
:1035E800D9FF84C0DAFF000166C0DEFF67C0DEFFD6
:1035F80068C0DEFF69C0DEFF120023502410D8A483
:1036080008EF1BF00AEF1BF00CEF1BF080EF1BF02C
:10361800D59E20EE03F02350D9262450DA22DFA2CB
:1036280002D0D58C01D0D59C20EE03F02350D926AA
:103638002450DA22DFB423EF1BF025EF1BF033EF21
:103648001BF023C0D9FF24C0DAFFDF50256ED55008
:103658002518F80B2518D56ED59641EF1BF020EEEE
:1036680003F02350D9262450DA22DFA43EEF1BF0C2
:1036780040EF1BF041EF1BF0D58620EE03F02350FE
:10368800D9262450DA22DFA04CEF1BF04EEF1BF0B6
:103698005AEF1BF020EE03F02350D9262450DA22EB
:1036A800DFA602D0D58801D0D598928820EE03F005
:1036B8002350D9262450DA22DFA002D0D58A01D09F
:1036C800D59A23C01EF024C01FF020EE01F023502D
:1036D800D9262450DA22DECF20F0DDCF21F001EC0C
:1036E80028F020EE01F02350D9262450DA22DECF2C
:1036F800B2F0DDCFB3F0D58E1200000169516A1126
:10370800D8A489EF1BF08BEF1BF08DEF1BF0FDEFBA
:103718001BF069C0D9FF6AC0DAFFDF50D8A497EF61
:103728001BF099EF1BF09DEF1BF0F00EBD16ABEFF1
:103738001BF069C0D9FF6AC0DAFFDE04D8A4A7EF7E
:103748001BF0A9EF1BF0ABEF1BF0F00EBA1620EE42
:1037580001F06951D9266A51DA22DF50D8A4B7EFAF
:103768001BF0B9EF1BF0C1EF1BF069C021F06AC074
:1037780022F015EC18F0EEEF1BF020EE01F0695185
:10378800D9266A51DA22DE04D8A4CDEF1BF0CFEF98
:103798001BF0D7EF1BF069C021F06AC022F069EC7A
:1037A80015F0EEEF1BF020EE01F06951D9266A51B1
:1037B800DA22020EDE18D8A4E4EF1BF0E6EF1BF0C5
:1037C800EEEF1BF069C021F06AC022F0ADEC21F0E9
:1037D800EEEF1BF0030E00016925666F000E6A21EB
:1037E800676F16EC27F069C01EF06AC01FF0D7ECAF
:1037F80028F01200010159515A11D8A406EF1CF003
:1038080008EF1CF00AEF1CF071EF1CF05D51040D7D
:10381800F350080F616F000E00019C6F000E9D6F42
:103828004C0E9E6F430E9F6FFC0E836FA90E846F24
:10383800910E856F3F0E866F01015E511E6E1F6AE5
:10384800206A216A010EC9EC13F01EC07FF01FC068
:1038580080F020C081F021C082F085EC0AF07FC0A2
:1038680098F080C099F081C09AF082C09BF024EC57
:1038780008F098C051F199C052F19AC053F19BC019
:1038880054F1EBEC19F051C15FF152C160F159C12B
:1038980060F05AC161F05BC1D9FF5CC1DAFFDF504B
:1038A8000001626F61C163F05FC164F02AEC26F029
:1038B8000101612B59C160F05AC161F05BC1D9FFA8
:1038C8005CC1DAFFDF500001626F61C163F0010182
:1038D80060510001646F2AEC26F01200FACF14F050
:1038E800FBCF15F0D9CF16F0DACF17F0F3CF18F0D9
:1038F800F4CF19F0F2AA83EF1CF085EF1CF08EEFDD
:103908001CF0F2A48AEF1CF08CEF1CF08EEF1CF078
:10391800D9EC28F09DA293EF1CF095EF1CF096EFE0
:103928001CF09E50A0A29BEF1CF09DEF1CF09EEF98
:103938001CF0A150A0A0A3EF1CF0A5EF1CF0A6EF6F
:103948001CF0A1509DAAABEF1CF0ADEF1CF0B6EF38
:103958001CF09EAAB2EF1CF0B4EF1CF0B6EF1CF0FE
:10396800EBEC27F09DA8BBEF1CF0BDEF1CF0C6EFF9
:103978001CF09EA8C2EF1CF0C4EF1CF0C6EF1CF0B0
:10398800DAEC28F0A0A6CBEF1CF0CDEF1CF0CEEFC0
:103998001CF0A1509DA6D3EF1CF0D5EF1CF0D6EF7C
:1039A8001CF09E5019C0F4FF18C0F3FF17C0DAFFCF
:1039B80016C0D9FF15C0FBFF14C0FAFF42921100D0
:1039C80006500710D8A4EBEF1CF0EDEF1CF0EFEF5A
:1039D8001CF055EF1DF020EE02F00650D9260750D6
:1039E800DA22DFA6FAEF1CF0FCEF1CF053EF1DF013
:1039F80020EE02F00650D9260750DA22DF50030BDA
:103A08000009D8A40AEF1DF00CEF1DF01BEF1DF004
:103A180008C00AF009C00BF00BC00AF00B6A0A30A4
:103A2800D8A002D0AC8001D0AC9053EF1DF020EEAE
:103A380002F00650D9260750DA22DF50030BE806B9
:103A4800D8A429EF1DF02BEF1DF037EF1DF008501B
:103A580090EC25F00A6E0A30D8A002D0AC8001D0D4
:103A6800AC9053EF1DF020EE02F00650D926075017
:103A7800DA22DF50030B020AD8A445EF1DF047EF06
:103A88001DF053EF1DF008505CEC25F00A6E0A306B
:103A9800D8A002D0AC8001D0AC9053EF1DF008C084
:103AA800ADFF120001015E515F11D8B45EEF1DF049
:103AB80060EF1DF069EF1DF060516111D8A467EF48
:103AC8001DF069EF1DF06BEF1DF0BCEF1DF05EC13E
:103AD8005CF15FC15DF1B5EC18F05EC160F05FC1EB
:103AE80061F060C1D9FF61C1DAFFDF500001626F88
:103AF800FE0E636F010120EE01F06051D92661517D
:103B0800DA22DF500001646F2AEC26F05EC160F013
:103B18005FC161F060C1D9FF61C1DAFFDF50000108
:103B2800626F000E636F010120EE02F06051D9262A
:103B38006151DA22DF500001646F2AEC26F05EC181
:103B480060F05FC161F060C1D9FF61C1DAFFDF5089
:103B58000001626F010E636F010120EE03F06051F6
:103B6800D9266151DA22DF500001646F2AEC26F071
:103B78001200020E0001D46F66EC28F0F10E01016C
:103B8800596F000E5A6FF80E5B6F000E5C6F000ED7
:103B98005D6F870E5E6FFEEC1BF0F10E0101596F31
:103BA800000E5A6FF80E5B6F000E5C6F010E5D6FB2
:103BB800780E5E6FFEEC1BF0F10E0101596F000EDE
:103BC8005A6FF80E5B6F000E5C6F020E5D6F2D0E64
:103BD8005E6FFEEC1BF0F10E0101596F000E5A6F7B
:103BE800F80E5B6F000E5C6F030E5D6F1E0E5E6F4E
:103BF800FEEC1BF0FF0E226E000E236E2BEC28F05D
:103C0800FE0E226E000E236E2BEC28F0220E010110
:103C1800596F010E5A6F5F0E5B6FA5EC14F0160E0C
:103C28000101596F010E5A6F5F0E5B6FA5EC14F01E
:103C38001200030E0001D46F66EC28F0F10E0101AA
:103C4800596F000E5A6FF80E5B6F000E5C6F000E16
:103C58005D6F2D0E5E6FFEEC1BF0F10E0101596FCA
:103C6800000E5A6FF80E5B6F000E5C6F010E5D6FF1
:103C78001E0E5E6FFEEC1BF0F10E0101596F000E77
:103C88005A6FF80E5B6F000E5C6F020E5D6F870E49
:103C98005E6FFEEC1BF0F10E0101596F000E5A6FBA
:103CA800F80E5B6F000E5C6F030E5D6F780E5E6F33
:103CB800FEEC1BF0FF0E226E000E236E2BEC28F09C
:103CC800FE0E226E000E236E2BEC28F0220E010150
:103CD800596F010E5A6F5F0E5B6FA5EC14F0160E4C
:103CE8000101596F010E5A6F5F0E5B6FA5EC14F05E
:103CF8001200010E0001D46F66EC28F0F10E0101EC
:103D0800596F000E5A6FF80E5B6F000E5C6F000E55
:103D18005D6F5A0E5E6FFEEC1BF0F10E0101596FDC
:103D2800000E5A6FF80E5B6F000E5C6F010E5D6F30
:103D38005A0E5E6FFEEC1BF0F10E0101596F000E7A
:103D48005A6FF80E5B6F000E5C6F020E5D6F5A0EB5
:103D58005E6FFEEC1BF0F10E0101596F000E5A6FF9
:103D6800F80E5B6F000E5C6F030E5D6F5A0E5E6F90
:103D7800FEEC1BF0FF0E226E000E236E2BEC28F0DB
:103D8800FE0E226E000E236E2BEC28F0220E01018F
:103D9800596F010E5A6F5F0E5B6FA5EC14F0160E8B
:103DA8000101596F010E5A6F5F0E5B6FA5EC14F09D
:103DB8001200040E0001D46F66EC28F0F10E010128
:103DC800596F000E5A6FF80E5B6F000E5C6F000E95
:103DD8005D6F5A0E5E6FFEEC1BF0F10E0101596F1C
:103DE800000E5A6FF80E5B6F000E5C6F010E5D6F70
:103DF8005A0E5E6FFEEC1BF0F10E0101596F000EBA
:103E08005A6FF80E5B6F000E5C6F020E5D6F5A0EF4
:103E18005E6FFEEC1BF0F10E0101596F000E5A6F38
:103E2800F80E5B6F000E5C6F030E5D6F5A0E5E6FCF
:103E3800FEEC1BF0FF0E226E000E236E3FEC28F006
:103E4800FE0E226E000E236E3FEC28F0220E0101BA
:103E5800596F010E5A6F5F0E5B6FA5EC14F0160ECA
:103E68000101596F010E5A6F5F0E5B6FA5EC14F0DC
:103E7800120066EC28F0F10E0101596F000E5A6F1E
:103E8800F80E5B6F000E5C6F000E5D6F870E5E6F45
:103E9800FEEC1BF0F10E0101596F000E5A6FF80E7F
:103EA8005B6F000E5C6F010E5D6F780E5E6FFEEC4F
:103EB8001BF0F10E0101596F000E5A6FF80E5B6F7F
:103EC800000E5C6F020E5D6F2D0E5E6FFEEC1BF038
:103ED800F10E0101596F000E5A6FF80E5B6F000E5C
:103EE8005C6F030E5D6F1E0E5E6FFEEC1BF0FF0E27
:103EF800226E000E236E3FEC28F0FE0E226E000E9E
:103F0800236E3FEC28F0220E0101596F010E5A6F03
:103F18005F0E5B6FA5EC14F0160E0101596F010ED0
:103F28005A6F5F0E5B6FA5EC14F0120066EC28F078
:103F3800F10E0101596F000E5A6FF80E5B6F000EFB
:103F48005C6F000E5D6F2D0E5E6FFEEC1BF0F10EC8
:103F58000101596F000E5A6FF80E5B6F000E5C6F0F
:103F6800010E5D6F1E0E5E6FFEEC1BF0F10E01017F
:103F7800596F000E5A6FF80E5B6F000E5C6F020EE1
:103F88005D6F870E5E6FFEEC1BF0F10E0101596F3D
:103F9800000E5A6FF80E5B6F000E5C6F030E5D6FBC
:103FA800780E5E6FFEEC1BF0FF0E226E000E236E85
:103FB8003FEC28F0FE0E226E000E236E3FEC28F038
:103FC800220E0101596F010E5A6F5F0E5B6FA5EC4F
:103FD80014F0160E0101596F010E5A6F5F0E5B6FD8
:103FE800A5EC14F01200010159515A11D8A4FFEFA1
:103FF8001FF001EF20F003EF20F052EF20F020EE49
:1040080004F05951D9265A51DA22DF505B6FC65055
:104018005B19F00B5B19C66E000E00019C6F000E59
:104028009D6F800E9E6FBF0E9F6F59C1D9FF5AC1F9
:10403800DAFFDECF1EF0DECF1FF0DECF20F0DECFBE
:1040480021F0000EC9EC13F01EC06AF01FC06BF01F
:1040580020C06CF021C06DF0000E0001666F240EC8
:10406800676FF40E686F490E696F77EC0EF066C0E3
:1040780098F067C099F068C09AF069C09BF024EC8A
:1040880008F098C051F199C052F19AC053F19BC001
:1040980054F1EBEC19F001015151C86E1200000EF9
:1040A8000001616F000E606F1E501F10D8B45FEFE3
:1040B80020F061EF20F06AEF20F020502110D8A402
:1040C80068EF20F06AEF20F06CEF20F0ABEF20F003
:1040D80020EE03F01E50D9261F50DA22DFB277EF08
:1040E80020F079EF20F091EF20F0D6CF61F0D7CF14
:1040F80060F06051236E226A6151246E256A225055
:1041080024262350252220C0D9FF21C0DAFF24C04D
:10411800DEFF25C0DDFFABEF20F020EE03F01E50E0
:10412800D9261F50DA22DFA29CEF20F09EEF20F064
:104138006AEF20F0D6CF61F06151226E236A20C069
:10414800D9FF21C0DAFF22C0DEFF23C0DDFF120045
:10415800010E236E21502210D8A4B5EF20F0B7EF3E
:1041680020F0BBEF20F0000E236E01EF21F020EECF
:1041780006F02150D9262250DA22DFA6C6EF20F019
:10418800C8EF20F0F1EF20F0AB9821C01EF022C05C
:104198001FF0FEEC21F0236E20EE06F02150D92608
:1041A8002250DA22DFA8DBEF20F0DDEF20F0E0EF8D
:1041B80020F0AB8CEEEF20F020EE06F02150D9264F
:1041C8002250DA22DFB8EBEF20F0EDEF20F0EEEF2F
:1041D80020F0AB9CAB8801EF21F020EE06F02150D7
:1041E800D9262250DA22DFB6FCEF20F0FEEF20F0CD
:1041F80001EF21F0AB9801EF21F0235012001E507F
:104208001F10D8B40AEF21F00CEF21F025EF21F0B0
:1042180020502110D8B413EF21F015EF21F025EF2D
:1042280021F01EC0D9FF1FC0DAFFDF50070B0001C5
:10423800606F070E606523EF21F025EF21F027EF6F
:1042480021F059EF21F01EC0D9FF1FC0DAFFDF505F
:10425800070B606F1EC0D9FF1FC0DAFFDF30E832DE
:10426800E832070B616F6151020D000EF324D96E1D
:10427800010EF420DA6EDECF62F0DDCF63F062C0AB
:10428800D9FF63C0DAFFDF50646F602B4EEF21F077
:10429800D8906433602F4CEF21F000016451010B7A
:1042A80020C0D9FF21C0DAFFDF6E12000001605183
:1042B8006111D8B462EF21F064EF21F088EF21F0AA
:1042C80062516311D8B46BEF21F06DEF21F088EFE4
:1042D80021F064516511D8B474EF21F076EF21F024
:1042E80088EF21F066516711D8B47DEF21F07FEF98
:1042F80021F088EF21F068516911D8A486EF21F0E8
:1043080088EF21F08AEF21F0ACEF21F08BEC28F058
:10431800BFEC27F060C01EF061C01FF097EC22F0E0
:1043280062C01EF063C01FF097EC22F064C01EF05C
:1043380065C01FF097EC22F066C01EF067C01FF042
:1043480097EC22F068C01EF069C01FF097EC22F0CD
:10435800120020EE09F02150D9262250DA22DF502F
:10436800CB6E090E21241E6E000E22201F6E52EC09
:1043780024F021C0D9FF22C0DAFFDF50D8A4C7EF4C
:1043880021F0C9EF21F0DEEF21F020EE02F02150FC
:10439800D9262250DA220C0EDE18D8A4D6EF21F046
:1043A800D8EF21F0FDEF21F0BD50F00B0C09BD6EE8
:1043B800FDEF21F021C0D9FF22C0DAFFDE04D8A426
:1043C800E8EF21F0EAEF21F0FDEF21F020EE02F016
:1043D8002150D9262250DA220C0EDE18D8A4F7EF85
:1043E80021F0F9EF21F0FDEF21F0BA50F00B0C09A4
:1043F800BA6E1200010E206E1E501F10D8A407EFCF
:1044080022F009EF22F00DEF22F0000E206E4DEFA2
:1044180022F09D9A1EC0D9FF1FC0DAFFDECF28F018
:10442800DDCF29F020EE04F01E50D9261F50DA22E5
:10443800DECFD0F0DDCFD1F020EE02F01E50D9262D
:104448001F50DA22DECFD2F0DDCFD3F0D08E20EEAF
:1044580006F01E50D9261F50DA22DFA036EF22F0D0
:1044680038EF22F03CEF22F09F8AF28E4CEF22F0D8
:1044780020EE06F01E50D9261F50DA22DFB047EF93
:1044880022F049EF22F04CEF22F09F9AF28EF28C44
:104498009D8A20501200010E206E1E501F10D8A4B5
:1044A80058EF22F05AEF22F05EEF22F0000E206E55
:1044B80095EF22F01EC0D9FF1FC0DAFFDFA467EF17
:1044C80022F069EF22F087EF22F0AC9A1EC0D9FFE4
:1044D8001FC0DAFFDFA673EF22F075EF22F078EF46
:1044E80022F0AC8C84EF22F01EC0D9FF1FC0DAFF87
:1044F800DFB681EF22F083EF22F084EF22F0AC9C4C
:10450800AC8A95EF22F01EC0D9FF1FC0DAFFDFB4D6
:1045180090EF22F092EF22F095EF22F0AC9A95EF0F
:1045280022F0205012001EC0D9FF1FC0DAFF000E73
:10453800DF6E000E216E83AEA4EF22F0A6EF22F00C
:104548009FEF22F01A0EE82EFED700F000F083AE9F
:10455800B0EF22F0B2EF22F0C1EF22F01EC0D9FF77
:104568001FC0DAFFDF50206ED88020341EC0D9FF6C
:104578001FC0DAFFDF6ECEEF22F01EC0D9FF1FC0CA
:10458800DAFFDF50206ED89020341EC0D9FF1FC03C
:10459800DAFFDF6E83BED3EF22F0D5EF22F0CEEF45
:1045A80022F0212A070E2164DCEF22F0DEEF22F050
:1045B8009FEF22F01200500EF66E4F0EF76E000EAF
:1045C800F86E01EE00F010EE2EF00900F5CFEEFFC8
:1045D800E550E150FAE1F20EF66E500EF76E000E5D
:1045E800F86E00EEDDF010EE23F00900F5CFEEFFD7
:1045F800E550E150FAE19C0EF66E510EF76E000E92
:10460800F86E00EE3AF010EE08F00900F5CFEEFF74
:10461800E550E150FAE101EE2EF0230EEE6AE806CD
:10462800FDE100EEAAF0330EEE6AE806FDE100EEC9
:1046380026F0140EEE6AE806FDE14290429200016F
:1046480045EF10F0FF0E0001696F000E6A6F53EC22
:1046580028F0FE0E0001696F000E6A6F53EC28F017
:10466800220E0001696F010E6A6F81EC1BF0160EB5
:104678000001696F010E6A6F81EC1BF0220E0101C7
:10468800596F010E5A6F000E5B6FA5EC14F0160EF1
:104698000101596F010E5A6F000E5B6FA5EC14F003
:1046A800220E1E6E010E1F6E8FEC26F0160E1E6E69
:1046B800010E1F6E8FEC26F0F10E01015E6F000EE9
:1046C8005F6FF80E606F000E616F56EC1DF0120000
:1046D800000169516A11D8A474EF23F076EF23F032
:1046E80078EF23F0A9EF23F069C066F06AC067F09D
:1046F80016EC27F0010E00016925666F000E6A218D
:10470800676F16EC27F0010E000169251E6E000E7A
:104718006A211F6E73EC17F069C01EF06AC01FF0A3
:1047280073EC17F069C01EF06AC01FF0000E206E0F
:1047380054EC19F0010E000169251E6E000E6A2165
:104748001F6E000E206E54EC19F0120020EE04F0DB
:104758001E50D9261F50DA22DF50D8A4B6EF23F016
:10476800B8EF23F0BCEF23F0B196B18CE1EF23F062
:1047780020EE04F01E50D9261F50DA22DE04D8A4F9
:10478800C8EF23F0CAEF23F0CEEF23F0B186B19C37
:10479800E1EF23F020EE04F01E50D9261F50DA2254
:1047A800020EDE18D8A4DBEF23F0DDEF23F0E1EFF3
:1047B80023F0B196B19CE1EF23F012001E501F10B8
:1047C800D8A4E9EF23F0EBEF23F0EDEF23F019EF96
:1047D80024F01EC0D9FF1FC0DAFFDF50070B206E80
:1047E800010E216E202AFBEF23F0D8902136202ECF
:1047F800F9EF23F01EC0D9FF1FC0DAFFDF30E8321F
:10480800E832070B226E2250020DDD0EF324D96E1A
:10481800000EF420DA6EDECF23F0DDCF24F023C0C3
:10482800D9FF24C0DAFF2150DF1A1200015002100C
:10483800D8A421EF24F023EF24F025EF24F051EF42
:1048480024F001C0D9FF02C0DAFFDF50070B036E66
:10485800010E046E032A33EF24F0D8900436032E99
:1048680031EF24F001C0D9FF02C0DAFFDF30E832AF
:10487800E832070B056E0550020DDD0EF324D96EE4
:10488800000EF420DA6EDECF06F0DDCF07F006C0AA
:10489800D9FF07C0DAFF0450DF1A12001E501F109C
:1048A800D8A459EF24F05BEF24F05DEF24F088EFF3
:1048B80024F0CA9420EE01F01E50D9261F50DA22A7
:1048C800DF50206ECA502018FC0B2018CA6E20EE4C
:1048D80002F01E50D9261F50DA22DF50206E2046E3
:1048E80020462046CA502018870B2018CA6E1EC0C2
:1048F800D9FF1FC0DAFFDF50CC6E1EC0D9FF1FC022
:10490800DAFFDF50316ECA84120000016C516D115C
:10491800D8B491EF24F093EF24F09CEF24F06E517B
:104928006F11D8A49AEF24F09CEF24F09EEF24F0A6
:10493800AFEF24F09EAAA3EF24F0A5EF24F09EEF9A
:1049480024F06CC060F06DC061F06EC062F06FC0A2
:1049580063F0BCEC11F0ABB2B4EF24F0B6EF24F086
:10496800BDEF24F0ABA4BBEF24F0BDEF24F0BFEF04
:1049780024F0AB98AB8812001E501F10D8B4C7EFB4
:1049880024F0C9EF24F0D2EF24F021502210D8A44B
:10499800D0EF24F0D2EF24F0D4EF24F0F3EF24F09A
:1049A80020C0C9FFC7B0DBEF24F0DDEF24F0D6EF5D
:1049B80024F09E96C5BCE3EF24F0E5EF24F0EDEF7C
:1049C80024F021C0D9FF22C0DAFF000EDF6EF3EF1A
:1049D80024F021C0D9FF22C0DAFF010EDF6E1200D9
:1049E800206E000E216E000E226E000E226E22C076
:1049F8001EF0010E1F6E1E2A04EF25F0D8901F36F8
:104A08001E2E02EF25F01F5020140009D8B40FEF16
:104A180025F011EF25F012EF25F0212A222A070EA2
:104A2800226419EF25F01BEF25F0FBEF24F0212A73
:104A380021B021EF25F023EF25F026EF25F0010E18
:104A480027EF25F0000E1200206E000E216E000EDA
:104A5800226E000E226E22C01EF0010E1F6E1E2A4C
:104A680038EF25F0D8901F361E2E36EF25F01F5050
:104A780020140009D8B443EF25F045EF25F046EFA0
:104A880025F0212A222A070E22644DEF25F04FEF48
:104A980025F02FEF25F0212A21A055EF25F057EF1B
:104AA80025F05AEF25F0010E5BEF25F0000E1200FD
:104AB800036E000E046E000E056E000E056E05C036
:104AC80001F0010E026E012A6CEF25F0D890023633
:104AD800012E6AEF25F0025003140009D8B477EFCD
:104AE80025F079EF25F07AEF25F0042A052A070E3C
:104AF800056481EF25F083EF25F063EF25F0042AA4
:104B080004B089EF25F08BEF25F08EEF25F0010E2C
:104B18008FEF25F0000E1200036E000E046E000EDB
:104B2800056E000E056E05C001F0010E026E012A29
:104B3800A0EF25F0D8900236012E9EEF25F0025006
:104B480003140009D8B4ABEF25F0ADEF25F0AEEFB4
:104B580025F0042A052A070E0564B5EF25F0B7EFFE
:104B680025F097EF25F0042A04A0BDEF25F0BFEF4C
:104B780025F0C2EF25F0010EC3EF25F0000E12005C
:104B8800000166516711D8A4CCEF25F0CEEF25F0CF
:104B9800D0EF25F0F6EF25F0010E66251E6E000E0B
:104BA80067211F6E010E206E54EC19F0000E0001F3
:104BB800696F000E686F66C022F067C023F05DEC75
:104BC80026F00001684B692B69BFF4EF25F06951A5
:104BD80009E10A0E685DD8A0F4EF25F0F6EF25F09C
:104BE800DFEF25F01200000166516711D8A4FFEF2E
:104BF80025F001EF26F003EF26F029EF26F0010E4D
:104C080066251E6E000E67211F6E000E206E54EC86
:104C180019F0000E0001696F000E686F66C022F07F
:104C280067C023F05DEC26F00001684B692B69BF73
:104C380027EF26F0695109E10A0E685DD8A027EF31
:104C480026F029EF26F012EF26F01200060E236E4A
:104C580060C01EF061C01FF05AEC27F060C01EF063
:104C680061C01FF062C020F0230E216E000E226E7C
:104C7800C0EC24F060C01EF061C01FF063C020F0DB
:104C8800230E216E000E226EC0EC24F060C01EF0D0
:104C980061C01FF064C020F0230E216E000E226E4A
:104CA800C0EC24F060C01EF061C01FF03EEC27F09D
:104CB800120022502310D8A464EF26F066EF26F0E5
:104CC80068EF26F08EEF26F022C01EF023C01FF0FA
:104CD800010E206E54EC19F0060E256E130E246E8C
:104CE800AE0EE82EFED7242EFCD7252EFAD722C0EA
:104CF8001EF023C01FF0000E206E54EC19F0060EB3
:104D0800256E130E246EAE0EE82EFED7242EFCD789
:104D1800252EFAD712001E501F10D8A496EF26F0A1
:104D280098EF26F09AEF26F0BCEF26F01EC0D9FFC8
:104D38001FC0DAFFDF50D8A4A4EF26F0A6EF26F0B4
:104D4800ACEF26F0BD50F00B0C09BD6EBCEF26F0A1
:104D58001EC0D9FF1FC0DAFFDE04D8A4B6EF26F0C4
:104D6800B8EF26F0BCEF26F0BA50F00B0C09BA6E7B
:104D78001200010166516711D8A4C5EF26F0C7EFEC
:104D880026F0C9EF26F0EAEF26F0AB9E66C159F18E
:104D980067C15AF19BEC0CF00101686FAC98948CD8
:104DA800020E66251E6E000E67211F6E4FEC22F064
:104DB80001016817948E030E6625216E000E672187
:104DC800226EACEC20F001016817AB8E12000001D6
:104DD80069516A11D8B4F3EF26F0F5EF26F0FEEF2B
:104DE80026F06B516C11D8A4FCEF26F0FEEF26F0EC
:104DF80000EF27F015EF27F069C066F06AC067F08A
:104E080016EC27F0010E00016925666F000E6A2175
:104E1800676F16EC27F06BC023F06CC024F001EC30
:104E28001BF01200000166516711D8A41EEF27F08D
:104E380020EF27F024EF27F0000E686F3CEF27F0F3
:104E480066C01EF067C01FF073EC17F00001686FB2
:104E580066C01EF067C01FF066C0D9FF67C0DAFFE2
:104E6800000EDFBE010E206E54EC19F00001686FD1
:104E7800685112001E501F10D8A445EF27F047EFC5
:104E880027F049EF27F059EF27F0C584C5B44FEF55
:104E980027F051EF27F04AEF27F09E96C7A857EF63
:104EA80027F059EF27F047EF27F012001E501F1088
:104EB800D8A461EF27F063EF27F065EF27F075EFCF
:104EC80027F0C580C5B06BEF27F06DEF27F066EFD0
:104ED80027F09E96C7A673EF27F075EF27F063EFCC
:104EE80027F012001E501F10D8A47DEF27F07FEF87
:104EF80027F081EF27F08EEF27F020EE04F01E5008
:104F0800D9261F50DA22DF50206EC6502018F00B29
:104F18002018C66E12000A0E066E010E076E320EBB
:104F2800086E000E096EC4EC12F00A0E0C6E010E2B
:104F38000D6E3AC00EF016EC28F0410E016E000E10
:104F4800026E1AEC24F01200800F810F820F830F7B
:104F5800840F8025041E4F00000000090000010294
:104F6800001100F4010000F9000F0002001200F423
:104F7800010000F9000F83BEC4EF27F0C6EF27F049
:104F8800BFEF27F083AECBEF27F0CDEF27F0C6EFCA
:104F980027F083BED2EF27F0D4EF27F0CDEF27F02C
:104FA800120022C01EF023C01FF0010E206E54EC28
:104FB80019F0060EE82EFED700F000F022C01EF011
:104FC80023C01FF0000E206E54EC19F01200285078
:104FD8002910D8B4F2EF27F0F4EF27F000EF28F00B
:104FE80002D800EF28F00500FA6E2850FD6E29500F
:104FF800FE6EFF6AFA5012001200010E226E1E5059
:105008001F10D8A40AEF28F00CEF28F010EF28F0B2
:10501800000E226E14EF28F02150D76E20C0D6FF64
:10502800225012000C500D10D8A41DEF28F01FEFCD
:1050380028F021EF28F02AEF28F00CC006F00DC068
:1050480007F00EC008F0096AE4EC1CF012002250C8
:105058002310D8A432EF28F034EF28F036EF28F0E8
:105068003EEF28F022C01EF023C01FF0000E206E75
:1050780054EC19F0120022502310D8A446EF28F05F
:1050880048EF28F04AEF28F052EF28F022C01EF02F
:1050980023C01FF0010E206E54EC19F0120000011D
:1050A80069516A11D8A45BEF28F05DEF28F05FEF33
:1050B80028F065EF28F069C066F06AC067F016EC62
:1050C80027F01200220E0101596F010E5A6F000ECF
:1050D8005B6FA5EC14F0160E0101596F010E5A6FA3
:1050E800000E5B6FA5EC14F01200890F8A0F8B0F6E
:1050F8008C0F8D0F920F930F940F950F960FA0861C
:0D5108000100080003807921040B4A1918EA
:10511600959E8C9E2F0E1E6EC00EE82EFED71E2E5E
:10512600FCD78C8E140EE82EFED7958E12001A6EC2
:10513600F2901A50D8B4A2EF28F0A4EF28F0A6EF08
:1051460028F0A6EF28F012001A6EF2901A50D8B482
:10515600AFEF28F0B1EF28F0B3EF28F0B3EF28F067
:1051660012001A6EF2901A50D8B4BCEF28F0BEEFB7
:1051760028F0C0EF28F0C0EF28F012001A6EF29067
:105186001A50D8B4C9EF28F0CBEF28F0CDEF28F0AD
:10519600CDEF28F012007701010F1B1A9C109486A0
:1051A60094881200F09012001200120012001200F1
:020000040020DA
:08000000FFFFFFFFFFFFFFFF00
:020000040030CA
:0E000000FF02191EFF8181FF0FC00FE00F40AD
:00000001FF
